{
	"contracts/MyToken.sol": {
		"ERC721Mint": {
			"abi": [
				{
					"inputs": [],
					"stateMutability": "nonpayable",
					"type": "constructor"
				},
				{
					"inputs": [],
					"name": "ERC721EnumerableForbiddenBatchMint",
					"type": "error"
				},
				{
					"inputs": [
						{
							"internalType": "address",
							"name": "sender",
							"type": "address"
						},
						{
							"internalType": "uint256",
							"name": "tokenId",
							"type": "uint256"
						},
						{
							"internalType": "address",
							"name": "owner",
							"type": "address"
						}
					],
					"name": "ERC721IncorrectOwner",
					"type": "error"
				},
				{
					"inputs": [
						{
							"internalType": "address",
							"name": "operator",
							"type": "address"
						},
						{
							"internalType": "uint256",
							"name": "tokenId",
							"type": "uint256"
						}
					],
					"name": "ERC721InsufficientApproval",
					"type": "error"
				},
				{
					"inputs": [
						{
							"internalType": "address",
							"name": "approver",
							"type": "address"
						}
					],
					"name": "ERC721InvalidApprover",
					"type": "error"
				},
				{
					"inputs": [
						{
							"internalType": "address",
							"name": "operator",
							"type": "address"
						}
					],
					"name": "ERC721InvalidOperator",
					"type": "error"
				},
				{
					"inputs": [
						{
							"internalType": "address",
							"name": "owner",
							"type": "address"
						}
					],
					"name": "ERC721InvalidOwner",
					"type": "error"
				},
				{
					"inputs": [
						{
							"internalType": "address",
							"name": "receiver",
							"type": "address"
						}
					],
					"name": "ERC721InvalidReceiver",
					"type": "error"
				},
				{
					"inputs": [
						{
							"internalType": "address",
							"name": "sender",
							"type": "address"
						}
					],
					"name": "ERC721InvalidSender",
					"type": "error"
				},
				{
					"inputs": [
						{
							"internalType": "uint256",
							"name": "tokenId",
							"type": "uint256"
						}
					],
					"name": "ERC721NonexistentToken",
					"type": "error"
				},
				{
					"inputs": [
						{
							"internalType": "address",
							"name": "owner",
							"type": "address"
						},
						{
							"internalType": "uint256",
							"name": "index",
							"type": "uint256"
						}
					],
					"name": "ERC721OutOfBoundsIndex",
					"type": "error"
				},
				{
					"inputs": [
						{
							"internalType": "address",
							"name": "owner",
							"type": "address"
						}
					],
					"name": "OwnableInvalidOwner",
					"type": "error"
				},
				{
					"inputs": [
						{
							"internalType": "address",
							"name": "account",
							"type": "address"
						}
					],
					"name": "OwnableUnauthorizedAccount",
					"type": "error"
				},
				{
					"anonymous": false,
					"inputs": [
						{
							"indexed": true,
							"internalType": "address",
							"name": "owner",
							"type": "address"
						},
						{
							"indexed": true,
							"internalType": "address",
							"name": "approved",
							"type": "address"
						},
						{
							"indexed": true,
							"internalType": "uint256",
							"name": "tokenId",
							"type": "uint256"
						}
					],
					"name": "Approval",
					"type": "event"
				},
				{
					"anonymous": false,
					"inputs": [
						{
							"indexed": true,
							"internalType": "address",
							"name": "owner",
							"type": "address"
						},
						{
							"indexed": true,
							"internalType": "address",
							"name": "operator",
							"type": "address"
						},
						{
							"indexed": false,
							"internalType": "bool",
							"name": "approved",
							"type": "bool"
						}
					],
					"name": "ApprovalForAll",
					"type": "event"
				},
				{
					"anonymous": false,
					"inputs": [
						{
							"indexed": true,
							"internalType": "address",
							"name": "previousOwner",
							"type": "address"
						},
						{
							"indexed": true,
							"internalType": "address",
							"name": "newOwner",
							"type": "address"
						}
					],
					"name": "OwnershipTransferred",
					"type": "event"
				},
				{
					"anonymous": false,
					"inputs": [
						{
							"indexed": false,
							"internalType": "string[]",
							"name": "",
							"type": "string[]"
						}
					],
					"name": "ScriptUpdate",
					"type": "event"
				},
				{
					"anonymous": false,
					"inputs": [
						{
							"indexed": true,
							"internalType": "address",
							"name": "from",
							"type": "address"
						},
						{
							"indexed": true,
							"internalType": "address",
							"name": "to",
							"type": "address"
						},
						{
							"indexed": true,
							"internalType": "uint256",
							"name": "tokenId",
							"type": "uint256"
						}
					],
					"name": "Transfer",
					"type": "event"
				},
				{
					"inputs": [
						{
							"internalType": "address",
							"name": "to",
							"type": "address"
						},
						{
							"internalType": "uint256",
							"name": "tokenId",
							"type": "uint256"
						}
					],
					"name": "approve",
					"outputs": [],
					"stateMutability": "nonpayable",
					"type": "function"
				},
				{
					"inputs": [
						{
							"internalType": "address",
							"name": "owner",
							"type": "address"
						}
					],
					"name": "balanceOf",
					"outputs": [
						{
							"internalType": "uint256",
							"name": "",
							"type": "uint256"
						}
					],
					"stateMutability": "view",
					"type": "function"
				},
				{
					"inputs": [
						{
							"internalType": "uint256",
							"name": "tokenId",
							"type": "uint256"
						}
					],
					"name": "getApproved",
					"outputs": [
						{
							"internalType": "address",
							"name": "",
							"type": "address"
						}
					],
					"stateMutability": "view",
					"type": "function"
				},
				{
					"inputs": [
						{
							"internalType": "address",
							"name": "owner",
							"type": "address"
						},
						{
							"internalType": "address",
							"name": "operator",
							"type": "address"
						}
					],
					"name": "isApprovedForAll",
					"outputs": [
						{
							"internalType": "bool",
							"name": "",
							"type": "bool"
						}
					],
					"stateMutability": "view",
					"type": "function"
				},
				{
					"inputs": [],
					"name": "name",
					"outputs": [
						{
							"internalType": "string",
							"name": "",
							"type": "string"
						}
					],
					"stateMutability": "view",
					"type": "function"
				},
				{
					"inputs": [],
					"name": "owner",
					"outputs": [
						{
							"internalType": "address",
							"name": "",
							"type": "address"
						}
					],
					"stateMutability": "view",
					"type": "function"
				},
				{
					"inputs": [
						{
							"internalType": "uint256",
							"name": "tokenId",
							"type": "uint256"
						}
					],
					"name": "ownerOf",
					"outputs": [
						{
							"internalType": "address",
							"name": "",
							"type": "address"
						}
					],
					"stateMutability": "view",
					"type": "function"
				},
				{
					"inputs": [],
					"name": "renounceOwnership",
					"outputs": [],
					"stateMutability": "nonpayable",
					"type": "function"
				},
				{
					"inputs": [
						{
							"internalType": "address",
							"name": "to",
							"type": "address"
						},
						{
							"internalType": "uint256",
							"name": "tokenId",
							"type": "uint256"
						}
					],
					"name": "safeMint",
					"outputs": [],
					"stateMutability": "nonpayable",
					"type": "function"
				},
				{
					"inputs": [
						{
							"internalType": "address",
							"name": "from",
							"type": "address"
						},
						{
							"internalType": "address",
							"name": "to",
							"type": "address"
						},
						{
							"internalType": "uint256",
							"name": "tokenId",
							"type": "uint256"
						}
					],
					"name": "safeTransferFrom",
					"outputs": [],
					"stateMutability": "nonpayable",
					"type": "function"
				},
				{
					"inputs": [
						{
							"internalType": "address",
							"name": "from",
							"type": "address"
						},
						{
							"internalType": "address",
							"name": "to",
							"type": "address"
						},
						{
							"internalType": "uint256",
							"name": "tokenId",
							"type": "uint256"
						},
						{
							"internalType": "bytes",
							"name": "data",
							"type": "bytes"
						}
					],
					"name": "safeTransferFrom",
					"outputs": [],
					"stateMutability": "nonpayable",
					"type": "function"
				},
				{
					"inputs": [],
					"name": "scriptURI",
					"outputs": [
						{
							"internalType": "string[]",
							"name": "",
							"type": "string[]"
						}
					],
					"stateMutability": "view",
					"type": "function"
				},
				{
					"inputs": [
						{
							"internalType": "address",
							"name": "operator",
							"type": "address"
						},
						{
							"internalType": "bool",
							"name": "approved",
							"type": "bool"
						}
					],
					"name": "setApprovalForAll",
					"outputs": [],
					"stateMutability": "nonpayable",
					"type": "function"
				},
				{
					"inputs": [
						{
							"internalType": "string[]",
							"name": "newScriptURI",
							"type": "string[]"
						}
					],
					"name": "setScriptURI",
					"outputs": [],
					"stateMutability": "nonpayable",
					"type": "function"
				},
				{
					"inputs": [
						{
							"internalType": "bytes4",
							"name": "interfaceId",
							"type": "bytes4"
						}
					],
					"name": "supportsInterface",
					"outputs": [
						{
							"internalType": "bool",
							"name": "",
							"type": "bool"
						}
					],
					"stateMutability": "view",
					"type": "function"
				},
				{
					"inputs": [],
					"name": "symbol",
					"outputs": [
						{
							"internalType": "string",
							"name": "",
							"type": "string"
						}
					],
					"stateMutability": "view",
					"type": "function"
				},
				{
					"inputs": [
						{
							"internalType": "uint256",
							"name": "index",
							"type": "uint256"
						}
					],
					"name": "tokenByIndex",
					"outputs": [
						{
							"internalType": "uint256",
							"name": "",
							"type": "uint256"
						}
					],
					"stateMutability": "view",
					"type": "function"
				},
				{
					"inputs": [
						{
							"internalType": "address",
							"name": "owner",
							"type": "address"
						},
						{
							"internalType": "uint256",
							"name": "index",
							"type": "uint256"
						}
					],
					"name": "tokenOfOwnerByIndex",
					"outputs": [
						{
							"internalType": "uint256",
							"name": "",
							"type": "uint256"
						}
					],
					"stateMutability": "view",
					"type": "function"
				},
				{
					"inputs": [
						{
							"internalType": "uint256",
							"name": "tokenId",
							"type": "uint256"
						}
					],
					"name": "tokenURI",
					"outputs": [
						{
							"internalType": "string",
							"name": "",
							"type": "string"
						}
					],
					"stateMutability": "view",
					"type": "function"
				},
				{
					"inputs": [],
					"name": "totalSupply",
					"outputs": [
						{
							"internalType": "uint256",
							"name": "",
							"type": "uint256"
						}
					],
					"stateMutability": "view",
					"type": "function"
				},
				{
					"inputs": [
						{
							"internalType": "address",
							"name": "from",
							"type": "address"
						},
						{
							"internalType": "address",
							"name": "to",
							"type": "address"
						},
						{
							"internalType": "uint256",
							"name": "tokenId",
							"type": "uint256"
						}
					],
					"name": "transferFrom",
					"outputs": [],
					"stateMutability": "nonpayable",
					"type": "function"
				},
				{
					"inputs": [
						{
							"internalType": "address",
							"name": "newOwner",
							"type": "address"
						}
					],
					"name": "transferOwnership",
					"outputs": [],
					"stateMutability": "nonpayable",
					"type": "function"
				}
			],
			"devdoc": {
				"errors": {
					"ERC721EnumerableForbiddenBatchMint()": [
						{
							"details": "Batch mint is not allowed."
						}
					],
					"ERC721IncorrectOwner(address,uint256,address)": [
						{
							"details": "Indicates an error related to the ownership over a particular token. Used in transfers.",
							"params": {
								"owner": "Address of the current owner of a token.",
								"sender": "Address whose tokens are being transferred.",
								"tokenId": "Identifier number of a token."
							}
						}
					],
					"ERC721InsufficientApproval(address,uint256)": [
						{
							"details": "Indicates a failure with the `operator`’s approval. Used in transfers.",
							"params": {
								"operator": "Address that may be allowed to operate on tokens without being their owner.",
								"tokenId": "Identifier number of a token."
							}
						}
					],
					"ERC721InvalidApprover(address)": [
						{
							"details": "Indicates a failure with the `approver` of a token to be approved. Used in approvals.",
							"params": {
								"approver": "Address initiating an approval operation."
							}
						}
					],
					"ERC721InvalidOperator(address)": [
						{
							"details": "Indicates a failure with the `operator` to be approved. Used in approvals.",
							"params": {
								"operator": "Address that may be allowed to operate on tokens without being their owner."
							}
						}
					],
					"ERC721InvalidOwner(address)": [
						{
							"details": "Indicates that an address can't be an owner. For example, `address(0)` is a forbidden owner in EIP-20. Used in balance queries.",
							"params": {
								"owner": "Address of the current owner of a token."
							}
						}
					],
					"ERC721InvalidReceiver(address)": [
						{
							"details": "Indicates a failure with the token `receiver`. Used in transfers.",
							"params": {
								"receiver": "Address to which tokens are being transferred."
							}
						}
					],
					"ERC721InvalidSender(address)": [
						{
							"details": "Indicates a failure with the token `sender`. Used in transfers.",
							"params": {
								"sender": "Address whose tokens are being transferred."
							}
						}
					],
					"ERC721NonexistentToken(uint256)": [
						{
							"details": "Indicates a `tokenId` whose `owner` is the zero address.",
							"params": {
								"tokenId": "Identifier number of a token."
							}
						}
					],
					"ERC721OutOfBoundsIndex(address,uint256)": [
						{
							"details": "An `owner`'s token query was out of bounds for `index`. NOTE: The owner being `address(0)` indicates a global out of bounds index."
						}
					],
					"OwnableInvalidOwner(address)": [
						{
							"details": "The owner is not a valid owner account. (eg. `address(0)`)"
						}
					],
					"OwnableUnauthorizedAccount(address)": [
						{
							"details": "The caller account is not authorized to perform an operation."
						}
					]
				},
				"events": {
					"Approval(address,address,uint256)": {
						"details": "Emitted when `owner` enables `approved` to manage the `tokenId` token."
					},
					"ApprovalForAll(address,address,bool)": {
						"details": "Emitted when `owner` enables or disables (`approved`) `operator` to manage all of its assets."
					},
					"ScriptUpdate(string[])": {
						"details": "This event emits when the scriptURI is updated, so wallets implementing this interface can update a cached script"
					},
					"Transfer(address,address,uint256)": {
						"details": "Emitted when `tokenId` token is transferred from `from` to `to`."
					}
				},
				"kind": "dev",
				"methods": {
					"approve(address,uint256)": {
						"details": "See {IERC721-approve}."
					},
					"balanceOf(address)": {
						"details": "See {IERC721-balanceOf}."
					},
					"getApproved(uint256)": {
						"details": "See {IERC721-getApproved}."
					},
					"isApprovedForAll(address,address)": {
						"details": "See {IERC721-isApprovedForAll}."
					},
					"name()": {
						"details": "See {IERC721Metadata-name}."
					},
					"owner()": {
						"details": "Returns the address of the current owner."
					},
					"ownerOf(uint256)": {
						"details": "See {IERC721-ownerOf}."
					},
					"renounceOwnership()": {
						"details": "Leaves the contract without owner. It will not be possible to call `onlyOwner` functions. Can only be called by the current owner. NOTE: Renouncing ownership will leave the contract without an owner, thereby disabling any functionality that is only available to the owner."
					},
					"safeTransferFrom(address,address,uint256)": {
						"details": "See {IERC721-safeTransferFrom}."
					},
					"safeTransferFrom(address,address,uint256,bytes)": {
						"details": "See {IERC721-safeTransferFrom}."
					},
					"scriptURI()": {
						"returns": {
							"_0": "The scriptURI"
						}
					},
					"setApprovalForAll(address,bool)": {
						"details": "See {IERC721-setApprovalForAll}."
					},
					"symbol()": {
						"details": "See {IERC721Metadata-symbol}."
					},
					"tokenByIndex(uint256)": {
						"details": "See {IERC721Enumerable-tokenByIndex}."
					},
					"tokenOfOwnerByIndex(address,uint256)": {
						"details": "See {IERC721Enumerable-tokenOfOwnerByIndex}."
					},
					"tokenURI(uint256)": {
						"details": "See {IERC721Metadata-tokenURI}."
					},
					"totalSupply()": {
						"details": "See {IERC721Enumerable-totalSupply}."
					},
					"transferFrom(address,address,uint256)": {
						"details": "See {IERC721-transferFrom}."
					},
					"transferOwnership(address)": {
						"details": "Transfers ownership of the contract to a new account (`newOwner`). Can only be called by the current owner."
					}
				},
				"version": 1
			},
			"evm": {
				"assembly": "    /* \"contracts/MyToken.sol\":289:1015  contract ERC721Mint is Ownable, ERC5169, ERC721Enumerable {... */\n  mstore(0x40, 0x80)\n    /* \"contracts/MyToken.sol\":353:441  constructor()... */\n  callvalue\n  dup1\n  iszero\n  tag_1\n  jumpi\n  0x00\n  dup1\n  revert\ntag_1:\n  pop\n    /* \"@openzeppelin/contracts/token/ERC721/ERC721.sol\":1381:1494  constructor(string memory name_, string memory symbol_) {... */\n  mload(0x40)\n  dup1\n  0x40\n  add\n  0x40\n  mstore\n  dup1\n  0x08\n  dup2\n  mstore\n  0x20\n  add\n  0x646f7562696d616f000000000000000000000000000000000000000000000000\n  dup2\n  mstore\n  pop\n  mload(0x40)\n  dup1\n  0x40\n  add\n  0x40\n  mstore\n  dup1\n  0x08\n  dup2\n  mstore\n  0x20\n  add\n  0x646f7562696d616f000000000000000000000000000000000000000000000000\n  dup2\n  mstore\n  pop\n    /* \"contracts/MyToken.sol\":423:433  msg.sender */\n  caller\n    /* \"@openzeppelin/contracts/access/Ownable.sol\":1297:1298  0 */\n  0x00\n    /* \"@openzeppelin/contracts/access/Ownable.sol\":1273:1299  initialOwner == address(0) */\n  0xffffffffffffffffffffffffffffffffffffffff\n  and\n    /* \"@openzeppelin/contracts/access/Ownable.sol\":1273:1285  initialOwner */\n  dup2\n    /* \"@openzeppelin/contracts/access/Ownable.sol\":1273:1299  initialOwner == address(0) */\n  0xffffffffffffffffffffffffffffffffffffffff\n  and\n  sub\n    /* \"@openzeppelin/contracts/access/Ownable.sol\":1269:1364  if (initialOwner == address(0)) {... */\n  tag_6\n  jumpi\n    /* \"@openzeppelin/contracts/access/Ownable.sol\":1350:1351  0 */\n  0x00\n    /* \"@openzeppelin/contracts/access/Ownable.sol\":1322:1353  OwnableInvalidOwner(address(0)) */\n  mload(0x40)\n  0x1e4fbdf700000000000000000000000000000000000000000000000000000000\n  dup2\n  mstore\n  0x04\n  add\n  tag_7\n  swap2\n  swap1\n  tag_8\n  jump\t// in\ntag_7:\n  mload(0x40)\n  dup1\n  swap2\n  sub\n  swap1\n  revert\n    /* \"@openzeppelin/contracts/access/Ownable.sol\":1269:1364  if (initialOwner == address(0)) {... */\ntag_6:\n    /* \"@openzeppelin/contracts/access/Ownable.sol\":1373:1405  _transferOwnership(initialOwner) */\n  tag_9\n    /* \"@openzeppelin/contracts/access/Ownable.sol\":1392:1404  initialOwner */\n  dup2\n    /* \"@openzeppelin/contracts/access/Ownable.sol\":1373:1391  _transferOwnership */\n  shl(0x20, tag_10)\n    /* \"@openzeppelin/contracts/access/Ownable.sol\":1373:1405  _transferOwnership(initialOwner) */\n  0x20\n  shr\n  jump\t// in\ntag_9:\n    /* \"@openzeppelin/contracts/access/Ownable.sol\":1225:1412  constructor(address initialOwner) {... */\n  pop\n    /* \"@openzeppelin/contracts/token/ERC721/ERC721.sol\":1455:1460  name_ */\n  dup2\n    /* \"@openzeppelin/contracts/token/ERC721/ERC721.sol\":1447:1452  _name */\n  0x02\n    /* \"@openzeppelin/contracts/token/ERC721/ERC721.sol\":1447:1460  _name = name_ */\n  swap1\n  dup2\n  tag_12\n  swap2\n  swap1\n  tag_13\n  jump\t// in\ntag_12:\n  pop\n    /* \"@openzeppelin/contracts/token/ERC721/ERC721.sol\":1480:1487  symbol_ */\n  dup1\n    /* \"@openzeppelin/contracts/token/ERC721/ERC721.sol\":1470:1477  _symbol */\n  0x03\n    /* \"@openzeppelin/contracts/token/ERC721/ERC721.sol\":1470:1487  _symbol = symbol_ */\n  swap1\n  dup2\n  tag_14\n  swap2\n  swap1\n  tag_13\n  jump\t// in\ntag_14:\n  pop\n    /* \"@openzeppelin/contracts/token/ERC721/ERC721.sol\":1381:1494  constructor(string memory name_, string memory symbol_) {... */\n  pop\n  pop\n    /* \"contracts/MyToken.sol\":289:1015  contract ERC721Mint is Ownable, ERC5169, ERC721Enumerable {... */\n  jump(tag_16)\n    /* \"@openzeppelin/contracts/access/Ownable.sol\":2912:3099  function _transferOwnership(address newOwner) internal virtual {... */\ntag_10:\n    /* \"@openzeppelin/contracts/access/Ownable.sol\":2985:3001  address oldOwner */\n  0x00\n    /* \"@openzeppelin/contracts/access/Ownable.sol\":3004:3010  _owner */\n  dup1\n  0x00\n  swap1\n  sload\n  swap1\n  0x0100\n  exp\n  swap1\n  div\n  0xffffffffffffffffffffffffffffffffffffffff\n  and\n    /* \"@openzeppelin/contracts/access/Ownable.sol\":2985:3010  address oldOwner = _owner */\n  swap1\n  pop\n    /* \"@openzeppelin/contracts/access/Ownable.sol\":3029:3037  newOwner */\n  dup2\n    /* \"@openzeppelin/contracts/access/Ownable.sol\":3020:3026  _owner */\n  0x00\n  dup1\n    /* \"@openzeppelin/contracts/access/Ownable.sol\":3020:3037  _owner = newOwner */\n  0x0100\n  exp\n  dup2\n  sload\n  dup2\n  0xffffffffffffffffffffffffffffffffffffffff\n  mul\n  not\n  and\n  swap1\n  dup4\n  0xffffffffffffffffffffffffffffffffffffffff\n  and\n  mul\n  or\n  swap1\n  sstore\n  pop\n    /* \"@openzeppelin/contracts/access/Ownable.sol\":3083:3091  newOwner */\n  dup2\n    /* \"@openzeppelin/contracts/access/Ownable.sol\":3052:3092  OwnershipTransferred(oldOwner, newOwner) */\n  0xffffffffffffffffffffffffffffffffffffffff\n  and\n    /* \"@openzeppelin/contracts/access/Ownable.sol\":3073:3081  oldOwner */\n  dup2\n    /* \"@openzeppelin/contracts/access/Ownable.sol\":3052:3092  OwnershipTransferred(oldOwner, newOwner) */\n  0xffffffffffffffffffffffffffffffffffffffff\n  and\n  0x8be0079c531659141344cd1fd0a4f28419497f9722a3daafe3b4186f6b6457e0\n  mload(0x40)\n  mload(0x40)\n  dup1\n  swap2\n  sub\n  swap1\n  log3\n    /* \"@openzeppelin/contracts/access/Ownable.sol\":2975:3099  {... */\n  pop\n    /* \"@openzeppelin/contracts/access/Ownable.sol\":2912:3099  function _transferOwnership(address newOwner) internal virtual {... */\n  pop\n  jump\t// out\n    /* \"#utility.yul\":7:133   */\ntag_18:\n    /* \"#utility.yul\":44:51   */\n  0x00\n    /* \"#utility.yul\":84:126   */\n  0xffffffffffffffffffffffffffffffffffffffff\n    /* \"#utility.yul\":77:82   */\n  dup3\n    /* \"#utility.yul\":73:127   */\n  and\n    /* \"#utility.yul\":62:127   */\n  swap1\n  pop\n    /* \"#utility.yul\":7:133   */\n  swap2\n  swap1\n  pop\n  jump\t// out\n    /* \"#utility.yul\":139:235   */\ntag_19:\n    /* \"#utility.yul\":176:183   */\n  0x00\n    /* \"#utility.yul\":205:229   */\n  tag_44\n    /* \"#utility.yul\":223:228   */\n  dup3\n    /* \"#utility.yul\":205:229   */\n  tag_18\n  jump\t// in\ntag_44:\n    /* \"#utility.yul\":194:229   */\n  swap1\n  pop\n    /* \"#utility.yul\":139:235   */\n  swap2\n  swap1\n  pop\n  jump\t// out\n    /* \"#utility.yul\":241:359   */\ntag_20:\n    /* \"#utility.yul\":328:352   */\n  tag_46\n    /* \"#utility.yul\":346:351   */\n  dup2\n    /* \"#utility.yul\":328:352   */\n  tag_19\n  jump\t// in\ntag_46:\n    /* \"#utility.yul\":323:326   */\n  dup3\n    /* \"#utility.yul\":316:353   */\n  mstore\n    /* \"#utility.yul\":241:359   */\n  pop\n  pop\n  jump\t// out\n    /* \"#utility.yul\":365:587   */\ntag_8:\n    /* \"#utility.yul\":458:462   */\n  0x00\n    /* \"#utility.yul\":496:498   */\n  0x20\n    /* \"#utility.yul\":485:494   */\n  dup3\n    /* \"#utility.yul\":481:499   */\n  add\n    /* \"#utility.yul\":473:499   */\n  swap1\n  pop\n    /* \"#utility.yul\":509:580   */\n  tag_48\n    /* \"#utility.yul\":577:578   */\n  0x00\n    /* \"#utility.yul\":566:575   */\n  dup4\n    /* \"#utility.yul\":562:579   */\n  add\n    /* \"#utility.yul\":553:559   */\n  dup5\n    /* \"#utility.yul\":509:580   */\n  tag_20\n  jump\t// in\ntag_48:\n    /* \"#utility.yul\":365:587   */\n  swap3\n  swap2\n  pop\n  pop\n  jump\t// out\n    /* \"#utility.yul\":593:692   */\ntag_21:\n    /* \"#utility.yul\":645:651   */\n  0x00\n    /* \"#utility.yul\":679:684   */\n  dup2\n    /* \"#utility.yul\":673:685   */\n  mload\n    /* \"#utility.yul\":663:685   */\n  swap1\n  pop\n    /* \"#utility.yul\":593:692   */\n  swap2\n  swap1\n  pop\n  jump\t// out\n    /* \"#utility.yul\":698:878   */\ntag_22:\n    /* \"#utility.yul\":746:823   */\n  0x4e487b7100000000000000000000000000000000000000000000000000000000\n    /* \"#utility.yul\":743:744   */\n  0x00\n    /* \"#utility.yul\":736:824   */\n  mstore\n    /* \"#utility.yul\":843:847   */\n  0x41\n    /* \"#utility.yul\":840:841   */\n  0x04\n    /* \"#utility.yul\":833:848   */\n  mstore\n    /* \"#utility.yul\":867:871   */\n  0x24\n    /* \"#utility.yul\":864:865   */\n  0x00\n    /* \"#utility.yul\":857:872   */\n  revert\n    /* \"#utility.yul\":884:1064   */\ntag_23:\n    /* \"#utility.yul\":932:1009   */\n  0x4e487b7100000000000000000000000000000000000000000000000000000000\n    /* \"#utility.yul\":929:930   */\n  0x00\n    /* \"#utility.yul\":922:1010   */\n  mstore\n    /* \"#utility.yul\":1029:1033   */\n  0x22\n    /* \"#utility.yul\":1026:1027   */\n  0x04\n    /* \"#utility.yul\":1019:1034   */\n  mstore\n    /* \"#utility.yul\":1053:1057   */\n  0x24\n    /* \"#utility.yul\":1050:1051   */\n  0x00\n    /* \"#utility.yul\":1043:1058   */\n  revert\n    /* \"#utility.yul\":1070:1390   */\ntag_24:\n    /* \"#utility.yul\":1114:1120   */\n  0x00\n    /* \"#utility.yul\":1151:1152   */\n  0x02\n    /* \"#utility.yul\":1145:1149   */\n  dup3\n    /* \"#utility.yul\":1141:1153   */\n  div\n    /* \"#utility.yul\":1131:1153   */\n  swap1\n  pop\n    /* \"#utility.yul\":1198:1199   */\n  0x01\n    /* \"#utility.yul\":1192:1196   */\n  dup3\n    /* \"#utility.yul\":1188:1200   */\n  and\n    /* \"#utility.yul\":1219:1237   */\n  dup1\n    /* \"#utility.yul\":1209:1290   */\n  tag_53\n  jumpi\n    /* \"#utility.yul\":1275:1279   */\n  0x7f\n    /* \"#utility.yul\":1267:1273   */\n  dup3\n    /* \"#utility.yul\":1263:1280   */\n  and\n    /* \"#utility.yul\":1253:1280   */\n  swap2\n  pop\n    /* \"#utility.yul\":1209:1290   */\ntag_53:\n    /* \"#utility.yul\":1337:1339   */\n  0x20\n    /* \"#utility.yul\":1329:1335   */\n  dup3\n    /* \"#utility.yul\":1326:1340   */\n  lt\n    /* \"#utility.yul\":1306:1324   */\n  dup2\n    /* \"#utility.yul\":1303:1341   */\n  sub\n    /* \"#utility.yul\":1300:1384   */\n  tag_54\n  jumpi\n    /* \"#utility.yul\":1356:1374   */\n  tag_55\n  tag_23\n  jump\t// in\ntag_55:\n    /* \"#utility.yul\":1300:1384   */\ntag_54:\n    /* \"#utility.yul\":1121:1390   */\n  pop\n    /* \"#utility.yul\":1070:1390   */\n  swap2\n  swap1\n  pop\n  jump\t// out\n    /* \"#utility.yul\":1396:1537   */\ntag_25:\n    /* \"#utility.yul\":1445:1449   */\n  0x00\n    /* \"#utility.yul\":1468:1471   */\n  dup2\n    /* \"#utility.yul\":1460:1471   */\n  swap1\n  pop\n    /* \"#utility.yul\":1491:1494   */\n  dup2\n    /* \"#utility.yul\":1488:1489   */\n  0x00\n    /* \"#utility.yul\":1481:1495   */\n  mstore\n    /* \"#utility.yul\":1525:1529   */\n  0x20\n    /* \"#utility.yul\":1522:1523   */\n  0x00\n    /* \"#utility.yul\":1512:1530   */\n  keccak256\n    /* \"#utility.yul\":1504:1530   */\n  swap1\n  pop\n    /* \"#utility.yul\":1396:1537   */\n  swap2\n  swap1\n  pop\n  jump\t// out\n    /* \"#utility.yul\":1543:1636   */\ntag_26:\n    /* \"#utility.yul\":1580:1586   */\n  0x00\n    /* \"#utility.yul\":1627:1629   */\n  0x20\n    /* \"#utility.yul\":1622:1624   */\n  0x1f\n    /* \"#utility.yul\":1615:1620   */\n  dup4\n    /* \"#utility.yul\":1611:1625   */\n  add\n    /* \"#utility.yul\":1607:1630   */\n  div\n    /* \"#utility.yul\":1597:1630   */\n  swap1\n  pop\n    /* \"#utility.yul\":1543:1636   */\n  swap2\n  swap1\n  pop\n  jump\t// out\n    /* \"#utility.yul\":1642:1749   */\ntag_27:\n    /* \"#utility.yul\":1686:1694   */\n  0x00\n    /* \"#utility.yul\":1736:1741   */\n  dup3\n    /* \"#utility.yul\":1730:1734   */\n  dup3\n    /* \"#utility.yul\":1726:1742   */\n  shl\n    /* \"#utility.yul\":1705:1742   */\n  swap1\n  pop\n    /* \"#utility.yul\":1642:1749   */\n  swap3\n  swap2\n  pop\n  pop\n  jump\t// out\n    /* \"#utility.yul\":1755:2148   */\ntag_28:\n    /* \"#utility.yul\":1824:1830   */\n  0x00\n    /* \"#utility.yul\":1874:1875   */\n  0x08\n    /* \"#utility.yul\":1862:1872   */\n  dup4\n    /* \"#utility.yul\":1858:1876   */\n  mul\n    /* \"#utility.yul\":1897:1994   */\n  tag_60\n    /* \"#utility.yul\":1927:1993   */\n  0xffffffffffffffffffffffffffffffffffffffffffffffffffffffffffffffff\n    /* \"#utility.yul\":1916:1925   */\n  dup3\n    /* \"#utility.yul\":1897:1994   */\n  tag_27\n  jump\t// in\ntag_60:\n    /* \"#utility.yul\":2015:2054   */\n  tag_61\n    /* \"#utility.yul\":2045:2053   */\n  dup7\n    /* \"#utility.yul\":2034:2043   */\n  dup4\n    /* \"#utility.yul\":2015:2054   */\n  tag_27\n  jump\t// in\ntag_61:\n    /* \"#utility.yul\":2003:2054   */\n  swap6\n  pop\n    /* \"#utility.yul\":2087:2091   */\n  dup1\n    /* \"#utility.yul\":2083:2092   */\n  not\n    /* \"#utility.yul\":2076:2081   */\n  dup5\n    /* \"#utility.yul\":2072:2093   */\n  and\n    /* \"#utility.yul\":2063:2093   */\n  swap4\n  pop\n    /* \"#utility.yul\":2136:2140   */\n  dup1\n    /* \"#utility.yul\":2126:2134   */\n  dup7\n    /* \"#utility.yul\":2122:2141   */\n  and\n    /* \"#utility.yul\":2115:2120   */\n  dup5\n    /* \"#utility.yul\":2112:2142   */\n  or\n    /* \"#utility.yul\":2102:2142   */\n  swap3\n  pop\n    /* \"#utility.yul\":1831:2148   */\n  pop\n  pop\n    /* \"#utility.yul\":1755:2148   */\n  swap4\n  swap3\n  pop\n  pop\n  pop\n  jump\t// out\n    /* \"#utility.yul\":2154:2231   */\ntag_29:\n    /* \"#utility.yul\":2191:2198   */\n  0x00\n    /* \"#utility.yul\":2220:2225   */\n  dup2\n    /* \"#utility.yul\":2209:2225   */\n  swap1\n  pop\n    /* \"#utility.yul\":2154:2231   */\n  swap2\n  swap1\n  pop\n  jump\t// out\n    /* \"#utility.yul\":2237:2297   */\ntag_30:\n    /* \"#utility.yul\":2265:2268   */\n  0x00\n    /* \"#utility.yul\":2286:2291   */\n  dup2\n    /* \"#utility.yul\":2279:2291   */\n  swap1\n  pop\n    /* \"#utility.yul\":2237:2297   */\n  swap2\n  swap1\n  pop\n  jump\t// out\n    /* \"#utility.yul\":2303:2445   */\ntag_31:\n    /* \"#utility.yul\":2353:2362   */\n  0x00\n    /* \"#utility.yul\":2386:2439   */\n  tag_65\n    /* \"#utility.yul\":2404:2438   */\n  tag_66\n    /* \"#utility.yul\":2413:2437   */\n  tag_67\n    /* \"#utility.yul\":2431:2436   */\n  dup5\n    /* \"#utility.yul\":2413:2437   */\n  tag_29\n  jump\t// in\ntag_67:\n    /* \"#utility.yul\":2404:2438   */\n  tag_30\n  jump\t// in\ntag_66:\n    /* \"#utility.yul\":2386:2439   */\n  tag_29\n  jump\t// in\ntag_65:\n    /* \"#utility.yul\":2373:2439   */\n  swap1\n  pop\n    /* \"#utility.yul\":2303:2445   */\n  swap2\n  swap1\n  pop\n  jump\t// out\n    /* \"#utility.yul\":2451:2526   */\ntag_32:\n    /* \"#utility.yul\":2494:2497   */\n  0x00\n    /* \"#utility.yul\":2515:2520   */\n  dup2\n    /* \"#utility.yul\":2508:2520   */\n  swap1\n  pop\n    /* \"#utility.yul\":2451:2526   */\n  swap2\n  swap1\n  pop\n  jump\t// out\n    /* \"#utility.yul\":2532:2801   */\ntag_33:\n    /* \"#utility.yul\":2642:2681   */\n  tag_70\n    /* \"#utility.yul\":2673:2680   */\n  dup4\n    /* \"#utility.yul\":2642:2681   */\n  tag_31\n  jump\t// in\ntag_70:\n    /* \"#utility.yul\":2703:2794   */\n  tag_71\n    /* \"#utility.yul\":2752:2793   */\n  tag_72\n    /* \"#utility.yul\":2776:2792   */\n  dup3\n    /* \"#utility.yul\":2752:2793   */\n  tag_32\n  jump\t// in\ntag_72:\n    /* \"#utility.yul\":2744:2750   */\n  dup5\n    /* \"#utility.yul\":2737:2741   */\n  dup5\n    /* \"#utility.yul\":2731:2742   */\n  sload\n    /* \"#utility.yul\":2703:2794   */\n  tag_28\n  jump\t// in\ntag_71:\n    /* \"#utility.yul\":2697:2701   */\n  dup3\n    /* \"#utility.yul\":2690:2795   */\n  sstore\n    /* \"#utility.yul\":2608:2801   */\n  pop\n    /* \"#utility.yul\":2532:2801   */\n  pop\n  pop\n  pop\n  jump\t// out\n    /* \"#utility.yul\":2807:2880   */\ntag_34:\n    /* \"#utility.yul\":2852:2855   */\n  0x00\n    /* \"#utility.yul\":2807:2880   */\n  swap1\n  jump\t// out\n    /* \"#utility.yul\":2886:3075   */\ntag_35:\n    /* \"#utility.yul\":2963:2995   */\n  tag_75\n  tag_34\n  jump\t// in\ntag_75:\n    /* \"#utility.yul\":3004:3069   */\n  tag_76\n    /* \"#utility.yul\":3062:3068   */\n  dup2\n    /* \"#utility.yul\":3054:3060   */\n  dup5\n    /* \"#utility.yul\":3048:3052   */\n  dup5\n    /* \"#utility.yul\":3004:3069   */\n  tag_33\n  jump\t// in\ntag_76:\n    /* \"#utility.yul\":2939:3075   */\n  pop\n    /* \"#utility.yul\":2886:3075   */\n  pop\n  pop\n  jump\t// out\n    /* \"#utility.yul\":3081:3267   */\ntag_36:\n    /* \"#utility.yul\":3141:3261   */\ntag_78:\n    /* \"#utility.yul\":3158:3161   */\n  dup2\n    /* \"#utility.yul\":3151:3156   */\n  dup2\n    /* \"#utility.yul\":3148:3162   */\n  lt\n    /* \"#utility.yul\":3141:3261   */\n  iszero\n  tag_80\n  jumpi\n    /* \"#utility.yul\":3212:3251   */\n  tag_81\n    /* \"#utility.yul\":3249:3250   */\n  0x00\n    /* \"#utility.yul\":3242:3247   */\n  dup3\n    /* \"#utility.yul\":3212:3251   */\n  tag_35\n  jump\t// in\ntag_81:\n    /* \"#utility.yul\":3185:3186   */\n  0x01\n    /* \"#utility.yul\":3178:3183   */\n  dup2\n    /* \"#utility.yul\":3174:3187   */\n  add\n    /* \"#utility.yul\":3165:3187   */\n  swap1\n  pop\n    /* \"#utility.yul\":3141:3261   */\n  jump(tag_78)\ntag_80:\n    /* \"#utility.yul\":3081:3267   */\n  pop\n  pop\n  jump\t// out\n    /* \"#utility.yul\":3273:3816   */\ntag_37:\n    /* \"#utility.yul\":3374:3376   */\n  0x1f\n    /* \"#utility.yul\":3369:3372   */\n  dup3\n    /* \"#utility.yul\":3366:3377   */\n  gt\n    /* \"#utility.yul\":3363:3809   */\n  iszero\n  tag_83\n  jumpi\n    /* \"#utility.yul\":3408:3446   */\n  tag_84\n    /* \"#utility.yul\":3440:3445   */\n  dup2\n    /* \"#utility.yul\":3408:3446   */\n  tag_25\n  jump\t// in\ntag_84:\n    /* \"#utility.yul\":3492:3521   */\n  tag_85\n    /* \"#utility.yul\":3510:3520   */\n  dup5\n    /* \"#utility.yul\":3492:3521   */\n  tag_26\n  jump\t// in\ntag_85:\n    /* \"#utility.yul\":3482:3490   */\n  dup2\n    /* \"#utility.yul\":3478:3522   */\n  add\n    /* \"#utility.yul\":3675:3677   */\n  0x20\n    /* \"#utility.yul\":3663:3673   */\n  dup6\n    /* \"#utility.yul\":3660:3678   */\n  lt\n    /* \"#utility.yul\":3657:3706   */\n  iszero\n  tag_86\n  jumpi\n    /* \"#utility.yul\":3696:3704   */\n  dup2\n    /* \"#utility.yul\":3681:3704   */\n  swap1\n  pop\n    /* \"#utility.yul\":3657:3706   */\ntag_86:\n    /* \"#utility.yul\":3719:3799   */\n  tag_87\n    /* \"#utility.yul\":3775:3797   */\n  tag_88\n    /* \"#utility.yul\":3793:3796   */\n  dup6\n    /* \"#utility.yul\":3775:3797   */\n  tag_26\n  jump\t// in\ntag_88:\n    /* \"#utility.yul\":3765:3773   */\n  dup4\n    /* \"#utility.yul\":3761:3798   */\n  add\n    /* \"#utility.yul\":3748:3759   */\n  dup3\n    /* \"#utility.yul\":3719:3799   */\n  tag_36\n  jump\t// in\ntag_87:\n    /* \"#utility.yul\":3378:3809   */\n  pop\n  pop\n    /* \"#utility.yul\":3363:3809   */\ntag_83:\n    /* \"#utility.yul\":3273:3816   */\n  pop\n  pop\n  pop\n  jump\t// out\n    /* \"#utility.yul\":3822:3939   */\ntag_38:\n    /* \"#utility.yul\":3876:3884   */\n  0x00\n    /* \"#utility.yul\":3926:3931   */\n  dup3\n    /* \"#utility.yul\":3920:3924   */\n  dup3\n    /* \"#utility.yul\":3916:3932   */\n  shr\n    /* \"#utility.yul\":3895:3932   */\n  swap1\n  pop\n    /* \"#utility.yul\":3822:3939   */\n  swap3\n  swap2\n  pop\n  pop\n  jump\t// out\n    /* \"#utility.yul\":3945:4114   */\ntag_39:\n    /* \"#utility.yul\":3989:3995   */\n  0x00\n    /* \"#utility.yul\":4022:4073   */\n  tag_91\n    /* \"#utility.yul\":4070:4071   */\n  0x00\n    /* \"#utility.yul\":4066:4072   */\n  not\n    /* \"#utility.yul\":4058:4063   */\n  dup5\n    /* \"#utility.yul\":4055:4056   */\n  0x08\n    /* \"#utility.yul\":4051:4064   */\n  mul\n    /* \"#utility.yul\":4022:4073   */\n  tag_38\n  jump\t// in\ntag_91:\n    /* \"#utility.yul\":4018:4074   */\n  not\n    /* \"#utility.yul\":4103:4107   */\n  dup1\n    /* \"#utility.yul\":4097:4101   */\n  dup4\n    /* \"#utility.yul\":4093:4108   */\n  and\n    /* \"#utility.yul\":4083:4108   */\n  swap2\n  pop\n    /* \"#utility.yul\":3996:4114   */\n  pop\n    /* \"#utility.yul\":3945:4114   */\n  swap3\n  swap2\n  pop\n  pop\n  jump\t// out\n    /* \"#utility.yul\":4119:4414   */\ntag_40:\n    /* \"#utility.yul\":4195:4199   */\n  0x00\n    /* \"#utility.yul\":4341:4370   */\n  tag_93\n    /* \"#utility.yul\":4366:4369   */\n  dup4\n    /* \"#utility.yul\":4360:4364   */\n  dup4\n    /* \"#utility.yul\":4341:4370   */\n  tag_39\n  jump\t// in\ntag_93:\n    /* \"#utility.yul\":4333:4370   */\n  swap2\n  pop\n    /* \"#utility.yul\":4403:4406   */\n  dup3\n    /* \"#utility.yul\":4400:4401   */\n  0x02\n    /* \"#utility.yul\":4396:4407   */\n  mul\n    /* \"#utility.yul\":4390:4394   */\n  dup3\n    /* \"#utility.yul\":4387:4408   */\n  or\n    /* \"#utility.yul\":4379:4408   */\n  swap1\n  pop\n    /* \"#utility.yul\":4119:4414   */\n  swap3\n  swap2\n  pop\n  pop\n  jump\t// out\n    /* \"#utility.yul\":4419:5814   */\ntag_13:\n    /* \"#utility.yul\":4536:4573   */\n  tag_95\n    /* \"#utility.yul\":4569:4572   */\n  dup3\n    /* \"#utility.yul\":4536:4573   */\n  tag_21\n  jump\t// in\ntag_95:\n    /* \"#utility.yul\":4638:4656   */\n  0xffffffffffffffff\n    /* \"#utility.yul\":4630:4636   */\n  dup2\n    /* \"#utility.yul\":4627:4657   */\n  gt\n    /* \"#utility.yul\":4624:4680   */\n  iszero\n  tag_96\n  jumpi\n    /* \"#utility.yul\":4660:4678   */\n  tag_97\n  tag_22\n  jump\t// in\ntag_97:\n    /* \"#utility.yul\":4624:4680   */\ntag_96:\n    /* \"#utility.yul\":4704:4742   */\n  tag_98\n    /* \"#utility.yul\":4736:4740   */\n  dup3\n    /* \"#utility.yul\":4730:4741   */\n  sload\n    /* \"#utility.yul\":4704:4742   */\n  tag_24\n  jump\t// in\ntag_98:\n    /* \"#utility.yul\":4789:4856   */\n  tag_99\n    /* \"#utility.yul\":4849:4855   */\n  dup3\n    /* \"#utility.yul\":4841:4847   */\n  dup3\n    /* \"#utility.yul\":4835:4839   */\n  dup6\n    /* \"#utility.yul\":4789:4856   */\n  tag_37\n  jump\t// in\ntag_99:\n    /* \"#utility.yul\":4883:4884   */\n  0x00\n    /* \"#utility.yul\":4907:4911   */\n  0x20\n    /* \"#utility.yul\":4894:4911   */\n  swap1\n  pop\n    /* \"#utility.yul\":4939:4941   */\n  0x1f\n    /* \"#utility.yul\":4931:4937   */\n  dup4\n    /* \"#utility.yul\":4928:4942   */\n  gt\n    /* \"#utility.yul\":4956:4957   */\n  0x01\n    /* \"#utility.yul\":4951:5569   */\n  dup2\n  eq\n  tag_101\n  jumpi\n    /* \"#utility.yul\":5613:5614   */\n  0x00\n    /* \"#utility.yul\":5630:5636   */\n  dup5\n    /* \"#utility.yul\":5627:5704   */\n  iszero\n  tag_102\n  jumpi\n    /* \"#utility.yul\":5679:5688   */\n  dup3\n    /* \"#utility.yul\":5674:5677   */\n  dup8\n    /* \"#utility.yul\":5670:5689   */\n  add\n    /* \"#utility.yul\":5664:5690   */\n  mload\n    /* \"#utility.yul\":5655:5690   */\n  swap1\n  pop\n    /* \"#utility.yul\":5627:5704   */\ntag_102:\n    /* \"#utility.yul\":5730:5797   */\n  tag_103\n    /* \"#utility.yul\":5790:5796   */\n  dup6\n    /* \"#utility.yul\":5783:5788   */\n  dup3\n    /* \"#utility.yul\":5730:5797   */\n  tag_40\n  jump\t// in\ntag_103:\n    /* \"#utility.yul\":5724:5728   */\n  dup7\n    /* \"#utility.yul\":5717:5798   */\n  sstore\n    /* \"#utility.yul\":5586:5808   */\n  pop\n    /* \"#utility.yul\":4921:5808   */\n  jump(tag_100)\n    /* \"#utility.yul\":4951:5569   */\ntag_101:\n    /* \"#utility.yul\":5003:5007   */\n  0x1f\n    /* \"#utility.yul\":4999:5008   */\n  not\n    /* \"#utility.yul\":4991:4997   */\n  dup5\n    /* \"#utility.yul\":4987:5009   */\n  and\n    /* \"#utility.yul\":5037:5074   */\n  tag_104\n    /* \"#utility.yul\":5069:5073   */\n  dup7\n    /* \"#utility.yul\":5037:5074   */\n  tag_25\n  jump\t// in\ntag_104:\n    /* \"#utility.yul\":5096:5097   */\n  0x00\n    /* \"#utility.yul\":5110:5318   */\ntag_105:\n    /* \"#utility.yul\":5124:5131   */\n  dup3\n    /* \"#utility.yul\":5121:5122   */\n  dup2\n    /* \"#utility.yul\":5118:5132   */\n  lt\n    /* \"#utility.yul\":5110:5318   */\n  iszero\n  tag_107\n  jumpi\n    /* \"#utility.yul\":5203:5212   */\n  dup5\n    /* \"#utility.yul\":5198:5201   */\n  dup10\n    /* \"#utility.yul\":5194:5213   */\n  add\n    /* \"#utility.yul\":5188:5214   */\n  mload\n    /* \"#utility.yul\":5180:5186   */\n  dup3\n    /* \"#utility.yul\":5173:5215   */\n  sstore\n    /* \"#utility.yul\":5254:5255   */\n  0x01\n    /* \"#utility.yul\":5246:5252   */\n  dup3\n    /* \"#utility.yul\":5242:5256   */\n  add\n    /* \"#utility.yul\":5232:5256   */\n  swap2\n  pop\n    /* \"#utility.yul\":5301:5303   */\n  0x20\n    /* \"#utility.yul\":5290:5299   */\n  dup6\n    /* \"#utility.yul\":5286:5304   */\n  add\n    /* \"#utility.yul\":5273:5304   */\n  swap5\n  pop\n    /* \"#utility.yul\":5147:5151   */\n  0x20\n    /* \"#utility.yul\":5144:5145   */\n  dup2\n    /* \"#utility.yul\":5140:5152   */\n  add\n    /* \"#utility.yul\":5135:5152   */\n  swap1\n  pop\n    /* \"#utility.yul\":5110:5318   */\n  jump(tag_105)\ntag_107:\n    /* \"#utility.yul\":5346:5352   */\n  dup7\n    /* \"#utility.yul\":5337:5344   */\n  dup4\n    /* \"#utility.yul\":5334:5353   */\n  lt\n    /* \"#utility.yul\":5331:5510   */\n  iszero\n  tag_108\n  jumpi\n    /* \"#utility.yul\":5404:5413   */\n  dup5\n    /* \"#utility.yul\":5399:5402   */\n  dup10\n    /* \"#utility.yul\":5395:5414   */\n  add\n    /* \"#utility.yul\":5389:5415   */\n  mload\n    /* \"#utility.yul\":5447:5495   */\n  tag_109\n    /* \"#utility.yul\":5489:5493   */\n  0x1f\n    /* \"#utility.yul\":5481:5487   */\n  dup10\n    /* \"#utility.yul\":5477:5494   */\n  and\n    /* \"#utility.yul\":5466:5475   */\n  dup3\n    /* \"#utility.yul\":5447:5495   */\n  tag_39\n  jump\t// in\ntag_109:\n    /* \"#utility.yul\":5439:5445   */\n  dup4\n    /* \"#utility.yul\":5432:5496   */\n  sstore\n    /* \"#utility.yul\":5354:5510   */\n  pop\n    /* \"#utility.yul\":5331:5510   */\ntag_108:\n    /* \"#utility.yul\":5556:5557   */\n  0x01\n    /* \"#utility.yul\":5552:5553   */\n  0x02\n    /* \"#utility.yul\":5544:5550   */\n  dup9\n    /* \"#utility.yul\":5540:5554   */\n  mul\n    /* \"#utility.yul\":5536:5558   */\n  add\n    /* \"#utility.yul\":5530:5534   */\n  dup9\n    /* \"#utility.yul\":5523:5559   */\n  sstore\n    /* \"#utility.yul\":4958:5569   */\n  pop\n  pop\n  pop\n    /* \"#utility.yul\":4921:5808   */\ntag_100:\n  pop\n    /* \"#utility.yul\":4511:5814   */\n  pop\n  pop\n  pop\n    /* \"#utility.yul\":4419:5814   */\n  pop\n  pop\n  jump\t// out\n    /* \"contracts/MyToken.sol\":289:1015  contract ERC721Mint is Ownable, ERC5169, ERC721Enumerable {... */\ntag_16:\n  dataSize(sub_0)\n  dup1\n  dataOffset(sub_0)\n  0x00\n  codecopy\n  0x00\n  return\nstop\n\nsub_0: assembly {\n        /* \"contracts/MyToken.sol\":289:1015  contract ERC721Mint is Ownable, ERC5169, ERC721Enumerable {... */\n      mstore(0x40, 0x80)\n      callvalue\n      dup1\n      iszero\n      tag_1\n      jumpi\n      0x00\n      dup1\n      revert\n    tag_1:\n      pop\n      jumpi(tag_2, lt(calldatasize, 0x04))\n      shr(0xe0, calldataload(0x00))\n      dup1\n      0x70a08231\n      gt\n      tag_25\n      jumpi\n      dup1\n      0xa22cb465\n      gt\n      tag_26\n      jumpi\n      dup1\n      0xa22cb465\n      eq\n      tag_19\n      jumpi\n      dup1\n      0xb88d4fde\n      eq\n      tag_20\n      jumpi\n      dup1\n      0xc87b56dd\n      eq\n      tag_21\n      jumpi\n      dup1\n      0xe3d61eb3\n      eq\n      tag_22\n      jumpi\n      dup1\n      0xe985e9c5\n      eq\n      tag_23\n      jumpi\n      dup1\n      0xf2fde38b\n      eq\n      tag_24\n      jumpi\n      jump(tag_2)\n    tag_26:\n      dup1\n      0x70a08231\n      eq\n      tag_14\n      jumpi\n      dup1\n      0x715018a6\n      eq\n      tag_15\n      jumpi\n      dup1\n      0x8da5cb5b\n      eq\n      tag_16\n      jumpi\n      dup1\n      0x95d89b41\n      eq\n      tag_17\n      jumpi\n      dup1\n      0xa1448194\n      eq\n      tag_18\n      jumpi\n      jump(tag_2)\n    tag_25:\n      dup1\n      0x23b872dd\n      gt\n      tag_27\n      jumpi\n      dup1\n      0x23b872dd\n      eq\n      tag_8\n      jumpi\n      dup1\n      0x2f745c59\n      eq\n      tag_9\n      jumpi\n      dup1\n      0x42842e0e\n      eq\n      tag_10\n      jumpi\n      dup1\n      0x4bb30912\n      eq\n      tag_11\n      jumpi\n      dup1\n      0x4f6ccce7\n      eq\n      tag_12\n      jumpi\n      dup1\n      0x6352211e\n      eq\n      tag_13\n      jumpi\n      jump(tag_2)\n    tag_27:\n      dup1\n      0x01ffc9a7\n      eq\n      tag_3\n      jumpi\n      dup1\n      0x06fdde03\n      eq\n      tag_4\n      jumpi\n      dup1\n      0x081812fc\n      eq\n      tag_5\n      jumpi\n      dup1\n      0x095ea7b3\n      eq\n      tag_6\n      jumpi\n      dup1\n      0x18160ddd\n      eq\n      tag_7\n      jumpi\n    tag_2:\n      0x00\n      dup1\n      revert\n        /* \"contracts/MyToken.sol\":447:730  function supportsInterface(bytes4 interfaceId)... */\n    tag_3:\n      tag_28\n      0x04\n      dup1\n      calldatasize\n      sub\n      dup2\n      add\n      swap1\n      tag_29\n      swap2\n      swap1\n      tag_30\n      jump\t// in\n    tag_29:\n      tag_31\n      jump\t// in\n    tag_28:\n      mload(0x40)\n      tag_32\n      swap2\n      swap1\n      tag_33\n      jump\t// in\n    tag_32:\n      mload(0x40)\n      dup1\n      swap2\n      sub\n      swap1\n      return\n        /* \"@openzeppelin/contracts/token/ERC721/ERC721.sol\":2365:2454  function name() public view virtual returns (string memory) {... */\n    tag_4:\n      tag_34\n      tag_35\n      jump\t// in\n    tag_34:\n      mload(0x40)\n      tag_36\n      swap2\n      swap1\n      tag_37\n      jump\t// in\n    tag_36:\n      mload(0x40)\n      dup1\n      swap2\n      sub\n      swap1\n      return\n        /* \"@openzeppelin/contracts/token/ERC721/ERC721.sol\":3497:3651  function getApproved(uint256 tokenId) public view virtual returns (address) {... */\n    tag_5:\n      tag_38\n      0x04\n      dup1\n      calldatasize\n      sub\n      dup2\n      add\n      swap1\n      tag_39\n      swap2\n      swap1\n      tag_40\n      jump\t// in\n    tag_39:\n      tag_41\n      jump\t// in\n    tag_38:\n      mload(0x40)\n      tag_42\n      swap2\n      swap1\n      tag_43\n      jump\t// in\n    tag_42:\n      mload(0x40)\n      dup1\n      swap2\n      sub\n      swap1\n      return\n        /* \"@openzeppelin/contracts/token/ERC721/ERC721.sol\":3323:3436  function approve(address to, uint256 tokenId) public virtual {... */\n    tag_6:\n      tag_44\n      0x04\n      dup1\n      calldatasize\n      sub\n      dup2\n      add\n      swap1\n      tag_45\n      swap2\n      swap1\n      tag_46\n      jump\t// in\n    tag_45:\n      tag_47\n      jump\t// in\n    tag_44:\n      stop\n        /* \"@openzeppelin/contracts/token/ERC721/extensions/ERC721Enumerable.sol\":2062:2164  function totalSupply() public view virtual returns (uint256) {... */\n    tag_7:\n      tag_48\n      tag_49\n      jump\t// in\n    tag_48:\n      mload(0x40)\n      tag_50\n      swap2\n      swap1\n      tag_51\n      jump\t// in\n    tag_50:\n      mload(0x40)\n      dup1\n      swap2\n      sub\n      swap1\n      return\n        /* \"@openzeppelin/contracts/token/ERC721/ERC721.sol\":4143:4721  function transferFrom(address from, address to, uint256 tokenId) public virtual {... */\n    tag_8:\n      tag_52\n      0x04\n      dup1\n      calldatasize\n      sub\n      dup2\n      add\n      swap1\n      tag_53\n      swap2\n      swap1\n      tag_54\n      jump\t// in\n    tag_53:\n      tag_55\n      jump\t// in\n    tag_52:\n      stop\n        /* \"@openzeppelin/contracts/token/ERC721/extensions/ERC721Enumerable.sol\":1736:1991  function tokenOfOwnerByIndex(address owner, uint256 index) public view virtual returns (uint256) {... */\n    tag_9:\n      tag_56\n      0x04\n      dup1\n      calldatasize\n      sub\n      dup2\n      add\n      swap1\n      tag_57\n      swap2\n      swap1\n      tag_46\n      jump\t// in\n    tag_57:\n      tag_58\n      jump\t// in\n    tag_56:\n      mload(0x40)\n      tag_59\n      swap2\n      swap1\n      tag_51\n      jump\t// in\n    tag_59:\n      mload(0x40)\n      dup1\n      swap2\n      sub\n      swap1\n      return\n        /* \"@openzeppelin/contracts/token/ERC721/ERC721.sol\":4787:4919  function safeTransferFrom(address from, address to, uint256 tokenId) public {... */\n    tag_10:\n      tag_60\n      0x04\n      dup1\n      calldatasize\n      sub\n      dup2\n      add\n      swap1\n      tag_61\n      swap2\n      swap1\n      tag_54\n      jump\t// in\n    tag_61:\n      tag_62\n      jump\t// in\n    tag_60:\n      stop\n        /* \"stl-contracts/ERC/ERC5169.sol\":233:337  function scriptURI() external view override returns (string[] memory) {... */\n    tag_11:\n      tag_63\n      tag_64\n      jump\t// in\n    tag_63:\n      mload(0x40)\n      tag_65\n      swap2\n      swap1\n      tag_66\n      jump\t// in\n    tag_65:\n      mload(0x40)\n      dup1\n      swap2\n      sub\n      swap1\n      return\n        /* \"@openzeppelin/contracts/token/ERC721/extensions/ERC721Enumerable.sol\":2236:2462  function tokenByIndex(uint256 index) public view virtual returns (uint256) {... */\n    tag_12:\n      tag_67\n      0x04\n      dup1\n      calldatasize\n      sub\n      dup2\n      add\n      swap1\n      tag_68\n      swap2\n      swap1\n      tag_40\n      jump\t// in\n    tag_68:\n      tag_69\n      jump\t// in\n    tag_67:\n      mload(0x40)\n      tag_70\n      swap2\n      swap1\n      tag_51\n      jump\t// in\n    tag_70:\n      mload(0x40)\n      dup1\n      swap2\n      sub\n      swap1\n      return\n        /* \"@openzeppelin/contracts/token/ERC721/ERC721.sol\":2185:2303  function ownerOf(uint256 tokenId) public view virtual returns (address) {... */\n    tag_13:\n      tag_71\n      0x04\n      dup1\n      calldatasize\n      sub\n      dup2\n      add\n      swap1\n      tag_72\n      swap2\n      swap1\n      tag_40\n      jump\t// in\n    tag_72:\n      tag_73\n      jump\t// in\n    tag_71:\n      mload(0x40)\n      tag_74\n      swap2\n      swap1\n      tag_43\n      jump\t// in\n    tag_74:\n      mload(0x40)\n      dup1\n      swap2\n      sub\n      swap1\n      return\n        /* \"@openzeppelin/contracts/token/ERC721/ERC721.sol\":1920:2128  function balanceOf(address owner) public view virtual returns (uint256) {... */\n    tag_14:\n      tag_75\n      0x04\n      dup1\n      calldatasize\n      sub\n      dup2\n      add\n      swap1\n      tag_76\n      swap2\n      swap1\n      tag_77\n      jump\t// in\n    tag_76:\n      tag_78\n      jump\t// in\n    tag_75:\n      mload(0x40)\n      tag_79\n      swap2\n      swap1\n      tag_51\n      jump\t// in\n    tag_79:\n      mload(0x40)\n      dup1\n      swap2\n      sub\n      swap1\n      return\n        /* \"@openzeppelin/contracts/access/Ownable.sol\":2293:2394  function renounceOwnership() public virtual onlyOwner {... */\n    tag_15:\n      tag_80\n      tag_81\n      jump\t// in\n    tag_80:\n      stop\n        /* \"@openzeppelin/contracts/access/Ownable.sol\":1638:1723  function owner() public view virtual returns (address) {... */\n    tag_16:\n      tag_82\n      tag_83\n      jump\t// in\n    tag_82:\n      mload(0x40)\n      tag_84\n      swap2\n      swap1\n      tag_43\n      jump\t// in\n    tag_84:\n      mload(0x40)\n      dup1\n      swap2\n      sub\n      swap1\n      return\n        /* \"@openzeppelin/contracts/token/ERC721/ERC721.sol\":2518:2611  function symbol() public view virtual returns (string memory) {... */\n    tag_17:\n      tag_85\n      tag_86\n      jump\t// in\n    tag_85:\n      mload(0x40)\n      tag_87\n      swap2\n      swap1\n      tag_37\n      jump\t// in\n    tag_87:\n      mload(0x40)\n      dup1\n      swap2\n      sub\n      swap1\n      return\n        /* \"contracts/MyToken.sol\":910:1013  function safeMint(address to, uint256 tokenId) public onlyOwner {... */\n    tag_18:\n      tag_88\n      0x04\n      dup1\n      calldatasize\n      sub\n      dup2\n      add\n      swap1\n      tag_89\n      swap2\n      swap1\n      tag_46\n      jump\t// in\n    tag_89:\n      tag_90\n      jump\t// in\n    tag_88:\n      stop\n        /* \"@openzeppelin/contracts/token/ERC721/ERC721.sol\":3718:3862  function setApprovalForAll(address operator, bool approved) public virtual {... */\n    tag_19:\n      tag_91\n      0x04\n      dup1\n      calldatasize\n      sub\n      dup2\n      add\n      swap1\n      tag_92\n      swap2\n      swap1\n      tag_93\n      jump\t// in\n    tag_92:\n      tag_94\n      jump\t// in\n    tag_91:\n      stop\n        /* \"@openzeppelin/contracts/token/ERC721/ERC721.sol\":4985:5193  function safeTransferFrom(address from, address to, uint256 tokenId, bytes memory data) public virtual {... */\n    tag_20:\n      tag_95\n      0x04\n      dup1\n      calldatasize\n      sub\n      dup2\n      add\n      swap1\n      tag_96\n      swap2\n      swap1\n      tag_97\n      jump\t// in\n    tag_96:\n      tag_98\n      jump\t// in\n    tag_95:\n      stop\n        /* \"@openzeppelin/contracts/token/ERC721/ERC721.sol\":2677:2932  function tokenURI(uint256 tokenId) public view virtual returns (string memory) {... */\n    tag_21:\n      tag_99\n      0x04\n      dup1\n      calldatasize\n      sub\n      dup2\n      add\n      swap1\n      tag_100\n      swap2\n      swap1\n      tag_40\n      jump\t// in\n    tag_100:\n      tag_101\n      jump\t// in\n    tag_99:\n      mload(0x40)\n      tag_102\n      swap2\n      swap1\n      tag_37\n      jump\t// in\n    tag_102:\n      mload(0x40)\n      dup1\n      swap2\n      sub\n      swap1\n      return\n        /* \"stl-contracts/ERC/ERC5169.sol\":343:542  function setScriptURI(string[] memory newScriptURI) external override {... */\n    tag_22:\n      tag_103\n      0x04\n      dup1\n      calldatasize\n      sub\n      dup2\n      add\n      swap1\n      tag_104\n      swap2\n      swap1\n      tag_105\n      jump\t// in\n    tag_104:\n      tag_106\n      jump\t// in\n    tag_103:\n      stop\n        /* \"@openzeppelin/contracts/token/ERC721/ERC721.sol\":3928:4081  function isApprovedForAll(address owner, address operator) public view virtual returns (bool) {... */\n    tag_23:\n      tag_107\n      0x04\n      dup1\n      calldatasize\n      sub\n      dup2\n      add\n      swap1\n      tag_108\n      swap2\n      swap1\n      tag_109\n      jump\t// in\n    tag_108:\n      tag_110\n      jump\t// in\n    tag_107:\n      mload(0x40)\n      tag_111\n      swap2\n      swap1\n      tag_33\n      jump\t// in\n    tag_111:\n      mload(0x40)\n      dup1\n      swap2\n      sub\n      swap1\n      return\n        /* \"@openzeppelin/contracts/access/Ownable.sol\":2543:2758  function transferOwnership(address newOwner) public virtual onlyOwner {... */\n    tag_24:\n      tag_112\n      0x04\n      dup1\n      calldatasize\n      sub\n      dup2\n      add\n      swap1\n      tag_113\n      swap2\n      swap1\n      tag_77\n      jump\t// in\n    tag_113:\n      tag_114\n      jump\t// in\n    tag_112:\n      stop\n        /* \"contracts/MyToken.sol\":447:730  function supportsInterface(bytes4 interfaceId)... */\n    tag_31:\n        /* \"contracts/MyToken.sol\":583:587  bool */\n      0x00\n        /* \"contracts/MyToken.sol\":622:669  ERC721Enumerable.supportsInterface(interfaceId) */\n      tag_116\n        /* \"contracts/MyToken.sol\":657:668  interfaceId */\n      dup3\n        /* \"contracts/MyToken.sol\":622:656  ERC721Enumerable.supportsInterface */\n      tag_117\n        /* \"contracts/MyToken.sol\":622:669  ERC721Enumerable.supportsInterface(interfaceId) */\n      jump\t// in\n    tag_116:\n        /* \"contracts/MyToken.sol\":622:723  ERC721Enumerable.supportsInterface(interfaceId) ||... */\n      dup1\n      tag_118\n      jumpi\n      pop\n        /* \"contracts/MyToken.sol\":685:723  ERC5169.supportsInterface(interfaceId) */\n      tag_119\n        /* \"contracts/MyToken.sol\":711:722  interfaceId */\n      dup3\n        /* \"contracts/MyToken.sol\":685:710  ERC5169.supportsInterface */\n      tag_120\n        /* \"contracts/MyToken.sol\":685:723  ERC5169.supportsInterface(interfaceId) */\n      jump\t// in\n    tag_119:\n        /* \"contracts/MyToken.sol\":622:723  ERC721Enumerable.supportsInterface(interfaceId) ||... */\n    tag_118:\n        /* \"contracts/MyToken.sol\":603:723  return... */\n      swap1\n      pop\n        /* \"contracts/MyToken.sol\":447:730  function supportsInterface(bytes4 interfaceId)... */\n      swap2\n      swap1\n      pop\n      jump\t// out\n        /* \"@openzeppelin/contracts/token/ERC721/ERC721.sol\":2365:2454  function name() public view virtual returns (string memory) {... */\n    tag_35:\n        /* \"@openzeppelin/contracts/token/ERC721/ERC721.sol\":2410:2423  string memory */\n      0x60\n        /* \"@openzeppelin/contracts/token/ERC721/ERC721.sol\":2442:2447  _name */\n      0x02\n        /* \"@openzeppelin/contracts/token/ERC721/ERC721.sol\":2435:2447  return _name */\n      dup1\n      sload\n      tag_122\n      swap1\n      tag_123\n      jump\t// in\n    tag_122:\n      dup1\n      0x1f\n      add\n      0x20\n      dup1\n      swap2\n      div\n      mul\n      0x20\n      add\n      mload(0x40)\n      swap1\n      dup2\n      add\n      0x40\n      mstore\n      dup1\n      swap3\n      swap2\n      swap1\n      dup2\n      dup2\n      mstore\n      0x20\n      add\n      dup3\n      dup1\n      sload\n      tag_124\n      swap1\n      tag_123\n      jump\t// in\n    tag_124:\n      dup1\n      iszero\n      tag_125\n      jumpi\n      dup1\n      0x1f\n      lt\n      tag_126\n      jumpi\n      0x0100\n      dup1\n      dup4\n      sload\n      div\n      mul\n      dup4\n      mstore\n      swap2\n      0x20\n      add\n      swap2\n      jump(tag_125)\n    tag_126:\n      dup3\n      add\n      swap2\n      swap1\n      0x00\n      mstore\n      keccak256(0x00, 0x20)\n      swap1\n    tag_127:\n      dup2\n      sload\n      dup2\n      mstore\n      swap1\n      0x01\n      add\n      swap1\n      0x20\n      add\n      dup1\n      dup4\n      gt\n      tag_127\n      jumpi\n      dup3\n      swap1\n      sub\n      0x1f\n      and\n      dup3\n      add\n      swap2\n    tag_125:\n      pop\n      pop\n      pop\n      pop\n      pop\n      swap1\n      pop\n        /* \"@openzeppelin/contracts/token/ERC721/ERC721.sol\":2365:2454  function name() public view virtual returns (string memory) {... */\n      swap1\n      jump\t// out\n        /* \"@openzeppelin/contracts/token/ERC721/ERC721.sol\":3497:3651  function getApproved(uint256 tokenId) public view virtual returns (address) {... */\n    tag_41:\n        /* \"@openzeppelin/contracts/token/ERC721/ERC721.sol\":3564:3571  address */\n      0x00\n        /* \"@openzeppelin/contracts/token/ERC721/ERC721.sol\":3583:3605  _requireOwned(tokenId) */\n      tag_129\n        /* \"@openzeppelin/contracts/token/ERC721/ERC721.sol\":3597:3604  tokenId */\n      dup3\n        /* \"@openzeppelin/contracts/token/ERC721/ERC721.sol\":3583:3596  _requireOwned */\n      tag_130\n        /* \"@openzeppelin/contracts/token/ERC721/ERC721.sol\":3583:3605  _requireOwned(tokenId) */\n      jump\t// in\n    tag_129:\n      pop\n        /* \"@openzeppelin/contracts/token/ERC721/ERC721.sol\":3623:3644  _getApproved(tokenId) */\n      tag_131\n        /* \"@openzeppelin/contracts/token/ERC721/ERC721.sol\":3636:3643  tokenId */\n      dup3\n        /* \"@openzeppelin/contracts/token/ERC721/ERC721.sol\":3623:3635  _getApproved */\n      tag_132\n        /* \"@openzeppelin/contracts/token/ERC721/ERC721.sol\":3623:3644  _getApproved(tokenId) */\n      jump\t// in\n    tag_131:\n        /* \"@openzeppelin/contracts/token/ERC721/ERC721.sol\":3616:3644  return _getApproved(tokenId) */\n      swap1\n      pop\n        /* \"@openzeppelin/contracts/token/ERC721/ERC721.sol\":3497:3651  function getApproved(uint256 tokenId) public view virtual returns (address) {... */\n      swap2\n      swap1\n      pop\n      jump\t// out\n        /* \"@openzeppelin/contracts/token/ERC721/ERC721.sol\":3323:3436  function approve(address to, uint256 tokenId) public virtual {... */\n    tag_47:\n        /* \"@openzeppelin/contracts/token/ERC721/ERC721.sol\":3394:3429  _approve(to, tokenId, _msgSender()) */\n      tag_134\n        /* \"@openzeppelin/contracts/token/ERC721/ERC721.sol\":3403:3405  to */\n      dup3\n        /* \"@openzeppelin/contracts/token/ERC721/ERC721.sol\":3407:3414  tokenId */\n      dup3\n        /* \"@openzeppelin/contracts/token/ERC721/ERC721.sol\":3416:3428  _msgSender() */\n      tag_135\n        /* \"@openzeppelin/contracts/token/ERC721/ERC721.sol\":3416:3426  _msgSender */\n      tag_136\n        /* \"@openzeppelin/contracts/token/ERC721/ERC721.sol\":3416:3428  _msgSender() */\n      jump\t// in\n    tag_135:\n        /* \"@openzeppelin/contracts/token/ERC721/ERC721.sol\":3394:3402  _approve */\n      tag_137\n        /* \"@openzeppelin/contracts/token/ERC721/ERC721.sol\":3394:3429  _approve(to, tokenId, _msgSender()) */\n      jump\t// in\n    tag_134:\n        /* \"@openzeppelin/contracts/token/ERC721/ERC721.sol\":3323:3436  function approve(address to, uint256 tokenId) public virtual {... */\n      pop\n      pop\n      jump\t// out\n        /* \"@openzeppelin/contracts/token/ERC721/extensions/ERC721Enumerable.sol\":2062:2164  function totalSupply() public view virtual returns (uint256) {... */\n    tag_49:\n        /* \"@openzeppelin/contracts/token/ERC721/extensions/ERC721Enumerable.sol\":2114:2121  uint256 */\n      0x00\n        /* \"@openzeppelin/contracts/token/ERC721/extensions/ERC721Enumerable.sol\":2140:2150  _allTokens */\n      0x0a\n        /* \"@openzeppelin/contracts/token/ERC721/extensions/ERC721Enumerable.sol\":2140:2157  _allTokens.length */\n      dup1\n      sload\n      swap1\n      pop\n        /* \"@openzeppelin/contracts/token/ERC721/extensions/ERC721Enumerable.sol\":2133:2157  return _allTokens.length */\n      swap1\n      pop\n        /* \"@openzeppelin/contracts/token/ERC721/extensions/ERC721Enumerable.sol\":2062:2164  function totalSupply() public view virtual returns (uint256) {... */\n      swap1\n      jump\t// out\n        /* \"@openzeppelin/contracts/token/ERC721/ERC721.sol\":4143:4721  function transferFrom(address from, address to, uint256 tokenId) public virtual {... */\n    tag_55:\n        /* \"@openzeppelin/contracts/token/ERC721/ERC721.sol\":4251:4252  0 */\n      0x00\n        /* \"@openzeppelin/contracts/token/ERC721/ERC721.sol\":4237:4253  to == address(0) */\n      0xffffffffffffffffffffffffffffffffffffffff\n      and\n        /* \"@openzeppelin/contracts/token/ERC721/ERC721.sol\":4237:4239  to */\n      dup3\n        /* \"@openzeppelin/contracts/token/ERC721/ERC721.sol\":4237:4253  to == address(0) */\n      0xffffffffffffffffffffffffffffffffffffffff\n      and\n      sub\n        /* \"@openzeppelin/contracts/token/ERC721/ERC721.sol\":4233:4320  if (to == address(0)) {... */\n      tag_140\n      jumpi\n        /* \"@openzeppelin/contracts/token/ERC721/ERC721.sol\":4306:4307  0 */\n      0x00\n        /* \"@openzeppelin/contracts/token/ERC721/ERC721.sol\":4276:4309  ERC721InvalidReceiver(address(0)) */\n      mload(0x40)\n      0x64a0ae9200000000000000000000000000000000000000000000000000000000\n      dup2\n      mstore\n      0x04\n      add\n      tag_141\n      swap2\n      swap1\n      tag_43\n      jump\t// in\n    tag_141:\n      mload(0x40)\n      dup1\n      swap2\n      sub\n      swap1\n      revert\n        /* \"@openzeppelin/contracts/token/ERC721/ERC721.sol\":4233:4320  if (to == address(0)) {... */\n    tag_140:\n        /* \"@openzeppelin/contracts/token/ERC721/ERC721.sol\":4538:4559  address previousOwner */\n      0x00\n        /* \"@openzeppelin/contracts/token/ERC721/ERC721.sol\":4562:4596  _update(to, tokenId, _msgSender()) */\n      tag_142\n        /* \"@openzeppelin/contracts/token/ERC721/ERC721.sol\":4570:4572  to */\n      dup4\n        /* \"@openzeppelin/contracts/token/ERC721/ERC721.sol\":4574:4581  tokenId */\n      dup4\n        /* \"@openzeppelin/contracts/token/ERC721/ERC721.sol\":4583:4595  _msgSender() */\n      tag_143\n        /* \"@openzeppelin/contracts/token/ERC721/ERC721.sol\":4583:4593  _msgSender */\n      tag_136\n        /* \"@openzeppelin/contracts/token/ERC721/ERC721.sol\":4583:4595  _msgSender() */\n      jump\t// in\n    tag_143:\n        /* \"@openzeppelin/contracts/token/ERC721/ERC721.sol\":4562:4569  _update */\n      tag_144\n        /* \"@openzeppelin/contracts/token/ERC721/ERC721.sol\":4562:4596  _update(to, tokenId, _msgSender()) */\n      jump\t// in\n    tag_142:\n        /* \"@openzeppelin/contracts/token/ERC721/ERC721.sol\":4538:4596  address previousOwner = _update(to, tokenId, _msgSender()) */\n      swap1\n      pop\n        /* \"@openzeppelin/contracts/token/ERC721/ERC721.sol\":4627:4631  from */\n      dup4\n        /* \"@openzeppelin/contracts/token/ERC721/ERC721.sol\":4610:4631  previousOwner != from */\n      0xffffffffffffffffffffffffffffffffffffffff\n      and\n        /* \"@openzeppelin/contracts/token/ERC721/ERC721.sol\":4610:4623  previousOwner */\n      dup2\n        /* \"@openzeppelin/contracts/token/ERC721/ERC721.sol\":4610:4631  previousOwner != from */\n      0xffffffffffffffffffffffffffffffffffffffff\n      and\n      eq\n        /* \"@openzeppelin/contracts/token/ERC721/ERC721.sol\":4606:4715  if (previousOwner != from) {... */\n      tag_145\n      jumpi\n        /* \"@openzeppelin/contracts/token/ERC721/ERC721.sol\":4675:4679  from */\n      dup4\n        /* \"@openzeppelin/contracts/token/ERC721/ERC721.sol\":4681:4688  tokenId */\n      dup3\n        /* \"@openzeppelin/contracts/token/ERC721/ERC721.sol\":4690:4703  previousOwner */\n      dup3\n        /* \"@openzeppelin/contracts/token/ERC721/ERC721.sol\":4654:4704  ERC721IncorrectOwner(from, tokenId, previousOwner) */\n      mload(0x40)\n      0x64283d7b00000000000000000000000000000000000000000000000000000000\n      dup2\n      mstore\n      0x04\n      add\n      tag_146\n      swap4\n      swap3\n      swap2\n      swap1\n      tag_147\n      jump\t// in\n    tag_146:\n      mload(0x40)\n      dup1\n      swap2\n      sub\n      swap1\n      revert\n        /* \"@openzeppelin/contracts/token/ERC721/ERC721.sol\":4606:4715  if (previousOwner != from) {... */\n    tag_145:\n        /* \"@openzeppelin/contracts/token/ERC721/ERC721.sol\":4223:4721  {... */\n      pop\n        /* \"@openzeppelin/contracts/token/ERC721/ERC721.sol\":4143:4721  function transferFrom(address from, address to, uint256 tokenId) public virtual {... */\n      pop\n      pop\n      pop\n      jump\t// out\n        /* \"@openzeppelin/contracts/token/ERC721/extensions/ERC721Enumerable.sol\":1736:1991  function tokenOfOwnerByIndex(address owner, uint256 index) public view virtual returns (uint256) {... */\n    tag_58:\n        /* \"@openzeppelin/contracts/token/ERC721/extensions/ERC721Enumerable.sol\":1824:1831  uint256 */\n      0x00\n        /* \"@openzeppelin/contracts/token/ERC721/extensions/ERC721Enumerable.sol\":1856:1872  balanceOf(owner) */\n      tag_149\n        /* \"@openzeppelin/contracts/token/ERC721/extensions/ERC721Enumerable.sol\":1866:1871  owner */\n      dup4\n        /* \"@openzeppelin/contracts/token/ERC721/extensions/ERC721Enumerable.sol\":1856:1865  balanceOf */\n      tag_78\n        /* \"@openzeppelin/contracts/token/ERC721/extensions/ERC721Enumerable.sol\":1856:1872  balanceOf(owner) */\n      jump\t// in\n    tag_149:\n        /* \"@openzeppelin/contracts/token/ERC721/extensions/ERC721Enumerable.sol\":1847:1852  index */\n      dup3\n        /* \"@openzeppelin/contracts/token/ERC721/extensions/ERC721Enumerable.sol\":1847:1872  index >= balanceOf(owner) */\n      lt\n        /* \"@openzeppelin/contracts/token/ERC721/extensions/ERC721Enumerable.sol\":1843:1942  if (index >= balanceOf(owner)) {... */\n      tag_150\n      jumpi\n        /* \"@openzeppelin/contracts/token/ERC721/extensions/ERC721Enumerable.sol\":1918:1923  owner */\n      dup3\n        /* \"@openzeppelin/contracts/token/ERC721/extensions/ERC721Enumerable.sol\":1925:1930  index */\n      dup3\n        /* \"@openzeppelin/contracts/token/ERC721/extensions/ERC721Enumerable.sol\":1895:1931  ERC721OutOfBoundsIndex(owner, index) */\n      mload(0x40)\n      0xa57d13dc00000000000000000000000000000000000000000000000000000000\n      dup2\n      mstore\n      0x04\n      add\n      tag_151\n      swap3\n      swap2\n      swap1\n      tag_152\n      jump\t// in\n    tag_151:\n      mload(0x40)\n      dup1\n      swap2\n      sub\n      swap1\n      revert\n        /* \"@openzeppelin/contracts/token/ERC721/extensions/ERC721Enumerable.sol\":1843:1942  if (index >= balanceOf(owner)) {... */\n    tag_150:\n        /* \"@openzeppelin/contracts/token/ERC721/extensions/ERC721Enumerable.sol\":1958:1970  _ownedTokens */\n      0x08\n        /* \"@openzeppelin/contracts/token/ERC721/extensions/ERC721Enumerable.sol\":1958:1977  _ownedTokens[owner] */\n      0x00\n        /* \"@openzeppelin/contracts/token/ERC721/extensions/ERC721Enumerable.sol\":1971:1976  owner */\n      dup5\n        /* \"@openzeppelin/contracts/token/ERC721/extensions/ERC721Enumerable.sol\":1958:1977  _ownedTokens[owner] */\n      0xffffffffffffffffffffffffffffffffffffffff\n      and\n      0xffffffffffffffffffffffffffffffffffffffff\n      and\n      dup2\n      mstore\n      0x20\n      add\n      swap1\n      dup2\n      mstore\n      0x20\n      add\n      0x00\n      keccak256\n        /* \"@openzeppelin/contracts/token/ERC721/extensions/ERC721Enumerable.sol\":1958:1984  _ownedTokens[owner][index] */\n      0x00\n        /* \"@openzeppelin/contracts/token/ERC721/extensions/ERC721Enumerable.sol\":1978:1983  index */\n      dup4\n        /* \"@openzeppelin/contracts/token/ERC721/extensions/ERC721Enumerable.sol\":1958:1984  _ownedTokens[owner][index] */\n      dup2\n      mstore\n      0x20\n      add\n      swap1\n      dup2\n      mstore\n      0x20\n      add\n      0x00\n      keccak256\n      sload\n        /* \"@openzeppelin/contracts/token/ERC721/extensions/ERC721Enumerable.sol\":1951:1984  return _ownedTokens[owner][index] */\n      swap1\n      pop\n        /* \"@openzeppelin/contracts/token/ERC721/extensions/ERC721Enumerable.sol\":1736:1991  function tokenOfOwnerByIndex(address owner, uint256 index) public view virtual returns (uint256) {... */\n      swap3\n      swap2\n      pop\n      pop\n      jump\t// out\n        /* \"@openzeppelin/contracts/token/ERC721/ERC721.sol\":4787:4919  function safeTransferFrom(address from, address to, uint256 tokenId) public {... */\n    tag_62:\n        /* \"@openzeppelin/contracts/token/ERC721/ERC721.sol\":4873:4912  safeTransferFrom(from, to, tokenId, \"\") */\n      tag_154\n        /* \"@openzeppelin/contracts/token/ERC721/ERC721.sol\":4890:4894  from */\n      dup4\n        /* \"@openzeppelin/contracts/token/ERC721/ERC721.sol\":4896:4898  to */\n      dup4\n        /* \"@openzeppelin/contracts/token/ERC721/ERC721.sol\":4900:4907  tokenId */\n      dup4\n        /* \"@openzeppelin/contracts/token/ERC721/ERC721.sol\":4873:4912  safeTransferFrom(from, to, tokenId, \"\") */\n      mload(0x40)\n      dup1\n      0x20\n      add\n      0x40\n      mstore\n      dup1\n      0x00\n      dup2\n      mstore\n      pop\n        /* \"@openzeppelin/contracts/token/ERC721/ERC721.sol\":4873:4889  safeTransferFrom */\n      tag_98\n        /* \"@openzeppelin/contracts/token/ERC721/ERC721.sol\":4873:4912  safeTransferFrom(from, to, tokenId, \"\") */\n      jump\t// in\n    tag_154:\n        /* \"@openzeppelin/contracts/token/ERC721/ERC721.sol\":4787:4919  function safeTransferFrom(address from, address to, uint256 tokenId) public {... */\n      pop\n      pop\n      pop\n      jump\t// out\n        /* \"stl-contracts/ERC/ERC5169.sol\":233:337  function scriptURI() external view override returns (string[] memory) {... */\n    tag_64:\n        /* \"stl-contracts/ERC/ERC5169.sol\":286:301  string[] memory */\n      0x60\n        /* \"stl-contracts/ERC/ERC5169.sol\":320:330  _scriptURI */\n      0x01\n        /* \"stl-contracts/ERC/ERC5169.sol\":313:330  return _scriptURI */\n      dup1\n      sload\n      dup1\n      0x20\n      mul\n      0x20\n      add\n      mload(0x40)\n      swap1\n      dup2\n      add\n      0x40\n      mstore\n      dup1\n      swap3\n      swap2\n      swap1\n      dup2\n      dup2\n      mstore\n      0x20\n      add\n      0x00\n      swap1\n    tag_156:\n      dup3\n      dup3\n      lt\n      iszero\n      tag_157\n      jumpi\n      dup4\n      dup3\n      swap1\n      0x00\n      mstore\n      keccak256(0x00, 0x20)\n      add\n      dup1\n      sload\n      tag_159\n      swap1\n      tag_123\n      jump\t// in\n    tag_159:\n      dup1\n      0x1f\n      add\n      0x20\n      dup1\n      swap2\n      div\n      mul\n      0x20\n      add\n      mload(0x40)\n      swap1\n      dup2\n      add\n      0x40\n      mstore\n      dup1\n      swap3\n      swap2\n      swap1\n      dup2\n      dup2\n      mstore\n      0x20\n      add\n      dup3\n      dup1\n      sload\n      tag_160\n      swap1\n      tag_123\n      jump\t// in\n    tag_160:\n      dup1\n      iszero\n      tag_161\n      jumpi\n      dup1\n      0x1f\n      lt\n      tag_162\n      jumpi\n      0x0100\n      dup1\n      dup4\n      sload\n      div\n      mul\n      dup4\n      mstore\n      swap2\n      0x20\n      add\n      swap2\n      jump(tag_161)\n    tag_162:\n      dup3\n      add\n      swap2\n      swap1\n      0x00\n      mstore\n      keccak256(0x00, 0x20)\n      swap1\n    tag_163:\n      dup2\n      sload\n      dup2\n      mstore\n      swap1\n      0x01\n      add\n      swap1\n      0x20\n      add\n      dup1\n      dup4\n      gt\n      tag_163\n      jumpi\n      dup3\n      swap1\n      sub\n      0x1f\n      and\n      dup3\n      add\n      swap2\n    tag_161:\n      pop\n      pop\n      pop\n      pop\n      pop\n      dup2\n      mstore\n      0x20\n      add\n      swap1\n      0x01\n      add\n      swap1\n      jump(tag_156)\n    tag_157:\n      pop\n      pop\n      pop\n      pop\n      swap1\n      pop\n        /* \"stl-contracts/ERC/ERC5169.sol\":233:337  function scriptURI() external view override returns (string[] memory) {... */\n      swap1\n      jump\t// out\n        /* \"@openzeppelin/contracts/token/ERC721/extensions/ERC721Enumerable.sol\":2236:2462  function tokenByIndex(uint256 index) public view virtual returns (uint256) {... */\n    tag_69:\n        /* \"@openzeppelin/contracts/token/ERC721/extensions/ERC721Enumerable.sol\":2302:2309  uint256 */\n      0x00\n        /* \"@openzeppelin/contracts/token/ERC721/extensions/ERC721Enumerable.sol\":2334:2347  totalSupply() */\n      tag_165\n        /* \"@openzeppelin/contracts/token/ERC721/extensions/ERC721Enumerable.sol\":2334:2345  totalSupply */\n      tag_49\n        /* \"@openzeppelin/contracts/token/ERC721/extensions/ERC721Enumerable.sol\":2334:2347  totalSupply() */\n      jump\t// in\n    tag_165:\n        /* \"@openzeppelin/contracts/token/ERC721/extensions/ERC721Enumerable.sol\":2325:2330  index */\n      dup3\n        /* \"@openzeppelin/contracts/token/ERC721/extensions/ERC721Enumerable.sol\":2325:2347  index >= totalSupply() */\n      lt\n        /* \"@openzeppelin/contracts/token/ERC721/extensions/ERC721Enumerable.sol\":2321:2422  if (index >= totalSupply()) {... */\n      tag_166\n      jumpi\n        /* \"@openzeppelin/contracts/token/ERC721/extensions/ERC721Enumerable.sol\":2401:2402  0 */\n      0x00\n        /* \"@openzeppelin/contracts/token/ERC721/extensions/ERC721Enumerable.sol\":2405:2410  index */\n      dup3\n        /* \"@openzeppelin/contracts/token/ERC721/extensions/ERC721Enumerable.sol\":2370:2411  ERC721OutOfBoundsIndex(address(0), index) */\n      mload(0x40)\n      0xa57d13dc00000000000000000000000000000000000000000000000000000000\n      dup2\n      mstore\n      0x04\n      add\n      tag_167\n      swap3\n      swap2\n      swap1\n      tag_152\n      jump\t// in\n    tag_167:\n      mload(0x40)\n      dup1\n      swap2\n      sub\n      swap1\n      revert\n        /* \"@openzeppelin/contracts/token/ERC721/extensions/ERC721Enumerable.sol\":2321:2422  if (index >= totalSupply()) {... */\n    tag_166:\n        /* \"@openzeppelin/contracts/token/ERC721/extensions/ERC721Enumerable.sol\":2438:2448  _allTokens */\n      0x0a\n        /* \"@openzeppelin/contracts/token/ERC721/extensions/ERC721Enumerable.sol\":2449:2454  index */\n      dup3\n        /* \"@openzeppelin/contracts/token/ERC721/extensions/ERC721Enumerable.sol\":2438:2455  _allTokens[index] */\n      dup2\n      sload\n      dup2\n      lt\n      tag_168\n      jumpi\n      tag_169\n      tag_170\n      jump\t// in\n    tag_169:\n    tag_168:\n      swap1\n      0x00\n      mstore\n      keccak256(0x00, 0x20)\n      add\n      sload\n        /* \"@openzeppelin/contracts/token/ERC721/extensions/ERC721Enumerable.sol\":2431:2455  return _allTokens[index] */\n      swap1\n      pop\n        /* \"@openzeppelin/contracts/token/ERC721/extensions/ERC721Enumerable.sol\":2236:2462  function tokenByIndex(uint256 index) public view virtual returns (uint256) {... */\n      swap2\n      swap1\n      pop\n      jump\t// out\n        /* \"@openzeppelin/contracts/token/ERC721/ERC721.sol\":2185:2303  function ownerOf(uint256 tokenId) public view virtual returns (address) {... */\n    tag_73:\n        /* \"@openzeppelin/contracts/token/ERC721/ERC721.sol\":2248:2255  address */\n      0x00\n        /* \"@openzeppelin/contracts/token/ERC721/ERC721.sol\":2274:2296  _requireOwned(tokenId) */\n      tag_173\n        /* \"@openzeppelin/contracts/token/ERC721/ERC721.sol\":2288:2295  tokenId */\n      dup3\n        /* \"@openzeppelin/contracts/token/ERC721/ERC721.sol\":2274:2287  _requireOwned */\n      tag_130\n        /* \"@openzeppelin/contracts/token/ERC721/ERC721.sol\":2274:2296  _requireOwned(tokenId) */\n      jump\t// in\n    tag_173:\n        /* \"@openzeppelin/contracts/token/ERC721/ERC721.sol\":2267:2296  return _requireOwned(tokenId) */\n      swap1\n      pop\n        /* \"@openzeppelin/contracts/token/ERC721/ERC721.sol\":2185:2303  function ownerOf(uint256 tokenId) public view virtual returns (address) {... */\n      swap2\n      swap1\n      pop\n      jump\t// out\n        /* \"@openzeppelin/contracts/token/ERC721/ERC721.sol\":1920:2128  function balanceOf(address owner) public view virtual returns (uint256) {... */\n    tag_78:\n        /* \"@openzeppelin/contracts/token/ERC721/ERC721.sol\":1983:1990  uint256 */\n      0x00\n        /* \"@openzeppelin/contracts/token/ERC721/ERC721.sol\":2023:2024  0 */\n      dup1\n        /* \"@openzeppelin/contracts/token/ERC721/ERC721.sol\":2006:2025  owner == address(0) */\n      0xffffffffffffffffffffffffffffffffffffffff\n      and\n        /* \"@openzeppelin/contracts/token/ERC721/ERC721.sol\":2006:2011  owner */\n      dup3\n        /* \"@openzeppelin/contracts/token/ERC721/ERC721.sol\":2006:2025  owner == address(0) */\n      0xffffffffffffffffffffffffffffffffffffffff\n      and\n      sub\n        /* \"@openzeppelin/contracts/token/ERC721/ERC721.sol\":2002:2089  if (owner == address(0)) {... */\n      tag_175\n      jumpi\n        /* \"@openzeppelin/contracts/token/ERC721/ERC721.sol\":2075:2076  0 */\n      0x00\n        /* \"@openzeppelin/contracts/token/ERC721/ERC721.sol\":2048:2078  ERC721InvalidOwner(address(0)) */\n      mload(0x40)\n      0x89c62b6400000000000000000000000000000000000000000000000000000000\n      dup2\n      mstore\n      0x04\n      add\n      tag_176\n      swap2\n      swap1\n      tag_43\n      jump\t// in\n    tag_176:\n      mload(0x40)\n      dup1\n      swap2\n      sub\n      swap1\n      revert\n        /* \"@openzeppelin/contracts/token/ERC721/ERC721.sol\":2002:2089  if (owner == address(0)) {... */\n    tag_175:\n        /* \"@openzeppelin/contracts/token/ERC721/ERC721.sol\":2105:2114  _balances */\n      0x05\n        /* \"@openzeppelin/contracts/token/ERC721/ERC721.sol\":2105:2121  _balances[owner] */\n      0x00\n        /* \"@openzeppelin/contracts/token/ERC721/ERC721.sol\":2115:2120  owner */\n      dup4\n        /* \"@openzeppelin/contracts/token/ERC721/ERC721.sol\":2105:2121  _balances[owner] */\n      0xffffffffffffffffffffffffffffffffffffffff\n      and\n      0xffffffffffffffffffffffffffffffffffffffff\n      and\n      dup2\n      mstore\n      0x20\n      add\n      swap1\n      dup2\n      mstore\n      0x20\n      add\n      0x00\n      keccak256\n      sload\n        /* \"@openzeppelin/contracts/token/ERC721/ERC721.sol\":2098:2121  return _balances[owner] */\n      swap1\n      pop\n        /* \"@openzeppelin/contracts/token/ERC721/ERC721.sol\":1920:2128  function balanceOf(address owner) public view virtual returns (uint256) {... */\n      swap2\n      swap1\n      pop\n      jump\t// out\n        /* \"@openzeppelin/contracts/access/Ownable.sol\":2293:2394  function renounceOwnership() public virtual onlyOwner {... */\n    tag_81:\n        /* \"@openzeppelin/contracts/access/Ownable.sol\":1531:1544  _checkOwner() */\n      tag_178\n        /* \"@openzeppelin/contracts/access/Ownable.sol\":1531:1542  _checkOwner */\n      tag_179\n        /* \"@openzeppelin/contracts/access/Ownable.sol\":1531:1544  _checkOwner() */\n      jump\t// in\n    tag_178:\n        /* \"@openzeppelin/contracts/access/Ownable.sol\":2357:2387  _transferOwnership(address(0)) */\n      tag_181\n        /* \"@openzeppelin/contracts/access/Ownable.sol\":2384:2385  0 */\n      0x00\n        /* \"@openzeppelin/contracts/access/Ownable.sol\":2357:2375  _transferOwnership */\n      tag_182\n        /* \"@openzeppelin/contracts/access/Ownable.sol\":2357:2387  _transferOwnership(address(0)) */\n      jump\t// in\n    tag_181:\n        /* \"@openzeppelin/contracts/access/Ownable.sol\":2293:2394  function renounceOwnership() public virtual onlyOwner {... */\n      jump\t// out\n        /* \"@openzeppelin/contracts/access/Ownable.sol\":1638:1723  function owner() public view virtual returns (address) {... */\n    tag_83:\n        /* \"@openzeppelin/contracts/access/Ownable.sol\":1684:1691  address */\n      0x00\n        /* \"@openzeppelin/contracts/access/Ownable.sol\":1710:1716  _owner */\n      dup1\n      0x00\n      swap1\n      sload\n      swap1\n      0x0100\n      exp\n      swap1\n      div\n      0xffffffffffffffffffffffffffffffffffffffff\n      and\n        /* \"@openzeppelin/contracts/access/Ownable.sol\":1703:1716  return _owner */\n      swap1\n      pop\n        /* \"@openzeppelin/contracts/access/Ownable.sol\":1638:1723  function owner() public view virtual returns (address) {... */\n      swap1\n      jump\t// out\n        /* \"@openzeppelin/contracts/token/ERC721/ERC721.sol\":2518:2611  function symbol() public view virtual returns (string memory) {... */\n    tag_86:\n        /* \"@openzeppelin/contracts/token/ERC721/ERC721.sol\":2565:2578  string memory */\n      0x60\n        /* \"@openzeppelin/contracts/token/ERC721/ERC721.sol\":2597:2604  _symbol */\n      0x03\n        /* \"@openzeppelin/contracts/token/ERC721/ERC721.sol\":2590:2604  return _symbol */\n      dup1\n      sload\n      tag_185\n      swap1\n      tag_123\n      jump\t// in\n    tag_185:\n      dup1\n      0x1f\n      add\n      0x20\n      dup1\n      swap2\n      div\n      mul\n      0x20\n      add\n      mload(0x40)\n      swap1\n      dup2\n      add\n      0x40\n      mstore\n      dup1\n      swap3\n      swap2\n      swap1\n      dup2\n      dup2\n      mstore\n      0x20\n      add\n      dup3\n      dup1\n      sload\n      tag_186\n      swap1\n      tag_123\n      jump\t// in\n    tag_186:\n      dup1\n      iszero\n      tag_187\n      jumpi\n      dup1\n      0x1f\n      lt\n      tag_188\n      jumpi\n      0x0100\n      dup1\n      dup4\n      sload\n      div\n      mul\n      dup4\n      mstore\n      swap2\n      0x20\n      add\n      swap2\n      jump(tag_187)\n    tag_188:\n      dup3\n      add\n      swap2\n      swap1\n      0x00\n      mstore\n      keccak256(0x00, 0x20)\n      swap1\n    tag_189:\n      dup2\n      sload\n      dup2\n      mstore\n      swap1\n      0x01\n      add\n      swap1\n      0x20\n      add\n      dup1\n      dup4\n      gt\n      tag_189\n      jumpi\n      dup3\n      swap1\n      sub\n      0x1f\n      and\n      dup3\n      add\n      swap2\n    tag_187:\n      pop\n      pop\n      pop\n      pop\n      pop\n      swap1\n      pop\n        /* \"@openzeppelin/contracts/token/ERC721/ERC721.sol\":2518:2611  function symbol() public view virtual returns (string memory) {... */\n      swap1\n      jump\t// out\n        /* \"contracts/MyToken.sol\":910:1013  function safeMint(address to, uint256 tokenId) public onlyOwner {... */\n    tag_90:\n        /* \"@openzeppelin/contracts/access/Ownable.sol\":1531:1544  _checkOwner() */\n      tag_191\n        /* \"@openzeppelin/contracts/access/Ownable.sol\":1531:1542  _checkOwner */\n      tag_179\n        /* \"@openzeppelin/contracts/access/Ownable.sol\":1531:1544  _checkOwner() */\n      jump\t// in\n    tag_191:\n        /* \"contracts/MyToken.sol\":984:1006  _safeMint(to, tokenId) */\n      tag_193\n        /* \"contracts/MyToken.sol\":994:996  to */\n      dup3\n        /* \"contracts/MyToken.sol\":998:1005  tokenId */\n      dup3\n        /* \"contracts/MyToken.sol\":984:993  _safeMint */\n      tag_194\n        /* \"contracts/MyToken.sol\":984:1006  _safeMint(to, tokenId) */\n      jump\t// in\n    tag_193:\n        /* \"contracts/MyToken.sol\":910:1013  function safeMint(address to, uint256 tokenId) public onlyOwner {... */\n      pop\n      pop\n      jump\t// out\n        /* \"@openzeppelin/contracts/token/ERC721/ERC721.sol\":3718:3862  function setApprovalForAll(address operator, bool approved) public virtual {... */\n    tag_94:\n        /* \"@openzeppelin/contracts/token/ERC721/ERC721.sol\":3803:3855  _setApprovalForAll(_msgSender(), operator, approved) */\n      tag_196\n        /* \"@openzeppelin/contracts/token/ERC721/ERC721.sol\":3822:3834  _msgSender() */\n      tag_197\n        /* \"@openzeppelin/contracts/token/ERC721/ERC721.sol\":3822:3832  _msgSender */\n      tag_136\n        /* \"@openzeppelin/contracts/token/ERC721/ERC721.sol\":3822:3834  _msgSender() */\n      jump\t// in\n    tag_197:\n        /* \"@openzeppelin/contracts/token/ERC721/ERC721.sol\":3836:3844  operator */\n      dup4\n        /* \"@openzeppelin/contracts/token/ERC721/ERC721.sol\":3846:3854  approved */\n      dup4\n        /* \"@openzeppelin/contracts/token/ERC721/ERC721.sol\":3803:3821  _setApprovalForAll */\n      tag_198\n        /* \"@openzeppelin/contracts/token/ERC721/ERC721.sol\":3803:3855  _setApprovalForAll(_msgSender(), operator, approved) */\n      jump\t// in\n    tag_196:\n        /* \"@openzeppelin/contracts/token/ERC721/ERC721.sol\":3718:3862  function setApprovalForAll(address operator, bool approved) public virtual {... */\n      pop\n      pop\n      jump\t// out\n        /* \"@openzeppelin/contracts/token/ERC721/ERC721.sol\":4985:5193  function safeTransferFrom(address from, address to, uint256 tokenId, bytes memory data) public virtual {... */\n    tag_98:\n        /* \"@openzeppelin/contracts/token/ERC721/ERC721.sol\":5098:5129  transferFrom(from, to, tokenId) */\n      tag_200\n        /* \"@openzeppelin/contracts/token/ERC721/ERC721.sol\":5111:5115  from */\n      dup5\n        /* \"@openzeppelin/contracts/token/ERC721/ERC721.sol\":5117:5119  to */\n      dup5\n        /* \"@openzeppelin/contracts/token/ERC721/ERC721.sol\":5121:5128  tokenId */\n      dup5\n        /* \"@openzeppelin/contracts/token/ERC721/ERC721.sol\":5098:5110  transferFrom */\n      tag_55\n        /* \"@openzeppelin/contracts/token/ERC721/ERC721.sol\":5098:5129  transferFrom(from, to, tokenId) */\n      jump\t// in\n    tag_200:\n        /* \"@openzeppelin/contracts/token/ERC721/ERC721.sol\":5139:5186  _checkOnERC721Received(from, to, tokenId, data) */\n      tag_201\n        /* \"@openzeppelin/contracts/token/ERC721/ERC721.sol\":5162:5166  from */\n      dup5\n        /* \"@openzeppelin/contracts/token/ERC721/ERC721.sol\":5168:5170  to */\n      dup5\n        /* \"@openzeppelin/contracts/token/ERC721/ERC721.sol\":5172:5179  tokenId */\n      dup5\n        /* \"@openzeppelin/contracts/token/ERC721/ERC721.sol\":5181:5185  data */\n      dup5\n        /* \"@openzeppelin/contracts/token/ERC721/ERC721.sol\":5139:5161  _checkOnERC721Received */\n      tag_202\n        /* \"@openzeppelin/contracts/token/ERC721/ERC721.sol\":5139:5186  _checkOnERC721Received(from, to, tokenId, data) */\n      jump\t// in\n    tag_201:\n        /* \"@openzeppelin/contracts/token/ERC721/ERC721.sol\":4985:5193  function safeTransferFrom(address from, address to, uint256 tokenId, bytes memory data) public virtual {... */\n      pop\n      pop\n      pop\n      pop\n      jump\t// out\n        /* \"@openzeppelin/contracts/token/ERC721/ERC721.sol\":2677:2932  function tokenURI(uint256 tokenId) public view virtual returns (string memory) {... */\n    tag_101:\n        /* \"@openzeppelin/contracts/token/ERC721/ERC721.sol\":2741:2754  string memory */\n      0x60\n        /* \"@openzeppelin/contracts/token/ERC721/ERC721.sol\":2766:2788  _requireOwned(tokenId) */\n      tag_204\n        /* \"@openzeppelin/contracts/token/ERC721/ERC721.sol\":2780:2787  tokenId */\n      dup3\n        /* \"@openzeppelin/contracts/token/ERC721/ERC721.sol\":2766:2779  _requireOwned */\n      tag_130\n        /* \"@openzeppelin/contracts/token/ERC721/ERC721.sol\":2766:2788  _requireOwned(tokenId) */\n      jump\t// in\n    tag_204:\n      pop\n        /* \"@openzeppelin/contracts/token/ERC721/ERC721.sol\":2799:2820  string memory baseURI */\n      0x00\n        /* \"@openzeppelin/contracts/token/ERC721/ERC721.sol\":2823:2833  _baseURI() */\n      tag_205\n        /* \"@openzeppelin/contracts/token/ERC721/ERC721.sol\":2823:2831  _baseURI */\n      tag_206\n        /* \"@openzeppelin/contracts/token/ERC721/ERC721.sol\":2823:2833  _baseURI() */\n      jump\t// in\n    tag_205:\n        /* \"@openzeppelin/contracts/token/ERC721/ERC721.sol\":2799:2833  string memory baseURI = _baseURI() */\n      swap1\n      pop\n        /* \"@openzeppelin/contracts/token/ERC721/ERC721.sol\":2874:2875  0 */\n      0x00\n        /* \"@openzeppelin/contracts/token/ERC721/ERC721.sol\":2856:2863  baseURI */\n      dup2\n        /* \"@openzeppelin/contracts/token/ERC721/ERC721.sol\":2850:2871  bytes(baseURI).length */\n      mload\n        /* \"@openzeppelin/contracts/token/ERC721/ERC721.sol\":2850:2875  bytes(baseURI).length > 0 */\n      gt\n        /* \"@openzeppelin/contracts/token/ERC721/ERC721.sol\":2850:2925  bytes(baseURI).length > 0 ? string.concat(baseURI, tokenId.toString()) : \"\" */\n      tag_207\n      jumpi\n      mload(0x40)\n      dup1\n      0x20\n      add\n      0x40\n      mstore\n      dup1\n      0x00\n      dup2\n      mstore\n      pop\n      jump(tag_208)\n    tag_207:\n        /* \"@openzeppelin/contracts/token/ERC721/ERC721.sol\":2892:2899  baseURI */\n      dup1\n        /* \"@openzeppelin/contracts/token/ERC721/ERC721.sol\":2901:2919  tokenId.toString() */\n      tag_209\n        /* \"@openzeppelin/contracts/token/ERC721/ERC721.sol\":2901:2908  tokenId */\n      dup5\n        /* \"@openzeppelin/contracts/token/ERC721/ERC721.sol\":2901:2917  tokenId.toString */\n      tag_210\n        /* \"@openzeppelin/contracts/token/ERC721/ERC721.sol\":2901:2919  tokenId.toString() */\n      jump\t// in\n    tag_209:\n        /* \"@openzeppelin/contracts/token/ERC721/ERC721.sol\":2878:2920  string.concat(baseURI, tokenId.toString()) */\n      add(0x20, mload(0x40))\n      tag_211\n      swap3\n      swap2\n      swap1\n      tag_212\n      jump\t// in\n    tag_211:\n      mload(0x40)\n      0x20\n      dup2\n      dup4\n      sub\n      sub\n      dup2\n      mstore\n      swap1\n      0x40\n      mstore\n        /* \"@openzeppelin/contracts/token/ERC721/ERC721.sol\":2850:2925  bytes(baseURI).length > 0 ? string.concat(baseURI, tokenId.toString()) : \"\" */\n    tag_208:\n        /* \"@openzeppelin/contracts/token/ERC721/ERC721.sol\":2843:2925  return bytes(baseURI).length > 0 ? string.concat(baseURI, tokenId.toString()) : \"\" */\n      swap2\n      pop\n      pop\n        /* \"@openzeppelin/contracts/token/ERC721/ERC721.sol\":2677:2932  function tokenURI(uint256 tokenId) public view virtual returns (string memory) {... */\n      swap2\n      swap1\n      pop\n      jump\t// out\n        /* \"stl-contracts/ERC/ERC5169.sol\":343:542  function setScriptURI(string[] memory newScriptURI) external override {... */\n    tag_106:\n        /* \"stl-contracts/ERC/ERC5169.sol\":423:457  _authorizeSetScripts(newScriptURI) */\n      tag_214\n        /* \"stl-contracts/ERC/ERC5169.sol\":444:456  newScriptURI */\n      dup2\n        /* \"stl-contracts/ERC/ERC5169.sol\":423:443  _authorizeSetScripts */\n      tag_215\n        /* \"stl-contracts/ERC/ERC5169.sol\":423:457  _authorizeSetScripts(newScriptURI) */\n      jump\t// in\n    tag_214:\n        /* \"stl-contracts/ERC/ERC5169.sol\":481:493  newScriptURI */\n      dup1\n        /* \"stl-contracts/ERC/ERC5169.sol\":468:478  _scriptURI */\n      0x01\n        /* \"stl-contracts/ERC/ERC5169.sol\":468:493  _scriptURI = newScriptURI */\n      swap1\n      dup1\n      mload\n      swap1\n      0x20\n      add\n      swap1\n      tag_216\n      swap3\n      swap2\n      swap1\n      tag_217\n      jump\t// in\n    tag_216:\n      pop\n        /* \"stl-contracts/ERC/ERC5169.sol\":509:535  ScriptUpdate(newScriptURI) */\n      0x9538911740e5519a40db77fb5f637de0d56cdd804318d81ae270cc24fbd8479e\n        /* \"stl-contracts/ERC/ERC5169.sol\":522:534  newScriptURI */\n      dup2\n        /* \"stl-contracts/ERC/ERC5169.sol\":509:535  ScriptUpdate(newScriptURI) */\n      mload(0x40)\n      tag_218\n      swap2\n      swap1\n      tag_66\n      jump\t// in\n    tag_218:\n      mload(0x40)\n      dup1\n      swap2\n      sub\n      swap1\n      log1\n        /* \"stl-contracts/ERC/ERC5169.sol\":343:542  function setScriptURI(string[] memory newScriptURI) external override {... */\n      pop\n      jump\t// out\n        /* \"@openzeppelin/contracts/token/ERC721/ERC721.sol\":3928:4081  function isApprovedForAll(address owner, address operator) public view virtual returns (bool) {... */\n    tag_110:\n        /* \"@openzeppelin/contracts/token/ERC721/ERC721.sol\":4016:4020  bool */\n      0x00\n        /* \"@openzeppelin/contracts/token/ERC721/ERC721.sol\":4039:4057  _operatorApprovals */\n      0x07\n        /* \"@openzeppelin/contracts/token/ERC721/ERC721.sol\":4039:4064  _operatorApprovals[owner] */\n      0x00\n        /* \"@openzeppelin/contracts/token/ERC721/ERC721.sol\":4058:4063  owner */\n      dup5\n        /* \"@openzeppelin/contracts/token/ERC721/ERC721.sol\":4039:4064  _operatorApprovals[owner] */\n      0xffffffffffffffffffffffffffffffffffffffff\n      and\n      0xffffffffffffffffffffffffffffffffffffffff\n      and\n      dup2\n      mstore\n      0x20\n      add\n      swap1\n      dup2\n      mstore\n      0x20\n      add\n      0x00\n      keccak256\n        /* \"@openzeppelin/contracts/token/ERC721/ERC721.sol\":4039:4074  _operatorApprovals[owner][operator] */\n      0x00\n        /* \"@openzeppelin/contracts/token/ERC721/ERC721.sol\":4065:4073  operator */\n      dup4\n        /* \"@openzeppelin/contracts/token/ERC721/ERC721.sol\":4039:4074  _operatorApprovals[owner][operator] */\n      0xffffffffffffffffffffffffffffffffffffffff\n      and\n      0xffffffffffffffffffffffffffffffffffffffff\n      and\n      dup2\n      mstore\n      0x20\n      add\n      swap1\n      dup2\n      mstore\n      0x20\n      add\n      0x00\n      keccak256\n      0x00\n      swap1\n      sload\n      swap1\n      0x0100\n      exp\n      swap1\n      div\n      0xff\n      and\n        /* \"@openzeppelin/contracts/token/ERC721/ERC721.sol\":4032:4074  return _operatorApprovals[owner][operator] */\n      swap1\n      pop\n        /* \"@openzeppelin/contracts/token/ERC721/ERC721.sol\":3928:4081  function isApprovedForAll(address owner, address operator) public view virtual returns (bool) {... */\n      swap3\n      swap2\n      pop\n      pop\n      jump\t// out\n        /* \"@openzeppelin/contracts/access/Ownable.sol\":2543:2758  function transferOwnership(address newOwner) public virtual onlyOwner {... */\n    tag_114:\n        /* \"@openzeppelin/contracts/access/Ownable.sol\":1531:1544  _checkOwner() */\n      tag_221\n        /* \"@openzeppelin/contracts/access/Ownable.sol\":1531:1542  _checkOwner */\n      tag_179\n        /* \"@openzeppelin/contracts/access/Ownable.sol\":1531:1544  _checkOwner() */\n      jump\t// in\n    tag_221:\n        /* \"@openzeppelin/contracts/access/Ownable.sol\":2647:2648  0 */\n      0x00\n        /* \"@openzeppelin/contracts/access/Ownable.sol\":2627:2649  newOwner == address(0) */\n      0xffffffffffffffffffffffffffffffffffffffff\n      and\n        /* \"@openzeppelin/contracts/access/Ownable.sol\":2627:2635  newOwner */\n      dup2\n        /* \"@openzeppelin/contracts/access/Ownable.sol\":2627:2649  newOwner == address(0) */\n      0xffffffffffffffffffffffffffffffffffffffff\n      and\n      sub\n        /* \"@openzeppelin/contracts/access/Ownable.sol\":2623:2714  if (newOwner == address(0)) {... */\n      tag_223\n      jumpi\n        /* \"@openzeppelin/contracts/access/Ownable.sol\":2700:2701  0 */\n      0x00\n        /* \"@openzeppelin/contracts/access/Ownable.sol\":2672:2703  OwnableInvalidOwner(address(0)) */\n      mload(0x40)\n      0x1e4fbdf700000000000000000000000000000000000000000000000000000000\n      dup2\n      mstore\n      0x04\n      add\n      tag_224\n      swap2\n      swap1\n      tag_43\n      jump\t// in\n    tag_224:\n      mload(0x40)\n      dup1\n      swap2\n      sub\n      swap1\n      revert\n        /* \"@openzeppelin/contracts/access/Ownable.sol\":2623:2714  if (newOwner == address(0)) {... */\n    tag_223:\n        /* \"@openzeppelin/contracts/access/Ownable.sol\":2723:2751  _transferOwnership(newOwner) */\n      tag_225\n        /* \"@openzeppelin/contracts/access/Ownable.sol\":2742:2750  newOwner */\n      dup2\n        /* \"@openzeppelin/contracts/access/Ownable.sol\":2723:2741  _transferOwnership */\n      tag_182\n        /* \"@openzeppelin/contracts/access/Ownable.sol\":2723:2751  _transferOwnership(newOwner) */\n      jump\t// in\n    tag_225:\n        /* \"@openzeppelin/contracts/access/Ownable.sol\":2543:2758  function transferOwnership(address newOwner) public virtual onlyOwner {... */\n      pop\n      jump\t// out\n        /* \"@openzeppelin/contracts/token/ERC721/extensions/ERC721Enumerable.sol\":1435:1657  function supportsInterface(bytes4 interfaceId) public view virtual override(IERC165, ERC721) returns (bool) {... */\n    tag_117:\n        /* \"@openzeppelin/contracts/token/ERC721/extensions/ERC721Enumerable.sol\":1537:1541  bool */\n      0x00\n        /* \"@openzeppelin/contracts/token/ERC721/extensions/ERC721Enumerable.sol\":1575:1610  type(IERC721Enumerable).interfaceId */\n      0x780e9d6300000000000000000000000000000000000000000000000000000000\n        /* \"@openzeppelin/contracts/token/ERC721/extensions/ERC721Enumerable.sol\":1560:1610  interfaceId == type(IERC721Enumerable).interfaceId */\n      not(0xffffffffffffffffffffffffffffffffffffffffffffffffffffffff)\n      and\n        /* \"@openzeppelin/contracts/token/ERC721/extensions/ERC721Enumerable.sol\":1560:1571  interfaceId */\n      dup3\n        /* \"@openzeppelin/contracts/token/ERC721/extensions/ERC721Enumerable.sol\":1560:1610  interfaceId == type(IERC721Enumerable).interfaceId */\n      not(0xffffffffffffffffffffffffffffffffffffffffffffffffffffffff)\n      and\n      eq\n        /* \"@openzeppelin/contracts/token/ERC721/extensions/ERC721Enumerable.sol\":1560:1650  interfaceId == type(IERC721Enumerable).interfaceId || super.supportsInterface(interfaceId) */\n      dup1\n      tag_227\n      jumpi\n      pop\n        /* \"@openzeppelin/contracts/token/ERC721/extensions/ERC721Enumerable.sol\":1614:1650  super.supportsInterface(interfaceId) */\n      tag_228\n        /* \"@openzeppelin/contracts/token/ERC721/extensions/ERC721Enumerable.sol\":1638:1649  interfaceId */\n      dup3\n        /* \"@openzeppelin/contracts/token/ERC721/extensions/ERC721Enumerable.sol\":1614:1637  super.supportsInterface */\n      tag_229\n        /* \"@openzeppelin/contracts/token/ERC721/extensions/ERC721Enumerable.sol\":1614:1650  super.supportsInterface(interfaceId) */\n      jump\t// in\n    tag_228:\n        /* \"@openzeppelin/contracts/token/ERC721/extensions/ERC721Enumerable.sol\":1560:1650  interfaceId == type(IERC721Enumerable).interfaceId || super.supportsInterface(interfaceId) */\n    tag_227:\n        /* \"@openzeppelin/contracts/token/ERC721/extensions/ERC721Enumerable.sol\":1553:1650  return interfaceId == type(IERC721Enumerable).interfaceId || super.supportsInterface(interfaceId) */\n      swap1\n      pop\n        /* \"@openzeppelin/contracts/token/ERC721/extensions/ERC721Enumerable.sol\":1435:1657  function supportsInterface(bytes4 interfaceId) public view virtual override(IERC165, ERC721) returns (bool) {... */\n      swap2\n      swap1\n      pop\n      jump\t// out\n        /* \"stl-contracts/ERC/ERC5169.sol\":548:695  function supportsInterface(bytes4 interfaceId) public view virtual returns (bool) {... */\n    tag_120:\n        /* \"stl-contracts/ERC/ERC5169.sol\":624:628  bool */\n      0x00\n        /* \"stl-contracts/ERC/ERC5169.sol\":662:688  type(IERC5169).interfaceId */\n      0xa86517a100000000000000000000000000000000000000000000000000000000\n        /* \"stl-contracts/ERC/ERC5169.sol\":647:688  interfaceId == type(IERC5169).interfaceId */\n      not(0xffffffffffffffffffffffffffffffffffffffffffffffffffffffff)\n      and\n        /* \"stl-contracts/ERC/ERC5169.sol\":647:658  interfaceId */\n      dup3\n        /* \"stl-contracts/ERC/ERC5169.sol\":647:688  interfaceId == type(IERC5169).interfaceId */\n      not(0xffffffffffffffffffffffffffffffffffffffffffffffffffffffff)\n      and\n      eq\n        /* \"stl-contracts/ERC/ERC5169.sol\":640:688  return interfaceId == type(IERC5169).interfaceId */\n      swap1\n      pop\n        /* \"stl-contracts/ERC/ERC5169.sol\":548:695  function supportsInterface(bytes4 interfaceId) public view virtual returns (bool) {... */\n      swap2\n      swap1\n      pop\n      jump\t// out\n        /* \"@openzeppelin/contracts/token/ERC721/ERC721.sol\":16138:16379  function _requireOwned(uint256 tokenId) internal view returns (address) {... */\n    tag_130:\n        /* \"@openzeppelin/contracts/token/ERC721/ERC721.sol\":16201:16208  address */\n      0x00\n        /* \"@openzeppelin/contracts/token/ERC721/ERC721.sol\":16220:16233  address owner */\n      dup1\n        /* \"@openzeppelin/contracts/token/ERC721/ERC721.sol\":16236:16253  _ownerOf(tokenId) */\n      tag_232\n        /* \"@openzeppelin/contracts/token/ERC721/ERC721.sol\":16245:16252  tokenId */\n      dup4\n        /* \"@openzeppelin/contracts/token/ERC721/ERC721.sol\":16236:16244  _ownerOf */\n      tag_233\n        /* \"@openzeppelin/contracts/token/ERC721/ERC721.sol\":16236:16253  _ownerOf(tokenId) */\n      jump\t// in\n    tag_232:\n        /* \"@openzeppelin/contracts/token/ERC721/ERC721.sol\":16220:16253  address owner = _ownerOf(tokenId) */\n      swap1\n      pop\n        /* \"@openzeppelin/contracts/token/ERC721/ERC721.sol\":16284:16285  0 */\n      0x00\n        /* \"@openzeppelin/contracts/token/ERC721/ERC721.sol\":16267:16286  owner == address(0) */\n      0xffffffffffffffffffffffffffffffffffffffff\n      and\n        /* \"@openzeppelin/contracts/token/ERC721/ERC721.sol\":16267:16272  owner */\n      dup2\n        /* \"@openzeppelin/contracts/token/ERC721/ERC721.sol\":16267:16286  owner == address(0) */\n      0xffffffffffffffffffffffffffffffffffffffff\n      and\n      sub\n        /* \"@openzeppelin/contracts/token/ERC721/ERC721.sol\":16263:16351  if (owner == address(0)) {... */\n      tag_234\n      jumpi\n        /* \"@openzeppelin/contracts/token/ERC721/ERC721.sol\":16332:16339  tokenId */\n      dup3\n        /* \"@openzeppelin/contracts/token/ERC721/ERC721.sol\":16309:16340  ERC721NonexistentToken(tokenId) */\n      mload(0x40)\n      0x7e27328900000000000000000000000000000000000000000000000000000000\n      dup2\n      mstore\n      0x04\n      add\n      tag_235\n      swap2\n      swap1\n      tag_51\n      jump\t// in\n    tag_235:\n      mload(0x40)\n      dup1\n      swap2\n      sub\n      swap1\n      revert\n        /* \"@openzeppelin/contracts/token/ERC721/ERC721.sol\":16263:16351  if (owner == address(0)) {... */\n    tag_234:\n        /* \"@openzeppelin/contracts/token/ERC721/ERC721.sol\":16367:16372  owner */\n      dup1\n        /* \"@openzeppelin/contracts/token/ERC721/ERC721.sol\":16360:16372  return owner */\n      swap2\n      pop\n      pop\n        /* \"@openzeppelin/contracts/token/ERC721/ERC721.sol\":16138:16379  function _requireOwned(uint256 tokenId) internal view returns (address) {... */\n      swap2\n      swap1\n      pop\n      jump\t// out\n        /* \"@openzeppelin/contracts/token/ERC721/ERC721.sol\":5938:6065  function _getApproved(uint256 tokenId) internal view virtual returns (address) {... */\n    tag_132:\n        /* \"@openzeppelin/contracts/token/ERC721/ERC721.sol\":6008:6015  address */\n      0x00\n        /* \"@openzeppelin/contracts/token/ERC721/ERC721.sol\":6034:6049  _tokenApprovals */\n      0x06\n        /* \"@openzeppelin/contracts/token/ERC721/ERC721.sol\":6034:6058  _tokenApprovals[tokenId] */\n      0x00\n        /* \"@openzeppelin/contracts/token/ERC721/ERC721.sol\":6050:6057  tokenId */\n      dup4\n        /* \"@openzeppelin/contracts/token/ERC721/ERC721.sol\":6034:6058  _tokenApprovals[tokenId] */\n      dup2\n      mstore\n      0x20\n      add\n      swap1\n      dup2\n      mstore\n      0x20\n      add\n      0x00\n      keccak256\n      0x00\n      swap1\n      sload\n      swap1\n      0x0100\n      exp\n      swap1\n      div\n      0xffffffffffffffffffffffffffffffffffffffff\n      and\n        /* \"@openzeppelin/contracts/token/ERC721/ERC721.sol\":6027:6058  return _tokenApprovals[tokenId] */\n      swap1\n      pop\n        /* \"@openzeppelin/contracts/token/ERC721/ERC721.sol\":5938:6065  function _getApproved(uint256 tokenId) internal view virtual returns (address) {... */\n      swap2\n      swap1\n      pop\n      jump\t// out\n        /* \"@openzeppelin/contracts/utils/Context.sol\":656:752  function _msgSender() internal view virtual returns (address) {... */\n    tag_136:\n        /* \"@openzeppelin/contracts/utils/Context.sol\":709:716  address */\n      0x00\n        /* \"@openzeppelin/contracts/utils/Context.sol\":735:745  msg.sender */\n      caller\n        /* \"@openzeppelin/contracts/utils/Context.sol\":728:745  return msg.sender */\n      swap1\n      pop\n        /* \"@openzeppelin/contracts/utils/Context.sol\":656:752  function _msgSender() internal view virtual returns (address) {... */\n      swap1\n      jump\t// out\n        /* \"@openzeppelin/contracts/token/ERC721/ERC721.sol\":14418:14538  function _approve(address to, uint256 tokenId, address auth) internal {... */\n    tag_137:\n        /* \"@openzeppelin/contracts/token/ERC721/ERC721.sol\":14498:14531  _approve(to, tokenId, auth, true) */\n      tag_239\n        /* \"@openzeppelin/contracts/token/ERC721/ERC721.sol\":14507:14509  to */\n      dup4\n        /* \"@openzeppelin/contracts/token/ERC721/ERC721.sol\":14511:14518  tokenId */\n      dup4\n        /* \"@openzeppelin/contracts/token/ERC721/ERC721.sol\":14520:14524  auth */\n      dup4\n        /* \"@openzeppelin/contracts/token/ERC721/ERC721.sol\":14526:14530  true */\n      0x01\n        /* \"@openzeppelin/contracts/token/ERC721/ERC721.sol\":14498:14506  _approve */\n      tag_240\n        /* \"@openzeppelin/contracts/token/ERC721/ERC721.sol\":14498:14531  _approve(to, tokenId, auth, true) */\n      jump\t// in\n    tag_239:\n        /* \"@openzeppelin/contracts/token/ERC721/ERC721.sol\":14418:14538  function _approve(address to, uint256 tokenId, address auth) internal {... */\n      pop\n      pop\n      pop\n      jump\t// out\n        /* \"@openzeppelin/contracts/token/ERC721/extensions/ERC721Enumerable.sol\":2518:3143  function _update(address to, uint256 tokenId, address auth) internal virtual override returns (address) {... */\n    tag_144:\n        /* \"@openzeppelin/contracts/token/ERC721/extensions/ERC721Enumerable.sol\":2613:2620  address */\n      0x00\n        /* \"@openzeppelin/contracts/token/ERC721/extensions/ERC721Enumerable.sol\":2632:2653  address previousOwner */\n      dup1\n        /* \"@openzeppelin/contracts/token/ERC721/extensions/ERC721Enumerable.sol\":2656:2688  super._update(to, tokenId, auth) */\n      tag_242\n        /* \"@openzeppelin/contracts/token/ERC721/extensions/ERC721Enumerable.sol\":2670:2672  to */\n      dup6\n        /* \"@openzeppelin/contracts/token/ERC721/extensions/ERC721Enumerable.sol\":2674:2681  tokenId */\n      dup6\n        /* \"@openzeppelin/contracts/token/ERC721/extensions/ERC721Enumerable.sol\":2683:2687  auth */\n      dup6\n        /* \"@openzeppelin/contracts/token/ERC721/extensions/ERC721Enumerable.sol\":2656:2669  super._update */\n      tag_243\n        /* \"@openzeppelin/contracts/token/ERC721/extensions/ERC721Enumerable.sol\":2656:2688  super._update(to, tokenId, auth) */\n      jump\t// in\n    tag_242:\n        /* \"@openzeppelin/contracts/token/ERC721/extensions/ERC721Enumerable.sol\":2632:2688  address previousOwner = super._update(to, tokenId, auth) */\n      swap1\n      pop\n        /* \"@openzeppelin/contracts/token/ERC721/extensions/ERC721Enumerable.sol\":2728:2729  0 */\n      0x00\n        /* \"@openzeppelin/contracts/token/ERC721/extensions/ERC721Enumerable.sol\":2703:2730  previousOwner == address(0) */\n      0xffffffffffffffffffffffffffffffffffffffff\n      and\n        /* \"@openzeppelin/contracts/token/ERC721/extensions/ERC721Enumerable.sol\":2703:2716  previousOwner */\n      dup2\n        /* \"@openzeppelin/contracts/token/ERC721/extensions/ERC721Enumerable.sol\":2703:2730  previousOwner == address(0) */\n      0xffffffffffffffffffffffffffffffffffffffff\n      and\n      sub\n        /* \"@openzeppelin/contracts/token/ERC721/extensions/ERC721Enumerable.sol\":2699:2909  if (previousOwner == address(0)) {... */\n      tag_244\n      jumpi\n        /* \"@openzeppelin/contracts/token/ERC721/extensions/ERC721Enumerable.sol\":2746:2786  _addTokenToAllTokensEnumeration(tokenId) */\n      tag_245\n        /* \"@openzeppelin/contracts/token/ERC721/extensions/ERC721Enumerable.sol\":2778:2785  tokenId */\n      dup5\n        /* \"@openzeppelin/contracts/token/ERC721/extensions/ERC721Enumerable.sol\":2746:2777  _addTokenToAllTokensEnumeration */\n      tag_246\n        /* \"@openzeppelin/contracts/token/ERC721/extensions/ERC721Enumerable.sol\":2746:2786  _addTokenToAllTokensEnumeration(tokenId) */\n      jump\t// in\n    tag_245:\n        /* \"@openzeppelin/contracts/token/ERC721/extensions/ERC721Enumerable.sol\":2699:2909  if (previousOwner == address(0)) {... */\n      jump(tag_247)\n    tag_244:\n        /* \"@openzeppelin/contracts/token/ERC721/extensions/ERC721Enumerable.sol\":2824:2826  to */\n      dup5\n        /* \"@openzeppelin/contracts/token/ERC721/extensions/ERC721Enumerable.sol\":2807:2826  previousOwner != to */\n      0xffffffffffffffffffffffffffffffffffffffff\n      and\n        /* \"@openzeppelin/contracts/token/ERC721/extensions/ERC721Enumerable.sol\":2807:2820  previousOwner */\n      dup2\n        /* \"@openzeppelin/contracts/token/ERC721/extensions/ERC721Enumerable.sol\":2807:2826  previousOwner != to */\n      0xffffffffffffffffffffffffffffffffffffffff\n      and\n      eq\n        /* \"@openzeppelin/contracts/token/ERC721/extensions/ERC721Enumerable.sol\":2803:2909  if (previousOwner != to) {... */\n      tag_248\n      jumpi\n        /* \"@openzeppelin/contracts/token/ERC721/extensions/ERC721Enumerable.sol\":2842:2898  _removeTokenFromOwnerEnumeration(previousOwner, tokenId) */\n      tag_249\n        /* \"@openzeppelin/contracts/token/ERC721/extensions/ERC721Enumerable.sol\":2875:2888  previousOwner */\n      dup2\n        /* \"@openzeppelin/contracts/token/ERC721/extensions/ERC721Enumerable.sol\":2890:2897  tokenId */\n      dup6\n        /* \"@openzeppelin/contracts/token/ERC721/extensions/ERC721Enumerable.sol\":2842:2874  _removeTokenFromOwnerEnumeration */\n      tag_250\n        /* \"@openzeppelin/contracts/token/ERC721/extensions/ERC721Enumerable.sol\":2842:2898  _removeTokenFromOwnerEnumeration(previousOwner, tokenId) */\n      jump\t// in\n    tag_249:\n        /* \"@openzeppelin/contracts/token/ERC721/extensions/ERC721Enumerable.sol\":2803:2909  if (previousOwner != to) {... */\n    tag_248:\n        /* \"@openzeppelin/contracts/token/ERC721/extensions/ERC721Enumerable.sol\":2699:2909  if (previousOwner == address(0)) {... */\n    tag_247:\n        /* \"@openzeppelin/contracts/token/ERC721/extensions/ERC721Enumerable.sol\":2936:2937  0 */\n      0x00\n        /* \"@openzeppelin/contracts/token/ERC721/extensions/ERC721Enumerable.sol\":2922:2938  to == address(0) */\n      0xffffffffffffffffffffffffffffffffffffffff\n      and\n        /* \"@openzeppelin/contracts/token/ERC721/extensions/ERC721Enumerable.sol\":2922:2924  to */\n      dup6\n        /* \"@openzeppelin/contracts/token/ERC721/extensions/ERC721Enumerable.sol\":2922:2938  to == address(0) */\n      0xffffffffffffffffffffffffffffffffffffffff\n      and\n      sub\n        /* \"@openzeppelin/contracts/token/ERC721/extensions/ERC721Enumerable.sol\":2918:3106  if (to == address(0)) {... */\n      tag_251\n      jumpi\n        /* \"@openzeppelin/contracts/token/ERC721/extensions/ERC721Enumerable.sol\":2954:2999  _removeTokenFromAllTokensEnumeration(tokenId) */\n      tag_252\n        /* \"@openzeppelin/contracts/token/ERC721/extensions/ERC721Enumerable.sol\":2991:2998  tokenId */\n      dup5\n        /* \"@openzeppelin/contracts/token/ERC721/extensions/ERC721Enumerable.sol\":2954:2990  _removeTokenFromAllTokensEnumeration */\n      tag_253\n        /* \"@openzeppelin/contracts/token/ERC721/extensions/ERC721Enumerable.sol\":2954:2999  _removeTokenFromAllTokensEnumeration(tokenId) */\n      jump\t// in\n    tag_252:\n        /* \"@openzeppelin/contracts/token/ERC721/extensions/ERC721Enumerable.sol\":2918:3106  if (to == address(0)) {... */\n      jump(tag_254)\n    tag_251:\n        /* \"@openzeppelin/contracts/token/ERC721/extensions/ERC721Enumerable.sol\":3037:3039  to */\n      dup5\n        /* \"@openzeppelin/contracts/token/ERC721/extensions/ERC721Enumerable.sol\":3020:3039  previousOwner != to */\n      0xffffffffffffffffffffffffffffffffffffffff\n      and\n        /* \"@openzeppelin/contracts/token/ERC721/extensions/ERC721Enumerable.sol\":3020:3033  previousOwner */\n      dup2\n        /* \"@openzeppelin/contracts/token/ERC721/extensions/ERC721Enumerable.sol\":3020:3039  previousOwner != to */\n      0xffffffffffffffffffffffffffffffffffffffff\n      and\n      eq\n        /* \"@openzeppelin/contracts/token/ERC721/extensions/ERC721Enumerable.sol\":3016:3106  if (previousOwner != to) {... */\n      tag_255\n      jumpi\n        /* \"@openzeppelin/contracts/token/ERC721/extensions/ERC721Enumerable.sol\":3055:3095  _addTokenToOwnerEnumeration(to, tokenId) */\n      tag_256\n        /* \"@openzeppelin/contracts/token/ERC721/extensions/ERC721Enumerable.sol\":3083:3085  to */\n      dup6\n        /* \"@openzeppelin/contracts/token/ERC721/extensions/ERC721Enumerable.sol\":3087:3094  tokenId */\n      dup6\n        /* \"@openzeppelin/contracts/token/ERC721/extensions/ERC721Enumerable.sol\":3055:3082  _addTokenToOwnerEnumeration */\n      tag_257\n        /* \"@openzeppelin/contracts/token/ERC721/extensions/ERC721Enumerable.sol\":3055:3095  _addTokenToOwnerEnumeration(to, tokenId) */\n      jump\t// in\n    tag_256:\n        /* \"@openzeppelin/contracts/token/ERC721/extensions/ERC721Enumerable.sol\":3016:3106  if (previousOwner != to) {... */\n    tag_255:\n        /* \"@openzeppelin/contracts/token/ERC721/extensions/ERC721Enumerable.sol\":2918:3106  if (to == address(0)) {... */\n    tag_254:\n        /* \"@openzeppelin/contracts/token/ERC721/extensions/ERC721Enumerable.sol\":3123:3136  previousOwner */\n      dup1\n        /* \"@openzeppelin/contracts/token/ERC721/extensions/ERC721Enumerable.sol\":3116:3136  return previousOwner */\n      swap2\n      pop\n      pop\n        /* \"@openzeppelin/contracts/token/ERC721/extensions/ERC721Enumerable.sol\":2518:3143  function _update(address to, uint256 tokenId, address auth) internal virtual override returns (address) {... */\n      swap4\n      swap3\n      pop\n      pop\n      pop\n      jump\t// out\n        /* \"@openzeppelin/contracts/access/Ownable.sol\":1796:1958  function _checkOwner() internal view virtual {... */\n    tag_179:\n        /* \"@openzeppelin/contracts/access/Ownable.sol\":1866:1878  _msgSender() */\n      tag_259\n        /* \"@openzeppelin/contracts/access/Ownable.sol\":1866:1876  _msgSender */\n      tag_136\n        /* \"@openzeppelin/contracts/access/Ownable.sol\":1866:1878  _msgSender() */\n      jump\t// in\n    tag_259:\n        /* \"@openzeppelin/contracts/access/Ownable.sol\":1855:1878  owner() != _msgSender() */\n      0xffffffffffffffffffffffffffffffffffffffff\n      and\n        /* \"@openzeppelin/contracts/access/Ownable.sol\":1855:1862  owner() */\n      tag_260\n        /* \"@openzeppelin/contracts/access/Ownable.sol\":1855:1860  owner */\n      tag_83\n        /* \"@openzeppelin/contracts/access/Ownable.sol\":1855:1862  owner() */\n      jump\t// in\n    tag_260:\n        /* \"@openzeppelin/contracts/access/Ownable.sol\":1855:1878  owner() != _msgSender() */\n      0xffffffffffffffffffffffffffffffffffffffff\n      and\n      eq\n        /* \"@openzeppelin/contracts/access/Ownable.sol\":1851:1952  if (owner() != _msgSender()) {... */\n      tag_261\n      jumpi\n        /* \"@openzeppelin/contracts/access/Ownable.sol\":1928:1940  _msgSender() */\n      tag_262\n        /* \"@openzeppelin/contracts/access/Ownable.sol\":1928:1938  _msgSender */\n      tag_136\n        /* \"@openzeppelin/contracts/access/Ownable.sol\":1928:1940  _msgSender() */\n      jump\t// in\n    tag_262:\n        /* \"@openzeppelin/contracts/access/Ownable.sol\":1901:1941  OwnableUnauthorizedAccount(_msgSender()) */\n      mload(0x40)\n      0x118cdaa700000000000000000000000000000000000000000000000000000000\n      dup2\n      mstore\n      0x04\n      add\n      tag_263\n      swap2\n      swap1\n      tag_43\n      jump\t// in\n    tag_263:\n      mload(0x40)\n      dup1\n      swap2\n      sub\n      swap1\n      revert\n        /* \"@openzeppelin/contracts/access/Ownable.sol\":1851:1952  if (owner() != _msgSender()) {... */\n    tag_261:\n        /* \"@openzeppelin/contracts/access/Ownable.sol\":1796:1958  function _checkOwner() internal view virtual {... */\n      jump\t// out\n        /* \"@openzeppelin/contracts/access/Ownable.sol\":2912:3099  function _transferOwnership(address newOwner) internal virtual {... */\n    tag_182:\n        /* \"@openzeppelin/contracts/access/Ownable.sol\":2985:3001  address oldOwner */\n      0x00\n        /* \"@openzeppelin/contracts/access/Ownable.sol\":3004:3010  _owner */\n      dup1\n      0x00\n      swap1\n      sload\n      swap1\n      0x0100\n      exp\n      swap1\n      div\n      0xffffffffffffffffffffffffffffffffffffffff\n      and\n        /* \"@openzeppelin/contracts/access/Ownable.sol\":2985:3010  address oldOwner = _owner */\n      swap1\n      pop\n        /* \"@openzeppelin/contracts/access/Ownable.sol\":3029:3037  newOwner */\n      dup2\n        /* \"@openzeppelin/contracts/access/Ownable.sol\":3020:3026  _owner */\n      0x00\n      dup1\n        /* \"@openzeppelin/contracts/access/Ownable.sol\":3020:3037  _owner = newOwner */\n      0x0100\n      exp\n      dup2\n      sload\n      dup2\n      0xffffffffffffffffffffffffffffffffffffffff\n      mul\n      not\n      and\n      swap1\n      dup4\n      0xffffffffffffffffffffffffffffffffffffffff\n      and\n      mul\n      or\n      swap1\n      sstore\n      pop\n        /* \"@openzeppelin/contracts/access/Ownable.sol\":3083:3091  newOwner */\n      dup2\n        /* \"@openzeppelin/contracts/access/Ownable.sol\":3052:3092  OwnershipTransferred(oldOwner, newOwner) */\n      0xffffffffffffffffffffffffffffffffffffffff\n      and\n        /* \"@openzeppelin/contracts/access/Ownable.sol\":3073:3081  oldOwner */\n      dup2\n        /* \"@openzeppelin/contracts/access/Ownable.sol\":3052:3092  OwnershipTransferred(oldOwner, newOwner) */\n      0xffffffffffffffffffffffffffffffffffffffff\n      and\n      0x8be0079c531659141344cd1fd0a4f28419497f9722a3daafe3b4186f6b6457e0\n      mload(0x40)\n      mload(0x40)\n      dup1\n      swap2\n      sub\n      swap1\n      log3\n        /* \"@openzeppelin/contracts/access/Ownable.sol\":2975:3099  {... */\n      pop\n        /* \"@openzeppelin/contracts/access/Ownable.sol\":2912:3099  function _transferOwnership(address newOwner) internal virtual {... */\n      pop\n      jump\t// out\n        /* \"@openzeppelin/contracts/token/ERC721/ERC721.sol\":10633:10733  function _safeMint(address to, uint256 tokenId) internal {... */\n    tag_194:\n        /* \"@openzeppelin/contracts/token/ERC721/ERC721.sol\":10700:10726  _safeMint(to, tokenId, \"\") */\n      tag_266\n        /* \"@openzeppelin/contracts/token/ERC721/ERC721.sol\":10710:10712  to */\n      dup3\n        /* \"@openzeppelin/contracts/token/ERC721/ERC721.sol\":10714:10721  tokenId */\n      dup3\n        /* \"@openzeppelin/contracts/token/ERC721/ERC721.sol\":10700:10726  _safeMint(to, tokenId, \"\") */\n      mload(0x40)\n      dup1\n      0x20\n      add\n      0x40\n      mstore\n      dup1\n      0x00\n      dup2\n      mstore\n      pop\n        /* \"@openzeppelin/contracts/token/ERC721/ERC721.sol\":10700:10709  _safeMint */\n      tag_267\n        /* \"@openzeppelin/contracts/token/ERC721/ERC721.sol\":10700:10726  _safeMint(to, tokenId, \"\") */\n      jump\t// in\n    tag_266:\n        /* \"@openzeppelin/contracts/token/ERC721/ERC721.sol\":10633:10733  function _safeMint(address to, uint256 tokenId) internal {... */\n      pop\n      pop\n      jump\t// out\n        /* \"@openzeppelin/contracts/token/ERC721/ERC721.sol\":15591:15903  function _setApprovalForAll(address owner, address operator, bool approved) internal virtual {... */\n    tag_198:\n        /* \"@openzeppelin/contracts/token/ERC721/ERC721.sol\":15718:15719  0 */\n      0x00\n        /* \"@openzeppelin/contracts/token/ERC721/ERC721.sol\":15698:15720  operator == address(0) */\n      0xffffffffffffffffffffffffffffffffffffffff\n      and\n        /* \"@openzeppelin/contracts/token/ERC721/ERC721.sol\":15698:15706  operator */\n      dup3\n        /* \"@openzeppelin/contracts/token/ERC721/ERC721.sol\":15698:15720  operator == address(0) */\n      0xffffffffffffffffffffffffffffffffffffffff\n      and\n      sub\n        /* \"@openzeppelin/contracts/token/ERC721/ERC721.sol\":15694:15785  if (operator == address(0)) {... */\n      tag_269\n      jumpi\n        /* \"@openzeppelin/contracts/token/ERC721/ERC721.sol\":15765:15773  operator */\n      dup2\n        /* \"@openzeppelin/contracts/token/ERC721/ERC721.sol\":15743:15774  ERC721InvalidOperator(operator) */\n      mload(0x40)\n      0x5b08ba1800000000000000000000000000000000000000000000000000000000\n      dup2\n      mstore\n      0x04\n      add\n      tag_270\n      swap2\n      swap1\n      tag_43\n      jump\t// in\n    tag_270:\n      mload(0x40)\n      dup1\n      swap2\n      sub\n      swap1\n      revert\n        /* \"@openzeppelin/contracts/token/ERC721/ERC721.sol\":15694:15785  if (operator == address(0)) {... */\n    tag_269:\n        /* \"@openzeppelin/contracts/token/ERC721/ERC721.sol\":15832:15840  approved */\n      dup1\n        /* \"@openzeppelin/contracts/token/ERC721/ERC721.sol\":15794:15812  _operatorApprovals */\n      0x07\n        /* \"@openzeppelin/contracts/token/ERC721/ERC721.sol\":15794:15819  _operatorApprovals[owner] */\n      0x00\n        /* \"@openzeppelin/contracts/token/ERC721/ERC721.sol\":15813:15818  owner */\n      dup6\n        /* \"@openzeppelin/contracts/token/ERC721/ERC721.sol\":15794:15819  _operatorApprovals[owner] */\n      0xffffffffffffffffffffffffffffffffffffffff\n      and\n      0xffffffffffffffffffffffffffffffffffffffff\n      and\n      dup2\n      mstore\n      0x20\n      add\n      swap1\n      dup2\n      mstore\n      0x20\n      add\n      0x00\n      keccak256\n        /* \"@openzeppelin/contracts/token/ERC721/ERC721.sol\":15794:15829  _operatorApprovals[owner][operator] */\n      0x00\n        /* \"@openzeppelin/contracts/token/ERC721/ERC721.sol\":15820:15828  operator */\n      dup5\n        /* \"@openzeppelin/contracts/token/ERC721/ERC721.sol\":15794:15829  _operatorApprovals[owner][operator] */\n      0xffffffffffffffffffffffffffffffffffffffff\n      and\n      0xffffffffffffffffffffffffffffffffffffffff\n      and\n      dup2\n      mstore\n      0x20\n      add\n      swap1\n      dup2\n      mstore\n      0x20\n      add\n      0x00\n      keccak256\n      0x00\n        /* \"@openzeppelin/contracts/token/ERC721/ERC721.sol\":15794:15840  _operatorApprovals[owner][operator] = approved */\n      0x0100\n      exp\n      dup2\n      sload\n      dup2\n      0xff\n      mul\n      not\n      and\n      swap1\n      dup4\n      iszero\n      iszero\n      mul\n      or\n      swap1\n      sstore\n      pop\n        /* \"@openzeppelin/contracts/token/ERC721/ERC721.sol\":15877:15885  operator */\n      dup2\n        /* \"@openzeppelin/contracts/token/ERC721/ERC721.sol\":15855:15896  ApprovalForAll(owner, operator, approved) */\n      0xffffffffffffffffffffffffffffffffffffffff\n      and\n        /* \"@openzeppelin/contracts/token/ERC721/ERC721.sol\":15870:15875  owner */\n      dup4\n        /* \"@openzeppelin/contracts/token/ERC721/ERC721.sol\":15855:15896  ApprovalForAll(owner, operator, approved) */\n      0xffffffffffffffffffffffffffffffffffffffff\n      and\n      0x17307eab39ab6107e8899845ad3d59bd9653f200f220920489ca2b5937696c31\n        /* \"@openzeppelin/contracts/token/ERC721/ERC721.sol\":15887:15895  approved */\n      dup4\n        /* \"@openzeppelin/contracts/token/ERC721/ERC721.sol\":15855:15896  ApprovalForAll(owner, operator, approved) */\n      mload(0x40)\n      tag_271\n      swap2\n      swap1\n      tag_33\n      jump\t// in\n    tag_271:\n      mload(0x40)\n      dup1\n      swap2\n      sub\n      swap1\n      log3\n        /* \"@openzeppelin/contracts/token/ERC721/ERC721.sol\":15591:15903  function _setApprovalForAll(address owner, address operator, bool approved) internal virtual {... */\n      pop\n      pop\n      pop\n      jump\t// out\n        /* \"@openzeppelin/contracts/token/ERC721/ERC721.sol\":16918:17700  function _checkOnERC721Received(address from, address to, uint256 tokenId, bytes memory data) private {... */\n    tag_202:\n        /* \"@openzeppelin/contracts/token/ERC721/ERC721.sol\":17051:17052  0 */\n      0x00\n        /* \"@openzeppelin/contracts/token/ERC721/ERC721.sol\":17034:17036  to */\n      dup4\n        /* \"@openzeppelin/contracts/token/ERC721/ERC721.sol\":17034:17048  to.code.length */\n      0xffffffffffffffffffffffffffffffffffffffff\n      and\n      extcodesize\n        /* \"@openzeppelin/contracts/token/ERC721/ERC721.sol\":17034:17052  to.code.length > 0 */\n      gt\n        /* \"@openzeppelin/contracts/token/ERC721/ERC721.sol\":17030:17694  if (to.code.length > 0) {... */\n      iszero\n      tag_273\n      jumpi\n        /* \"@openzeppelin/contracts/token/ERC721/ERC721.sol\":17088:17090  to */\n      dup3\n        /* \"@openzeppelin/contracts/token/ERC721/ERC721.sol\":17072:17108  IERC721Receiver(to).onERC721Received */\n      0xffffffffffffffffffffffffffffffffffffffff\n      and\n      0x150b7a02\n        /* \"@openzeppelin/contracts/token/ERC721/ERC721.sol\":17109:17121  _msgSender() */\n      tag_274\n        /* \"@openzeppelin/contracts/token/ERC721/ERC721.sol\":17109:17119  _msgSender */\n      tag_136\n        /* \"@openzeppelin/contracts/token/ERC721/ERC721.sol\":17109:17121  _msgSender() */\n      jump\t// in\n    tag_274:\n        /* \"@openzeppelin/contracts/token/ERC721/ERC721.sol\":17123:17127  from */\n      dup7\n        /* \"@openzeppelin/contracts/token/ERC721/ERC721.sol\":17129:17136  tokenId */\n      dup6\n        /* \"@openzeppelin/contracts/token/ERC721/ERC721.sol\":17138:17142  data */\n      dup6\n        /* \"@openzeppelin/contracts/token/ERC721/ERC721.sol\":17072:17143  IERC721Receiver(to).onERC721Received(_msgSender(), from, tokenId, data) */\n      mload(0x40)\n      dup6\n      0xffffffff\n      and\n      0xe0\n      shl\n      dup2\n      mstore\n      0x04\n      add\n      tag_275\n      swap5\n      swap4\n      swap3\n      swap2\n      swap1\n      tag_276\n      jump\t// in\n    tag_275:\n      0x20\n      mload(0x40)\n      dup1\n      dup4\n      sub\n      dup2\n      0x00\n      dup8\n      gas\n      call\n      swap3\n      pop\n      pop\n      pop\n      dup1\n      iszero\n      tag_277\n      jumpi\n      pop\n      mload(0x40)\n      returndatasize\n      not(0x1f)\n      0x1f\n      dup3\n      add\n      and\n      dup3\n      add\n      dup1\n      0x40\n      mstore\n      pop\n      dup2\n      add\n      swap1\n      tag_278\n      swap2\n      swap1\n      tag_279\n      jump\t// in\n    tag_278:\n      0x01\n    tag_277:\n        /* \"@openzeppelin/contracts/token/ERC721/ERC721.sol\":17068:17684  try IERC721Receiver(to).onERC721Received(_msgSender(), from, tokenId, data) returns (bytes4 retval) {... */\n      tag_280\n      jumpi\n      returndatasize\n      dup1\n      0x00\n      dup2\n      eq\n      tag_285\n      jumpi\n      mload(0x40)\n      swap2\n      pop\n      and(add(returndatasize, 0x3f), not(0x1f))\n      dup3\n      add\n      0x40\n      mstore\n      returndatasize\n      dup3\n      mstore\n      returndatasize\n      0x00\n      0x20\n      dup5\n      add\n      returndatacopy\n      jump(tag_284)\n    tag_285:\n      0x60\n      swap2\n      pop\n    tag_284:\n      pop\n        /* \"@openzeppelin/contracts/token/ERC721/ERC721.sol\":17398:17399  0 */\n      0x00\n        /* \"@openzeppelin/contracts/token/ERC721/ERC721.sol\":17381:17387  reason */\n      dup2\n        /* \"@openzeppelin/contracts/token/ERC721/ERC721.sol\":17381:17394  reason.length */\n      mload\n        /* \"@openzeppelin/contracts/token/ERC721/ERC721.sol\":17381:17399  reason.length == 0 */\n      sub\n        /* \"@openzeppelin/contracts/token/ERC721/ERC721.sol\":17377:17670  if (reason.length == 0) {... */\n      tag_286\n      jumpi\n        /* \"@openzeppelin/contracts/token/ERC721/ERC721.sol\":17452:17454  to */\n      dup4\n        /* \"@openzeppelin/contracts/token/ERC721/ERC721.sol\":17430:17455  ERC721InvalidReceiver(to) */\n      mload(0x40)\n      0x64a0ae9200000000000000000000000000000000000000000000000000000000\n      dup2\n      mstore\n      0x04\n      add\n      tag_287\n      swap2\n      swap1\n      tag_43\n      jump\t// in\n    tag_287:\n      mload(0x40)\n      dup1\n      swap2\n      sub\n      swap1\n      revert\n        /* \"@openzeppelin/contracts/token/ERC721/ERC721.sol\":17377:17670  if (reason.length == 0) {... */\n    tag_286:\n        /* \"@openzeppelin/contracts/token/ERC721/ERC721.sol\":17622:17628  reason */\n      dup1\n        /* \"@openzeppelin/contracts/token/ERC721/ERC721.sol\":17616:17629  mload(reason) */\n      mload\n        /* \"@openzeppelin/contracts/token/ERC721/ERC721.sol\":17607:17613  reason */\n      dup2\n        /* \"@openzeppelin/contracts/token/ERC721/ERC721.sol\":17603:17605  32 */\n      0x20\n        /* \"@openzeppelin/contracts/token/ERC721/ERC721.sol\":17599:17614  add(32, reason) */\n      add\n        /* \"@openzeppelin/contracts/token/ERC721/ERC721.sol\":17592:17630  revert(add(32, reason), mload(reason)) */\n      revert\n        /* \"@openzeppelin/contracts/token/ERC721/ERC721.sol\":17068:17684  try IERC721Receiver(to).onERC721Received(_msgSender(), from, tokenId, data) returns (bytes4 retval) {... */\n    tag_280:\n        /* \"@openzeppelin/contracts/token/ERC721/ERC721.sol\":17200:17241  IERC721Receiver.onERC721Received.selector */\n      shl(0xe0, 0x150b7a02)\n        /* \"@openzeppelin/contracts/token/ERC721/ERC721.sol\":17190:17241  retval != IERC721Receiver.onERC721Received.selector */\n      not(0xffffffffffffffffffffffffffffffffffffffffffffffffffffffff)\n      and\n        /* \"@openzeppelin/contracts/token/ERC721/ERC721.sol\":17190:17196  retval */\n      dup2\n        /* \"@openzeppelin/contracts/token/ERC721/ERC721.sol\":17190:17241  retval != IERC721Receiver.onERC721Received.selector */\n      not(0xffffffffffffffffffffffffffffffffffffffffffffffffffffffff)\n      and\n      eq\n        /* \"@openzeppelin/contracts/token/ERC721/ERC721.sol\":17186:17316  if (retval != IERC721Receiver.onERC721Received.selector) {... */\n      tag_290\n      jumpi\n        /* \"@openzeppelin/contracts/token/ERC721/ERC721.sol\":17294:17296  to */\n      dup4\n        /* \"@openzeppelin/contracts/token/ERC721/ERC721.sol\":17272:17297  ERC721InvalidReceiver(to) */\n      mload(0x40)\n      0x64a0ae9200000000000000000000000000000000000000000000000000000000\n      dup2\n      mstore\n      0x04\n      add\n      tag_291\n      swap2\n      swap1\n      tag_43\n      jump\t// in\n    tag_291:\n      mload(0x40)\n      dup1\n      swap2\n      sub\n      swap1\n      revert\n        /* \"@openzeppelin/contracts/token/ERC721/ERC721.sol\":17186:17316  if (retval != IERC721Receiver.onERC721Received.selector) {... */\n    tag_290:\n        /* \"@openzeppelin/contracts/token/ERC721/ERC721.sol\":17144:17330  returns (bytes4 retval) {... */\n      pop\n        /* \"@openzeppelin/contracts/token/ERC721/ERC721.sol\":17030:17694  if (to.code.length > 0) {... */\n    tag_273:\n        /* \"@openzeppelin/contracts/token/ERC721/ERC721.sol\":16918:17700  function _checkOnERC721Received(address from, address to, uint256 tokenId, bytes memory data) private {... */\n      pop\n      pop\n      pop\n      pop\n      jump\t// out\n        /* \"@openzeppelin/contracts/token/ERC721/ERC721.sol\":3174:3266  function _baseURI() internal view virtual returns (string memory) {... */\n    tag_206:\n        /* \"@openzeppelin/contracts/token/ERC721/ERC721.sol\":3225:3238  string memory */\n      0x60\n        /* \"@openzeppelin/contracts/token/ERC721/ERC721.sol\":3250:3259  return \"\" */\n      mload(0x40)\n      dup1\n      0x20\n      add\n      0x40\n      mstore\n      dup1\n      0x00\n      dup2\n      mstore\n      pop\n      swap1\n      pop\n        /* \"@openzeppelin/contracts/token/ERC721/ERC721.sol\":3174:3266  function _baseURI() internal view virtual returns (string memory) {... */\n      swap1\n      jump\t// out\n        /* \"@openzeppelin/contracts/utils/Strings.sol\":637:1335  function toString(uint256 value) internal pure returns (string memory) {... */\n    tag_210:\n        /* \"@openzeppelin/contracts/utils/Strings.sol\":693:706  string memory */\n      0x60\n        /* \"@openzeppelin/contracts/utils/Strings.sol\":742:756  uint256 length */\n      0x00\n        /* \"@openzeppelin/contracts/utils/Strings.sol\":779:780  1 */\n      0x01\n        /* \"@openzeppelin/contracts/utils/Strings.sol\":759:776  Math.log10(value) */\n      tag_294\n        /* \"@openzeppelin/contracts/utils/Strings.sol\":770:775  value */\n      dup5\n        /* \"@openzeppelin/contracts/utils/Strings.sol\":759:769  Math.log10 */\n      tag_295\n        /* \"@openzeppelin/contracts/utils/Strings.sol\":759:776  Math.log10(value) */\n      jump\t// in\n    tag_294:\n        /* \"@openzeppelin/contracts/utils/Strings.sol\":759:780  Math.log10(value) + 1 */\n      add\n        /* \"@openzeppelin/contracts/utils/Strings.sol\":742:780  uint256 length = Math.log10(value) + 1 */\n      swap1\n      pop\n        /* \"@openzeppelin/contracts/utils/Strings.sol\":794:814  string memory buffer */\n      0x00\n        /* \"@openzeppelin/contracts/utils/Strings.sol\":828:834  length */\n      dup2\n        /* \"@openzeppelin/contracts/utils/Strings.sol\":817:835  new string(length) */\n      0xffffffffffffffff\n      dup2\n      gt\n      iszero\n      tag_296\n      jumpi\n      tag_297\n      tag_298\n      jump\t// in\n    tag_297:\n    tag_296:\n      mload(0x40)\n      swap1\n      dup1\n      dup3\n      mstore\n      dup1\n      0x1f\n      add\n      not(0x1f)\n      and\n      0x20\n      add\n      dup3\n      add\n      0x40\n      mstore\n      dup1\n      iszero\n      tag_299\n      jumpi\n      dup2\n      0x20\n      add\n      0x01\n      dup3\n      mul\n      dup1\n      calldatasize\n      dup4\n      calldatacopy\n      dup1\n      dup3\n      add\n      swap2\n      pop\n      pop\n      swap1\n      pop\n    tag_299:\n      pop\n        /* \"@openzeppelin/contracts/utils/Strings.sol\":794:835  string memory buffer = new string(length) */\n      swap1\n      pop\n        /* \"@openzeppelin/contracts/utils/Strings.sol\":849:860  uint256 ptr */\n      0x00\n        /* \"@openzeppelin/contracts/utils/Strings.sol\":975:981  length */\n      dup3\n        /* \"@openzeppelin/contracts/utils/Strings.sol\":971:973  32 */\n      0x20\n        /* \"@openzeppelin/contracts/utils/Strings.sol\":967:982  add(32, length) */\n      add\n        /* \"@openzeppelin/contracts/utils/Strings.sol\":959:965  buffer */\n      dup3\n        /* \"@openzeppelin/contracts/utils/Strings.sol\":955:983  add(buffer, add(32, length)) */\n      add\n        /* \"@openzeppelin/contracts/utils/Strings.sol\":948:983  ptr := add(buffer, add(32, length)) */\n      swap1\n      pop\n        /* \"@openzeppelin/contracts/utils/Strings.sol\":1010:1292  while (true) {... */\n    tag_300:\n        /* \"@openzeppelin/contracts/utils/Strings.sol\":1017:1021  true */\n      0x01\n        /* \"@openzeppelin/contracts/utils/Strings.sol\":1010:1292  while (true) {... */\n      iszero\n      tag_301\n      jumpi\n        /* \"@openzeppelin/contracts/utils/Strings.sol\":1041:1046  ptr-- */\n      dup1\n      dup1\n      0x01\n      swap1\n      sub\n      swap2\n      pop\n      pop\n        /* \"@openzeppelin/contracts/utils/Strings.sol\":1180:1190  HEX_DIGITS */\n      0x3031323334353637383961626364656600000000000000000000000000000000\n        /* \"@openzeppelin/contracts/utils/Strings.sol\":1175:1177  10 */\n      0x0a\n        /* \"@openzeppelin/contracts/utils/Strings.sol\":1168:1173  value */\n      dup7\n        /* \"@openzeppelin/contracts/utils/Strings.sol\":1164:1178  mod(value, 10) */\n      mod\n        /* \"@openzeppelin/contracts/utils/Strings.sol\":1159:1191  byte(mod(value, 10), HEX_DIGITS) */\n      byte\n        /* \"@openzeppelin/contracts/utils/Strings.sol\":1154:1157  ptr */\n      dup2\n        /* \"@openzeppelin/contracts/utils/Strings.sol\":1146:1192  mstore8(ptr, byte(mod(value, 10), HEX_DIGITS)) */\n      mstore8\n        /* \"@openzeppelin/contracts/utils/Strings.sol\":1236:1238  10 */\n      0x0a\n        /* \"@openzeppelin/contracts/utils/Strings.sol\":1227:1238  value /= 10 */\n      dup6\n      dup2\n      tag_302\n      jumpi\n      tag_303\n      tag_304\n      jump\t// in\n    tag_303:\n    tag_302:\n      div\n      swap5\n      pop\n        /* \"@openzeppelin/contracts/utils/Strings.sol\":1269:1270  0 */\n      0x00\n        /* \"@openzeppelin/contracts/utils/Strings.sol\":1260:1265  value */\n      dup6\n        /* \"@openzeppelin/contracts/utils/Strings.sol\":1260:1270  value == 0 */\n      sub\n        /* \"@openzeppelin/contracts/utils/Strings.sol\":1010:1292  while (true) {... */\n      tag_300\n        /* \"@openzeppelin/contracts/utils/Strings.sol\":1256:1277  if (value == 0) break */\n      jumpi\n        /* \"@openzeppelin/contracts/utils/Strings.sol\":1010:1292  while (true) {... */\n    tag_301:\n        /* \"@openzeppelin/contracts/utils/Strings.sol\":1312:1318  buffer */\n      dup2\n        /* \"@openzeppelin/contracts/utils/Strings.sol\":1305:1318  return buffer */\n      swap4\n      pop\n      pop\n      pop\n      pop\n        /* \"@openzeppelin/contracts/utils/Strings.sol\":637:1335  function toString(uint256 value) internal pure returns (string memory) {... */\n      swap2\n      swap1\n      pop\n      jump\t// out\n        /* \"contracts/MyToken.sol\":777:904  function _authorizeSetScripts(string[] memory)... */\n    tag_215:\n        /* \"@openzeppelin/contracts/access/Ownable.sol\":1531:1544  _checkOwner() */\n      tag_307\n        /* \"@openzeppelin/contracts/access/Ownable.sol\":1531:1542  _checkOwner */\n      tag_179\n        /* \"@openzeppelin/contracts/access/Ownable.sol\":1531:1544  _checkOwner() */\n      jump\t// in\n    tag_307:\n        /* \"contracts/MyToken.sol\":777:904  function _authorizeSetScripts(string[] memory)... */\n      pop\n      jump\t// out\n        /* \"@openzeppelin/contracts/token/ERC721/ERC721.sol\":1561:1861  function supportsInterface(bytes4 interfaceId) public view virtual override(ERC165, IERC165) returns (bool) {... */\n    tag_229:\n        /* \"@openzeppelin/contracts/token/ERC721/ERC721.sol\":1663:1667  bool */\n      0x00\n        /* \"@openzeppelin/contracts/token/ERC721/ERC721.sol\":1713:1738  type(IERC721).interfaceId */\n      0x80ac58cd00000000000000000000000000000000000000000000000000000000\n        /* \"@openzeppelin/contracts/token/ERC721/ERC721.sol\":1698:1738  interfaceId == type(IERC721).interfaceId */\n      not(0xffffffffffffffffffffffffffffffffffffffffffffffffffffffff)\n      and\n        /* \"@openzeppelin/contracts/token/ERC721/ERC721.sol\":1698:1709  interfaceId */\n      dup3\n        /* \"@openzeppelin/contracts/token/ERC721/ERC721.sol\":1698:1738  interfaceId == type(IERC721).interfaceId */\n      not(0xffffffffffffffffffffffffffffffffffffffffffffffffffffffff)\n      and\n      eq\n        /* \"@openzeppelin/contracts/token/ERC721/ERC721.sol\":1698:1802  interfaceId == type(IERC721).interfaceId ||... */\n      dup1\n      tag_310\n      jumpi\n      pop\n        /* \"@openzeppelin/contracts/token/ERC721/ERC721.sol\":1769:1802  type(IERC721Metadata).interfaceId */\n      0x5b5e139f00000000000000000000000000000000000000000000000000000000\n        /* \"@openzeppelin/contracts/token/ERC721/ERC721.sol\":1754:1802  interfaceId == type(IERC721Metadata).interfaceId */\n      not(0xffffffffffffffffffffffffffffffffffffffffffffffffffffffff)\n      and\n        /* \"@openzeppelin/contracts/token/ERC721/ERC721.sol\":1754:1765  interfaceId */\n      dup3\n        /* \"@openzeppelin/contracts/token/ERC721/ERC721.sol\":1754:1802  interfaceId == type(IERC721Metadata).interfaceId */\n      not(0xffffffffffffffffffffffffffffffffffffffffffffffffffffffff)\n      and\n      eq\n        /* \"@openzeppelin/contracts/token/ERC721/ERC721.sol\":1698:1802  interfaceId == type(IERC721).interfaceId ||... */\n    tag_310:\n        /* \"@openzeppelin/contracts/token/ERC721/ERC721.sol\":1698:1854  interfaceId == type(IERC721).interfaceId ||... */\n      dup1\n      tag_311\n      jumpi\n      pop\n        /* \"@openzeppelin/contracts/token/ERC721/ERC721.sol\":1818:1854  super.supportsInterface(interfaceId) */\n      tag_312\n        /* \"@openzeppelin/contracts/token/ERC721/ERC721.sol\":1842:1853  interfaceId */\n      dup3\n        /* \"@openzeppelin/contracts/token/ERC721/ERC721.sol\":1818:1841  super.supportsInterface */\n      tag_313\n        /* \"@openzeppelin/contracts/token/ERC721/ERC721.sol\":1818:1854  super.supportsInterface(interfaceId) */\n      jump\t// in\n    tag_312:\n        /* \"@openzeppelin/contracts/token/ERC721/ERC721.sol\":1698:1854  interfaceId == type(IERC721).interfaceId ||... */\n    tag_311:\n        /* \"@openzeppelin/contracts/token/ERC721/ERC721.sol\":1679:1854  return... */\n      swap1\n      pop\n        /* \"@openzeppelin/contracts/token/ERC721/ERC721.sol\":1561:1861  function supportsInterface(bytes4 interfaceId) public view virtual override(ERC165, IERC165) returns (bool) {... */\n      swap2\n      swap1\n      pop\n      jump\t// out\n        /* \"@openzeppelin/contracts/token/ERC721/ERC721.sol\":5707:5822  function _ownerOf(uint256 tokenId) internal view virtual returns (address) {... */\n    tag_233:\n        /* \"@openzeppelin/contracts/token/ERC721/ERC721.sol\":5773:5780  address */\n      0x00\n        /* \"@openzeppelin/contracts/token/ERC721/ERC721.sol\":5799:5806  _owners */\n      0x04\n        /* \"@openzeppelin/contracts/token/ERC721/ERC721.sol\":5799:5815  _owners[tokenId] */\n      0x00\n        /* \"@openzeppelin/contracts/token/ERC721/ERC721.sol\":5807:5814  tokenId */\n      dup4\n        /* \"@openzeppelin/contracts/token/ERC721/ERC721.sol\":5799:5815  _owners[tokenId] */\n      dup2\n      mstore\n      0x20\n      add\n      swap1\n      dup2\n      mstore\n      0x20\n      add\n      0x00\n      keccak256\n      0x00\n      swap1\n      sload\n      swap1\n      0x0100\n      exp\n      swap1\n      div\n      0xffffffffffffffffffffffffffffffffffffffff\n      and\n        /* \"@openzeppelin/contracts/token/ERC721/ERC721.sol\":5792:5815  return _owners[tokenId] */\n      swap1\n      pop\n        /* \"@openzeppelin/contracts/token/ERC721/ERC721.sol\":5707:5822  function _ownerOf(uint256 tokenId) internal view virtual returns (address) {... */\n      swap2\n      swap1\n      pop\n      jump\t// out\n        /* \"@openzeppelin/contracts/token/ERC721/ERC721.sol\":14720:15382  function _approve(address to, uint256 tokenId, address auth, bool emitEvent) internal virtual {... */\n    tag_240:\n        /* \"@openzeppelin/contracts/token/ERC721/ERC721.sol\":14880:14889  emitEvent */\n      dup1\n        /* \"@openzeppelin/contracts/token/ERC721/ERC721.sol\":14880:14911  emitEvent || auth != address(0) */\n      dup1\n      tag_316\n      jumpi\n      pop\n        /* \"@openzeppelin/contracts/token/ERC721/ERC721.sol\":14909:14910  0 */\n      0x00\n        /* \"@openzeppelin/contracts/token/ERC721/ERC721.sol\":14893:14911  auth != address(0) */\n      0xffffffffffffffffffffffffffffffffffffffff\n      and\n        /* \"@openzeppelin/contracts/token/ERC721/ERC721.sol\":14893:14897  auth */\n      dup3\n        /* \"@openzeppelin/contracts/token/ERC721/ERC721.sol\":14893:14911  auth != address(0) */\n      0xffffffffffffffffffffffffffffffffffffffff\n      and\n      eq\n      iszero\n        /* \"@openzeppelin/contracts/token/ERC721/ERC721.sol\":14880:14911  emitEvent || auth != address(0) */\n    tag_316:\n        /* \"@openzeppelin/contracts/token/ERC721/ERC721.sol\":14876:15336  if (emitEvent || auth != address(0)) {... */\n      iszero\n      tag_317\n      jumpi\n        /* \"@openzeppelin/contracts/token/ERC721/ERC721.sol\":14927:14940  address owner */\n      0x00\n        /* \"@openzeppelin/contracts/token/ERC721/ERC721.sol\":14943:14965  _requireOwned(tokenId) */\n      tag_318\n        /* \"@openzeppelin/contracts/token/ERC721/ERC721.sol\":14957:14964  tokenId */\n      dup5\n        /* \"@openzeppelin/contracts/token/ERC721/ERC721.sol\":14943:14956  _requireOwned */\n      tag_130\n        /* \"@openzeppelin/contracts/token/ERC721/ERC721.sol\":14943:14965  _requireOwned(tokenId) */\n      jump\t// in\n    tag_318:\n        /* \"@openzeppelin/contracts/token/ERC721/ERC721.sol\":14927:14965  address owner = _requireOwned(tokenId) */\n      swap1\n      pop\n        /* \"@openzeppelin/contracts/token/ERC721/ERC721.sol\":15109:15110  0 */\n      0x00\n        /* \"@openzeppelin/contracts/token/ERC721/ERC721.sol\":15093:15111  auth != address(0) */\n      0xffffffffffffffffffffffffffffffffffffffff\n      and\n        /* \"@openzeppelin/contracts/token/ERC721/ERC721.sol\":15093:15097  auth */\n      dup4\n        /* \"@openzeppelin/contracts/token/ERC721/ERC721.sol\":15093:15111  auth != address(0) */\n      0xffffffffffffffffffffffffffffffffffffffff\n      and\n      eq\n      iszero\n        /* \"@openzeppelin/contracts/token/ERC721/ERC721.sol\":15093:15128  auth != address(0) && owner != auth */\n      dup1\n      iszero\n      tag_319\n      jumpi\n      pop\n        /* \"@openzeppelin/contracts/token/ERC721/ERC721.sol\":15124:15128  auth */\n      dup3\n        /* \"@openzeppelin/contracts/token/ERC721/ERC721.sol\":15115:15128  owner != auth */\n      0xffffffffffffffffffffffffffffffffffffffff\n      and\n        /* \"@openzeppelin/contracts/token/ERC721/ERC721.sol\":15115:15120  owner */\n      dup2\n        /* \"@openzeppelin/contracts/token/ERC721/ERC721.sol\":15115:15128  owner != auth */\n      0xffffffffffffffffffffffffffffffffffffffff\n      and\n      eq\n      iszero\n        /* \"@openzeppelin/contracts/token/ERC721/ERC721.sol\":15093:15128  auth != address(0) && owner != auth */\n    tag_319:\n        /* \"@openzeppelin/contracts/token/ERC721/ERC721.sol\":15093:15162  auth != address(0) && owner != auth && !isApprovedForAll(owner, auth) */\n      dup1\n      iszero\n      tag_320\n      jumpi\n      pop\n        /* \"@openzeppelin/contracts/token/ERC721/ERC721.sol\":15133:15162  isApprovedForAll(owner, auth) */\n      tag_321\n        /* \"@openzeppelin/contracts/token/ERC721/ERC721.sol\":15150:15155  owner */\n      dup2\n        /* \"@openzeppelin/contracts/token/ERC721/ERC721.sol\":15157:15161  auth */\n      dup5\n        /* \"@openzeppelin/contracts/token/ERC721/ERC721.sol\":15133:15149  isApprovedForAll */\n      tag_110\n        /* \"@openzeppelin/contracts/token/ERC721/ERC721.sol\":15133:15162  isApprovedForAll(owner, auth) */\n      jump\t// in\n    tag_321:\n        /* \"@openzeppelin/contracts/token/ERC721/ERC721.sol\":15132:15162  !isApprovedForAll(owner, auth) */\n      iszero\n        /* \"@openzeppelin/contracts/token/ERC721/ERC721.sol\":15093:15162  auth != address(0) && owner != auth && !isApprovedForAll(owner, auth) */\n    tag_320:\n        /* \"@openzeppelin/contracts/token/ERC721/ERC721.sol\":15089:15231  if (auth != address(0) && owner != auth && !isApprovedForAll(owner, auth)) {... */\n      iszero\n      tag_322\n      jumpi\n        /* \"@openzeppelin/contracts/token/ERC721/ERC721.sol\":15211:15215  auth */\n      dup3\n        /* \"@openzeppelin/contracts/token/ERC721/ERC721.sol\":15189:15216  ERC721InvalidApprover(auth) */\n      mload(0x40)\n      0xa9fbf51f00000000000000000000000000000000000000000000000000000000\n      dup2\n      mstore\n      0x04\n      add\n      tag_323\n      swap2\n      swap1\n      tag_43\n      jump\t// in\n    tag_323:\n      mload(0x40)\n      dup1\n      swap2\n      sub\n      swap1\n      revert\n        /* \"@openzeppelin/contracts/token/ERC721/ERC721.sol\":15089:15231  if (auth != address(0) && owner != auth && !isApprovedForAll(owner, auth)) {... */\n    tag_322:\n        /* \"@openzeppelin/contracts/token/ERC721/ERC721.sol\":15249:15258  emitEvent */\n      dup2\n        /* \"@openzeppelin/contracts/token/ERC721/ERC721.sol\":15245:15326  if (emitEvent) {... */\n      iszero\n      tag_324\n      jumpi\n        /* \"@openzeppelin/contracts/token/ERC721/ERC721.sol\":15303:15310  tokenId */\n      dup4\n        /* \"@openzeppelin/contracts/token/ERC721/ERC721.sol\":15299:15301  to */\n      dup6\n        /* \"@openzeppelin/contracts/token/ERC721/ERC721.sol\":15283:15311  Approval(owner, to, tokenId) */\n      0xffffffffffffffffffffffffffffffffffffffff\n      and\n        /* \"@openzeppelin/contracts/token/ERC721/ERC721.sol\":15292:15297  owner */\n      dup3\n        /* \"@openzeppelin/contracts/token/ERC721/ERC721.sol\":15283:15311  Approval(owner, to, tokenId) */\n      0xffffffffffffffffffffffffffffffffffffffff\n      and\n      0x8c5be1e5ebec7d5bd14f71427d1e84f3dd0314c0f7b2291e5b200ac8c7c3b925\n      mload(0x40)\n      mload(0x40)\n      dup1\n      swap2\n      sub\n      swap1\n      log4\n        /* \"@openzeppelin/contracts/token/ERC721/ERC721.sol\":15245:15326  if (emitEvent) {... */\n    tag_324:\n        /* \"@openzeppelin/contracts/token/ERC721/ERC721.sol\":14913:15336  {... */\n      pop\n        /* \"@openzeppelin/contracts/token/ERC721/ERC721.sol\":14876:15336  if (emitEvent || auth != address(0)) {... */\n    tag_317:\n        /* \"@openzeppelin/contracts/token/ERC721/ERC721.sol\":15373:15375  to */\n      dup4\n        /* \"@openzeppelin/contracts/token/ERC721/ERC721.sol\":15346:15361  _tokenApprovals */\n      0x06\n        /* \"@openzeppelin/contracts/token/ERC721/ERC721.sol\":15346:15370  _tokenApprovals[tokenId] */\n      0x00\n        /* \"@openzeppelin/contracts/token/ERC721/ERC721.sol\":15362:15369  tokenId */\n      dup6\n        /* \"@openzeppelin/contracts/token/ERC721/ERC721.sol\":15346:15370  _tokenApprovals[tokenId] */\n      dup2\n      mstore\n      0x20\n      add\n      swap1\n      dup2\n      mstore\n      0x20\n      add\n      0x00\n      keccak256\n      0x00\n        /* \"@openzeppelin/contracts/token/ERC721/ERC721.sol\":15346:15375  _tokenApprovals[tokenId] = to */\n      0x0100\n      exp\n      dup2\n      sload\n      dup2\n      0xffffffffffffffffffffffffffffffffffffffff\n      mul\n      not\n      and\n      swap1\n      dup4\n      0xffffffffffffffffffffffffffffffffffffffff\n      and\n      mul\n      or\n      swap1\n      sstore\n      pop\n        /* \"@openzeppelin/contracts/token/ERC721/ERC721.sol\":14720:15382  function _approve(address to, uint256 tokenId, address auth, bool emitEvent) internal virtual {... */\n      pop\n      pop\n      pop\n      pop\n      jump\t// out\n        /* \"@openzeppelin/contracts/token/ERC721/ERC721.sol\":8838:9633  function _update(address to, uint256 tokenId, address auth) internal virtual returns (address) {... */\n    tag_243:\n        /* \"@openzeppelin/contracts/token/ERC721/ERC721.sol\":8924:8931  address */\n      0x00\n        /* \"@openzeppelin/contracts/token/ERC721/ERC721.sol\":8943:8955  address from */\n      dup1\n        /* \"@openzeppelin/contracts/token/ERC721/ERC721.sol\":8958:8975  _ownerOf(tokenId) */\n      tag_326\n        /* \"@openzeppelin/contracts/token/ERC721/ERC721.sol\":8967:8974  tokenId */\n      dup5\n        /* \"@openzeppelin/contracts/token/ERC721/ERC721.sol\":8958:8966  _ownerOf */\n      tag_233\n        /* \"@openzeppelin/contracts/token/ERC721/ERC721.sol\":8958:8975  _ownerOf(tokenId) */\n      jump\t// in\n    tag_326:\n        /* \"@openzeppelin/contracts/token/ERC721/ERC721.sol\":8943:8975  address from = _ownerOf(tokenId) */\n      swap1\n      pop\n        /* \"@openzeppelin/contracts/token/ERC721/ERC721.sol\":9051:9052  0 */\n      0x00\n        /* \"@openzeppelin/contracts/token/ERC721/ERC721.sol\":9035:9053  auth != address(0) */\n      0xffffffffffffffffffffffffffffffffffffffff\n      and\n        /* \"@openzeppelin/contracts/token/ERC721/ERC721.sol\":9035:9039  auth */\n      dup4\n        /* \"@openzeppelin/contracts/token/ERC721/ERC721.sol\":9035:9053  auth != address(0) */\n      0xffffffffffffffffffffffffffffffffffffffff\n      and\n      eq\n        /* \"@openzeppelin/contracts/token/ERC721/ERC721.sol\":9031:9117  if (auth != address(0)) {... */\n      tag_327\n      jumpi\n        /* \"@openzeppelin/contracts/token/ERC721/ERC721.sol\":9069:9106  _checkAuthorized(from, auth, tokenId) */\n      tag_328\n        /* \"@openzeppelin/contracts/token/ERC721/ERC721.sol\":9086:9090  from */\n      dup2\n        /* \"@openzeppelin/contracts/token/ERC721/ERC721.sol\":9092:9096  auth */\n      dup5\n        /* \"@openzeppelin/contracts/token/ERC721/ERC721.sol\":9098:9105  tokenId */\n      dup7\n        /* \"@openzeppelin/contracts/token/ERC721/ERC721.sol\":9069:9085  _checkAuthorized */\n      tag_329\n        /* \"@openzeppelin/contracts/token/ERC721/ERC721.sol\":9069:9106  _checkAuthorized(from, auth, tokenId) */\n      jump\t// in\n    tag_328:\n        /* \"@openzeppelin/contracts/token/ERC721/ERC721.sol\":9031:9117  if (auth != address(0)) {... */\n    tag_327:\n        /* \"@openzeppelin/contracts/token/ERC721/ERC721.sol\":9177:9178  0 */\n      0x00\n        /* \"@openzeppelin/contracts/token/ERC721/ERC721.sol\":9161:9179  from != address(0) */\n      0xffffffffffffffffffffffffffffffffffffffff\n      and\n        /* \"@openzeppelin/contracts/token/ERC721/ERC721.sol\":9161:9165  from */\n      dup2\n        /* \"@openzeppelin/contracts/token/ERC721/ERC721.sol\":9161:9179  from != address(0) */\n      0xffffffffffffffffffffffffffffffffffffffff\n      and\n      eq\n        /* \"@openzeppelin/contracts/token/ERC721/ERC721.sol\":9157:9413  if (from != address(0)) {... */\n      tag_330\n      jumpi\n        /* \"@openzeppelin/contracts/token/ERC721/ERC721.sol\":9277:9325  _approve(address(0), tokenId, address(0), false) */\n      tag_331\n        /* \"@openzeppelin/contracts/token/ERC721/ERC721.sol\":9294:9295  0 */\n      0x00\n        /* \"@openzeppelin/contracts/token/ERC721/ERC721.sol\":9298:9305  tokenId */\n      dup6\n        /* \"@openzeppelin/contracts/token/ERC721/ERC721.sol\":9315:9316  0 */\n      0x00\n        /* \"@openzeppelin/contracts/token/ERC721/ERC721.sol\":9319:9324  false */\n      dup1\n        /* \"@openzeppelin/contracts/token/ERC721/ERC721.sol\":9277:9285  _approve */\n      tag_240\n        /* \"@openzeppelin/contracts/token/ERC721/ERC721.sol\":9277:9325  _approve(address(0), tokenId, address(0), false) */\n      jump\t// in\n    tag_331:\n        /* \"@openzeppelin/contracts/token/ERC721/ERC721.sol\":9387:9388  1 */\n      0x01\n        /* \"@openzeppelin/contracts/token/ERC721/ERC721.sol\":9368:9377  _balances */\n      0x05\n        /* \"@openzeppelin/contracts/token/ERC721/ERC721.sol\":9368:9383  _balances[from] */\n      0x00\n        /* \"@openzeppelin/contracts/token/ERC721/ERC721.sol\":9378:9382  from */\n      dup4\n        /* \"@openzeppelin/contracts/token/ERC721/ERC721.sol\":9368:9383  _balances[from] */\n      0xffffffffffffffffffffffffffffffffffffffff\n      and\n      0xffffffffffffffffffffffffffffffffffffffff\n      and\n      dup2\n      mstore\n      0x20\n      add\n      swap1\n      dup2\n      mstore\n      0x20\n      add\n      0x00\n      keccak256\n      0x00\n        /* \"@openzeppelin/contracts/token/ERC721/ERC721.sol\":9368:9388  _balances[from] -= 1 */\n      dup3\n      dup3\n      sload\n      sub\n      swap3\n      pop\n      pop\n      dup2\n      swap1\n      sstore\n      pop\n        /* \"@openzeppelin/contracts/token/ERC721/ERC721.sol\":9157:9413  if (from != address(0)) {... */\n    tag_330:\n        /* \"@openzeppelin/contracts/token/ERC721/ERC721.sol\":9441:9442  0 */\n      0x00\n        /* \"@openzeppelin/contracts/token/ERC721/ERC721.sol\":9427:9443  to != address(0) */\n      0xffffffffffffffffffffffffffffffffffffffff\n      and\n        /* \"@openzeppelin/contracts/token/ERC721/ERC721.sol\":9427:9429  to */\n      dup6\n        /* \"@openzeppelin/contracts/token/ERC721/ERC721.sol\":9427:9443  to != address(0) */\n      0xffffffffffffffffffffffffffffffffffffffff\n      and\n      eq\n        /* \"@openzeppelin/contracts/token/ERC721/ERC721.sol\":9423:9530  if (to != address(0)) {... */\n      tag_332\n      jumpi\n        /* \"@openzeppelin/contracts/token/ERC721/ERC721.sol\":9504:9505  1 */\n      0x01\n        /* \"@openzeppelin/contracts/token/ERC721/ERC721.sol\":9487:9496  _balances */\n      0x05\n        /* \"@openzeppelin/contracts/token/ERC721/ERC721.sol\":9487:9500  _balances[to] */\n      0x00\n        /* \"@openzeppelin/contracts/token/ERC721/ERC721.sol\":9497:9499  to */\n      dup8\n        /* \"@openzeppelin/contracts/token/ERC721/ERC721.sol\":9487:9500  _balances[to] */\n      0xffffffffffffffffffffffffffffffffffffffff\n      and\n      0xffffffffffffffffffffffffffffffffffffffff\n      and\n      dup2\n      mstore\n      0x20\n      add\n      swap1\n      dup2\n      mstore\n      0x20\n      add\n      0x00\n      keccak256\n      0x00\n        /* \"@openzeppelin/contracts/token/ERC721/ERC721.sol\":9487:9505  _balances[to] += 1 */\n      dup3\n      dup3\n      sload\n      add\n      swap3\n      pop\n      pop\n      dup2\n      swap1\n      sstore\n      pop\n        /* \"@openzeppelin/contracts/token/ERC721/ERC721.sol\":9423:9530  if (to != address(0)) {... */\n    tag_332:\n        /* \"@openzeppelin/contracts/token/ERC721/ERC721.sol\":9559:9561  to */\n      dup5\n        /* \"@openzeppelin/contracts/token/ERC721/ERC721.sol\":9540:9547  _owners */\n      0x04\n        /* \"@openzeppelin/contracts/token/ERC721/ERC721.sol\":9540:9556  _owners[tokenId] */\n      0x00\n        /* \"@openzeppelin/contracts/token/ERC721/ERC721.sol\":9548:9555  tokenId */\n      dup7\n        /* \"@openzeppelin/contracts/token/ERC721/ERC721.sol\":9540:9556  _owners[tokenId] */\n      dup2\n      mstore\n      0x20\n      add\n      swap1\n      dup2\n      mstore\n      0x20\n      add\n      0x00\n      keccak256\n      0x00\n        /* \"@openzeppelin/contracts/token/ERC721/ERC721.sol\":9540:9561  _owners[tokenId] = to */\n      0x0100\n      exp\n      dup2\n      sload\n      dup2\n      0xffffffffffffffffffffffffffffffffffffffff\n      mul\n      not\n      and\n      swap1\n      dup4\n      0xffffffffffffffffffffffffffffffffffffffff\n      and\n      mul\n      or\n      swap1\n      sstore\n      pop\n        /* \"@openzeppelin/contracts/token/ERC721/ERC721.sol\":9596:9603  tokenId */\n      dup4\n        /* \"@openzeppelin/contracts/token/ERC721/ERC721.sol\":9592:9594  to */\n      dup6\n        /* \"@openzeppelin/contracts/token/ERC721/ERC721.sol\":9577:9604  Transfer(from, to, tokenId) */\n      0xffffffffffffffffffffffffffffffffffffffff\n      and\n        /* \"@openzeppelin/contracts/token/ERC721/ERC721.sol\":9586:9590  from */\n      dup3\n        /* \"@openzeppelin/contracts/token/ERC721/ERC721.sol\":9577:9604  Transfer(from, to, tokenId) */\n      0xffffffffffffffffffffffffffffffffffffffff\n      and\n      0xddf252ad1be2c89b69c2b068fc378daa952ba7f163c4a11628f55a4df523b3ef\n      mload(0x40)\n      mload(0x40)\n      dup1\n      swap2\n      sub\n      swap1\n      log4\n        /* \"@openzeppelin/contracts/token/ERC721/ERC721.sol\":9622:9626  from */\n      dup1\n        /* \"@openzeppelin/contracts/token/ERC721/ERC721.sol\":9615:9626  return from */\n      swap2\n      pop\n      pop\n        /* \"@openzeppelin/contracts/token/ERC721/ERC721.sol\":8838:9633  function _update(address to, uint256 tokenId, address auth) internal virtual returns (address) {... */\n      swap4\n      swap3\n      pop\n      pop\n      pop\n      jump\t// out\n        /* \"@openzeppelin/contracts/token/ERC721/extensions/ERC721Enumerable.sol\":3846:4007  function _addTokenToAllTokensEnumeration(uint256 tokenId) private {... */\n    tag_246:\n        /* \"@openzeppelin/contracts/token/ERC721/extensions/ERC721Enumerable.sol\":3949:3959  _allTokens */\n      0x0a\n        /* \"@openzeppelin/contracts/token/ERC721/extensions/ERC721Enumerable.sol\":3949:3966  _allTokens.length */\n      dup1\n      sload\n      swap1\n      pop\n        /* \"@openzeppelin/contracts/token/ERC721/extensions/ERC721Enumerable.sol\":3922:3937  _allTokensIndex */\n      0x0b\n        /* \"@openzeppelin/contracts/token/ERC721/extensions/ERC721Enumerable.sol\":3922:3946  _allTokensIndex[tokenId] */\n      0x00\n        /* \"@openzeppelin/contracts/token/ERC721/extensions/ERC721Enumerable.sol\":3938:3945  tokenId */\n      dup4\n        /* \"@openzeppelin/contracts/token/ERC721/extensions/ERC721Enumerable.sol\":3922:3946  _allTokensIndex[tokenId] */\n      dup2\n      mstore\n      0x20\n      add\n      swap1\n      dup2\n      mstore\n      0x20\n      add\n      0x00\n      keccak256\n        /* \"@openzeppelin/contracts/token/ERC721/extensions/ERC721Enumerable.sol\":3922:3966  _allTokensIndex[tokenId] = _allTokens.length */\n      dup2\n      swap1\n      sstore\n      pop\n        /* \"@openzeppelin/contracts/token/ERC721/extensions/ERC721Enumerable.sol\":3976:3986  _allTokens */\n      0x0a\n        /* \"@openzeppelin/contracts/token/ERC721/extensions/ERC721Enumerable.sol\":3992:3999  tokenId */\n      dup2\n        /* \"@openzeppelin/contracts/token/ERC721/extensions/ERC721Enumerable.sol\":3976:4000  _allTokens.push(tokenId) */\n      swap1\n      dup1\n      0x01\n      dup2\n      sload\n      add\n      dup1\n      dup3\n      sstore\n      dup1\n      swap2\n      pop\n      pop\n      0x01\n      swap1\n      sub\n      swap1\n      0x00\n      mstore\n      keccak256(0x00, 0x20)\n      add\n      0x00\n      swap1\n      swap2\n      swap1\n      swap2\n      swap1\n      swap2\n      pop\n      sstore\n        /* \"@openzeppelin/contracts/token/ERC721/extensions/ERC721Enumerable.sol\":3846:4007  function _addTokenToAllTokensEnumeration(uint256 tokenId) private {... */\n      pop\n      jump\t// out\n        /* \"@openzeppelin/contracts/token/ERC721/extensions/ERC721Enumerable.sol\":4624:5583  function _removeTokenFromOwnerEnumeration(address from, uint256 tokenId) private {... */\n    tag_250:\n        /* \"@openzeppelin/contracts/token/ERC721/extensions/ERC721Enumerable.sol\":4886:4908  uint256 lastTokenIndex */\n      0x00\n        /* \"@openzeppelin/contracts/token/ERC721/extensions/ERC721Enumerable.sol\":4911:4926  balanceOf(from) */\n      tag_336\n        /* \"@openzeppelin/contracts/token/ERC721/extensions/ERC721Enumerable.sol\":4921:4925  from */\n      dup4\n        /* \"@openzeppelin/contracts/token/ERC721/extensions/ERC721Enumerable.sol\":4911:4920  balanceOf */\n      tag_78\n        /* \"@openzeppelin/contracts/token/ERC721/extensions/ERC721Enumerable.sol\":4911:4926  balanceOf(from) */\n      jump\t// in\n    tag_336:\n        /* \"@openzeppelin/contracts/token/ERC721/extensions/ERC721Enumerable.sol\":4886:4926  uint256 lastTokenIndex = balanceOf(from) */\n      swap1\n      pop\n        /* \"@openzeppelin/contracts/token/ERC721/extensions/ERC721Enumerable.sol\":4936:4954  uint256 tokenIndex */\n      0x00\n        /* \"@openzeppelin/contracts/token/ERC721/extensions/ERC721Enumerable.sol\":4957:4974  _ownedTokensIndex */\n      0x09\n        /* \"@openzeppelin/contracts/token/ERC721/extensions/ERC721Enumerable.sol\":4957:4983  _ownedTokensIndex[tokenId] */\n      0x00\n        /* \"@openzeppelin/contracts/token/ERC721/extensions/ERC721Enumerable.sol\":4975:4982  tokenId */\n      dup5\n        /* \"@openzeppelin/contracts/token/ERC721/extensions/ERC721Enumerable.sol\":4957:4983  _ownedTokensIndex[tokenId] */\n      dup2\n      mstore\n      0x20\n      add\n      swap1\n      dup2\n      mstore\n      0x20\n      add\n      0x00\n      keccak256\n      sload\n        /* \"@openzeppelin/contracts/token/ERC721/extensions/ERC721Enumerable.sol\":4936:4983  uint256 tokenIndex = _ownedTokensIndex[tokenId] */\n      swap1\n      pop\n        /* \"@openzeppelin/contracts/token/ERC721/extensions/ERC721Enumerable.sol\":5101:5115  lastTokenIndex */\n      dup2\n        /* \"@openzeppelin/contracts/token/ERC721/extensions/ERC721Enumerable.sol\":5087:5097  tokenIndex */\n      dup2\n        /* \"@openzeppelin/contracts/token/ERC721/extensions/ERC721Enumerable.sol\":5087:5115  tokenIndex != lastTokenIndex */\n      eq\n        /* \"@openzeppelin/contracts/token/ERC721/extensions/ERC721Enumerable.sol\":5083:5406  if (tokenIndex != lastTokenIndex) {... */\n      tag_337\n      jumpi\n        /* \"@openzeppelin/contracts/token/ERC721/extensions/ERC721Enumerable.sol\":5131:5150  uint256 lastTokenId */\n      0x00\n        /* \"@openzeppelin/contracts/token/ERC721/extensions/ERC721Enumerable.sol\":5153:5165  _ownedTokens */\n      0x08\n        /* \"@openzeppelin/contracts/token/ERC721/extensions/ERC721Enumerable.sol\":5153:5171  _ownedTokens[from] */\n      0x00\n        /* \"@openzeppelin/contracts/token/ERC721/extensions/ERC721Enumerable.sol\":5166:5170  from */\n      dup7\n        /* \"@openzeppelin/contracts/token/ERC721/extensions/ERC721Enumerable.sol\":5153:5171  _ownedTokens[from] */\n      0xffffffffffffffffffffffffffffffffffffffff\n      and\n      0xffffffffffffffffffffffffffffffffffffffff\n      and\n      dup2\n      mstore\n      0x20\n      add\n      swap1\n      dup2\n      mstore\n      0x20\n      add\n      0x00\n      keccak256\n        /* \"@openzeppelin/contracts/token/ERC721/extensions/ERC721Enumerable.sol\":5153:5187  _ownedTokens[from][lastTokenIndex] */\n      0x00\n        /* \"@openzeppelin/contracts/token/ERC721/extensions/ERC721Enumerable.sol\":5172:5186  lastTokenIndex */\n      dup5\n        /* \"@openzeppelin/contracts/token/ERC721/extensions/ERC721Enumerable.sol\":5153:5187  _ownedTokens[from][lastTokenIndex] */\n      dup2\n      mstore\n      0x20\n      add\n      swap1\n      dup2\n      mstore\n      0x20\n      add\n      0x00\n      keccak256\n      sload\n        /* \"@openzeppelin/contracts/token/ERC721/extensions/ERC721Enumerable.sol\":5131:5187  uint256 lastTokenId = _ownedTokens[from][lastTokenIndex] */\n      swap1\n      pop\n        /* \"@openzeppelin/contracts/token/ERC721/extensions/ERC721Enumerable.sol\":5235:5246  lastTokenId */\n      dup1\n        /* \"@openzeppelin/contracts/token/ERC721/extensions/ERC721Enumerable.sol\":5202:5214  _ownedTokens */\n      0x08\n        /* \"@openzeppelin/contracts/token/ERC721/extensions/ERC721Enumerable.sol\":5202:5220  _ownedTokens[from] */\n      0x00\n        /* \"@openzeppelin/contracts/token/ERC721/extensions/ERC721Enumerable.sol\":5215:5219  from */\n      dup8\n        /* \"@openzeppelin/contracts/token/ERC721/extensions/ERC721Enumerable.sol\":5202:5220  _ownedTokens[from] */\n      0xffffffffffffffffffffffffffffffffffffffff\n      and\n      0xffffffffffffffffffffffffffffffffffffffff\n      and\n      dup2\n      mstore\n      0x20\n      add\n      swap1\n      dup2\n      mstore\n      0x20\n      add\n      0x00\n      keccak256\n        /* \"@openzeppelin/contracts/token/ERC721/extensions/ERC721Enumerable.sol\":5202:5232  _ownedTokens[from][tokenIndex] */\n      0x00\n        /* \"@openzeppelin/contracts/token/ERC721/extensions/ERC721Enumerable.sol\":5221:5231  tokenIndex */\n      dup5\n        /* \"@openzeppelin/contracts/token/ERC721/extensions/ERC721Enumerable.sol\":5202:5232  _ownedTokens[from][tokenIndex] */\n      dup2\n      mstore\n      0x20\n      add\n      swap1\n      dup2\n      mstore\n      0x20\n      add\n      0x00\n      keccak256\n        /* \"@openzeppelin/contracts/token/ERC721/extensions/ERC721Enumerable.sol\":5202:5246  _ownedTokens[from][tokenIndex] = lastTokenId */\n      dup2\n      swap1\n      sstore\n      pop\n        /* \"@openzeppelin/contracts/token/ERC721/extensions/ERC721Enumerable.sol\":5351:5361  tokenIndex */\n      dup2\n        /* \"@openzeppelin/contracts/token/ERC721/extensions/ERC721Enumerable.sol\":5318:5335  _ownedTokensIndex */\n      0x09\n        /* \"@openzeppelin/contracts/token/ERC721/extensions/ERC721Enumerable.sol\":5318:5348  _ownedTokensIndex[lastTokenId] */\n      0x00\n        /* \"@openzeppelin/contracts/token/ERC721/extensions/ERC721Enumerable.sol\":5336:5347  lastTokenId */\n      dup4\n        /* \"@openzeppelin/contracts/token/ERC721/extensions/ERC721Enumerable.sol\":5318:5348  _ownedTokensIndex[lastTokenId] */\n      dup2\n      mstore\n      0x20\n      add\n      swap1\n      dup2\n      mstore\n      0x20\n      add\n      0x00\n      keccak256\n        /* \"@openzeppelin/contracts/token/ERC721/extensions/ERC721Enumerable.sol\":5318:5361  _ownedTokensIndex[lastTokenId] = tokenIndex */\n      dup2\n      swap1\n      sstore\n      pop\n        /* \"@openzeppelin/contracts/token/ERC721/extensions/ERC721Enumerable.sol\":5117:5406  {... */\n      pop\n        /* \"@openzeppelin/contracts/token/ERC721/extensions/ERC721Enumerable.sol\":5083:5406  if (tokenIndex != lastTokenIndex) {... */\n    tag_337:\n        /* \"@openzeppelin/contracts/token/ERC721/extensions/ERC721Enumerable.sol\":5499:5516  _ownedTokensIndex */\n      0x09\n        /* \"@openzeppelin/contracts/token/ERC721/extensions/ERC721Enumerable.sol\":5499:5525  _ownedTokensIndex[tokenId] */\n      0x00\n        /* \"@openzeppelin/contracts/token/ERC721/extensions/ERC721Enumerable.sol\":5517:5524  tokenId */\n      dup5\n        /* \"@openzeppelin/contracts/token/ERC721/extensions/ERC721Enumerable.sol\":5499:5525  _ownedTokensIndex[tokenId] */\n      dup2\n      mstore\n      0x20\n      add\n      swap1\n      dup2\n      mstore\n      0x20\n      add\n      0x00\n      keccak256\n        /* \"@openzeppelin/contracts/token/ERC721/extensions/ERC721Enumerable.sol\":5492:5525  delete _ownedTokensIndex[tokenId] */\n      0x00\n      swap1\n      sstore\n        /* \"@openzeppelin/contracts/token/ERC721/extensions/ERC721Enumerable.sol\":5542:5554  _ownedTokens */\n      0x08\n        /* \"@openzeppelin/contracts/token/ERC721/extensions/ERC721Enumerable.sol\":5542:5560  _ownedTokens[from] */\n      0x00\n        /* \"@openzeppelin/contracts/token/ERC721/extensions/ERC721Enumerable.sol\":5555:5559  from */\n      dup6\n        /* \"@openzeppelin/contracts/token/ERC721/extensions/ERC721Enumerable.sol\":5542:5560  _ownedTokens[from] */\n      0xffffffffffffffffffffffffffffffffffffffff\n      and\n      0xffffffffffffffffffffffffffffffffffffffff\n      and\n      dup2\n      mstore\n      0x20\n      add\n      swap1\n      dup2\n      mstore\n      0x20\n      add\n      0x00\n      keccak256\n        /* \"@openzeppelin/contracts/token/ERC721/extensions/ERC721Enumerable.sol\":5542:5576  _ownedTokens[from][lastTokenIndex] */\n      0x00\n        /* \"@openzeppelin/contracts/token/ERC721/extensions/ERC721Enumerable.sol\":5561:5575  lastTokenIndex */\n      dup4\n        /* \"@openzeppelin/contracts/token/ERC721/extensions/ERC721Enumerable.sol\":5542:5576  _ownedTokens[from][lastTokenIndex] */\n      dup2\n      mstore\n      0x20\n      add\n      swap1\n      dup2\n      mstore\n      0x20\n      add\n      0x00\n      keccak256\n        /* \"@openzeppelin/contracts/token/ERC721/extensions/ERC721Enumerable.sol\":5535:5576  delete _ownedTokens[from][lastTokenIndex] */\n      0x00\n      swap1\n      sstore\n        /* \"@openzeppelin/contracts/token/ERC721/extensions/ERC721Enumerable.sol\":4705:5583  {... */\n      pop\n      pop\n        /* \"@openzeppelin/contracts/token/ERC721/extensions/ERC721Enumerable.sol\":4624:5583  function _removeTokenFromOwnerEnumeration(address from, uint256 tokenId) private {... */\n      pop\n      pop\n      jump\t// out\n        /* \"@openzeppelin/contracts/token/ERC721/extensions/ERC721Enumerable.sol\":5871:6932  function _removeTokenFromAllTokensEnumeration(uint256 tokenId) private {... */\n    tag_253:\n        /* \"@openzeppelin/contracts/token/ERC721/extensions/ERC721Enumerable.sol\":6120:6142  uint256 lastTokenIndex */\n      0x00\n        /* \"@openzeppelin/contracts/token/ERC721/extensions/ERC721Enumerable.sol\":6165:6166  1 */\n      0x01\n        /* \"@openzeppelin/contracts/token/ERC721/extensions/ERC721Enumerable.sol\":6145:6155  _allTokens */\n      0x0a\n        /* \"@openzeppelin/contracts/token/ERC721/extensions/ERC721Enumerable.sol\":6145:6162  _allTokens.length */\n      dup1\n      sload\n      swap1\n      pop\n        /* \"@openzeppelin/contracts/token/ERC721/extensions/ERC721Enumerable.sol\":6145:6166  _allTokens.length - 1 */\n      tag_339\n      swap2\n      swap1\n      tag_340\n      jump\t// in\n    tag_339:\n        /* \"@openzeppelin/contracts/token/ERC721/extensions/ERC721Enumerable.sol\":6120:6166  uint256 lastTokenIndex = _allTokens.length - 1 */\n      swap1\n      pop\n        /* \"@openzeppelin/contracts/token/ERC721/extensions/ERC721Enumerable.sol\":6176:6194  uint256 tokenIndex */\n      0x00\n        /* \"@openzeppelin/contracts/token/ERC721/extensions/ERC721Enumerable.sol\":6197:6212  _allTokensIndex */\n      0x0b\n        /* \"@openzeppelin/contracts/token/ERC721/extensions/ERC721Enumerable.sol\":6197:6221  _allTokensIndex[tokenId] */\n      0x00\n        /* \"@openzeppelin/contracts/token/ERC721/extensions/ERC721Enumerable.sol\":6213:6220  tokenId */\n      dup5\n        /* \"@openzeppelin/contracts/token/ERC721/extensions/ERC721Enumerable.sol\":6197:6221  _allTokensIndex[tokenId] */\n      dup2\n      mstore\n      0x20\n      add\n      swap1\n      dup2\n      mstore\n      0x20\n      add\n      0x00\n      keccak256\n      sload\n        /* \"@openzeppelin/contracts/token/ERC721/extensions/ERC721Enumerable.sol\":6176:6221  uint256 tokenIndex = _allTokensIndex[tokenId] */\n      swap1\n      pop\n        /* \"@openzeppelin/contracts/token/ERC721/extensions/ERC721Enumerable.sol\":6543:6562  uint256 lastTokenId */\n      0x00\n        /* \"@openzeppelin/contracts/token/ERC721/extensions/ERC721Enumerable.sol\":6565:6575  _allTokens */\n      0x0a\n        /* \"@openzeppelin/contracts/token/ERC721/extensions/ERC721Enumerable.sol\":6576:6590  lastTokenIndex */\n      dup4\n        /* \"@openzeppelin/contracts/token/ERC721/extensions/ERC721Enumerable.sol\":6565:6591  _allTokens[lastTokenIndex] */\n      dup2\n      sload\n      dup2\n      lt\n      tag_341\n      jumpi\n      tag_342\n      tag_170\n      jump\t// in\n    tag_342:\n    tag_341:\n      swap1\n      0x00\n      mstore\n      keccak256(0x00, 0x20)\n      add\n      sload\n        /* \"@openzeppelin/contracts/token/ERC721/extensions/ERC721Enumerable.sol\":6543:6591  uint256 lastTokenId = _allTokens[lastTokenIndex] */\n      swap1\n      pop\n        /* \"@openzeppelin/contracts/token/ERC721/extensions/ERC721Enumerable.sol\":6627:6638  lastTokenId */\n      dup1\n        /* \"@openzeppelin/contracts/token/ERC721/extensions/ERC721Enumerable.sol\":6602:6612  _allTokens */\n      0x0a\n        /* \"@openzeppelin/contracts/token/ERC721/extensions/ERC721Enumerable.sol\":6613:6623  tokenIndex */\n      dup4\n        /* \"@openzeppelin/contracts/token/ERC721/extensions/ERC721Enumerable.sol\":6602:6624  _allTokens[tokenIndex] */\n      dup2\n      sload\n      dup2\n      lt\n      tag_344\n      jumpi\n      tag_345\n      tag_170\n      jump\t// in\n    tag_345:\n    tag_344:\n      swap1\n      0x00\n      mstore\n      keccak256(0x00, 0x20)\n      add\n        /* \"@openzeppelin/contracts/token/ERC721/extensions/ERC721Enumerable.sol\":6602:6638  _allTokens[tokenIndex] = lastTokenId */\n      dup2\n      swap1\n      sstore\n      pop\n        /* \"@openzeppelin/contracts/token/ERC721/extensions/ERC721Enumerable.sol\":6737:6747  tokenIndex */\n      dup2\n        /* \"@openzeppelin/contracts/token/ERC721/extensions/ERC721Enumerable.sol\":6706:6721  _allTokensIndex */\n      0x0b\n        /* \"@openzeppelin/contracts/token/ERC721/extensions/ERC721Enumerable.sol\":6706:6734  _allTokensIndex[lastTokenId] */\n      0x00\n        /* \"@openzeppelin/contracts/token/ERC721/extensions/ERC721Enumerable.sol\":6722:6733  lastTokenId */\n      dup4\n        /* \"@openzeppelin/contracts/token/ERC721/extensions/ERC721Enumerable.sol\":6706:6734  _allTokensIndex[lastTokenId] */\n      dup2\n      mstore\n      0x20\n      add\n      swap1\n      dup2\n      mstore\n      0x20\n      add\n      0x00\n      keccak256\n        /* \"@openzeppelin/contracts/token/ERC721/extensions/ERC721Enumerable.sol\":6706:6747  _allTokensIndex[lastTokenId] = tokenIndex */\n      dup2\n      swap1\n      sstore\n      pop\n        /* \"@openzeppelin/contracts/token/ERC721/extensions/ERC721Enumerable.sol\":6875:6890  _allTokensIndex */\n      0x0b\n        /* \"@openzeppelin/contracts/token/ERC721/extensions/ERC721Enumerable.sol\":6875:6899  _allTokensIndex[tokenId] */\n      0x00\n        /* \"@openzeppelin/contracts/token/ERC721/extensions/ERC721Enumerable.sol\":6891:6898  tokenId */\n      dup6\n        /* \"@openzeppelin/contracts/token/ERC721/extensions/ERC721Enumerable.sol\":6875:6899  _allTokensIndex[tokenId] */\n      dup2\n      mstore\n      0x20\n      add\n      swap1\n      dup2\n      mstore\n      0x20\n      add\n      0x00\n      keccak256\n        /* \"@openzeppelin/contracts/token/ERC721/extensions/ERC721Enumerable.sol\":6868:6899  delete _allTokensIndex[tokenId] */\n      0x00\n      swap1\n      sstore\n        /* \"@openzeppelin/contracts/token/ERC721/extensions/ERC721Enumerable.sol\":6909:6919  _allTokens */\n      0x0a\n        /* \"@openzeppelin/contracts/token/ERC721/extensions/ERC721Enumerable.sol\":6909:6925  _allTokens.pop() */\n      dup1\n      sload\n      dup1\n      tag_347\n      jumpi\n      tag_348\n      tag_349\n      jump\t// in\n    tag_348:\n    tag_347:\n      0x01\n      swap1\n      sub\n      dup2\n      dup2\n      swap1\n      0x00\n      mstore\n      keccak256(0x00, 0x20)\n      add\n      0x00\n      swap1\n      sstore\n      swap1\n      sstore\n        /* \"@openzeppelin/contracts/token/ERC721/extensions/ERC721Enumerable.sol\":5942:6932  {... */\n      pop\n      pop\n      pop\n        /* \"@openzeppelin/contracts/token/ERC721/extensions/ERC721Enumerable.sol\":5871:6932  function _removeTokenFromAllTokensEnumeration(uint256 tokenId) private {... */\n      pop\n      jump\t// out\n        /* \"@openzeppelin/contracts/token/ERC721/extensions/ERC721Enumerable.sol\":3437:3651  function _addTokenToOwnerEnumeration(address to, uint256 tokenId) private {... */\n    tag_257:\n        /* \"@openzeppelin/contracts/token/ERC721/extensions/ERC721Enumerable.sol\":3521:3535  uint256 length */\n      0x00\n        /* \"@openzeppelin/contracts/token/ERC721/extensions/ERC721Enumerable.sol\":3554:3555  1 */\n      0x01\n        /* \"@openzeppelin/contracts/token/ERC721/extensions/ERC721Enumerable.sol\":3538:3551  balanceOf(to) */\n      tag_352\n        /* \"@openzeppelin/contracts/token/ERC721/extensions/ERC721Enumerable.sol\":3548:3550  to */\n      dup5\n        /* \"@openzeppelin/contracts/token/ERC721/extensions/ERC721Enumerable.sol\":3538:3547  balanceOf */\n      tag_78\n        /* \"@openzeppelin/contracts/token/ERC721/extensions/ERC721Enumerable.sol\":3538:3551  balanceOf(to) */\n      jump\t// in\n    tag_352:\n        /* \"@openzeppelin/contracts/token/ERC721/extensions/ERC721Enumerable.sol\":3538:3555  balanceOf(to) - 1 */\n      tag_353\n      swap2\n      swap1\n      tag_340\n      jump\t// in\n    tag_353:\n        /* \"@openzeppelin/contracts/token/ERC721/extensions/ERC721Enumerable.sol\":3521:3555  uint256 length = balanceOf(to) - 1 */\n      swap1\n      pop\n        /* \"@openzeppelin/contracts/token/ERC721/extensions/ERC721Enumerable.sol\":3592:3599  tokenId */\n      dup2\n        /* \"@openzeppelin/contracts/token/ERC721/extensions/ERC721Enumerable.sol\":3565:3577  _ownedTokens */\n      0x08\n        /* \"@openzeppelin/contracts/token/ERC721/extensions/ERC721Enumerable.sol\":3565:3581  _ownedTokens[to] */\n      0x00\n        /* \"@openzeppelin/contracts/token/ERC721/extensions/ERC721Enumerable.sol\":3578:3580  to */\n      dup6\n        /* \"@openzeppelin/contracts/token/ERC721/extensions/ERC721Enumerable.sol\":3565:3581  _ownedTokens[to] */\n      0xffffffffffffffffffffffffffffffffffffffff\n      and\n      0xffffffffffffffffffffffffffffffffffffffff\n      and\n      dup2\n      mstore\n      0x20\n      add\n      swap1\n      dup2\n      mstore\n      0x20\n      add\n      0x00\n      keccak256\n        /* \"@openzeppelin/contracts/token/ERC721/extensions/ERC721Enumerable.sol\":3565:3589  _ownedTokens[to][length] */\n      0x00\n        /* \"@openzeppelin/contracts/token/ERC721/extensions/ERC721Enumerable.sol\":3582:3588  length */\n      dup4\n        /* \"@openzeppelin/contracts/token/ERC721/extensions/ERC721Enumerable.sol\":3565:3589  _ownedTokens[to][length] */\n      dup2\n      mstore\n      0x20\n      add\n      swap1\n      dup2\n      mstore\n      0x20\n      add\n      0x00\n      keccak256\n        /* \"@openzeppelin/contracts/token/ERC721/extensions/ERC721Enumerable.sol\":3565:3599  _ownedTokens[to][length] = tokenId */\n      dup2\n      swap1\n      sstore\n      pop\n        /* \"@openzeppelin/contracts/token/ERC721/extensions/ERC721Enumerable.sol\":3638:3644  length */\n      dup1\n        /* \"@openzeppelin/contracts/token/ERC721/extensions/ERC721Enumerable.sol\":3609:3626  _ownedTokensIndex */\n      0x09\n        /* \"@openzeppelin/contracts/token/ERC721/extensions/ERC721Enumerable.sol\":3609:3635  _ownedTokensIndex[tokenId] */\n      0x00\n        /* \"@openzeppelin/contracts/token/ERC721/extensions/ERC721Enumerable.sol\":3627:3634  tokenId */\n      dup5\n        /* \"@openzeppelin/contracts/token/ERC721/extensions/ERC721Enumerable.sol\":3609:3635  _ownedTokensIndex[tokenId] */\n      dup2\n      mstore\n      0x20\n      add\n      swap1\n      dup2\n      mstore\n      0x20\n      add\n      0x00\n      keccak256\n        /* \"@openzeppelin/contracts/token/ERC721/extensions/ERC721Enumerable.sol\":3609:3644  _ownedTokensIndex[tokenId] = length */\n      dup2\n      swap1\n      sstore\n      pop\n        /* \"@openzeppelin/contracts/token/ERC721/extensions/ERC721Enumerable.sol\":3511:3651  {... */\n      pop\n        /* \"@openzeppelin/contracts/token/ERC721/extensions/ERC721Enumerable.sol\":3437:3651  function _addTokenToOwnerEnumeration(address to, uint256 tokenId) private {... */\n      pop\n      pop\n      jump\t// out\n        /* \"@openzeppelin/contracts/token/ERC721/ERC721.sol\":10954:11136  function _safeMint(address to, uint256 tokenId, bytes memory data) internal virtual {... */\n    tag_267:\n        /* \"@openzeppelin/contracts/token/ERC721/ERC721.sol\":11048:11066  _mint(to, tokenId) */\n      tag_355\n        /* \"@openzeppelin/contracts/token/ERC721/ERC721.sol\":11054:11056  to */\n      dup4\n        /* \"@openzeppelin/contracts/token/ERC721/ERC721.sol\":11058:11065  tokenId */\n      dup4\n        /* \"@openzeppelin/contracts/token/ERC721/ERC721.sol\":11048:11053  _mint */\n      tag_356\n        /* \"@openzeppelin/contracts/token/ERC721/ERC721.sol\":11048:11066  _mint(to, tokenId) */\n      jump\t// in\n    tag_355:\n        /* \"@openzeppelin/contracts/token/ERC721/ERC721.sol\":11076:11129  _checkOnERC721Received(address(0), to, tokenId, data) */\n      tag_357\n        /* \"@openzeppelin/contracts/token/ERC721/ERC721.sol\":11107:11108  0 */\n      0x00\n        /* \"@openzeppelin/contracts/token/ERC721/ERC721.sol\":11111:11113  to */\n      dup5\n        /* \"@openzeppelin/contracts/token/ERC721/ERC721.sol\":11115:11122  tokenId */\n      dup5\n        /* \"@openzeppelin/contracts/token/ERC721/ERC721.sol\":11124:11128  data */\n      dup5\n        /* \"@openzeppelin/contracts/token/ERC721/ERC721.sol\":11076:11098  _checkOnERC721Received */\n      tag_202\n        /* \"@openzeppelin/contracts/token/ERC721/ERC721.sol\":11076:11129  _checkOnERC721Received(address(0), to, tokenId, data) */\n      jump\t// in\n    tag_357:\n        /* \"@openzeppelin/contracts/token/ERC721/ERC721.sol\":10954:11136  function _safeMint(address to, uint256 tokenId, bytes memory data) internal virtual {... */\n      pop\n      pop\n      pop\n      jump\t// out\n        /* \"@openzeppelin/contracts/utils/math/Math.sol\":12214:13130  function log10(uint256 value) internal pure returns (uint256) {... */\n    tag_295:\n        /* \"@openzeppelin/contracts/utils/math/Math.sol\":12267:12274  uint256 */\n      0x00\n        /* \"@openzeppelin/contracts/utils/math/Math.sol\":12286:12300  uint256 result */\n      dup1\n        /* \"@openzeppelin/contracts/utils/math/Math.sol\":12303:12304  0 */\n      0x00\n        /* \"@openzeppelin/contracts/utils/math/Math.sol\":12286:12304  uint256 result = 0 */\n      swap1\n      pop\n        /* \"@openzeppelin/contracts/utils/math/Math.sol\":12351:12359  10 ** 64 */\n      0x184f03e93ff9f4daa797ed6e38ed64bf6a1f010000000000000000\n        /* \"@openzeppelin/contracts/utils/math/Math.sol\":12342:12347  value */\n      dup4\n        /* \"@openzeppelin/contracts/utils/math/Math.sol\":12342:12359  value >= 10 ** 64 */\n      lt\n        /* \"@openzeppelin/contracts/utils/math/Math.sol\":12338:12441  if (value >= 10 ** 64) {... */\n      tag_359\n      jumpi\n        /* \"@openzeppelin/contracts/utils/math/Math.sol\":12388:12396  10 ** 64 */\n      0x184f03e93ff9f4daa797ed6e38ed64bf6a1f010000000000000000\n        /* \"@openzeppelin/contracts/utils/math/Math.sol\":12379:12396  value /= 10 ** 64 */\n      dup4\n      dup2\n      tag_360\n      jumpi\n      tag_361\n      tag_304\n      jump\t// in\n    tag_361:\n    tag_360:\n      div\n      swap3\n      pop\n        /* \"@openzeppelin/contracts/utils/math/Math.sol\":12424:12426  64 */\n      0x40\n        /* \"@openzeppelin/contracts/utils/math/Math.sol\":12414:12426  result += 64 */\n      dup2\n      add\n      swap1\n      pop\n        /* \"@openzeppelin/contracts/utils/math/Math.sol\":12338:12441  if (value >= 10 ** 64) {... */\n    tag_359:\n        /* \"@openzeppelin/contracts/utils/math/Math.sol\":12467:12475  10 ** 32 */\n      0x04ee2d6d415b85acef8100000000\n        /* \"@openzeppelin/contracts/utils/math/Math.sol\":12458:12463  value */\n      dup4\n        /* \"@openzeppelin/contracts/utils/math/Math.sol\":12458:12475  value >= 10 ** 32 */\n      lt\n        /* \"@openzeppelin/contracts/utils/math/Math.sol\":12454:12557  if (value >= 10 ** 32) {... */\n      tag_362\n      jumpi\n        /* \"@openzeppelin/contracts/utils/math/Math.sol\":12504:12512  10 ** 32 */\n      0x04ee2d6d415b85acef8100000000\n        /* \"@openzeppelin/contracts/utils/math/Math.sol\":12495:12512  value /= 10 ** 32 */\n      dup4\n      dup2\n      tag_363\n      jumpi\n      tag_364\n      tag_304\n      jump\t// in\n    tag_364:\n    tag_363:\n      div\n      swap3\n      pop\n        /* \"@openzeppelin/contracts/utils/math/Math.sol\":12540:12542  32 */\n      0x20\n        /* \"@openzeppelin/contracts/utils/math/Math.sol\":12530:12542  result += 32 */\n      dup2\n      add\n      swap1\n      pop\n        /* \"@openzeppelin/contracts/utils/math/Math.sol\":12454:12557  if (value >= 10 ** 32) {... */\n    tag_362:\n        /* \"@openzeppelin/contracts/utils/math/Math.sol\":12583:12591  10 ** 16 */\n      0x2386f26fc10000\n        /* \"@openzeppelin/contracts/utils/math/Math.sol\":12574:12579  value */\n      dup4\n        /* \"@openzeppelin/contracts/utils/math/Math.sol\":12574:12591  value >= 10 ** 16 */\n      lt\n        /* \"@openzeppelin/contracts/utils/math/Math.sol\":12570:12673  if (value >= 10 ** 16) {... */\n      tag_365\n      jumpi\n        /* \"@openzeppelin/contracts/utils/math/Math.sol\":12620:12628  10 ** 16 */\n      0x2386f26fc10000\n        /* \"@openzeppelin/contracts/utils/math/Math.sol\":12611:12628  value /= 10 ** 16 */\n      dup4\n      dup2\n      tag_366\n      jumpi\n      tag_367\n      tag_304\n      jump\t// in\n    tag_367:\n    tag_366:\n      div\n      swap3\n      pop\n        /* \"@openzeppelin/contracts/utils/math/Math.sol\":12656:12658  16 */\n      0x10\n        /* \"@openzeppelin/contracts/utils/math/Math.sol\":12646:12658  result += 16 */\n      dup2\n      add\n      swap1\n      pop\n        /* \"@openzeppelin/contracts/utils/math/Math.sol\":12570:12673  if (value >= 10 ** 16) {... */\n    tag_365:\n        /* \"@openzeppelin/contracts/utils/math/Math.sol\":12699:12706  10 ** 8 */\n      0x05f5e100\n        /* \"@openzeppelin/contracts/utils/math/Math.sol\":12690:12695  value */\n      dup4\n        /* \"@openzeppelin/contracts/utils/math/Math.sol\":12690:12706  value >= 10 ** 8 */\n      lt\n        /* \"@openzeppelin/contracts/utils/math/Math.sol\":12686:12786  if (value >= 10 ** 8) {... */\n      tag_368\n      jumpi\n        /* \"@openzeppelin/contracts/utils/math/Math.sol\":12735:12742  10 ** 8 */\n      0x05f5e100\n        /* \"@openzeppelin/contracts/utils/math/Math.sol\":12726:12742  value /= 10 ** 8 */\n      dup4\n      dup2\n      tag_369\n      jumpi\n      tag_370\n      tag_304\n      jump\t// in\n    tag_370:\n    tag_369:\n      div\n      swap3\n      pop\n        /* \"@openzeppelin/contracts/utils/math/Math.sol\":12770:12771  8 */\n      0x08\n        /* \"@openzeppelin/contracts/utils/math/Math.sol\":12760:12771  result += 8 */\n      dup2\n      add\n      swap1\n      pop\n        /* \"@openzeppelin/contracts/utils/math/Math.sol\":12686:12786  if (value >= 10 ** 8) {... */\n    tag_368:\n        /* \"@openzeppelin/contracts/utils/math/Math.sol\":12812:12819  10 ** 4 */\n      0x2710\n        /* \"@openzeppelin/contracts/utils/math/Math.sol\":12803:12808  value */\n      dup4\n        /* \"@openzeppelin/contracts/utils/math/Math.sol\":12803:12819  value >= 10 ** 4 */\n      lt\n        /* \"@openzeppelin/contracts/utils/math/Math.sol\":12799:12899  if (value >= 10 ** 4) {... */\n      tag_371\n      jumpi\n        /* \"@openzeppelin/contracts/utils/math/Math.sol\":12848:12855  10 ** 4 */\n      0x2710\n        /* \"@openzeppelin/contracts/utils/math/Math.sol\":12839:12855  value /= 10 ** 4 */\n      dup4\n      dup2\n      tag_372\n      jumpi\n      tag_373\n      tag_304\n      jump\t// in\n    tag_373:\n    tag_372:\n      div\n      swap3\n      pop\n        /* \"@openzeppelin/contracts/utils/math/Math.sol\":12883:12884  4 */\n      0x04\n        /* \"@openzeppelin/contracts/utils/math/Math.sol\":12873:12884  result += 4 */\n      dup2\n      add\n      swap1\n      pop\n        /* \"@openzeppelin/contracts/utils/math/Math.sol\":12799:12899  if (value >= 10 ** 4) {... */\n    tag_371:\n        /* \"@openzeppelin/contracts/utils/math/Math.sol\":12925:12932  10 ** 2 */\n      0x64\n        /* \"@openzeppelin/contracts/utils/math/Math.sol\":12916:12921  value */\n      dup4\n        /* \"@openzeppelin/contracts/utils/math/Math.sol\":12916:12932  value >= 10 ** 2 */\n      lt\n        /* \"@openzeppelin/contracts/utils/math/Math.sol\":12912:13012  if (value >= 10 ** 2) {... */\n      tag_374\n      jumpi\n        /* \"@openzeppelin/contracts/utils/math/Math.sol\":12961:12968  10 ** 2 */\n      0x64\n        /* \"@openzeppelin/contracts/utils/math/Math.sol\":12952:12968  value /= 10 ** 2 */\n      dup4\n      dup2\n      tag_375\n      jumpi\n      tag_376\n      tag_304\n      jump\t// in\n    tag_376:\n    tag_375:\n      div\n      swap3\n      pop\n        /* \"@openzeppelin/contracts/utils/math/Math.sol\":12996:12997  2 */\n      0x02\n        /* \"@openzeppelin/contracts/utils/math/Math.sol\":12986:12997  result += 2 */\n      dup2\n      add\n      swap1\n      pop\n        /* \"@openzeppelin/contracts/utils/math/Math.sol\":12912:13012  if (value >= 10 ** 2) {... */\n    tag_374:\n        /* \"@openzeppelin/contracts/utils/math/Math.sol\":13038:13045  10 ** 1 */\n      0x0a\n        /* \"@openzeppelin/contracts/utils/math/Math.sol\":13029:13034  value */\n      dup4\n        /* \"@openzeppelin/contracts/utils/math/Math.sol\":13029:13045  value >= 10 ** 1 */\n      lt\n        /* \"@openzeppelin/contracts/utils/math/Math.sol\":13025:13091  if (value >= 10 ** 1) {... */\n      tag_377\n      jumpi\n        /* \"@openzeppelin/contracts/utils/math/Math.sol\":13075:13076  1 */\n      0x01\n        /* \"@openzeppelin/contracts/utils/math/Math.sol\":13065:13076  result += 1 */\n      dup2\n      add\n      swap1\n      pop\n        /* \"@openzeppelin/contracts/utils/math/Math.sol\":13025:13091  if (value >= 10 ** 1) {... */\n    tag_377:\n        /* \"@openzeppelin/contracts/utils/math/Math.sol\":13117:13123  result */\n      dup1\n        /* \"@openzeppelin/contracts/utils/math/Math.sol\":13110:13123  return result */\n      swap2\n      pop\n      pop\n        /* \"@openzeppelin/contracts/utils/math/Math.sol\":12214:13130  function log10(uint256 value) internal pure returns (uint256) {... */\n      swap2\n      swap1\n      pop\n      jump\t// out\n        /* \"@openzeppelin/contracts/utils/introspection/ERC165.sol\":762:908  function supportsInterface(bytes4 interfaceId) public view virtual returns (bool) {... */\n    tag_313:\n        /* \"@openzeppelin/contracts/utils/introspection/ERC165.sol\":838:842  bool */\n      0x00\n        /* \"@openzeppelin/contracts/utils/introspection/ERC165.sol\":876:901  type(IERC165).interfaceId */\n      0x01ffc9a700000000000000000000000000000000000000000000000000000000\n        /* \"@openzeppelin/contracts/utils/introspection/ERC165.sol\":861:901  interfaceId == type(IERC165).interfaceId */\n      not(0xffffffffffffffffffffffffffffffffffffffffffffffffffffffff)\n      and\n        /* \"@openzeppelin/contracts/utils/introspection/ERC165.sol\":861:872  interfaceId */\n      dup3\n        /* \"@openzeppelin/contracts/utils/introspection/ERC165.sol\":861:901  interfaceId == type(IERC165).interfaceId */\n      not(0xffffffffffffffffffffffffffffffffffffffffffffffffffffffff)\n      and\n      eq\n        /* \"@openzeppelin/contracts/utils/introspection/ERC165.sol\":854:901  return interfaceId == type(IERC165).interfaceId */\n      swap1\n      pop\n        /* \"@openzeppelin/contracts/utils/introspection/ERC165.sol\":762:908  function supportsInterface(bytes4 interfaceId) public view virtual returns (bool) {... */\n      swap2\n      swap1\n      pop\n      jump\t// out\n        /* \"@openzeppelin/contracts/token/ERC721/ERC721.sol\":7082:7450  function _checkAuthorized(address owner, address spender, uint256 tokenId) internal view virtual {... */\n    tag_329:\n        /* \"@openzeppelin/contracts/token/ERC721/ERC721.sol\":7194:7232  _isAuthorized(owner, spender, tokenId) */\n      tag_380\n        /* \"@openzeppelin/contracts/token/ERC721/ERC721.sol\":7208:7213  owner */\n      dup4\n        /* \"@openzeppelin/contracts/token/ERC721/ERC721.sol\":7215:7222  spender */\n      dup4\n        /* \"@openzeppelin/contracts/token/ERC721/ERC721.sol\":7224:7231  tokenId */\n      dup4\n        /* \"@openzeppelin/contracts/token/ERC721/ERC721.sol\":7194:7207  _isAuthorized */\n      tag_381\n        /* \"@openzeppelin/contracts/token/ERC721/ERC721.sol\":7194:7232  _isAuthorized(owner, spender, tokenId) */\n      jump\t// in\n    tag_380:\n        /* \"@openzeppelin/contracts/token/ERC721/ERC721.sol\":7189:7444  if (!_isAuthorized(owner, spender, tokenId)) {... */\n      tag_382\n      jumpi\n        /* \"@openzeppelin/contracts/token/ERC721/ERC721.sol\":7269:7270  0 */\n      0x00\n        /* \"@openzeppelin/contracts/token/ERC721/ERC721.sol\":7252:7271  owner == address(0) */\n      0xffffffffffffffffffffffffffffffffffffffff\n      and\n        /* \"@openzeppelin/contracts/token/ERC721/ERC721.sol\":7252:7257  owner */\n      dup4\n        /* \"@openzeppelin/contracts/token/ERC721/ERC721.sol\":7252:7271  owner == address(0) */\n      0xffffffffffffffffffffffffffffffffffffffff\n      and\n      sub\n        /* \"@openzeppelin/contracts/token/ERC721/ERC721.sol\":7248:7434  if (owner == address(0)) {... */\n      tag_383\n      jumpi\n        /* \"@openzeppelin/contracts/token/ERC721/ERC721.sol\":7321:7328  tokenId */\n      dup1\n        /* \"@openzeppelin/contracts/token/ERC721/ERC721.sol\":7298:7329  ERC721NonexistentToken(tokenId) */\n      mload(0x40)\n      0x7e27328900000000000000000000000000000000000000000000000000000000\n      dup2\n      mstore\n      0x04\n      add\n      tag_384\n      swap2\n      swap1\n      tag_51\n      jump\t// in\n    tag_384:\n      mload(0x40)\n      dup1\n      swap2\n      sub\n      swap1\n      revert\n        /* \"@openzeppelin/contracts/token/ERC721/ERC721.sol\":7248:7434  if (owner == address(0)) {... */\n    tag_383:\n        /* \"@openzeppelin/contracts/token/ERC721/ERC721.sol\":7402:7409  spender */\n      dup2\n        /* \"@openzeppelin/contracts/token/ERC721/ERC721.sol\":7411:7418  tokenId */\n      dup2\n        /* \"@openzeppelin/contracts/token/ERC721/ERC721.sol\":7375:7419  ERC721InsufficientApproval(spender, tokenId) */\n      mload(0x40)\n      0x177e802f00000000000000000000000000000000000000000000000000000000\n      dup2\n      mstore\n      0x04\n      add\n      tag_386\n      swap3\n      swap2\n      swap1\n      tag_152\n      jump\t// in\n    tag_386:\n      mload(0x40)\n      dup1\n      swap2\n      sub\n      swap1\n      revert\n        /* \"@openzeppelin/contracts/token/ERC721/ERC721.sol\":7189:7444  if (!_isAuthorized(owner, spender, tokenId)) {... */\n    tag_382:\n        /* \"@openzeppelin/contracts/token/ERC721/ERC721.sol\":7082:7450  function _checkAuthorized(address owner, address spender, uint256 tokenId) internal view virtual {... */\n      pop\n      pop\n      pop\n      jump\t// out\n        /* \"@openzeppelin/contracts/token/ERC721/ERC721.sol\":9955:10282  function _mint(address to, uint256 tokenId) internal {... */\n    tag_356:\n        /* \"@openzeppelin/contracts/token/ERC721/ERC721.sol\":10036:10037  0 */\n      0x00\n        /* \"@openzeppelin/contracts/token/ERC721/ERC721.sol\":10022:10038  to == address(0) */\n      0xffffffffffffffffffffffffffffffffffffffff\n      and\n        /* \"@openzeppelin/contracts/token/ERC721/ERC721.sol\":10022:10024  to */\n      dup3\n        /* \"@openzeppelin/contracts/token/ERC721/ERC721.sol\":10022:10038  to == address(0) */\n      0xffffffffffffffffffffffffffffffffffffffff\n      and\n      sub\n        /* \"@openzeppelin/contracts/token/ERC721/ERC721.sol\":10018:10105  if (to == address(0)) {... */\n      tag_388\n      jumpi\n        /* \"@openzeppelin/contracts/token/ERC721/ERC721.sol\":10091:10092  0 */\n      0x00\n        /* \"@openzeppelin/contracts/token/ERC721/ERC721.sol\":10061:10094  ERC721InvalidReceiver(address(0)) */\n      mload(0x40)\n      0x64a0ae9200000000000000000000000000000000000000000000000000000000\n      dup2\n      mstore\n      0x04\n      add\n      tag_389\n      swap2\n      swap1\n      tag_43\n      jump\t// in\n    tag_389:\n      mload(0x40)\n      dup1\n      swap2\n      sub\n      swap1\n      revert\n        /* \"@openzeppelin/contracts/token/ERC721/ERC721.sol\":10018:10105  if (to == address(0)) {... */\n    tag_388:\n        /* \"@openzeppelin/contracts/token/ERC721/ERC721.sol\":10114:10135  address previousOwner */\n      0x00\n        /* \"@openzeppelin/contracts/token/ERC721/ERC721.sol\":10138:10170  _update(to, tokenId, address(0)) */\n      tag_390\n        /* \"@openzeppelin/contracts/token/ERC721/ERC721.sol\":10146:10148  to */\n      dup4\n        /* \"@openzeppelin/contracts/token/ERC721/ERC721.sol\":10150:10157  tokenId */\n      dup4\n        /* \"@openzeppelin/contracts/token/ERC721/ERC721.sol\":10167:10168  0 */\n      0x00\n        /* \"@openzeppelin/contracts/token/ERC721/ERC721.sol\":10138:10145  _update */\n      tag_144\n        /* \"@openzeppelin/contracts/token/ERC721/ERC721.sol\":10138:10170  _update(to, tokenId, address(0)) */\n      jump\t// in\n    tag_390:\n        /* \"@openzeppelin/contracts/token/ERC721/ERC721.sol\":10114:10170  address previousOwner = _update(to, tokenId, address(0)) */\n      swap1\n      pop\n        /* \"@openzeppelin/contracts/token/ERC721/ERC721.sol\":10209:10210  0 */\n      0x00\n        /* \"@openzeppelin/contracts/token/ERC721/ERC721.sol\":10184:10211  previousOwner != address(0) */\n      0xffffffffffffffffffffffffffffffffffffffff\n      and\n        /* \"@openzeppelin/contracts/token/ERC721/ERC721.sol\":10184:10197  previousOwner */\n      dup2\n        /* \"@openzeppelin/contracts/token/ERC721/ERC721.sol\":10184:10211  previousOwner != address(0) */\n      0xffffffffffffffffffffffffffffffffffffffff\n      and\n      eq\n        /* \"@openzeppelin/contracts/token/ERC721/ERC721.sol\":10180:10276  if (previousOwner != address(0)) {... */\n      tag_391\n      jumpi\n        /* \"@openzeppelin/contracts/token/ERC721/ERC721.sol\":10262:10263  0 */\n      0x00\n        /* \"@openzeppelin/contracts/token/ERC721/ERC721.sol\":10234:10265  ERC721InvalidSender(address(0)) */\n      mload(0x40)\n      0x73c6ac6e00000000000000000000000000000000000000000000000000000000\n      dup2\n      mstore\n      0x04\n      add\n      tag_392\n      swap2\n      swap1\n      tag_43\n      jump\t// in\n    tag_392:\n      mload(0x40)\n      dup1\n      swap2\n      sub\n      swap1\n      revert\n        /* \"@openzeppelin/contracts/token/ERC721/ERC721.sol\":10180:10276  if (previousOwner != address(0)) {... */\n    tag_391:\n        /* \"@openzeppelin/contracts/token/ERC721/ERC721.sol\":10008:10282  {... */\n      pop\n        /* \"@openzeppelin/contracts/token/ERC721/ERC721.sol\":9955:10282  function _mint(address to, uint256 tokenId) internal {... */\n      pop\n      pop\n      jump\t// out\n        /* \"@openzeppelin/contracts/token/ERC721/ERC721.sol\":6376:6648  function _isAuthorized(address owner, address spender, uint256 tokenId) internal view virtual returns (bool) {... */\n    tag_381:\n        /* \"@openzeppelin/contracts/token/ERC721/ERC721.sol\":6479:6483  bool */\n      0x00\n        /* \"@openzeppelin/contracts/token/ERC721/ERC721.sol\":6533:6534  0 */\n      dup1\n        /* \"@openzeppelin/contracts/token/ERC721/ERC721.sol\":6514:6535  spender != address(0) */\n      0xffffffffffffffffffffffffffffffffffffffff\n      and\n        /* \"@openzeppelin/contracts/token/ERC721/ERC721.sol\":6514:6521  spender */\n      dup4\n        /* \"@openzeppelin/contracts/token/ERC721/ERC721.sol\":6514:6535  spender != address(0) */\n      0xffffffffffffffffffffffffffffffffffffffff\n      and\n      eq\n      iszero\n        /* \"@openzeppelin/contracts/token/ERC721/ERC721.sol\":6514:6641  spender != address(0) &&... */\n      dup1\n      iszero\n      tag_394\n      jumpi\n      pop\n        /* \"@openzeppelin/contracts/token/ERC721/ERC721.sol\":6561:6568  spender */\n      dup3\n        /* \"@openzeppelin/contracts/token/ERC721/ERC721.sol\":6552:6568  owner == spender */\n      0xffffffffffffffffffffffffffffffffffffffff\n      and\n        /* \"@openzeppelin/contracts/token/ERC721/ERC721.sol\":6552:6557  owner */\n      dup5\n        /* \"@openzeppelin/contracts/token/ERC721/ERC721.sol\":6552:6568  owner == spender */\n      0xffffffffffffffffffffffffffffffffffffffff\n      and\n      eq\n        /* \"@openzeppelin/contracts/token/ERC721/ERC721.sol\":6552:6604  owner == spender || isApprovedForAll(owner, spender) */\n      dup1\n      tag_395\n      jumpi\n      pop\n        /* \"@openzeppelin/contracts/token/ERC721/ERC721.sol\":6572:6604  isApprovedForAll(owner, spender) */\n      tag_396\n        /* \"@openzeppelin/contracts/token/ERC721/ERC721.sol\":6589:6594  owner */\n      dup5\n        /* \"@openzeppelin/contracts/token/ERC721/ERC721.sol\":6596:6603  spender */\n      dup5\n        /* \"@openzeppelin/contracts/token/ERC721/ERC721.sol\":6572:6588  isApprovedForAll */\n      tag_110\n        /* \"@openzeppelin/contracts/token/ERC721/ERC721.sol\":6572:6604  isApprovedForAll(owner, spender) */\n      jump\t// in\n    tag_396:\n        /* \"@openzeppelin/contracts/token/ERC721/ERC721.sol\":6552:6604  owner == spender || isApprovedForAll(owner, spender) */\n    tag_395:\n        /* \"@openzeppelin/contracts/token/ERC721/ERC721.sol\":6552:6640  owner == spender || isApprovedForAll(owner, spender) || _getApproved(tokenId) == spender */\n      dup1\n      tag_397\n      jumpi\n      pop\n        /* \"@openzeppelin/contracts/token/ERC721/ERC721.sol\":6633:6640  spender */\n      dup3\n        /* \"@openzeppelin/contracts/token/ERC721/ERC721.sol\":6608:6640  _getApproved(tokenId) == spender */\n      0xffffffffffffffffffffffffffffffffffffffff\n      and\n        /* \"@openzeppelin/contracts/token/ERC721/ERC721.sol\":6608:6629  _getApproved(tokenId) */\n      tag_398\n        /* \"@openzeppelin/contracts/token/ERC721/ERC721.sol\":6621:6628  tokenId */\n      dup4\n        /* \"@openzeppelin/contracts/token/ERC721/ERC721.sol\":6608:6620  _getApproved */\n      tag_132\n        /* \"@openzeppelin/contracts/token/ERC721/ERC721.sol\":6608:6629  _getApproved(tokenId) */\n      jump\t// in\n    tag_398:\n        /* \"@openzeppelin/contracts/token/ERC721/ERC721.sol\":6608:6640  _getApproved(tokenId) == spender */\n      0xffffffffffffffffffffffffffffffffffffffff\n      and\n      eq\n        /* \"@openzeppelin/contracts/token/ERC721/ERC721.sol\":6552:6640  owner == spender || isApprovedForAll(owner, spender) || _getApproved(tokenId) == spender */\n    tag_397:\n        /* \"@openzeppelin/contracts/token/ERC721/ERC721.sol\":6514:6641  spender != address(0) &&... */\n    tag_394:\n        /* \"@openzeppelin/contracts/token/ERC721/ERC721.sol\":6495:6641  return... */\n      swap1\n      pop\n        /* \"@openzeppelin/contracts/token/ERC721/ERC721.sol\":6376:6648  function _isAuthorized(address owner, address spender, uint256 tokenId) internal view virtual returns (bool) {... */\n      swap4\n      swap3\n      pop\n      pop\n      pop\n      jump\t// out\n    tag_217:\n      dup3\n      dup1\n      sload\n      dup3\n      dup3\n      sstore\n      swap1\n      0x00\n      mstore\n      keccak256(0x00, 0x20)\n      swap1\n      dup2\n      add\n      swap3\n      dup3\n      iszero\n      tag_399\n      jumpi\n      swap2\n      0x20\n      mul\n      dup3\n      add\n    tag_400:\n      dup3\n      dup2\n      gt\n      iszero\n      tag_401\n      jumpi\n      dup3\n      mload\n      dup3\n      swap1\n      dup2\n      tag_402\n      swap2\n      swap1\n      tag_403\n      jump\t// in\n    tag_402:\n      pop\n      swap2\n      0x20\n      add\n      swap2\n      swap1\n      0x01\n      add\n      swap1\n      jump(tag_400)\n    tag_401:\n    tag_399:\n      pop\n      swap1\n      pop\n      tag_404\n      swap2\n      swap1\n      tag_405\n      jump\t// in\n    tag_404:\n      pop\n      swap1\n      jump\t// out\n    tag_405:\n    tag_406:\n      dup1\n      dup3\n      gt\n      iszero\n      tag_407\n      jumpi\n      0x00\n      dup2\n      dup2\n      tag_408\n      swap2\n      swap1\n      tag_409\n      jump\t// in\n    tag_408:\n      pop\n      0x01\n      add\n      jump(tag_406)\n    tag_407:\n      pop\n      swap1\n      jump\t// out\n    tag_409:\n      pop\n      dup1\n      sload\n      tag_410\n      swap1\n      tag_123\n      jump\t// in\n    tag_410:\n      0x00\n      dup3\n      sstore\n      dup1\n      0x1f\n      lt\n      tag_412\n      jumpi\n      pop\n      jump(tag_411)\n    tag_412:\n      0x1f\n      add\n      0x20\n      swap1\n      div\n      swap1\n      0x00\n      mstore\n      keccak256(0x00, 0x20)\n      swap1\n      dup2\n      add\n      swap1\n      tag_413\n      swap2\n      swap1\n      tag_414\n      jump\t// in\n    tag_413:\n    tag_411:\n      pop\n      jump\t// out\n    tag_414:\n    tag_415:\n      dup1\n      dup3\n      gt\n      iszero\n      tag_416\n      jumpi\n      0x00\n      dup2\n      0x00\n      swap1\n      sstore\n      pop\n      0x01\n      add\n      jump(tag_415)\n    tag_416:\n      pop\n      swap1\n      jump\t// out\n        /* \"#utility.yul\":7:82   */\n    tag_417:\n        /* \"#utility.yul\":40:46   */\n      0x00\n        /* \"#utility.yul\":73:75   */\n      0x40\n        /* \"#utility.yul\":67:76   */\n      mload\n        /* \"#utility.yul\":57:76   */\n      swap1\n      pop\n        /* \"#utility.yul\":7:82   */\n      swap1\n      jump\t// out\n        /* \"#utility.yul\":88:205   */\n    tag_418:\n        /* \"#utility.yul\":197:198   */\n      0x00\n        /* \"#utility.yul\":194:195   */\n      dup1\n        /* \"#utility.yul\":187:199   */\n      revert\n        /* \"#utility.yul\":211:328   */\n    tag_419:\n        /* \"#utility.yul\":320:321   */\n      0x00\n        /* \"#utility.yul\":317:318   */\n      dup1\n        /* \"#utility.yul\":310:322   */\n      revert\n        /* \"#utility.yul\":334:483   */\n    tag_420:\n        /* \"#utility.yul\":370:377   */\n      0x00\n        /* \"#utility.yul\":410:476   */\n      0xffffffff00000000000000000000000000000000000000000000000000000000\n        /* \"#utility.yul\":403:408   */\n      dup3\n        /* \"#utility.yul\":399:477   */\n      and\n        /* \"#utility.yul\":388:477   */\n      swap1\n      pop\n        /* \"#utility.yul\":334:483   */\n      swap2\n      swap1\n      pop\n      jump\t// out\n        /* \"#utility.yul\":489:609   */\n    tag_421:\n        /* \"#utility.yul\":561:584   */\n      tag_493\n        /* \"#utility.yul\":578:583   */\n      dup2\n        /* \"#utility.yul\":561:584   */\n      tag_420\n      jump\t// in\n    tag_493:\n        /* \"#utility.yul\":554:559   */\n      dup2\n        /* \"#utility.yul\":551:585   */\n      eq\n        /* \"#utility.yul\":541:603   */\n      tag_494\n      jumpi\n        /* \"#utility.yul\":599:600   */\n      0x00\n        /* \"#utility.yul\":596:597   */\n      dup1\n        /* \"#utility.yul\":589:601   */\n      revert\n        /* \"#utility.yul\":541:603   */\n    tag_494:\n        /* \"#utility.yul\":489:609   */\n      pop\n      jump\t// out\n        /* \"#utility.yul\":615:752   */\n    tag_422:\n        /* \"#utility.yul\":660:665   */\n      0x00\n        /* \"#utility.yul\":698:704   */\n      dup2\n        /* \"#utility.yul\":685:705   */\n      calldataload\n        /* \"#utility.yul\":676:705   */\n      swap1\n      pop\n        /* \"#utility.yul\":714:746   */\n      tag_496\n        /* \"#utility.yul\":740:745   */\n      dup2\n        /* \"#utility.yul\":714:746   */\n      tag_421\n      jump\t// in\n    tag_496:\n        /* \"#utility.yul\":615:752   */\n      swap3\n      swap2\n      pop\n      pop\n      jump\t// out\n        /* \"#utility.yul\":758:1085   */\n    tag_30:\n        /* \"#utility.yul\":816:822   */\n      0x00\n        /* \"#utility.yul\":865:867   */\n      0x20\n        /* \"#utility.yul\":853:862   */\n      dup3\n        /* \"#utility.yul\":844:851   */\n      dup5\n        /* \"#utility.yul\":840:863   */\n      sub\n        /* \"#utility.yul\":836:868   */\n      slt\n        /* \"#utility.yul\":833:952   */\n      iszero\n      tag_498\n      jumpi\n        /* \"#utility.yul\":871:950   */\n      tag_499\n      tag_418\n      jump\t// in\n    tag_499:\n        /* \"#utility.yul\":833:952   */\n    tag_498:\n        /* \"#utility.yul\":991:992   */\n      0x00\n        /* \"#utility.yul\":1016:1068   */\n      tag_500\n        /* \"#utility.yul\":1060:1067   */\n      dup5\n        /* \"#utility.yul\":1051:1057   */\n      dup3\n        /* \"#utility.yul\":1040:1049   */\n      dup6\n        /* \"#utility.yul\":1036:1058   */\n      add\n        /* \"#utility.yul\":1016:1068   */\n      tag_422\n      jump\t// in\n    tag_500:\n        /* \"#utility.yul\":1006:1068   */\n      swap2\n      pop\n        /* \"#utility.yul\":962:1078   */\n      pop\n        /* \"#utility.yul\":758:1085   */\n      swap3\n      swap2\n      pop\n      pop\n      jump\t// out\n        /* \"#utility.yul\":1091:1181   */\n    tag_423:\n        /* \"#utility.yul\":1125:1132   */\n      0x00\n        /* \"#utility.yul\":1168:1173   */\n      dup2\n        /* \"#utility.yul\":1161:1174   */\n      iszero\n        /* \"#utility.yul\":1154:1175   */\n      iszero\n        /* \"#utility.yul\":1143:1175   */\n      swap1\n      pop\n        /* \"#utility.yul\":1091:1181   */\n      swap2\n      swap1\n      pop\n      jump\t// out\n        /* \"#utility.yul\":1187:1296   */\n    tag_424:\n        /* \"#utility.yul\":1268:1289   */\n      tag_503\n        /* \"#utility.yul\":1283:1288   */\n      dup2\n        /* \"#utility.yul\":1268:1289   */\n      tag_423\n      jump\t// in\n    tag_503:\n        /* \"#utility.yul\":1263:1266   */\n      dup3\n        /* \"#utility.yul\":1256:1290   */\n      mstore\n        /* \"#utility.yul\":1187:1296   */\n      pop\n      pop\n      jump\t// out\n        /* \"#utility.yul\":1302:1512   */\n    tag_33:\n        /* \"#utility.yul\":1389:1393   */\n      0x00\n        /* \"#utility.yul\":1427:1429   */\n      0x20\n        /* \"#utility.yul\":1416:1425   */\n      dup3\n        /* \"#utility.yul\":1412:1430   */\n      add\n        /* \"#utility.yul\":1404:1430   */\n      swap1\n      pop\n        /* \"#utility.yul\":1440:1505   */\n      tag_505\n        /* \"#utility.yul\":1502:1503   */\n      0x00\n        /* \"#utility.yul\":1491:1500   */\n      dup4\n        /* \"#utility.yul\":1487:1504   */\n      add\n        /* \"#utility.yul\":1478:1484   */\n      dup5\n        /* \"#utility.yul\":1440:1505   */\n      tag_424\n      jump\t// in\n    tag_505:\n        /* \"#utility.yul\":1302:1512   */\n      swap3\n      swap2\n      pop\n      pop\n      jump\t// out\n        /* \"#utility.yul\":1518:1617   */\n    tag_425:\n        /* \"#utility.yul\":1570:1576   */\n      0x00\n        /* \"#utility.yul\":1604:1609   */\n      dup2\n        /* \"#utility.yul\":1598:1610   */\n      mload\n        /* \"#utility.yul\":1588:1610   */\n      swap1\n      pop\n        /* \"#utility.yul\":1518:1617   */\n      swap2\n      swap1\n      pop\n      jump\t// out\n        /* \"#utility.yul\":1623:1792   */\n    tag_426:\n        /* \"#utility.yul\":1707:1718   */\n      0x00\n        /* \"#utility.yul\":1741:1747   */\n      dup3\n        /* \"#utility.yul\":1736:1739   */\n      dup3\n        /* \"#utility.yul\":1729:1748   */\n      mstore\n        /* \"#utility.yul\":1781:1785   */\n      0x20\n        /* \"#utility.yul\":1776:1779   */\n      dup3\n        /* \"#utility.yul\":1772:1786   */\n      add\n        /* \"#utility.yul\":1757:1786   */\n      swap1\n      pop\n        /* \"#utility.yul\":1623:1792   */\n      swap3\n      swap2\n      pop\n      pop\n      jump\t// out\n        /* \"#utility.yul\":1798:2044   */\n    tag_427:\n        /* \"#utility.yul\":1879:1880   */\n      0x00\n        /* \"#utility.yul\":1889:2002   */\n    tag_509:\n        /* \"#utility.yul\":1903:1909   */\n      dup4\n        /* \"#utility.yul\":1900:1901   */\n      dup2\n        /* \"#utility.yul\":1897:1910   */\n      lt\n        /* \"#utility.yul\":1889:2002   */\n      iszero\n      tag_511\n      jumpi\n        /* \"#utility.yul\":1988:1989   */\n      dup1\n        /* \"#utility.yul\":1983:1986   */\n      dup3\n        /* \"#utility.yul\":1979:1990   */\n      add\n        /* \"#utility.yul\":1973:1991   */\n      mload\n        /* \"#utility.yul\":1969:1970   */\n      dup2\n        /* \"#utility.yul\":1964:1967   */\n      dup5\n        /* \"#utility.yul\":1960:1971   */\n      add\n        /* \"#utility.yul\":1953:1992   */\n      mstore\n        /* \"#utility.yul\":1925:1927   */\n      0x20\n        /* \"#utility.yul\":1922:1923   */\n      dup2\n        /* \"#utility.yul\":1918:1928   */\n      add\n        /* \"#utility.yul\":1913:1928   */\n      swap1\n      pop\n        /* \"#utility.yul\":1889:2002   */\n      jump(tag_509)\n    tag_511:\n        /* \"#utility.yul\":2036:2037   */\n      0x00\n        /* \"#utility.yul\":2027:2033   */\n      dup5\n        /* \"#utility.yul\":2022:2025   */\n      dup5\n        /* \"#utility.yul\":2018:2034   */\n      add\n        /* \"#utility.yul\":2011:2038   */\n      mstore\n        /* \"#utility.yul\":1860:2044   */\n      pop\n        /* \"#utility.yul\":1798:2044   */\n      pop\n      pop\n      pop\n      jump\t// out\n        /* \"#utility.yul\":2050:2152   */\n    tag_428:\n        /* \"#utility.yul\":2091:2097   */\n      0x00\n        /* \"#utility.yul\":2142:2144   */\n      0x1f\n        /* \"#utility.yul\":2138:2145   */\n      not\n        /* \"#utility.yul\":2133:2135   */\n      0x1f\n        /* \"#utility.yul\":2126:2131   */\n      dup4\n        /* \"#utility.yul\":2122:2136   */\n      add\n        /* \"#utility.yul\":2118:2146   */\n      and\n        /* \"#utility.yul\":2108:2146   */\n      swap1\n      pop\n        /* \"#utility.yul\":2050:2152   */\n      swap2\n      swap1\n      pop\n      jump\t// out\n        /* \"#utility.yul\":2158:2535   */\n    tag_429:\n        /* \"#utility.yul\":2246:2249   */\n      0x00\n        /* \"#utility.yul\":2274:2313   */\n      tag_514\n        /* \"#utility.yul\":2307:2312   */\n      dup3\n        /* \"#utility.yul\":2274:2313   */\n      tag_425\n      jump\t// in\n    tag_514:\n        /* \"#utility.yul\":2329:2400   */\n      tag_515\n        /* \"#utility.yul\":2393:2399   */\n      dup2\n        /* \"#utility.yul\":2388:2391   */\n      dup6\n        /* \"#utility.yul\":2329:2400   */\n      tag_426\n      jump\t// in\n    tag_515:\n        /* \"#utility.yul\":2322:2400   */\n      swap4\n      pop\n        /* \"#utility.yul\":2409:2474   */\n      tag_516\n        /* \"#utility.yul\":2467:2473   */\n      dup2\n        /* \"#utility.yul\":2462:2465   */\n      dup6\n        /* \"#utility.yul\":2455:2459   */\n      0x20\n        /* \"#utility.yul\":2448:2453   */\n      dup7\n        /* \"#utility.yul\":2444:2460   */\n      add\n        /* \"#utility.yul\":2409:2474   */\n      tag_427\n      jump\t// in\n    tag_516:\n        /* \"#utility.yul\":2499:2528   */\n      tag_517\n        /* \"#utility.yul\":2521:2527   */\n      dup2\n        /* \"#utility.yul\":2499:2528   */\n      tag_428\n      jump\t// in\n    tag_517:\n        /* \"#utility.yul\":2494:2497   */\n      dup5\n        /* \"#utility.yul\":2490:2529   */\n      add\n        /* \"#utility.yul\":2483:2529   */\n      swap2\n      pop\n        /* \"#utility.yul\":2250:2535   */\n      pop\n        /* \"#utility.yul\":2158:2535   */\n      swap3\n      swap2\n      pop\n      pop\n      jump\t// out\n        /* \"#utility.yul\":2541:2854   */\n    tag_37:\n        /* \"#utility.yul\":2654:2658   */\n      0x00\n        /* \"#utility.yul\":2692:2694   */\n      0x20\n        /* \"#utility.yul\":2681:2690   */\n      dup3\n        /* \"#utility.yul\":2677:2695   */\n      add\n        /* \"#utility.yul\":2669:2695   */\n      swap1\n      pop\n        /* \"#utility.yul\":2741:2750   */\n      dup2\n        /* \"#utility.yul\":2735:2739   */\n      dup2\n        /* \"#utility.yul\":2731:2751   */\n      sub\n        /* \"#utility.yul\":2727:2728   */\n      0x00\n        /* \"#utility.yul\":2716:2725   */\n      dup4\n        /* \"#utility.yul\":2712:2729   */\n      add\n        /* \"#utility.yul\":2705:2752   */\n      mstore\n        /* \"#utility.yul\":2769:2847   */\n      tag_519\n        /* \"#utility.yul\":2842:2846   */\n      dup2\n        /* \"#utility.yul\":2833:2839   */\n      dup5\n        /* \"#utility.yul\":2769:2847   */\n      tag_429\n      jump\t// in\n    tag_519:\n        /* \"#utility.yul\":2761:2847   */\n      swap1\n      pop\n        /* \"#utility.yul\":2541:2854   */\n      swap3\n      swap2\n      pop\n      pop\n      jump\t// out\n        /* \"#utility.yul\":2860:2937   */\n    tag_430:\n        /* \"#utility.yul\":2897:2904   */\n      0x00\n        /* \"#utility.yul\":2926:2931   */\n      dup2\n        /* \"#utility.yul\":2915:2931   */\n      swap1\n      pop\n        /* \"#utility.yul\":2860:2937   */\n      swap2\n      swap1\n      pop\n      jump\t// out\n        /* \"#utility.yul\":2943:3065   */\n    tag_431:\n        /* \"#utility.yul\":3016:3040   */\n      tag_522\n        /* \"#utility.yul\":3034:3039   */\n      dup2\n        /* \"#utility.yul\":3016:3040   */\n      tag_430\n      jump\t// in\n    tag_522:\n        /* \"#utility.yul\":3009:3014   */\n      dup2\n        /* \"#utility.yul\":3006:3041   */\n      eq\n        /* \"#utility.yul\":2996:3059   */\n      tag_523\n      jumpi\n        /* \"#utility.yul\":3055:3056   */\n      0x00\n        /* \"#utility.yul\":3052:3053   */\n      dup1\n        /* \"#utility.yul\":3045:3057   */\n      revert\n        /* \"#utility.yul\":2996:3059   */\n    tag_523:\n        /* \"#utility.yul\":2943:3065   */\n      pop\n      jump\t// out\n        /* \"#utility.yul\":3071:3210   */\n    tag_432:\n        /* \"#utility.yul\":3117:3122   */\n      0x00\n        /* \"#utility.yul\":3155:3161   */\n      dup2\n        /* \"#utility.yul\":3142:3162   */\n      calldataload\n        /* \"#utility.yul\":3133:3162   */\n      swap1\n      pop\n        /* \"#utility.yul\":3171:3204   */\n      tag_525\n        /* \"#utility.yul\":3198:3203   */\n      dup2\n        /* \"#utility.yul\":3171:3204   */\n      tag_431\n      jump\t// in\n    tag_525:\n        /* \"#utility.yul\":3071:3210   */\n      swap3\n      swap2\n      pop\n      pop\n      jump\t// out\n        /* \"#utility.yul\":3216:3545   */\n    tag_40:\n        /* \"#utility.yul\":3275:3281   */\n      0x00\n        /* \"#utility.yul\":3324:3326   */\n      0x20\n        /* \"#utility.yul\":3312:3321   */\n      dup3\n        /* \"#utility.yul\":3303:3310   */\n      dup5\n        /* \"#utility.yul\":3299:3322   */\n      sub\n        /* \"#utility.yul\":3295:3327   */\n      slt\n        /* \"#utility.yul\":3292:3411   */\n      iszero\n      tag_527\n      jumpi\n        /* \"#utility.yul\":3330:3409   */\n      tag_528\n      tag_418\n      jump\t// in\n    tag_528:\n        /* \"#utility.yul\":3292:3411   */\n    tag_527:\n        /* \"#utility.yul\":3450:3451   */\n      0x00\n        /* \"#utility.yul\":3475:3528   */\n      tag_529\n        /* \"#utility.yul\":3520:3527   */\n      dup5\n        /* \"#utility.yul\":3511:3517   */\n      dup3\n        /* \"#utility.yul\":3500:3509   */\n      dup6\n        /* \"#utility.yul\":3496:3518   */\n      add\n        /* \"#utility.yul\":3475:3528   */\n      tag_432\n      jump\t// in\n    tag_529:\n        /* \"#utility.yul\":3465:3528   */\n      swap2\n      pop\n        /* \"#utility.yul\":3421:3538   */\n      pop\n        /* \"#utility.yul\":3216:3545   */\n      swap3\n      swap2\n      pop\n      pop\n      jump\t// out\n        /* \"#utility.yul\":3551:3677   */\n    tag_433:\n        /* \"#utility.yul\":3588:3595   */\n      0x00\n        /* \"#utility.yul\":3628:3670   */\n      0xffffffffffffffffffffffffffffffffffffffff\n        /* \"#utility.yul\":3621:3626   */\n      dup3\n        /* \"#utility.yul\":3617:3671   */\n      and\n        /* \"#utility.yul\":3606:3671   */\n      swap1\n      pop\n        /* \"#utility.yul\":3551:3677   */\n      swap2\n      swap1\n      pop\n      jump\t// out\n        /* \"#utility.yul\":3683:3779   */\n    tag_434:\n        /* \"#utility.yul\":3720:3727   */\n      0x00\n        /* \"#utility.yul\":3749:3773   */\n      tag_532\n        /* \"#utility.yul\":3767:3772   */\n      dup3\n        /* \"#utility.yul\":3749:3773   */\n      tag_433\n      jump\t// in\n    tag_532:\n        /* \"#utility.yul\":3738:3773   */\n      swap1\n      pop\n        /* \"#utility.yul\":3683:3779   */\n      swap2\n      swap1\n      pop\n      jump\t// out\n        /* \"#utility.yul\":3785:3903   */\n    tag_435:\n        /* \"#utility.yul\":3872:3896   */\n      tag_534\n        /* \"#utility.yul\":3890:3895   */\n      dup2\n        /* \"#utility.yul\":3872:3896   */\n      tag_434\n      jump\t// in\n    tag_534:\n        /* \"#utility.yul\":3867:3870   */\n      dup3\n        /* \"#utility.yul\":3860:3897   */\n      mstore\n        /* \"#utility.yul\":3785:3903   */\n      pop\n      pop\n      jump\t// out\n        /* \"#utility.yul\":3909:4131   */\n    tag_43:\n        /* \"#utility.yul\":4002:4006   */\n      0x00\n        /* \"#utility.yul\":4040:4042   */\n      0x20\n        /* \"#utility.yul\":4029:4038   */\n      dup3\n        /* \"#utility.yul\":4025:4043   */\n      add\n        /* \"#utility.yul\":4017:4043   */\n      swap1\n      pop\n        /* \"#utility.yul\":4053:4124   */\n      tag_536\n        /* \"#utility.yul\":4121:4122   */\n      0x00\n        /* \"#utility.yul\":4110:4119   */\n      dup4\n        /* \"#utility.yul\":4106:4123   */\n      add\n        /* \"#utility.yul\":4097:4103   */\n      dup5\n        /* \"#utility.yul\":4053:4124   */\n      tag_435\n      jump\t// in\n    tag_536:\n        /* \"#utility.yul\":3909:4131   */\n      swap3\n      swap2\n      pop\n      pop\n      jump\t// out\n        /* \"#utility.yul\":4137:4259   */\n    tag_436:\n        /* \"#utility.yul\":4210:4234   */\n      tag_538\n        /* \"#utility.yul\":4228:4233   */\n      dup2\n        /* \"#utility.yul\":4210:4234   */\n      tag_434\n      jump\t// in\n    tag_538:\n        /* \"#utility.yul\":4203:4208   */\n      dup2\n        /* \"#utility.yul\":4200:4235   */\n      eq\n        /* \"#utility.yul\":4190:4253   */\n      tag_539\n      jumpi\n        /* \"#utility.yul\":4249:4250   */\n      0x00\n        /* \"#utility.yul\":4246:4247   */\n      dup1\n        /* \"#utility.yul\":4239:4251   */\n      revert\n        /* \"#utility.yul\":4190:4253   */\n    tag_539:\n        /* \"#utility.yul\":4137:4259   */\n      pop\n      jump\t// out\n        /* \"#utility.yul\":4265:4404   */\n    tag_437:\n        /* \"#utility.yul\":4311:4316   */\n      0x00\n        /* \"#utility.yul\":4349:4355   */\n      dup2\n        /* \"#utility.yul\":4336:4356   */\n      calldataload\n        /* \"#utility.yul\":4327:4356   */\n      swap1\n      pop\n        /* \"#utility.yul\":4365:4398   */\n      tag_541\n        /* \"#utility.yul\":4392:4397   */\n      dup2\n        /* \"#utility.yul\":4365:4398   */\n      tag_436\n      jump\t// in\n    tag_541:\n        /* \"#utility.yul\":4265:4404   */\n      swap3\n      swap2\n      pop\n      pop\n      jump\t// out\n        /* \"#utility.yul\":4410:4884   */\n    tag_46:\n        /* \"#utility.yul\":4478:4484   */\n      0x00\n        /* \"#utility.yul\":4486:4492   */\n      dup1\n        /* \"#utility.yul\":4535:4537   */\n      0x40\n        /* \"#utility.yul\":4523:4532   */\n      dup4\n        /* \"#utility.yul\":4514:4521   */\n      dup6\n        /* \"#utility.yul\":4510:4533   */\n      sub\n        /* \"#utility.yul\":4506:4538   */\n      slt\n        /* \"#utility.yul\":4503:4622   */\n      iszero\n      tag_543\n      jumpi\n        /* \"#utility.yul\":4541:4620   */\n      tag_544\n      tag_418\n      jump\t// in\n    tag_544:\n        /* \"#utility.yul\":4503:4622   */\n    tag_543:\n        /* \"#utility.yul\":4661:4662   */\n      0x00\n        /* \"#utility.yul\":4686:4739   */\n      tag_545\n        /* \"#utility.yul\":4731:4738   */\n      dup6\n        /* \"#utility.yul\":4722:4728   */\n      dup3\n        /* \"#utility.yul\":4711:4720   */\n      dup7\n        /* \"#utility.yul\":4707:4729   */\n      add\n        /* \"#utility.yul\":4686:4739   */\n      tag_437\n      jump\t// in\n    tag_545:\n        /* \"#utility.yul\":4676:4739   */\n      swap3\n      pop\n        /* \"#utility.yul\":4632:4749   */\n      pop\n        /* \"#utility.yul\":4788:4790   */\n      0x20\n        /* \"#utility.yul\":4814:4867   */\n      tag_546\n        /* \"#utility.yul\":4859:4866   */\n      dup6\n        /* \"#utility.yul\":4850:4856   */\n      dup3\n        /* \"#utility.yul\":4839:4848   */\n      dup7\n        /* \"#utility.yul\":4835:4857   */\n      add\n        /* \"#utility.yul\":4814:4867   */\n      tag_432\n      jump\t// in\n    tag_546:\n        /* \"#utility.yul\":4804:4867   */\n      swap2\n      pop\n        /* \"#utility.yul\":4759:4877   */\n      pop\n        /* \"#utility.yul\":4410:4884   */\n      swap3\n      pop\n      swap3\n      swap1\n      pop\n      jump\t// out\n        /* \"#utility.yul\":4890:5008   */\n    tag_438:\n        /* \"#utility.yul\":4977:5001   */\n      tag_548\n        /* \"#utility.yul\":4995:5000   */\n      dup2\n        /* \"#utility.yul\":4977:5001   */\n      tag_430\n      jump\t// in\n    tag_548:\n        /* \"#utility.yul\":4972:4975   */\n      dup3\n        /* \"#utility.yul\":4965:5002   */\n      mstore\n        /* \"#utility.yul\":4890:5008   */\n      pop\n      pop\n      jump\t// out\n        /* \"#utility.yul\":5014:5236   */\n    tag_51:\n        /* \"#utility.yul\":5107:5111   */\n      0x00\n        /* \"#utility.yul\":5145:5147   */\n      0x20\n        /* \"#utility.yul\":5134:5143   */\n      dup3\n        /* \"#utility.yul\":5130:5148   */\n      add\n        /* \"#utility.yul\":5122:5148   */\n      swap1\n      pop\n        /* \"#utility.yul\":5158:5229   */\n      tag_550\n        /* \"#utility.yul\":5226:5227   */\n      0x00\n        /* \"#utility.yul\":5215:5224   */\n      dup4\n        /* \"#utility.yul\":5211:5228   */\n      add\n        /* \"#utility.yul\":5202:5208   */\n      dup5\n        /* \"#utility.yul\":5158:5229   */\n      tag_438\n      jump\t// in\n    tag_550:\n        /* \"#utility.yul\":5014:5236   */\n      swap3\n      swap2\n      pop\n      pop\n      jump\t// out\n        /* \"#utility.yul\":5242:5861   */\n    tag_54:\n        /* \"#utility.yul\":5319:5325   */\n      0x00\n        /* \"#utility.yul\":5327:5333   */\n      dup1\n        /* \"#utility.yul\":5335:5341   */\n      0x00\n        /* \"#utility.yul\":5384:5386   */\n      0x60\n        /* \"#utility.yul\":5372:5381   */\n      dup5\n        /* \"#utility.yul\":5363:5370   */\n      dup7\n        /* \"#utility.yul\":5359:5382   */\n      sub\n        /* \"#utility.yul\":5355:5387   */\n      slt\n        /* \"#utility.yul\":5352:5471   */\n      iszero\n      tag_552\n      jumpi\n        /* \"#utility.yul\":5390:5469   */\n      tag_553\n      tag_418\n      jump\t// in\n    tag_553:\n        /* \"#utility.yul\":5352:5471   */\n    tag_552:\n        /* \"#utility.yul\":5510:5511   */\n      0x00\n        /* \"#utility.yul\":5535:5588   */\n      tag_554\n        /* \"#utility.yul\":5580:5587   */\n      dup7\n        /* \"#utility.yul\":5571:5577   */\n      dup3\n        /* \"#utility.yul\":5560:5569   */\n      dup8\n        /* \"#utility.yul\":5556:5578   */\n      add\n        /* \"#utility.yul\":5535:5588   */\n      tag_437\n      jump\t// in\n    tag_554:\n        /* \"#utility.yul\":5525:5588   */\n      swap4\n      pop\n        /* \"#utility.yul\":5481:5598   */\n      pop\n        /* \"#utility.yul\":5637:5639   */\n      0x20\n        /* \"#utility.yul\":5663:5716   */\n      tag_555\n        /* \"#utility.yul\":5708:5715   */\n      dup7\n        /* \"#utility.yul\":5699:5705   */\n      dup3\n        /* \"#utility.yul\":5688:5697   */\n      dup8\n        /* \"#utility.yul\":5684:5706   */\n      add\n        /* \"#utility.yul\":5663:5716   */\n      tag_437\n      jump\t// in\n    tag_555:\n        /* \"#utility.yul\":5653:5716   */\n      swap3\n      pop\n        /* \"#utility.yul\":5608:5726   */\n      pop\n        /* \"#utility.yul\":5765:5767   */\n      0x40\n        /* \"#utility.yul\":5791:5844   */\n      tag_556\n        /* \"#utility.yul\":5836:5843   */\n      dup7\n        /* \"#utility.yul\":5827:5833   */\n      dup3\n        /* \"#utility.yul\":5816:5825   */\n      dup8\n        /* \"#utility.yul\":5812:5834   */\n      add\n        /* \"#utility.yul\":5791:5844   */\n      tag_432\n      jump\t// in\n    tag_556:\n        /* \"#utility.yul\":5781:5844   */\n      swap2\n      pop\n        /* \"#utility.yul\":5736:5854   */\n      pop\n        /* \"#utility.yul\":5242:5861   */\n      swap3\n      pop\n      swap3\n      pop\n      swap3\n      jump\t// out\n        /* \"#utility.yul\":5867:5991   */\n    tag_439:\n        /* \"#utility.yul\":5944:5950   */\n      0x00\n        /* \"#utility.yul\":5978:5983   */\n      dup2\n        /* \"#utility.yul\":5972:5984   */\n      mload\n        /* \"#utility.yul\":5962:5984   */\n      swap1\n      pop\n        /* \"#utility.yul\":5867:5991   */\n      swap2\n      swap1\n      pop\n      jump\t// out\n        /* \"#utility.yul\":5997:6191   */\n    tag_440:\n        /* \"#utility.yul\":6106:6117   */\n      0x00\n        /* \"#utility.yul\":6140:6146   */\n      dup3\n        /* \"#utility.yul\":6135:6138   */\n      dup3\n        /* \"#utility.yul\":6128:6147   */\n      mstore\n        /* \"#utility.yul\":6180:6184   */\n      0x20\n        /* \"#utility.yul\":6175:6178   */\n      dup3\n        /* \"#utility.yul\":6171:6185   */\n      add\n        /* \"#utility.yul\":6156:6185   */\n      swap1\n      pop\n        /* \"#utility.yul\":5997:6191   */\n      swap3\n      swap2\n      pop\n      pop\n      jump\t// out\n        /* \"#utility.yul\":6197:6339   */\n    tag_441:\n        /* \"#utility.yul\":6274:6278   */\n      0x00\n        /* \"#utility.yul\":6297:6300   */\n      dup2\n        /* \"#utility.yul\":6289:6300   */\n      swap1\n      pop\n        /* \"#utility.yul\":6327:6331   */\n      0x20\n        /* \"#utility.yul\":6322:6325   */\n      dup3\n        /* \"#utility.yul\":6318:6332   */\n      add\n        /* \"#utility.yul\":6310:6332   */\n      swap1\n      pop\n        /* \"#utility.yul\":6197:6339   */\n      swap2\n      swap1\n      pop\n      jump\t// out\n        /* \"#utility.yul\":6345:6504   */\n    tag_442:\n        /* \"#utility.yul\":6419:6430   */\n      0x00\n        /* \"#utility.yul\":6453:6459   */\n      dup3\n        /* \"#utility.yul\":6448:6451   */\n      dup3\n        /* \"#utility.yul\":6441:6460   */\n      mstore\n        /* \"#utility.yul\":6493:6497   */\n      0x20\n        /* \"#utility.yul\":6488:6491   */\n      dup3\n        /* \"#utility.yul\":6484:6498   */\n      add\n        /* \"#utility.yul\":6469:6498   */\n      swap1\n      pop\n        /* \"#utility.yul\":6345:6504   */\n      swap3\n      swap2\n      pop\n      pop\n      jump\t// out\n        /* \"#utility.yul\":6510:6867   */\n    tag_443:\n        /* \"#utility.yul\":6588:6591   */\n      0x00\n        /* \"#utility.yul\":6616:6655   */\n      tag_562\n        /* \"#utility.yul\":6649:6654   */\n      dup3\n        /* \"#utility.yul\":6616:6655   */\n      tag_425\n      jump\t// in\n    tag_562:\n        /* \"#utility.yul\":6671:6732   */\n      tag_563\n        /* \"#utility.yul\":6725:6731   */\n      dup2\n        /* \"#utility.yul\":6720:6723   */\n      dup6\n        /* \"#utility.yul\":6671:6732   */\n      tag_442\n      jump\t// in\n    tag_563:\n        /* \"#utility.yul\":6664:6732   */\n      swap4\n      pop\n        /* \"#utility.yul\":6741:6806   */\n      tag_564\n        /* \"#utility.yul\":6799:6805   */\n      dup2\n        /* \"#utility.yul\":6794:6797   */\n      dup6\n        /* \"#utility.yul\":6787:6791   */\n      0x20\n        /* \"#utility.yul\":6780:6785   */\n      dup7\n        /* \"#utility.yul\":6776:6792   */\n      add\n        /* \"#utility.yul\":6741:6806   */\n      tag_427\n      jump\t// in\n    tag_564:\n        /* \"#utility.yul\":6831:6860   */\n      tag_565\n        /* \"#utility.yul\":6853:6859   */\n      dup2\n        /* \"#utility.yul\":6831:6860   */\n      tag_428\n      jump\t// in\n    tag_565:\n        /* \"#utility.yul\":6826:6829   */\n      dup5\n        /* \"#utility.yul\":6822:6861   */\n      add\n        /* \"#utility.yul\":6815:6861   */\n      swap2\n      pop\n        /* \"#utility.yul\":6592:6867   */\n      pop\n        /* \"#utility.yul\":6510:6867   */\n      swap3\n      swap2\n      pop\n      pop\n      jump\t// out\n        /* \"#utility.yul\":6873:7069   */\n    tag_444:\n        /* \"#utility.yul\":6962:6972   */\n      0x00\n        /* \"#utility.yul\":6997:7063   */\n      tag_567\n        /* \"#utility.yul\":7059:7062   */\n      dup4\n        /* \"#utility.yul\":7051:7057   */\n      dup4\n        /* \"#utility.yul\":6997:7063   */\n      tag_443\n      jump\t// in\n    tag_567:\n        /* \"#utility.yul\":6983:7063   */\n      swap1\n      pop\n        /* \"#utility.yul\":6873:7069   */\n      swap3\n      swap2\n      pop\n      pop\n      jump\t// out\n        /* \"#utility.yul\":7075:7198   */\n    tag_445:\n        /* \"#utility.yul\":7155:7159   */\n      0x00\n        /* \"#utility.yul\":7187:7191   */\n      0x20\n        /* \"#utility.yul\":7182:7185   */\n      dup3\n        /* \"#utility.yul\":7178:7192   */\n      add\n        /* \"#utility.yul\":7170:7192   */\n      swap1\n      pop\n        /* \"#utility.yul\":7075:7198   */\n      swap2\n      swap1\n      pop\n      jump\t// out\n        /* \"#utility.yul\":7232:8223   */\n    tag_446:\n        /* \"#utility.yul\":7371:7374   */\n      0x00\n        /* \"#utility.yul\":7400:7464   */\n      tag_570\n        /* \"#utility.yul\":7458:7463   */\n      dup3\n        /* \"#utility.yul\":7400:7464   */\n      tag_439\n      jump\t// in\n    tag_570:\n        /* \"#utility.yul\":7480:7576   */\n      tag_571\n        /* \"#utility.yul\":7569:7575   */\n      dup2\n        /* \"#utility.yul\":7564:7567   */\n      dup6\n        /* \"#utility.yul\":7480:7576   */\n      tag_440\n      jump\t// in\n    tag_571:\n        /* \"#utility.yul\":7473:7576   */\n      swap4\n      pop\n        /* \"#utility.yul\":7602:7605   */\n      dup4\n        /* \"#utility.yul\":7647:7651   */\n      0x20\n        /* \"#utility.yul\":7639:7645   */\n      dup3\n        /* \"#utility.yul\":7635:7652   */\n      mul\n        /* \"#utility.yul\":7630:7633   */\n      dup6\n        /* \"#utility.yul\":7626:7653   */\n      add\n        /* \"#utility.yul\":7677:7743   */\n      tag_572\n        /* \"#utility.yul\":7737:7742   */\n      dup6\n        /* \"#utility.yul\":7677:7743   */\n      tag_441\n      jump\t// in\n    tag_572:\n        /* \"#utility.yul\":7766:7773   */\n      dup1\n        /* \"#utility.yul\":7797:7798   */\n      0x00\n        /* \"#utility.yul\":7782:8178   */\n    tag_573:\n        /* \"#utility.yul\":7807:7813   */\n      dup6\n        /* \"#utility.yul\":7804:7805   */\n      dup2\n        /* \"#utility.yul\":7801:7814   */\n      lt\n        /* \"#utility.yul\":7782:8178   */\n      iszero\n      tag_575\n      jumpi\n        /* \"#utility.yul\":7878:7887   */\n      dup5\n        /* \"#utility.yul\":7872:7876   */\n      dup5\n        /* \"#utility.yul\":7868:7888   */\n      sub\n        /* \"#utility.yul\":7863:7866   */\n      dup10\n        /* \"#utility.yul\":7856:7889   */\n      mstore\n        /* \"#utility.yul\":7929:7935   */\n      dup2\n        /* \"#utility.yul\":7923:7936   */\n      mload\n        /* \"#utility.yul\":7957:8041   */\n      tag_576\n        /* \"#utility.yul\":8036:8040   */\n      dup6\n        /* \"#utility.yul\":8021:8034   */\n      dup3\n        /* \"#utility.yul\":7957:8041   */\n      tag_444\n      jump\t// in\n    tag_576:\n        /* \"#utility.yul\":7949:8041   */\n      swap5\n      pop\n        /* \"#utility.yul\":8064:8134   */\n      tag_577\n        /* \"#utility.yul\":8127:8133   */\n      dup4\n        /* \"#utility.yul\":8064:8134   */\n      tag_445\n      jump\t// in\n    tag_577:\n        /* \"#utility.yul\":8054:8134   */\n      swap3\n      pop\n        /* \"#utility.yul\":8163:8167   */\n      0x20\n        /* \"#utility.yul\":8158:8161   */\n      dup11\n        /* \"#utility.yul\":8154:8168   */\n      add\n        /* \"#utility.yul\":8147:8168   */\n      swap10\n      pop\n        /* \"#utility.yul\":7842:8178   */\n      pop\n        /* \"#utility.yul\":7829:7830   */\n      0x01\n        /* \"#utility.yul\":7826:7827   */\n      dup2\n        /* \"#utility.yul\":7822:7831   */\n      add\n        /* \"#utility.yul\":7817:7831   */\n      swap1\n      pop\n        /* \"#utility.yul\":7782:8178   */\n      jump(tag_573)\n    tag_575:\n        /* \"#utility.yul\":7786:7800   */\n      pop\n        /* \"#utility.yul\":8194:8198   */\n      dup3\n        /* \"#utility.yul\":8187:8198   */\n      swap8\n      pop\n        /* \"#utility.yul\":8214:8217   */\n      dup8\n        /* \"#utility.yul\":8207:8217   */\n      swap6\n      pop\n        /* \"#utility.yul\":7376:8223   */\n      pop\n      pop\n      pop\n      pop\n      pop\n        /* \"#utility.yul\":7232:8223   */\n      swap3\n      swap2\n      pop\n      pop\n      jump\t// out\n        /* \"#utility.yul\":8229:8642   */\n    tag_66:\n        /* \"#utility.yul\":8392:8396   */\n      0x00\n        /* \"#utility.yul\":8430:8432   */\n      0x20\n        /* \"#utility.yul\":8419:8428   */\n      dup3\n        /* \"#utility.yul\":8415:8433   */\n      add\n        /* \"#utility.yul\":8407:8433   */\n      swap1\n      pop\n        /* \"#utility.yul\":8479:8488   */\n      dup2\n        /* \"#utility.yul\":8473:8477   */\n      dup2\n        /* \"#utility.yul\":8469:8489   */\n      sub\n        /* \"#utility.yul\":8465:8466   */\n      0x00\n        /* \"#utility.yul\":8454:8463   */\n      dup4\n        /* \"#utility.yul\":8450:8467   */\n      add\n        /* \"#utility.yul\":8443:8490   */\n      mstore\n        /* \"#utility.yul\":8507:8635   */\n      tag_579\n        /* \"#utility.yul\":8630:8634   */\n      dup2\n        /* \"#utility.yul\":8621:8627   */\n      dup5\n        /* \"#utility.yul\":8507:8635   */\n      tag_446\n      jump\t// in\n    tag_579:\n        /* \"#utility.yul\":8499:8635   */\n      swap1\n      pop\n        /* \"#utility.yul\":8229:8642   */\n      swap3\n      swap2\n      pop\n      pop\n      jump\t// out\n        /* \"#utility.yul\":8648:8977   */\n    tag_77:\n        /* \"#utility.yul\":8707:8713   */\n      0x00\n        /* \"#utility.yul\":8756:8758   */\n      0x20\n        /* \"#utility.yul\":8744:8753   */\n      dup3\n        /* \"#utility.yul\":8735:8742   */\n      dup5\n        /* \"#utility.yul\":8731:8754   */\n      sub\n        /* \"#utility.yul\":8727:8759   */\n      slt\n        /* \"#utility.yul\":8724:8843   */\n      iszero\n      tag_581\n      jumpi\n        /* \"#utility.yul\":8762:8841   */\n      tag_582\n      tag_418\n      jump\t// in\n    tag_582:\n        /* \"#utility.yul\":8724:8843   */\n    tag_581:\n        /* \"#utility.yul\":8882:8883   */\n      0x00\n        /* \"#utility.yul\":8907:8960   */\n      tag_583\n        /* \"#utility.yul\":8952:8959   */\n      dup5\n        /* \"#utility.yul\":8943:8949   */\n      dup3\n        /* \"#utility.yul\":8932:8941   */\n      dup6\n        /* \"#utility.yul\":8928:8950   */\n      add\n        /* \"#utility.yul\":8907:8960   */\n      tag_437\n      jump\t// in\n    tag_583:\n        /* \"#utility.yul\":8897:8960   */\n      swap2\n      pop\n        /* \"#utility.yul\":8853:8970   */\n      pop\n        /* \"#utility.yul\":8648:8977   */\n      swap3\n      swap2\n      pop\n      pop\n      jump\t// out\n        /* \"#utility.yul\":8983:9099   */\n    tag_447:\n        /* \"#utility.yul\":9053:9074   */\n      tag_585\n        /* \"#utility.yul\":9068:9073   */\n      dup2\n        /* \"#utility.yul\":9053:9074   */\n      tag_423\n      jump\t// in\n    tag_585:\n        /* \"#utility.yul\":9046:9051   */\n      dup2\n        /* \"#utility.yul\":9043:9075   */\n      eq\n        /* \"#utility.yul\":9033:9093   */\n      tag_586\n      jumpi\n        /* \"#utility.yul\":9089:9090   */\n      0x00\n        /* \"#utility.yul\":9086:9087   */\n      dup1\n        /* \"#utility.yul\":9079:9091   */\n      revert\n        /* \"#utility.yul\":9033:9093   */\n    tag_586:\n        /* \"#utility.yul\":8983:9099   */\n      pop\n      jump\t// out\n        /* \"#utility.yul\":9105:9238   */\n    tag_448:\n        /* \"#utility.yul\":9148:9153   */\n      0x00\n        /* \"#utility.yul\":9186:9192   */\n      dup2\n        /* \"#utility.yul\":9173:9193   */\n      calldataload\n        /* \"#utility.yul\":9164:9193   */\n      swap1\n      pop\n        /* \"#utility.yul\":9202:9232   */\n      tag_588\n        /* \"#utility.yul\":9226:9231   */\n      dup2\n        /* \"#utility.yul\":9202:9232   */\n      tag_447\n      jump\t// in\n    tag_588:\n        /* \"#utility.yul\":9105:9238   */\n      swap3\n      swap2\n      pop\n      pop\n      jump\t// out\n        /* \"#utility.yul\":9244:9712   */\n    tag_93:\n        /* \"#utility.yul\":9309:9315   */\n      0x00\n        /* \"#utility.yul\":9317:9323   */\n      dup1\n        /* \"#utility.yul\":9366:9368   */\n      0x40\n        /* \"#utility.yul\":9354:9363   */\n      dup4\n        /* \"#utility.yul\":9345:9352   */\n      dup6\n        /* \"#utility.yul\":9341:9364   */\n      sub\n        /* \"#utility.yul\":9337:9369   */\n      slt\n        /* \"#utility.yul\":9334:9453   */\n      iszero\n      tag_590\n      jumpi\n        /* \"#utility.yul\":9372:9451   */\n      tag_591\n      tag_418\n      jump\t// in\n    tag_591:\n        /* \"#utility.yul\":9334:9453   */\n    tag_590:\n        /* \"#utility.yul\":9492:9493   */\n      0x00\n        /* \"#utility.yul\":9517:9570   */\n      tag_592\n        /* \"#utility.yul\":9562:9569   */\n      dup6\n        /* \"#utility.yul\":9553:9559   */\n      dup3\n        /* \"#utility.yul\":9542:9551   */\n      dup7\n        /* \"#utility.yul\":9538:9560   */\n      add\n        /* \"#utility.yul\":9517:9570   */\n      tag_437\n      jump\t// in\n    tag_592:\n        /* \"#utility.yul\":9507:9570   */\n      swap3\n      pop\n        /* \"#utility.yul\":9463:9580   */\n      pop\n        /* \"#utility.yul\":9619:9621   */\n      0x20\n        /* \"#utility.yul\":9645:9695   */\n      tag_593\n        /* \"#utility.yul\":9687:9694   */\n      dup6\n        /* \"#utility.yul\":9678:9684   */\n      dup3\n        /* \"#utility.yul\":9667:9676   */\n      dup7\n        /* \"#utility.yul\":9663:9685   */\n      add\n        /* \"#utility.yul\":9645:9695   */\n      tag_448\n      jump\t// in\n    tag_593:\n        /* \"#utility.yul\":9635:9695   */\n      swap2\n      pop\n        /* \"#utility.yul\":9590:9705   */\n      pop\n        /* \"#utility.yul\":9244:9712   */\n      swap3\n      pop\n      swap3\n      swap1\n      pop\n      jump\t// out\n        /* \"#utility.yul\":9718:9835   */\n    tag_449:\n        /* \"#utility.yul\":9827:9828   */\n      0x00\n        /* \"#utility.yul\":9824:9825   */\n      dup1\n        /* \"#utility.yul\":9817:9829   */\n      revert\n        /* \"#utility.yul\":9841:9958   */\n    tag_450:\n        /* \"#utility.yul\":9950:9951   */\n      0x00\n        /* \"#utility.yul\":9947:9948   */\n      dup1\n        /* \"#utility.yul\":9940:9952   */\n      revert\n        /* \"#utility.yul\":9964:10144   */\n    tag_298:\n        /* \"#utility.yul\":10012:10089   */\n      0x4e487b7100000000000000000000000000000000000000000000000000000000\n        /* \"#utility.yul\":10009:10010   */\n      0x00\n        /* \"#utility.yul\":10002:10090   */\n      mstore\n        /* \"#utility.yul\":10109:10113   */\n      0x41\n        /* \"#utility.yul\":10106:10107   */\n      0x04\n        /* \"#utility.yul\":10099:10114   */\n      mstore\n        /* \"#utility.yul\":10133:10137   */\n      0x24\n        /* \"#utility.yul\":10130:10131   */\n      0x00\n        /* \"#utility.yul\":10123:10138   */\n      revert\n        /* \"#utility.yul\":10150:10431   */\n    tag_451:\n        /* \"#utility.yul\":10233:10260   */\n      tag_598\n        /* \"#utility.yul\":10255:10259   */\n      dup3\n        /* \"#utility.yul\":10233:10260   */\n      tag_428\n      jump\t// in\n    tag_598:\n        /* \"#utility.yul\":10225:10231   */\n      dup2\n        /* \"#utility.yul\":10221:10261   */\n      add\n        /* \"#utility.yul\":10363:10369   */\n      dup2\n        /* \"#utility.yul\":10351:10361   */\n      dup2\n        /* \"#utility.yul\":10348:10370   */\n      lt\n        /* \"#utility.yul\":10327:10345   */\n      0xffffffffffffffff\n        /* \"#utility.yul\":10315:10325   */\n      dup3\n        /* \"#utility.yul\":10312:10346   */\n      gt\n        /* \"#utility.yul\":10309:10371   */\n      or\n        /* \"#utility.yul\":10306:10394   */\n      iszero\n      tag_599\n      jumpi\n        /* \"#utility.yul\":10374:10392   */\n      tag_600\n      tag_298\n      jump\t// in\n    tag_600:\n        /* \"#utility.yul\":10306:10394   */\n    tag_599:\n        /* \"#utility.yul\":10414:10424   */\n      dup1\n        /* \"#utility.yul\":10410:10412   */\n      0x40\n        /* \"#utility.yul\":10403:10425   */\n      mstore\n        /* \"#utility.yul\":10193:10431   */\n      pop\n        /* \"#utility.yul\":10150:10431   */\n      pop\n      pop\n      jump\t// out\n        /* \"#utility.yul\":10437:10566   */\n    tag_452:\n        /* \"#utility.yul\":10471:10477   */\n      0x00\n        /* \"#utility.yul\":10498:10518   */\n      tag_602\n      tag_417\n      jump\t// in\n    tag_602:\n        /* \"#utility.yul\":10488:10518   */\n      swap1\n      pop\n        /* \"#utility.yul\":10527:10560   */\n      tag_603\n        /* \"#utility.yul\":10555:10559   */\n      dup3\n        /* \"#utility.yul\":10547:10553   */\n      dup3\n        /* \"#utility.yul\":10527:10560   */\n      tag_451\n      jump\t// in\n    tag_603:\n        /* \"#utility.yul\":10437:10566   */\n      swap2\n      swap1\n      pop\n      jump\t// out\n        /* \"#utility.yul\":10572:10879   */\n    tag_453:\n        /* \"#utility.yul\":10633:10637   */\n      0x00\n        /* \"#utility.yul\":10723:10741   */\n      0xffffffffffffffff\n        /* \"#utility.yul\":10715:10721   */\n      dup3\n        /* \"#utility.yul\":10712:10742   */\n      gt\n        /* \"#utility.yul\":10709:10765   */\n      iszero\n      tag_605\n      jumpi\n        /* \"#utility.yul\":10745:10763   */\n      tag_606\n      tag_298\n      jump\t// in\n    tag_606:\n        /* \"#utility.yul\":10709:10765   */\n    tag_605:\n        /* \"#utility.yul\":10783:10812   */\n      tag_607\n        /* \"#utility.yul\":10805:10811   */\n      dup3\n        /* \"#utility.yul\":10783:10812   */\n      tag_428\n      jump\t// in\n    tag_607:\n        /* \"#utility.yul\":10775:10812   */\n      swap1\n      pop\n        /* \"#utility.yul\":10867:10871   */\n      0x20\n        /* \"#utility.yul\":10861:10865   */\n      dup2\n        /* \"#utility.yul\":10857:10872   */\n      add\n        /* \"#utility.yul\":10849:10872   */\n      swap1\n      pop\n        /* \"#utility.yul\":10572:10879   */\n      swap2\n      swap1\n      pop\n      jump\t// out\n        /* \"#utility.yul\":10885:11031   */\n    tag_454:\n        /* \"#utility.yul\":10982:10988   */\n      dup3\n        /* \"#utility.yul\":10977:10980   */\n      dup2\n        /* \"#utility.yul\":10972:10975   */\n      dup4\n        /* \"#utility.yul\":10959:10989   */\n      calldatacopy\n        /* \"#utility.yul\":11023:11024   */\n      0x00\n        /* \"#utility.yul\":11014:11020   */\n      dup4\n        /* \"#utility.yul\":11009:11012   */\n      dup4\n        /* \"#utility.yul\":11005:11021   */\n      add\n        /* \"#utility.yul\":10998:11025   */\n      mstore\n        /* \"#utility.yul\":10885:11031   */\n      pop\n      pop\n      pop\n      jump\t// out\n        /* \"#utility.yul\":11037:11460   */\n    tag_455:\n        /* \"#utility.yul\":11114:11119   */\n      0x00\n        /* \"#utility.yul\":11139:11204   */\n      tag_610\n        /* \"#utility.yul\":11155:11203   */\n      tag_611\n        /* \"#utility.yul\":11196:11202   */\n      dup5\n        /* \"#utility.yul\":11155:11203   */\n      tag_453\n      jump\t// in\n    tag_611:\n        /* \"#utility.yul\":11139:11204   */\n      tag_452\n      jump\t// in\n    tag_610:\n        /* \"#utility.yul\":11130:11204   */\n      swap1\n      pop\n        /* \"#utility.yul\":11227:11233   */\n      dup3\n        /* \"#utility.yul\":11220:11225   */\n      dup2\n        /* \"#utility.yul\":11213:11234   */\n      mstore\n        /* \"#utility.yul\":11265:11269   */\n      0x20\n        /* \"#utility.yul\":11258:11263   */\n      dup2\n        /* \"#utility.yul\":11254:11270   */\n      add\n        /* \"#utility.yul\":11303:11306   */\n      dup5\n        /* \"#utility.yul\":11294:11300   */\n      dup5\n        /* \"#utility.yul\":11289:11292   */\n      dup5\n        /* \"#utility.yul\":11285:11301   */\n      add\n        /* \"#utility.yul\":11282:11307   */\n      gt\n        /* \"#utility.yul\":11279:11391   */\n      iszero\n      tag_612\n      jumpi\n        /* \"#utility.yul\":11310:11389   */\n      tag_613\n      tag_450\n      jump\t// in\n    tag_613:\n        /* \"#utility.yul\":11279:11391   */\n    tag_612:\n        /* \"#utility.yul\":11400:11454   */\n      tag_614\n        /* \"#utility.yul\":11447:11453   */\n      dup5\n        /* \"#utility.yul\":11442:11445   */\n      dup3\n        /* \"#utility.yul\":11437:11440   */\n      dup6\n        /* \"#utility.yul\":11400:11454   */\n      tag_454\n      jump\t// in\n    tag_614:\n        /* \"#utility.yul\":11120:11460   */\n      pop\n        /* \"#utility.yul\":11037:11460   */\n      swap4\n      swap3\n      pop\n      pop\n      pop\n      jump\t// out\n        /* \"#utility.yul\":11479:11817   */\n    tag_456:\n        /* \"#utility.yul\":11534:11539   */\n      0x00\n        /* \"#utility.yul\":11583:11586   */\n      dup3\n        /* \"#utility.yul\":11576:11580   */\n      0x1f\n        /* \"#utility.yul\":11568:11574   */\n      dup4\n        /* \"#utility.yul\":11564:11581   */\n      add\n        /* \"#utility.yul\":11560:11587   */\n      slt\n        /* \"#utility.yul\":11550:11672   */\n      tag_616\n      jumpi\n        /* \"#utility.yul\":11591:11670   */\n      tag_617\n      tag_449\n      jump\t// in\n    tag_617:\n        /* \"#utility.yul\":11550:11672   */\n    tag_616:\n        /* \"#utility.yul\":11708:11714   */\n      dup2\n        /* \"#utility.yul\":11695:11715   */\n      calldataload\n        /* \"#utility.yul\":11733:11811   */\n      tag_618\n        /* \"#utility.yul\":11807:11810   */\n      dup5\n        /* \"#utility.yul\":11799:11805   */\n      dup3\n        /* \"#utility.yul\":11792:11796   */\n      0x20\n        /* \"#utility.yul\":11784:11790   */\n      dup7\n        /* \"#utility.yul\":11780:11797   */\n      add\n        /* \"#utility.yul\":11733:11811   */\n      tag_455\n      jump\t// in\n    tag_618:\n        /* \"#utility.yul\":11724:11811   */\n      swap2\n      pop\n        /* \"#utility.yul\":11540:11817   */\n      pop\n        /* \"#utility.yul\":11479:11817   */\n      swap3\n      swap2\n      pop\n      pop\n      jump\t// out\n        /* \"#utility.yul\":11823:12766   */\n    tag_97:\n        /* \"#utility.yul\":11918:11924   */\n      0x00\n        /* \"#utility.yul\":11926:11932   */\n      dup1\n        /* \"#utility.yul\":11934:11940   */\n      0x00\n        /* \"#utility.yul\":11942:11948   */\n      dup1\n        /* \"#utility.yul\":11991:11994   */\n      0x80\n        /* \"#utility.yul\":11979:11988   */\n      dup6\n        /* \"#utility.yul\":11970:11977   */\n      dup8\n        /* \"#utility.yul\":11966:11989   */\n      sub\n        /* \"#utility.yul\":11962:11995   */\n      slt\n        /* \"#utility.yul\":11959:12079   */\n      iszero\n      tag_620\n      jumpi\n        /* \"#utility.yul\":11998:12077   */\n      tag_621\n      tag_418\n      jump\t// in\n    tag_621:\n        /* \"#utility.yul\":11959:12079   */\n    tag_620:\n        /* \"#utility.yul\":12118:12119   */\n      0x00\n        /* \"#utility.yul\":12143:12196   */\n      tag_622\n        /* \"#utility.yul\":12188:12195   */\n      dup8\n        /* \"#utility.yul\":12179:12185   */\n      dup3\n        /* \"#utility.yul\":12168:12177   */\n      dup9\n        /* \"#utility.yul\":12164:12186   */\n      add\n        /* \"#utility.yul\":12143:12196   */\n      tag_437\n      jump\t// in\n    tag_622:\n        /* \"#utility.yul\":12133:12196   */\n      swap5\n      pop\n        /* \"#utility.yul\":12089:12206   */\n      pop\n        /* \"#utility.yul\":12245:12247   */\n      0x20\n        /* \"#utility.yul\":12271:12324   */\n      tag_623\n        /* \"#utility.yul\":12316:12323   */\n      dup8\n        /* \"#utility.yul\":12307:12313   */\n      dup3\n        /* \"#utility.yul\":12296:12305   */\n      dup9\n        /* \"#utility.yul\":12292:12314   */\n      add\n        /* \"#utility.yul\":12271:12324   */\n      tag_437\n      jump\t// in\n    tag_623:\n        /* \"#utility.yul\":12261:12324   */\n      swap4\n      pop\n        /* \"#utility.yul\":12216:12334   */\n      pop\n        /* \"#utility.yul\":12373:12375   */\n      0x40\n        /* \"#utility.yul\":12399:12452   */\n      tag_624\n        /* \"#utility.yul\":12444:12451   */\n      dup8\n        /* \"#utility.yul\":12435:12441   */\n      dup3\n        /* \"#utility.yul\":12424:12433   */\n      dup9\n        /* \"#utility.yul\":12420:12442   */\n      add\n        /* \"#utility.yul\":12399:12452   */\n      tag_432\n      jump\t// in\n    tag_624:\n        /* \"#utility.yul\":12389:12452   */\n      swap3\n      pop\n        /* \"#utility.yul\":12344:12462   */\n      pop\n        /* \"#utility.yul\":12529:12531   */\n      0x60\n        /* \"#utility.yul\":12518:12527   */\n      dup6\n        /* \"#utility.yul\":12514:12532   */\n      add\n        /* \"#utility.yul\":12501:12533   */\n      calldataload\n        /* \"#utility.yul\":12560:12578   */\n      0xffffffffffffffff\n        /* \"#utility.yul\":12552:12558   */\n      dup2\n        /* \"#utility.yul\":12549:12579   */\n      gt\n        /* \"#utility.yul\":12546:12663   */\n      iszero\n      tag_625\n      jumpi\n        /* \"#utility.yul\":12582:12661   */\n      tag_626\n      tag_419\n      jump\t// in\n    tag_626:\n        /* \"#utility.yul\":12546:12663   */\n    tag_625:\n        /* \"#utility.yul\":12687:12749   */\n      tag_627\n        /* \"#utility.yul\":12741:12748   */\n      dup8\n        /* \"#utility.yul\":12732:12738   */\n      dup3\n        /* \"#utility.yul\":12721:12730   */\n      dup9\n        /* \"#utility.yul\":12717:12739   */\n      add\n        /* \"#utility.yul\":12687:12749   */\n      tag_456\n      jump\t// in\n    tag_627:\n        /* \"#utility.yul\":12677:12749   */\n      swap2\n      pop\n        /* \"#utility.yul\":12472:12759   */\n      pop\n        /* \"#utility.yul\":11823:12766   */\n      swap3\n      swap6\n      swap2\n      swap5\n      pop\n      swap3\n      pop\n      jump\t// out\n        /* \"#utility.yul\":12772:13093   */\n    tag_457:\n        /* \"#utility.yul\":12859:12863   */\n      0x00\n        /* \"#utility.yul\":12949:12967   */\n      0xffffffffffffffff\n        /* \"#utility.yul\":12941:12947   */\n      dup3\n        /* \"#utility.yul\":12938:12968   */\n      gt\n        /* \"#utility.yul\":12935:12991   */\n      iszero\n      tag_629\n      jumpi\n        /* \"#utility.yul\":12971:12989   */\n      tag_630\n      tag_298\n      jump\t// in\n    tag_630:\n        /* \"#utility.yul\":12935:12991   */\n    tag_629:\n        /* \"#utility.yul\":13021:13025   */\n      0x20\n        /* \"#utility.yul\":13013:13019   */\n      dup3\n        /* \"#utility.yul\":13009:13026   */\n      mul\n        /* \"#utility.yul\":13001:13026   */\n      swap1\n      pop\n        /* \"#utility.yul\":13081:13085   */\n      0x20\n        /* \"#utility.yul\":13075:13079   */\n      dup2\n        /* \"#utility.yul\":13071:13086   */\n      add\n        /* \"#utility.yul\":13063:13086   */\n      swap1\n      pop\n        /* \"#utility.yul\":12772:13093   */\n      swap2\n      swap1\n      pop\n      jump\t// out\n        /* \"#utility.yul\":13099:13216   */\n    tag_458:\n        /* \"#utility.yul\":13208:13209   */\n      0x00\n        /* \"#utility.yul\":13205:13206   */\n      dup1\n        /* \"#utility.yul\":13198:13210   */\n      revert\n        /* \"#utility.yul\":13222:13530   */\n    tag_459:\n        /* \"#utility.yul\":13284:13288   */\n      0x00\n        /* \"#utility.yul\":13374:13392   */\n      0xffffffffffffffff\n        /* \"#utility.yul\":13366:13372   */\n      dup3\n        /* \"#utility.yul\":13363:13393   */\n      gt\n        /* \"#utility.yul\":13360:13416   */\n      iszero\n      tag_633\n      jumpi\n        /* \"#utility.yul\":13396:13414   */\n      tag_634\n      tag_298\n      jump\t// in\n    tag_634:\n        /* \"#utility.yul\":13360:13416   */\n    tag_633:\n        /* \"#utility.yul\":13434:13463   */\n      tag_635\n        /* \"#utility.yul\":13456:13462   */\n      dup3\n        /* \"#utility.yul\":13434:13463   */\n      tag_428\n      jump\t// in\n    tag_635:\n        /* \"#utility.yul\":13426:13463   */\n      swap1\n      pop\n        /* \"#utility.yul\":13518:13522   */\n      0x20\n        /* \"#utility.yul\":13512:13516   */\n      dup2\n        /* \"#utility.yul\":13508:13523   */\n      add\n        /* \"#utility.yul\":13500:13523   */\n      swap1\n      pop\n        /* \"#utility.yul\":13222:13530   */\n      swap2\n      swap1\n      pop\n      jump\t// out\n        /* \"#utility.yul\":13536:13961   */\n    tag_460:\n        /* \"#utility.yul\":13614:13619   */\n      0x00\n        /* \"#utility.yul\":13639:13705   */\n      tag_637\n        /* \"#utility.yul\":13655:13704   */\n      tag_638\n        /* \"#utility.yul\":13697:13703   */\n      dup5\n        /* \"#utility.yul\":13655:13704   */\n      tag_459\n      jump\t// in\n    tag_638:\n        /* \"#utility.yul\":13639:13705   */\n      tag_452\n      jump\t// in\n    tag_637:\n        /* \"#utility.yul\":13630:13705   */\n      swap1\n      pop\n        /* \"#utility.yul\":13728:13734   */\n      dup3\n        /* \"#utility.yul\":13721:13726   */\n      dup2\n        /* \"#utility.yul\":13714:13735   */\n      mstore\n        /* \"#utility.yul\":13766:13770   */\n      0x20\n        /* \"#utility.yul\":13759:13764   */\n      dup2\n        /* \"#utility.yul\":13755:13771   */\n      add\n        /* \"#utility.yul\":13804:13807   */\n      dup5\n        /* \"#utility.yul\":13795:13801   */\n      dup5\n        /* \"#utility.yul\":13790:13793   */\n      dup5\n        /* \"#utility.yul\":13786:13802   */\n      add\n        /* \"#utility.yul\":13783:13808   */\n      gt\n        /* \"#utility.yul\":13780:13892   */\n      iszero\n      tag_639\n      jumpi\n        /* \"#utility.yul\":13811:13890   */\n      tag_640\n      tag_450\n      jump\t// in\n    tag_640:\n        /* \"#utility.yul\":13780:13892   */\n    tag_639:\n        /* \"#utility.yul\":13901:13955   */\n      tag_641\n        /* \"#utility.yul\":13948:13954   */\n      dup5\n        /* \"#utility.yul\":13943:13946   */\n      dup3\n        /* \"#utility.yul\":13938:13941   */\n      dup6\n        /* \"#utility.yul\":13901:13955   */\n      tag_454\n      jump\t// in\n    tag_641:\n        /* \"#utility.yul\":13620:13961   */\n      pop\n        /* \"#utility.yul\":13536:13961   */\n      swap4\n      swap3\n      pop\n      pop\n      pop\n      jump\t// out\n        /* \"#utility.yul\":13981:14321   */\n    tag_461:\n        /* \"#utility.yul\":14037:14042   */\n      0x00\n        /* \"#utility.yul\":14086:14089   */\n      dup3\n        /* \"#utility.yul\":14079:14083   */\n      0x1f\n        /* \"#utility.yul\":14071:14077   */\n      dup4\n        /* \"#utility.yul\":14067:14084   */\n      add\n        /* \"#utility.yul\":14063:14090   */\n      slt\n        /* \"#utility.yul\":14053:14175   */\n      tag_643\n      jumpi\n        /* \"#utility.yul\":14094:14173   */\n      tag_644\n      tag_449\n      jump\t// in\n    tag_644:\n        /* \"#utility.yul\":14053:14175   */\n    tag_643:\n        /* \"#utility.yul\":14211:14217   */\n      dup2\n        /* \"#utility.yul\":14198:14218   */\n      calldataload\n        /* \"#utility.yul\":14236:14315   */\n      tag_645\n        /* \"#utility.yul\":14311:14314   */\n      dup5\n        /* \"#utility.yul\":14303:14309   */\n      dup3\n        /* \"#utility.yul\":14296:14300   */\n      0x20\n        /* \"#utility.yul\":14288:14294   */\n      dup7\n        /* \"#utility.yul\":14284:14301   */\n      add\n        /* \"#utility.yul\":14236:14315   */\n      tag_460\n      jump\t// in\n    tag_645:\n        /* \"#utility.yul\":14227:14315   */\n      swap2\n      pop\n        /* \"#utility.yul\":14043:14321   */\n      pop\n        /* \"#utility.yul\":13981:14321   */\n      swap3\n      swap2\n      pop\n      pop\n      jump\t// out\n        /* \"#utility.yul\":14343:15288   */\n    tag_462:\n        /* \"#utility.yul\":14449:14454   */\n      0x00\n        /* \"#utility.yul\":14474:14565   */\n      tag_647\n        /* \"#utility.yul\":14490:14564   */\n      tag_648\n        /* \"#utility.yul\":14557:14563   */\n      dup5\n        /* \"#utility.yul\":14490:14564   */\n      tag_457\n      jump\t// in\n    tag_648:\n        /* \"#utility.yul\":14474:14565   */\n      tag_452\n      jump\t// in\n    tag_647:\n        /* \"#utility.yul\":14465:14565   */\n      swap1\n      pop\n        /* \"#utility.yul\":14585:14590   */\n      dup1\n        /* \"#utility.yul\":14614:14620   */\n      dup4\n        /* \"#utility.yul\":14607:14612   */\n      dup3\n        /* \"#utility.yul\":14600:14621   */\n      mstore\n        /* \"#utility.yul\":14648:14652   */\n      0x20\n        /* \"#utility.yul\":14641:14646   */\n      dup3\n        /* \"#utility.yul\":14637:14653   */\n      add\n        /* \"#utility.yul\":14630:14653   */\n      swap1\n      pop\n        /* \"#utility.yul\":14701:14705   */\n      0x20\n        /* \"#utility.yul\":14693:14699   */\n      dup5\n        /* \"#utility.yul\":14689:14706   */\n      mul\n        /* \"#utility.yul\":14681:14687   */\n      dup4\n        /* \"#utility.yul\":14677:14707   */\n      add\n        /* \"#utility.yul\":14730:14733   */\n      dup6\n        /* \"#utility.yul\":14722:14728   */\n      dup2\n        /* \"#utility.yul\":14719:14734   */\n      gt\n        /* \"#utility.yul\":14716:14838   */\n      iszero\n      tag_649\n      jumpi\n        /* \"#utility.yul\":14749:14828   */\n      tag_650\n      tag_458\n      jump\t// in\n    tag_650:\n        /* \"#utility.yul\":14716:14838   */\n    tag_649:\n        /* \"#utility.yul\":14864:14870   */\n      dup4\n        /* \"#utility.yul\":14847:15282   */\n    tag_651:\n        /* \"#utility.yul\":14881:14887   */\n      dup2\n        /* \"#utility.yul\":14876:14879   */\n      dup2\n        /* \"#utility.yul\":14873:14888   */\n      lt\n        /* \"#utility.yul\":14847:15282   */\n      iszero\n      tag_653\n      jumpi\n        /* \"#utility.yul\":14970:14973   */\n      dup1\n        /* \"#utility.yul\":14957:14974   */\n      calldataload\n        /* \"#utility.yul\":15006:15024   */\n      0xffffffffffffffff\n        /* \"#utility.yul\":14993:15004   */\n      dup2\n        /* \"#utility.yul\":14990:15025   */\n      gt\n        /* \"#utility.yul\":14987:15109   */\n      iszero\n      tag_654\n      jumpi\n        /* \"#utility.yul\":15028:15107   */\n      tag_655\n      tag_449\n      jump\t// in\n    tag_655:\n        /* \"#utility.yul\":14987:15109   */\n    tag_654:\n        /* \"#utility.yul\":15152:15163   */\n      dup1\n        /* \"#utility.yul\":15144:15150   */\n      dup7\n        /* \"#utility.yul\":15140:15164   */\n      add\n        /* \"#utility.yul\":15190:15237   */\n      tag_656\n        /* \"#utility.yul\":15233:15236   */\n      dup10\n        /* \"#utility.yul\":15221:15231   */\n      dup3\n        /* \"#utility.yul\":15190:15237   */\n      tag_461\n      jump\t// in\n    tag_656:\n        /* \"#utility.yul\":15185:15188   */\n      dup6\n        /* \"#utility.yul\":15178:15238   */\n      mstore\n        /* \"#utility.yul\":15267:15271   */\n      0x20\n        /* \"#utility.yul\":15262:15265   */\n      dup6\n        /* \"#utility.yul\":15258:15272   */\n      add\n        /* \"#utility.yul\":15251:15272   */\n      swap5\n      pop\n        /* \"#utility.yul\":14923:15282   */\n      pop\n      pop\n        /* \"#utility.yul\":14907:14911   */\n      0x20\n        /* \"#utility.yul\":14902:14905   */\n      dup2\n        /* \"#utility.yul\":14898:14912   */\n      add\n        /* \"#utility.yul\":14891:14912   */\n      swap1\n      pop\n        /* \"#utility.yul\":14847:15282   */\n      jump(tag_651)\n    tag_653:\n        /* \"#utility.yul\":14851:14872   */\n      pop\n        /* \"#utility.yul\":14455:15288   */\n      pop\n      pop\n        /* \"#utility.yul\":14343:15288   */\n      swap4\n      swap3\n      pop\n      pop\n      pop\n      jump\t// out\n        /* \"#utility.yul\":15310:15700   */\n    tag_463:\n        /* \"#utility.yul\":15391:15396   */\n      0x00\n        /* \"#utility.yul\":15440:15443   */\n      dup3\n        /* \"#utility.yul\":15433:15437   */\n      0x1f\n        /* \"#utility.yul\":15425:15431   */\n      dup4\n        /* \"#utility.yul\":15421:15438   */\n      add\n        /* \"#utility.yul\":15417:15444   */\n      slt\n        /* \"#utility.yul\":15407:15529   */\n      tag_658\n      jumpi\n        /* \"#utility.yul\":15448:15527   */\n      tag_659\n      tag_449\n      jump\t// in\n    tag_659:\n        /* \"#utility.yul\":15407:15529   */\n    tag_658:\n        /* \"#utility.yul\":15565:15571   */\n      dup2\n        /* \"#utility.yul\":15552:15572   */\n      calldataload\n        /* \"#utility.yul\":15590:15694   */\n      tag_660\n        /* \"#utility.yul\":15690:15693   */\n      dup5\n        /* \"#utility.yul\":15682:15688   */\n      dup3\n        /* \"#utility.yul\":15675:15679   */\n      0x20\n        /* \"#utility.yul\":15667:15673   */\n      dup7\n        /* \"#utility.yul\":15663:15680   */\n      add\n        /* \"#utility.yul\":15590:15694   */\n      tag_462\n      jump\t// in\n    tag_660:\n        /* \"#utility.yul\":15581:15694   */\n      swap2\n      pop\n        /* \"#utility.yul\":15397:15700   */\n      pop\n        /* \"#utility.yul\":15310:15700   */\n      swap3\n      swap2\n      pop\n      pop\n      jump\t// out\n        /* \"#utility.yul\":15706:16265   */\n    tag_105:\n        /* \"#utility.yul\":15800:15806   */\n      0x00\n        /* \"#utility.yul\":15849:15851   */\n      0x20\n        /* \"#utility.yul\":15837:15846   */\n      dup3\n        /* \"#utility.yul\":15828:15835   */\n      dup5\n        /* \"#utility.yul\":15824:15847   */\n      sub\n        /* \"#utility.yul\":15820:15852   */\n      slt\n        /* \"#utility.yul\":15817:15936   */\n      iszero\n      tag_662\n      jumpi\n        /* \"#utility.yul\":15855:15934   */\n      tag_663\n      tag_418\n      jump\t// in\n    tag_663:\n        /* \"#utility.yul\":15817:15936   */\n    tag_662:\n        /* \"#utility.yul\":16003:16004   */\n      0x00\n        /* \"#utility.yul\":15992:16001   */\n      dup3\n        /* \"#utility.yul\":15988:16005   */\n      add\n        /* \"#utility.yul\":15975:16006   */\n      calldataload\n        /* \"#utility.yul\":16033:16051   */\n      0xffffffffffffffff\n        /* \"#utility.yul\":16025:16031   */\n      dup2\n        /* \"#utility.yul\":16022:16052   */\n      gt\n        /* \"#utility.yul\":16019:16136   */\n      iszero\n      tag_664\n      jumpi\n        /* \"#utility.yul\":16055:16134   */\n      tag_665\n      tag_419\n      jump\t// in\n    tag_665:\n        /* \"#utility.yul\":16019:16136   */\n    tag_664:\n        /* \"#utility.yul\":16160:16248   */\n      tag_666\n        /* \"#utility.yul\":16240:16247   */\n      dup5\n        /* \"#utility.yul\":16231:16237   */\n      dup3\n        /* \"#utility.yul\":16220:16229   */\n      dup6\n        /* \"#utility.yul\":16216:16238   */\n      add\n        /* \"#utility.yul\":16160:16248   */\n      tag_463\n      jump\t// in\n    tag_666:\n        /* \"#utility.yul\":16150:16248   */\n      swap2\n      pop\n        /* \"#utility.yul\":15946:16258   */\n      pop\n        /* \"#utility.yul\":15706:16265   */\n      swap3\n      swap2\n      pop\n      pop\n      jump\t// out\n        /* \"#utility.yul\":16271:16745   */\n    tag_109:\n        /* \"#utility.yul\":16339:16345   */\n      0x00\n        /* \"#utility.yul\":16347:16353   */\n      dup1\n        /* \"#utility.yul\":16396:16398   */\n      0x40\n        /* \"#utility.yul\":16384:16393   */\n      dup4\n        /* \"#utility.yul\":16375:16382   */\n      dup6\n        /* \"#utility.yul\":16371:16394   */\n      sub\n        /* \"#utility.yul\":16367:16399   */\n      slt\n        /* \"#utility.yul\":16364:16483   */\n      iszero\n      tag_668\n      jumpi\n        /* \"#utility.yul\":16402:16481   */\n      tag_669\n      tag_418\n      jump\t// in\n    tag_669:\n        /* \"#utility.yul\":16364:16483   */\n    tag_668:\n        /* \"#utility.yul\":16522:16523   */\n      0x00\n        /* \"#utility.yul\":16547:16600   */\n      tag_670\n        /* \"#utility.yul\":16592:16599   */\n      dup6\n        /* \"#utility.yul\":16583:16589   */\n      dup3\n        /* \"#utility.yul\":16572:16581   */\n      dup7\n        /* \"#utility.yul\":16568:16590   */\n      add\n        /* \"#utility.yul\":16547:16600   */\n      tag_437\n      jump\t// in\n    tag_670:\n        /* \"#utility.yul\":16537:16600   */\n      swap3\n      pop\n        /* \"#utility.yul\":16493:16610   */\n      pop\n        /* \"#utility.yul\":16649:16651   */\n      0x20\n        /* \"#utility.yul\":16675:16728   */\n      tag_671\n        /* \"#utility.yul\":16720:16727   */\n      dup6\n        /* \"#utility.yul\":16711:16717   */\n      dup3\n        /* \"#utility.yul\":16700:16709   */\n      dup7\n        /* \"#utility.yul\":16696:16718   */\n      add\n        /* \"#utility.yul\":16675:16728   */\n      tag_437\n      jump\t// in\n    tag_671:\n        /* \"#utility.yul\":16665:16728   */\n      swap2\n      pop\n        /* \"#utility.yul\":16620:16738   */\n      pop\n        /* \"#utility.yul\":16271:16745   */\n      swap3\n      pop\n      swap3\n      swap1\n      pop\n      jump\t// out\n        /* \"#utility.yul\":16751:16931   */\n    tag_464:\n        /* \"#utility.yul\":16799:16876   */\n      0x4e487b7100000000000000000000000000000000000000000000000000000000\n        /* \"#utility.yul\":16796:16797   */\n      0x00\n        /* \"#utility.yul\":16789:16877   */\n      mstore\n        /* \"#utility.yul\":16896:16900   */\n      0x22\n        /* \"#utility.yul\":16893:16894   */\n      0x04\n        /* \"#utility.yul\":16886:16901   */\n      mstore\n        /* \"#utility.yul\":16920:16924   */\n      0x24\n        /* \"#utility.yul\":16917:16918   */\n      0x00\n        /* \"#utility.yul\":16910:16925   */\n      revert\n        /* \"#utility.yul\":16937:17257   */\n    tag_123:\n        /* \"#utility.yul\":16981:16987   */\n      0x00\n        /* \"#utility.yul\":17018:17019   */\n      0x02\n        /* \"#utility.yul\":17012:17016   */\n      dup3\n        /* \"#utility.yul\":17008:17020   */\n      div\n        /* \"#utility.yul\":16998:17020   */\n      swap1\n      pop\n        /* \"#utility.yul\":17065:17066   */\n      0x01\n        /* \"#utility.yul\":17059:17063   */\n      dup3\n        /* \"#utility.yul\":17055:17067   */\n      and\n        /* \"#utility.yul\":17086:17104   */\n      dup1\n        /* \"#utility.yul\":17076:17157   */\n      tag_674\n      jumpi\n        /* \"#utility.yul\":17142:17146   */\n      0x7f\n        /* \"#utility.yul\":17134:17140   */\n      dup3\n        /* \"#utility.yul\":17130:17147   */\n      and\n        /* \"#utility.yul\":17120:17147   */\n      swap2\n      pop\n        /* \"#utility.yul\":17076:17157   */\n    tag_674:\n        /* \"#utility.yul\":17204:17206   */\n      0x20\n        /* \"#utility.yul\":17196:17202   */\n      dup3\n        /* \"#utility.yul\":17193:17207   */\n      lt\n        /* \"#utility.yul\":17173:17191   */\n      dup2\n        /* \"#utility.yul\":17170:17208   */\n      sub\n        /* \"#utility.yul\":17167:17251   */\n      tag_675\n      jumpi\n        /* \"#utility.yul\":17223:17241   */\n      tag_676\n      tag_464\n      jump\t// in\n    tag_676:\n        /* \"#utility.yul\":17167:17251   */\n    tag_675:\n        /* \"#utility.yul\":16988:17257   */\n      pop\n        /* \"#utility.yul\":16937:17257   */\n      swap2\n      swap1\n      pop\n      jump\t// out\n        /* \"#utility.yul\":17263:17705   */\n    tag_147:\n        /* \"#utility.yul\":17412:17416   */\n      0x00\n        /* \"#utility.yul\":17450:17452   */\n      0x60\n        /* \"#utility.yul\":17439:17448   */\n      dup3\n        /* \"#utility.yul\":17435:17453   */\n      add\n        /* \"#utility.yul\":17427:17453   */\n      swap1\n      pop\n        /* \"#utility.yul\":17463:17534   */\n      tag_678\n        /* \"#utility.yul\":17531:17532   */\n      0x00\n        /* \"#utility.yul\":17520:17529   */\n      dup4\n        /* \"#utility.yul\":17516:17533   */\n      add\n        /* \"#utility.yul\":17507:17513   */\n      dup7\n        /* \"#utility.yul\":17463:17534   */\n      tag_435\n      jump\t// in\n    tag_678:\n        /* \"#utility.yul\":17544:17616   */\n      tag_679\n        /* \"#utility.yul\":17612:17614   */\n      0x20\n        /* \"#utility.yul\":17601:17610   */\n      dup4\n        /* \"#utility.yul\":17597:17615   */\n      add\n        /* \"#utility.yul\":17588:17594   */\n      dup6\n        /* \"#utility.yul\":17544:17616   */\n      tag_438\n      jump\t// in\n    tag_679:\n        /* \"#utility.yul\":17626:17698   */\n      tag_680\n        /* \"#utility.yul\":17694:17696   */\n      0x40\n        /* \"#utility.yul\":17683:17692   */\n      dup4\n        /* \"#utility.yul\":17679:17697   */\n      add\n        /* \"#utility.yul\":17670:17676   */\n      dup5\n        /* \"#utility.yul\":17626:17698   */\n      tag_435\n      jump\t// in\n    tag_680:\n        /* \"#utility.yul\":17263:17705   */\n      swap5\n      swap4\n      pop\n      pop\n      pop\n      pop\n      jump\t// out\n        /* \"#utility.yul\":17711:18043   */\n    tag_152:\n        /* \"#utility.yul\":17832:17836   */\n      0x00\n        /* \"#utility.yul\":17870:17872   */\n      0x40\n        /* \"#utility.yul\":17859:17868   */\n      dup3\n        /* \"#utility.yul\":17855:17873   */\n      add\n        /* \"#utility.yul\":17847:17873   */\n      swap1\n      pop\n        /* \"#utility.yul\":17883:17954   */\n      tag_682\n        /* \"#utility.yul\":17951:17952   */\n      0x00\n        /* \"#utility.yul\":17940:17949   */\n      dup4\n        /* \"#utility.yul\":17936:17953   */\n      add\n        /* \"#utility.yul\":17927:17933   */\n      dup6\n        /* \"#utility.yul\":17883:17954   */\n      tag_435\n      jump\t// in\n    tag_682:\n        /* \"#utility.yul\":17964:18036   */\n      tag_683\n        /* \"#utility.yul\":18032:18034   */\n      0x20\n        /* \"#utility.yul\":18021:18030   */\n      dup4\n        /* \"#utility.yul\":18017:18035   */\n      add\n        /* \"#utility.yul\":18008:18014   */\n      dup5\n        /* \"#utility.yul\":17964:18036   */\n      tag_438\n      jump\t// in\n    tag_683:\n        /* \"#utility.yul\":17711:18043   */\n      swap4\n      swap3\n      pop\n      pop\n      pop\n      jump\t// out\n        /* \"#utility.yul\":18049:18229   */\n    tag_170:\n        /* \"#utility.yul\":18097:18174   */\n      0x4e487b7100000000000000000000000000000000000000000000000000000000\n        /* \"#utility.yul\":18094:18095   */\n      0x00\n        /* \"#utility.yul\":18087:18175   */\n      mstore\n        /* \"#utility.yul\":18194:18198   */\n      0x32\n        /* \"#utility.yul\":18191:18192   */\n      0x04\n        /* \"#utility.yul\":18184:18199   */\n      mstore\n        /* \"#utility.yul\":18218:18222   */\n      0x24\n        /* \"#utility.yul\":18215:18216   */\n      0x00\n        /* \"#utility.yul\":18208:18223   */\n      revert\n        /* \"#utility.yul\":18235:18383   */\n    tag_465:\n        /* \"#utility.yul\":18337:18348   */\n      0x00\n        /* \"#utility.yul\":18374:18377   */\n      dup2\n        /* \"#utility.yul\":18359:18377   */\n      swap1\n      pop\n        /* \"#utility.yul\":18235:18383   */\n      swap3\n      swap2\n      pop\n      pop\n      jump\t// out\n        /* \"#utility.yul\":18389:18779   */\n    tag_466:\n        /* \"#utility.yul\":18495:18498   */\n      0x00\n        /* \"#utility.yul\":18523:18562   */\n      tag_687\n        /* \"#utility.yul\":18556:18561   */\n      dup3\n        /* \"#utility.yul\":18523:18562   */\n      tag_425\n      jump\t// in\n    tag_687:\n        /* \"#utility.yul\":18578:18667   */\n      tag_688\n        /* \"#utility.yul\":18660:18666   */\n      dup2\n        /* \"#utility.yul\":18655:18658   */\n      dup6\n        /* \"#utility.yul\":18578:18667   */\n      tag_465\n      jump\t// in\n    tag_688:\n        /* \"#utility.yul\":18571:18667   */\n      swap4\n      pop\n        /* \"#utility.yul\":18676:18741   */\n      tag_689\n        /* \"#utility.yul\":18734:18740   */\n      dup2\n        /* \"#utility.yul\":18729:18732   */\n      dup6\n        /* \"#utility.yul\":18722:18726   */\n      0x20\n        /* \"#utility.yul\":18715:18720   */\n      dup7\n        /* \"#utility.yul\":18711:18727   */\n      add\n        /* \"#utility.yul\":18676:18741   */\n      tag_427\n      jump\t// in\n    tag_689:\n        /* \"#utility.yul\":18766:18772   */\n      dup1\n        /* \"#utility.yul\":18761:18764   */\n      dup5\n        /* \"#utility.yul\":18757:18773   */\n      add\n        /* \"#utility.yul\":18750:18773   */\n      swap2\n      pop\n        /* \"#utility.yul\":18499:18779   */\n      pop\n        /* \"#utility.yul\":18389:18779   */\n      swap3\n      swap2\n      pop\n      pop\n      jump\t// out\n        /* \"#utility.yul\":18785:19220   */\n    tag_212:\n        /* \"#utility.yul\":18965:18968   */\n      0x00\n        /* \"#utility.yul\":18987:19082   */\n      tag_691\n        /* \"#utility.yul\":19078:19081   */\n      dup3\n        /* \"#utility.yul\":19069:19075   */\n      dup6\n        /* \"#utility.yul\":18987:19082   */\n      tag_466\n      jump\t// in\n    tag_691:\n        /* \"#utility.yul\":18980:19082   */\n      swap2\n      pop\n        /* \"#utility.yul\":19099:19194   */\n      tag_692\n        /* \"#utility.yul\":19190:19193   */\n      dup3\n        /* \"#utility.yul\":19181:19187   */\n      dup5\n        /* \"#utility.yul\":19099:19194   */\n      tag_466\n      jump\t// in\n    tag_692:\n        /* \"#utility.yul\":19092:19194   */\n      swap2\n      pop\n        /* \"#utility.yul\":19211:19214   */\n      dup2\n        /* \"#utility.yul\":19204:19214   */\n      swap1\n      pop\n        /* \"#utility.yul\":18785:19220   */\n      swap4\n      swap3\n      pop\n      pop\n      pop\n      jump\t// out\n        /* \"#utility.yul\":19226:19324   */\n    tag_467:\n        /* \"#utility.yul\":19277:19283   */\n      0x00\n        /* \"#utility.yul\":19311:19316   */\n      dup2\n        /* \"#utility.yul\":19305:19317   */\n      mload\n        /* \"#utility.yul\":19295:19317   */\n      swap1\n      pop\n        /* \"#utility.yul\":19226:19324   */\n      swap2\n      swap1\n      pop\n      jump\t// out\n        /* \"#utility.yul\":19330:19498   */\n    tag_468:\n        /* \"#utility.yul\":19413:19424   */\n      0x00\n        /* \"#utility.yul\":19447:19453   */\n      dup3\n        /* \"#utility.yul\":19442:19445   */\n      dup3\n        /* \"#utility.yul\":19435:19454   */\n      mstore\n        /* \"#utility.yul\":19487:19491   */\n      0x20\n        /* \"#utility.yul\":19482:19485   */\n      dup3\n        /* \"#utility.yul\":19478:19492   */\n      add\n        /* \"#utility.yul\":19463:19492   */\n      swap1\n      pop\n        /* \"#utility.yul\":19330:19498   */\n      swap3\n      swap2\n      pop\n      pop\n      jump\t// out\n        /* \"#utility.yul\":19504:19877   */\n    tag_469:\n        /* \"#utility.yul\":19590:19593   */\n      0x00\n        /* \"#utility.yul\":19618:19656   */\n      tag_696\n        /* \"#utility.yul\":19650:19655   */\n      dup3\n        /* \"#utility.yul\":19618:19656   */\n      tag_467\n      jump\t// in\n    tag_696:\n        /* \"#utility.yul\":19672:19742   */\n      tag_697\n        /* \"#utility.yul\":19735:19741   */\n      dup2\n        /* \"#utility.yul\":19730:19733   */\n      dup6\n        /* \"#utility.yul\":19672:19742   */\n      tag_468\n      jump\t// in\n    tag_697:\n        /* \"#utility.yul\":19665:19742   */\n      swap4\n      pop\n        /* \"#utility.yul\":19751:19816   */\n      tag_698\n        /* \"#utility.yul\":19809:19815   */\n      dup2\n        /* \"#utility.yul\":19804:19807   */\n      dup6\n        /* \"#utility.yul\":19797:19801   */\n      0x20\n        /* \"#utility.yul\":19790:19795   */\n      dup7\n        /* \"#utility.yul\":19786:19802   */\n      add\n        /* \"#utility.yul\":19751:19816   */\n      tag_427\n      jump\t// in\n    tag_698:\n        /* \"#utility.yul\":19841:19870   */\n      tag_699\n        /* \"#utility.yul\":19863:19869   */\n      dup2\n        /* \"#utility.yul\":19841:19870   */\n      tag_428\n      jump\t// in\n    tag_699:\n        /* \"#utility.yul\":19836:19839   */\n      dup5\n        /* \"#utility.yul\":19832:19871   */\n      add\n        /* \"#utility.yul\":19825:19871   */\n      swap2\n      pop\n        /* \"#utility.yul\":19594:19877   */\n      pop\n        /* \"#utility.yul\":19504:19877   */\n      swap3\n      swap2\n      pop\n      pop\n      jump\t// out\n        /* \"#utility.yul\":19883:20523   */\n    tag_276:\n        /* \"#utility.yul\":20078:20082   */\n      0x00\n        /* \"#utility.yul\":20116:20119   */\n      0x80\n        /* \"#utility.yul\":20105:20114   */\n      dup3\n        /* \"#utility.yul\":20101:20120   */\n      add\n        /* \"#utility.yul\":20093:20120   */\n      swap1\n      pop\n        /* \"#utility.yul\":20130:20201   */\n      tag_701\n        /* \"#utility.yul\":20198:20199   */\n      0x00\n        /* \"#utility.yul\":20187:20196   */\n      dup4\n        /* \"#utility.yul\":20183:20200   */\n      add\n        /* \"#utility.yul\":20174:20180   */\n      dup8\n        /* \"#utility.yul\":20130:20201   */\n      tag_435\n      jump\t// in\n    tag_701:\n        /* \"#utility.yul\":20211:20283   */\n      tag_702\n        /* \"#utility.yul\":20279:20281   */\n      0x20\n        /* \"#utility.yul\":20268:20277   */\n      dup4\n        /* \"#utility.yul\":20264:20282   */\n      add\n        /* \"#utility.yul\":20255:20261   */\n      dup7\n        /* \"#utility.yul\":20211:20283   */\n      tag_435\n      jump\t// in\n    tag_702:\n        /* \"#utility.yul\":20293:20365   */\n      tag_703\n        /* \"#utility.yul\":20361:20363   */\n      0x40\n        /* \"#utility.yul\":20350:20359   */\n      dup4\n        /* \"#utility.yul\":20346:20364   */\n      add\n        /* \"#utility.yul\":20337:20343   */\n      dup6\n        /* \"#utility.yul\":20293:20365   */\n      tag_438\n      jump\t// in\n    tag_703:\n        /* \"#utility.yul\":20412:20421   */\n      dup2\n        /* \"#utility.yul\":20406:20410   */\n      dup2\n        /* \"#utility.yul\":20402:20422   */\n      sub\n        /* \"#utility.yul\":20397:20399   */\n      0x60\n        /* \"#utility.yul\":20386:20395   */\n      dup4\n        /* \"#utility.yul\":20382:20400   */\n      add\n        /* \"#utility.yul\":20375:20423   */\n      mstore\n        /* \"#utility.yul\":20440:20516   */\n      tag_704\n        /* \"#utility.yul\":20511:20515   */\n      dup2\n        /* \"#utility.yul\":20502:20508   */\n      dup5\n        /* \"#utility.yul\":20440:20516   */\n      tag_469\n      jump\t// in\n    tag_704:\n        /* \"#utility.yul\":20432:20516   */\n      swap1\n      pop\n        /* \"#utility.yul\":19883:20523   */\n      swap6\n      swap5\n      pop\n      pop\n      pop\n      pop\n      pop\n      jump\t// out\n        /* \"#utility.yul\":20529:20670   */\n    tag_470:\n        /* \"#utility.yul\":20585:20590   */\n      0x00\n        /* \"#utility.yul\":20616:20622   */\n      dup2\n        /* \"#utility.yul\":20610:20623   */\n      mload\n        /* \"#utility.yul\":20601:20623   */\n      swap1\n      pop\n        /* \"#utility.yul\":20632:20664   */\n      tag_706\n        /* \"#utility.yul\":20658:20663   */\n      dup2\n        /* \"#utility.yul\":20632:20664   */\n      tag_421\n      jump\t// in\n    tag_706:\n        /* \"#utility.yul\":20529:20670   */\n      swap3\n      swap2\n      pop\n      pop\n      jump\t// out\n        /* \"#utility.yul\":20676:21025   */\n    tag_279:\n        /* \"#utility.yul\":20745:20751   */\n      0x00\n        /* \"#utility.yul\":20794:20796   */\n      0x20\n        /* \"#utility.yul\":20782:20791   */\n      dup3\n        /* \"#utility.yul\":20773:20780   */\n      dup5\n        /* \"#utility.yul\":20769:20792   */\n      sub\n        /* \"#utility.yul\":20765:20797   */\n      slt\n        /* \"#utility.yul\":20762:20881   */\n      iszero\n      tag_708\n      jumpi\n        /* \"#utility.yul\":20800:20879   */\n      tag_709\n      tag_418\n      jump\t// in\n    tag_709:\n        /* \"#utility.yul\":20762:20881   */\n    tag_708:\n        /* \"#utility.yul\":20920:20921   */\n      0x00\n        /* \"#utility.yul\":20945:21008   */\n      tag_710\n        /* \"#utility.yul\":21000:21007   */\n      dup5\n        /* \"#utility.yul\":20991:20997   */\n      dup3\n        /* \"#utility.yul\":20980:20989   */\n      dup6\n        /* \"#utility.yul\":20976:20998   */\n      add\n        /* \"#utility.yul\":20945:21008   */\n      tag_470\n      jump\t// in\n    tag_710:\n        /* \"#utility.yul\":20935:21008   */\n      swap2\n      pop\n        /* \"#utility.yul\":20891:21018   */\n      pop\n        /* \"#utility.yul\":20676:21025   */\n      swap3\n      swap2\n      pop\n      pop\n      jump\t// out\n        /* \"#utility.yul\":21031:21211   */\n    tag_304:\n        /* \"#utility.yul\":21079:21156   */\n      0x4e487b7100000000000000000000000000000000000000000000000000000000\n        /* \"#utility.yul\":21076:21077   */\n      0x00\n        /* \"#utility.yul\":21069:21157   */\n      mstore\n        /* \"#utility.yul\":21176:21180   */\n      0x12\n        /* \"#utility.yul\":21173:21174   */\n      0x04\n        /* \"#utility.yul\":21166:21181   */\n      mstore\n        /* \"#utility.yul\":21200:21204   */\n      0x24\n        /* \"#utility.yul\":21197:21198   */\n      0x00\n        /* \"#utility.yul\":21190:21205   */\n      revert\n        /* \"#utility.yul\":21217:21397   */\n    tag_471:\n        /* \"#utility.yul\":21265:21342   */\n      0x4e487b7100000000000000000000000000000000000000000000000000000000\n        /* \"#utility.yul\":21262:21263   */\n      0x00\n        /* \"#utility.yul\":21255:21343   */\n      mstore\n        /* \"#utility.yul\":21362:21366   */\n      0x11\n        /* \"#utility.yul\":21359:21360   */\n      0x04\n        /* \"#utility.yul\":21352:21367   */\n      mstore\n        /* \"#utility.yul\":21386:21390   */\n      0x24\n        /* \"#utility.yul\":21383:21384   */\n      0x00\n        /* \"#utility.yul\":21376:21391   */\n      revert\n        /* \"#utility.yul\":21403:21597   */\n    tag_340:\n        /* \"#utility.yul\":21443:21447   */\n      0x00\n        /* \"#utility.yul\":21463:21483   */\n      tag_714\n        /* \"#utility.yul\":21481:21482   */\n      dup3\n        /* \"#utility.yul\":21463:21483   */\n      tag_430\n      jump\t// in\n    tag_714:\n        /* \"#utility.yul\":21458:21483   */\n      swap2\n      pop\n        /* \"#utility.yul\":21497:21517   */\n      tag_715\n        /* \"#utility.yul\":21515:21516   */\n      dup4\n        /* \"#utility.yul\":21497:21517   */\n      tag_430\n      jump\t// in\n    tag_715:\n        /* \"#utility.yul\":21492:21517   */\n      swap3\n      pop\n        /* \"#utility.yul\":21541:21542   */\n      dup3\n        /* \"#utility.yul\":21538:21539   */\n      dup3\n        /* \"#utility.yul\":21534:21543   */\n      sub\n        /* \"#utility.yul\":21526:21543   */\n      swap1\n      pop\n        /* \"#utility.yul\":21565:21566   */\n      dup2\n        /* \"#utility.yul\":21559:21563   */\n      dup2\n        /* \"#utility.yul\":21556:21567   */\n      gt\n        /* \"#utility.yul\":21553:21590   */\n      iszero\n      tag_716\n      jumpi\n        /* \"#utility.yul\":21570:21588   */\n      tag_717\n      tag_471\n      jump\t// in\n    tag_717:\n        /* \"#utility.yul\":21553:21590   */\n    tag_716:\n        /* \"#utility.yul\":21403:21597   */\n      swap3\n      swap2\n      pop\n      pop\n      jump\t// out\n        /* \"#utility.yul\":21603:21783   */\n    tag_349:\n        /* \"#utility.yul\":21651:21728   */\n      0x4e487b7100000000000000000000000000000000000000000000000000000000\n        /* \"#utility.yul\":21648:21649   */\n      0x00\n        /* \"#utility.yul\":21641:21729   */\n      mstore\n        /* \"#utility.yul\":21748:21752   */\n      0x31\n        /* \"#utility.yul\":21745:21746   */\n      0x04\n        /* \"#utility.yul\":21738:21753   */\n      mstore\n        /* \"#utility.yul\":21772:21776   */\n      0x24\n        /* \"#utility.yul\":21769:21770   */\n      0x00\n        /* \"#utility.yul\":21762:21777   */\n      revert\n        /* \"#utility.yul\":21789:21930   */\n    tag_472:\n        /* \"#utility.yul\":21838:21842   */\n      0x00\n        /* \"#utility.yul\":21861:21864   */\n      dup2\n        /* \"#utility.yul\":21853:21864   */\n      swap1\n      pop\n        /* \"#utility.yul\":21884:21887   */\n      dup2\n        /* \"#utility.yul\":21881:21882   */\n      0x00\n        /* \"#utility.yul\":21874:21888   */\n      mstore\n        /* \"#utility.yul\":21918:21922   */\n      0x20\n        /* \"#utility.yul\":21915:21916   */\n      0x00\n        /* \"#utility.yul\":21905:21923   */\n      keccak256\n        /* \"#utility.yul\":21897:21923   */\n      swap1\n      pop\n        /* \"#utility.yul\":21789:21930   */\n      swap2\n      swap1\n      pop\n      jump\t// out\n        /* \"#utility.yul\":21936:22029   */\n    tag_473:\n        /* \"#utility.yul\":21973:21979   */\n      0x00\n        /* \"#utility.yul\":22020:22022   */\n      0x20\n        /* \"#utility.yul\":22015:22017   */\n      0x1f\n        /* \"#utility.yul\":22008:22013   */\n      dup4\n        /* \"#utility.yul\":22004:22018   */\n      add\n        /* \"#utility.yul\":22000:22023   */\n      div\n        /* \"#utility.yul\":21990:22023   */\n      swap1\n      pop\n        /* \"#utility.yul\":21936:22029   */\n      swap2\n      swap1\n      pop\n      jump\t// out\n        /* \"#utility.yul\":22035:22142   */\n    tag_474:\n        /* \"#utility.yul\":22079:22087   */\n      0x00\n        /* \"#utility.yul\":22129:22134   */\n      dup3\n        /* \"#utility.yul\":22123:22127   */\n      dup3\n        /* \"#utility.yul\":22119:22135   */\n      shl\n        /* \"#utility.yul\":22098:22135   */\n      swap1\n      pop\n        /* \"#utility.yul\":22035:22142   */\n      swap3\n      swap2\n      pop\n      pop\n      jump\t// out\n        /* \"#utility.yul\":22148:22541   */\n    tag_475:\n        /* \"#utility.yul\":22217:22223   */\n      0x00\n        /* \"#utility.yul\":22267:22268   */\n      0x08\n        /* \"#utility.yul\":22255:22265   */\n      dup4\n        /* \"#utility.yul\":22251:22269   */\n      mul\n        /* \"#utility.yul\":22290:22387   */\n      tag_723\n        /* \"#utility.yul\":22320:22386   */\n      0xffffffffffffffffffffffffffffffffffffffffffffffffffffffffffffffff\n        /* \"#utility.yul\":22309:22318   */\n      dup3\n        /* \"#utility.yul\":22290:22387   */\n      tag_474\n      jump\t// in\n    tag_723:\n        /* \"#utility.yul\":22408:22447   */\n      tag_724\n        /* \"#utility.yul\":22438:22446   */\n      dup7\n        /* \"#utility.yul\":22427:22436   */\n      dup4\n        /* \"#utility.yul\":22408:22447   */\n      tag_474\n      jump\t// in\n    tag_724:\n        /* \"#utility.yul\":22396:22447   */\n      swap6\n      pop\n        /* \"#utility.yul\":22480:22484   */\n      dup1\n        /* \"#utility.yul\":22476:22485   */\n      not\n        /* \"#utility.yul\":22469:22474   */\n      dup5\n        /* \"#utility.yul\":22465:22486   */\n      and\n        /* \"#utility.yul\":22456:22486   */\n      swap4\n      pop\n        /* \"#utility.yul\":22529:22533   */\n      dup1\n        /* \"#utility.yul\":22519:22527   */\n      dup7\n        /* \"#utility.yul\":22515:22534   */\n      and\n        /* \"#utility.yul\":22508:22513   */\n      dup5\n        /* \"#utility.yul\":22505:22535   */\n      or\n        /* \"#utility.yul\":22495:22535   */\n      swap3\n      pop\n        /* \"#utility.yul\":22224:22541   */\n      pop\n      pop\n        /* \"#utility.yul\":22148:22541   */\n      swap4\n      swap3\n      pop\n      pop\n      pop\n      jump\t// out\n        /* \"#utility.yul\":22547:22607   */\n    tag_476:\n        /* \"#utility.yul\":22575:22578   */\n      0x00\n        /* \"#utility.yul\":22596:22601   */\n      dup2\n        /* \"#utility.yul\":22589:22601   */\n      swap1\n      pop\n        /* \"#utility.yul\":22547:22607   */\n      swap2\n      swap1\n      pop\n      jump\t// out\n        /* \"#utility.yul\":22613:22755   */\n    tag_477:\n        /* \"#utility.yul\":22663:22672   */\n      0x00\n        /* \"#utility.yul\":22696:22749   */\n      tag_727\n        /* \"#utility.yul\":22714:22748   */\n      tag_728\n        /* \"#utility.yul\":22723:22747   */\n      tag_729\n        /* \"#utility.yul\":22741:22746   */\n      dup5\n        /* \"#utility.yul\":22723:22747   */\n      tag_430\n      jump\t// in\n    tag_729:\n        /* \"#utility.yul\":22714:22748   */\n      tag_476\n      jump\t// in\n    tag_728:\n        /* \"#utility.yul\":22696:22749   */\n      tag_430\n      jump\t// in\n    tag_727:\n        /* \"#utility.yul\":22683:22749   */\n      swap1\n      pop\n        /* \"#utility.yul\":22613:22755   */\n      swap2\n      swap1\n      pop\n      jump\t// out\n        /* \"#utility.yul\":22761:22836   */\n    tag_478:\n        /* \"#utility.yul\":22804:22807   */\n      0x00\n        /* \"#utility.yul\":22825:22830   */\n      dup2\n        /* \"#utility.yul\":22818:22830   */\n      swap1\n      pop\n        /* \"#utility.yul\":22761:22836   */\n      swap2\n      swap1\n      pop\n      jump\t// out\n        /* \"#utility.yul\":22842:23111   */\n    tag_479:\n        /* \"#utility.yul\":22952:22991   */\n      tag_732\n        /* \"#utility.yul\":22983:22990   */\n      dup4\n        /* \"#utility.yul\":22952:22991   */\n      tag_477\n      jump\t// in\n    tag_732:\n        /* \"#utility.yul\":23013:23104   */\n      tag_733\n        /* \"#utility.yul\":23062:23103   */\n      tag_734\n        /* \"#utility.yul\":23086:23102   */\n      dup3\n        /* \"#utility.yul\":23062:23103   */\n      tag_478\n      jump\t// in\n    tag_734:\n        /* \"#utility.yul\":23054:23060   */\n      dup5\n        /* \"#utility.yul\":23047:23051   */\n      dup5\n        /* \"#utility.yul\":23041:23052   */\n      sload\n        /* \"#utility.yul\":23013:23104   */\n      tag_475\n      jump\t// in\n    tag_733:\n        /* \"#utility.yul\":23007:23011   */\n      dup3\n        /* \"#utility.yul\":23000:23105   */\n      sstore\n        /* \"#utility.yul\":22918:23111   */\n      pop\n        /* \"#utility.yul\":22842:23111   */\n      pop\n      pop\n      pop\n      jump\t// out\n        /* \"#utility.yul\":23117:23190   */\n    tag_480:\n        /* \"#utility.yul\":23162:23165   */\n      0x00\n        /* \"#utility.yul\":23117:23190   */\n      swap1\n      jump\t// out\n        /* \"#utility.yul\":23196:23385   */\n    tag_481:\n        /* \"#utility.yul\":23273:23305   */\n      tag_737\n      tag_480\n      jump\t// in\n    tag_737:\n        /* \"#utility.yul\":23314:23379   */\n      tag_738\n        /* \"#utility.yul\":23372:23378   */\n      dup2\n        /* \"#utility.yul\":23364:23370   */\n      dup5\n        /* \"#utility.yul\":23358:23362   */\n      dup5\n        /* \"#utility.yul\":23314:23379   */\n      tag_479\n      jump\t// in\n    tag_738:\n        /* \"#utility.yul\":23249:23385   */\n      pop\n        /* \"#utility.yul\":23196:23385   */\n      pop\n      pop\n      jump\t// out\n        /* \"#utility.yul\":23391:23577   */\n    tag_482:\n        /* \"#utility.yul\":23451:23571   */\n    tag_740:\n        /* \"#utility.yul\":23468:23471   */\n      dup2\n        /* \"#utility.yul\":23461:23466   */\n      dup2\n        /* \"#utility.yul\":23458:23472   */\n      lt\n        /* \"#utility.yul\":23451:23571   */\n      iszero\n      tag_742\n      jumpi\n        /* \"#utility.yul\":23522:23561   */\n      tag_743\n        /* \"#utility.yul\":23559:23560   */\n      0x00\n        /* \"#utility.yul\":23552:23557   */\n      dup3\n        /* \"#utility.yul\":23522:23561   */\n      tag_481\n      jump\t// in\n    tag_743:\n        /* \"#utility.yul\":23495:23496   */\n      0x01\n        /* \"#utility.yul\":23488:23493   */\n      dup2\n        /* \"#utility.yul\":23484:23497   */\n      add\n        /* \"#utility.yul\":23475:23497   */\n      swap1\n      pop\n        /* \"#utility.yul\":23451:23571   */\n      jump(tag_740)\n    tag_742:\n        /* \"#utility.yul\":23391:23577   */\n      pop\n      pop\n      jump\t// out\n        /* \"#utility.yul\":23583:24126   */\n    tag_483:\n        /* \"#utility.yul\":23684:23686   */\n      0x1f\n        /* \"#utility.yul\":23679:23682   */\n      dup3\n        /* \"#utility.yul\":23676:23687   */\n      gt\n        /* \"#utility.yul\":23673:24119   */\n      iszero\n      tag_745\n      jumpi\n        /* \"#utility.yul\":23718:23756   */\n      tag_746\n        /* \"#utility.yul\":23750:23755   */\n      dup2\n        /* \"#utility.yul\":23718:23756   */\n      tag_472\n      jump\t// in\n    tag_746:\n        /* \"#utility.yul\":23802:23831   */\n      tag_747\n        /* \"#utility.yul\":23820:23830   */\n      dup5\n        /* \"#utility.yul\":23802:23831   */\n      tag_473\n      jump\t// in\n    tag_747:\n        /* \"#utility.yul\":23792:23800   */\n      dup2\n        /* \"#utility.yul\":23788:23832   */\n      add\n        /* \"#utility.yul\":23985:23987   */\n      0x20\n        /* \"#utility.yul\":23973:23983   */\n      dup6\n        /* \"#utility.yul\":23970:23988   */\n      lt\n        /* \"#utility.yul\":23967:24016   */\n      iszero\n      tag_748\n      jumpi\n        /* \"#utility.yul\":24006:24014   */\n      dup2\n        /* \"#utility.yul\":23991:24014   */\n      swap1\n      pop\n        /* \"#utility.yul\":23967:24016   */\n    tag_748:\n        /* \"#utility.yul\":24029:24109   */\n      tag_749\n        /* \"#utility.yul\":24085:24107   */\n      tag_750\n        /* \"#utility.yul\":24103:24106   */\n      dup6\n        /* \"#utility.yul\":24085:24107   */\n      tag_473\n      jump\t// in\n    tag_750:\n        /* \"#utility.yul\":24075:24083   */\n      dup4\n        /* \"#utility.yul\":24071:24108   */\n      add\n        /* \"#utility.yul\":24058:24069   */\n      dup3\n        /* \"#utility.yul\":24029:24109   */\n      tag_482\n      jump\t// in\n    tag_749:\n        /* \"#utility.yul\":23688:24119   */\n      pop\n      pop\n        /* \"#utility.yul\":23673:24119   */\n    tag_745:\n        /* \"#utility.yul\":23583:24126   */\n      pop\n      pop\n      pop\n      jump\t// out\n        /* \"#utility.yul\":24132:24249   */\n    tag_484:\n        /* \"#utility.yul\":24186:24194   */\n      0x00\n        /* \"#utility.yul\":24236:24241   */\n      dup3\n        /* \"#utility.yul\":24230:24234   */\n      dup3\n        /* \"#utility.yul\":24226:24242   */\n      shr\n        /* \"#utility.yul\":24205:24242   */\n      swap1\n      pop\n        /* \"#utility.yul\":24132:24249   */\n      swap3\n      swap2\n      pop\n      pop\n      jump\t// out\n        /* \"#utility.yul\":24255:24424   */\n    tag_485:\n        /* \"#utility.yul\":24299:24305   */\n      0x00\n        /* \"#utility.yul\":24332:24383   */\n      tag_753\n        /* \"#utility.yul\":24380:24381   */\n      0x00\n        /* \"#utility.yul\":24376:24382   */\n      not\n        /* \"#utility.yul\":24368:24373   */\n      dup5\n        /* \"#utility.yul\":24365:24366   */\n      0x08\n        /* \"#utility.yul\":24361:24374   */\n      mul\n        /* \"#utility.yul\":24332:24383   */\n      tag_484\n      jump\t// in\n    tag_753:\n        /* \"#utility.yul\":24328:24384   */\n      not\n        /* \"#utility.yul\":24413:24417   */\n      dup1\n        /* \"#utility.yul\":24407:24411   */\n      dup4\n        /* \"#utility.yul\":24403:24418   */\n      and\n        /* \"#utility.yul\":24393:24418   */\n      swap2\n      pop\n        /* \"#utility.yul\":24306:24424   */\n      pop\n        /* \"#utility.yul\":24255:24424   */\n      swap3\n      swap2\n      pop\n      pop\n      jump\t// out\n        /* \"#utility.yul\":24429:24724   */\n    tag_486:\n        /* \"#utility.yul\":24505:24509   */\n      0x00\n        /* \"#utility.yul\":24651:24680   */\n      tag_755\n        /* \"#utility.yul\":24676:24679   */\n      dup4\n        /* \"#utility.yul\":24670:24674   */\n      dup4\n        /* \"#utility.yul\":24651:24680   */\n      tag_485\n      jump\t// in\n    tag_755:\n        /* \"#utility.yul\":24643:24680   */\n      swap2\n      pop\n        /* \"#utility.yul\":24713:24716   */\n      dup3\n        /* \"#utility.yul\":24710:24711   */\n      0x02\n        /* \"#utility.yul\":24706:24717   */\n      mul\n        /* \"#utility.yul\":24700:24704   */\n      dup3\n        /* \"#utility.yul\":24697:24718   */\n      or\n        /* \"#utility.yul\":24689:24718   */\n      swap1\n      pop\n        /* \"#utility.yul\":24429:24724   */\n      swap3\n      swap2\n      pop\n      pop\n      jump\t// out\n        /* \"#utility.yul\":24729:26124   */\n    tag_403:\n        /* \"#utility.yul\":24846:24883   */\n      tag_757\n        /* \"#utility.yul\":24879:24882   */\n      dup3\n        /* \"#utility.yul\":24846:24883   */\n      tag_425\n      jump\t// in\n    tag_757:\n        /* \"#utility.yul\":24948:24966   */\n      0xffffffffffffffff\n        /* \"#utility.yul\":24940:24946   */\n      dup2\n        /* \"#utility.yul\":24937:24967   */\n      gt\n        /* \"#utility.yul\":24934:24990   */\n      iszero\n      tag_758\n      jumpi\n        /* \"#utility.yul\":24970:24988   */\n      tag_759\n      tag_298\n      jump\t// in\n    tag_759:\n        /* \"#utility.yul\":24934:24990   */\n    tag_758:\n        /* \"#utility.yul\":25014:25052   */\n      tag_760\n        /* \"#utility.yul\":25046:25050   */\n      dup3\n        /* \"#utility.yul\":25040:25051   */\n      sload\n        /* \"#utility.yul\":25014:25052   */\n      tag_123\n      jump\t// in\n    tag_760:\n        /* \"#utility.yul\":25099:25166   */\n      tag_761\n        /* \"#utility.yul\":25159:25165   */\n      dup3\n        /* \"#utility.yul\":25151:25157   */\n      dup3\n        /* \"#utility.yul\":25145:25149   */\n      dup6\n        /* \"#utility.yul\":25099:25166   */\n      tag_483\n      jump\t// in\n    tag_761:\n        /* \"#utility.yul\":25193:25194   */\n      0x00\n        /* \"#utility.yul\":25217:25221   */\n      0x20\n        /* \"#utility.yul\":25204:25221   */\n      swap1\n      pop\n        /* \"#utility.yul\":25249:25251   */\n      0x1f\n        /* \"#utility.yul\":25241:25247   */\n      dup4\n        /* \"#utility.yul\":25238:25252   */\n      gt\n        /* \"#utility.yul\":25266:25267   */\n      0x01\n        /* \"#utility.yul\":25261:25879   */\n      dup2\n      eq\n      tag_763\n      jumpi\n        /* \"#utility.yul\":25923:25924   */\n      0x00\n        /* \"#utility.yul\":25940:25946   */\n      dup5\n        /* \"#utility.yul\":25937:26014   */\n      iszero\n      tag_764\n      jumpi\n        /* \"#utility.yul\":25989:25998   */\n      dup3\n        /* \"#utility.yul\":25984:25987   */\n      dup8\n        /* \"#utility.yul\":25980:25999   */\n      add\n        /* \"#utility.yul\":25974:26000   */\n      mload\n        /* \"#utility.yul\":25965:26000   */\n      swap1\n      pop\n        /* \"#utility.yul\":25937:26014   */\n    tag_764:\n        /* \"#utility.yul\":26040:26107   */\n      tag_765\n        /* \"#utility.yul\":26100:26106   */\n      dup6\n        /* \"#utility.yul\":26093:26098   */\n      dup3\n        /* \"#utility.yul\":26040:26107   */\n      tag_486\n      jump\t// in\n    tag_765:\n        /* \"#utility.yul\":26034:26038   */\n      dup7\n        /* \"#utility.yul\":26027:26108   */\n      sstore\n        /* \"#utility.yul\":25896:26118   */\n      pop\n        /* \"#utility.yul\":25231:26118   */\n      jump(tag_762)\n        /* \"#utility.yul\":25261:25879   */\n    tag_763:\n        /* \"#utility.yul\":25313:25317   */\n      0x1f\n        /* \"#utility.yul\":25309:25318   */\n      not\n        /* \"#utility.yul\":25301:25307   */\n      dup5\n        /* \"#utility.yul\":25297:25319   */\n      and\n        /* \"#utility.yul\":25347:25384   */\n      tag_766\n        /* \"#utility.yul\":25379:25383   */\n      dup7\n        /* \"#utility.yul\":25347:25384   */\n      tag_472\n      jump\t// in\n    tag_766:\n        /* \"#utility.yul\":25406:25407   */\n      0x00\n        /* \"#utility.yul\":25420:25628   */\n    tag_767:\n        /* \"#utility.yul\":25434:25441   */\n      dup3\n        /* \"#utility.yul\":25431:25432   */\n      dup2\n        /* \"#utility.yul\":25428:25442   */\n      lt\n        /* \"#utility.yul\":25420:25628   */\n      iszero\n      tag_769\n      jumpi\n        /* \"#utility.yul\":25513:25522   */\n      dup5\n        /* \"#utility.yul\":25508:25511   */\n      dup10\n        /* \"#utility.yul\":25504:25523   */\n      add\n        /* \"#utility.yul\":25498:25524   */\n      mload\n        /* \"#utility.yul\":25490:25496   */\n      dup3\n        /* \"#utility.yul\":25483:25525   */\n      sstore\n        /* \"#utility.yul\":25564:25565   */\n      0x01\n        /* \"#utility.yul\":25556:25562   */\n      dup3\n        /* \"#utility.yul\":25552:25566   */\n      add\n        /* \"#utility.yul\":25542:25566   */\n      swap2\n      pop\n        /* \"#utility.yul\":25611:25613   */\n      0x20\n        /* \"#utility.yul\":25600:25609   */\n      dup6\n        /* \"#utility.yul\":25596:25614   */\n      add\n        /* \"#utility.yul\":25583:25614   */\n      swap5\n      pop\n        /* \"#utility.yul\":25457:25461   */\n      0x20\n        /* \"#utility.yul\":25454:25455   */\n      dup2\n        /* \"#utility.yul\":25450:25462   */\n      add\n        /* \"#utility.yul\":25445:25462   */\n      swap1\n      pop\n        /* \"#utility.yul\":25420:25628   */\n      jump(tag_767)\n    tag_769:\n        /* \"#utility.yul\":25656:25662   */\n      dup7\n        /* \"#utility.yul\":25647:25654   */\n      dup4\n        /* \"#utility.yul\":25644:25663   */\n      lt\n        /* \"#utility.yul\":25641:25820   */\n      iszero\n      tag_770\n      jumpi\n        /* \"#utility.yul\":25714:25723   */\n      dup5\n        /* \"#utility.yul\":25709:25712   */\n      dup10\n        /* \"#utility.yul\":25705:25724   */\n      add\n        /* \"#utility.yul\":25699:25725   */\n      mload\n        /* \"#utility.yul\":25757:25805   */\n      tag_771\n        /* \"#utility.yul\":25799:25803   */\n      0x1f\n        /* \"#utility.yul\":25791:25797   */\n      dup10\n        /* \"#utility.yul\":25787:25804   */\n      and\n        /* \"#utility.yul\":25776:25785   */\n      dup3\n        /* \"#utility.yul\":25757:25805   */\n      tag_485\n      jump\t// in\n    tag_771:\n        /* \"#utility.yul\":25749:25755   */\n      dup4\n        /* \"#utility.yul\":25742:25806   */\n      sstore\n        /* \"#utility.yul\":25664:25820   */\n      pop\n        /* \"#utility.yul\":25641:25820   */\n    tag_770:\n        /* \"#utility.yul\":25866:25867   */\n      0x01\n        /* \"#utility.yul\":25862:25863   */\n      0x02\n        /* \"#utility.yul\":25854:25860   */\n      dup9\n        /* \"#utility.yul\":25850:25864   */\n      mul\n        /* \"#utility.yul\":25846:25868   */\n      add\n        /* \"#utility.yul\":25840:25844   */\n      dup9\n        /* \"#utility.yul\":25833:25869   */\n      sstore\n        /* \"#utility.yul\":25268:25879   */\n      pop\n      pop\n      pop\n        /* \"#utility.yul\":25231:26118   */\n    tag_762:\n      pop\n        /* \"#utility.yul\":24821:26124   */\n      pop\n      pop\n      pop\n        /* \"#utility.yul\":24729:26124   */\n      pop\n      pop\n      jump\t// out\n\n    auxdata: 0xa2646970667358221220e06809d39f80a7006582920d1d879ae3c27af9cb995beca63c3b95262bd5dd3264736f6c63430008180033\n}\n",
				"bytecode": {
					"linkReferences": {},
					"object": "608060405234801562000010575f80fd5b506040518060400160405280600881526020017f646f7562696d616f0000000000000000000000000000000000000000000000008152506040518060400160405280600881526020017f646f7562696d616f000000000000000000000000000000000000000000000000815250335f73ffffffffffffffffffffffffffffffffffffffff168173ffffffffffffffffffffffffffffffffffffffff1603620000f1575f6040517f1e4fbdf7000000000000000000000000000000000000000000000000000000008152600401620000e8919062000233565b60405180910390fd5b62000102816200012f60201b60201c565b508160029081620001149190620004b2565b508060039081620001269190620004b2565b50505062000596565b5f805f9054906101000a900473ffffffffffffffffffffffffffffffffffffffff169050815f806101000a81548173ffffffffffffffffffffffffffffffffffffffff021916908373ffffffffffffffffffffffffffffffffffffffff1602179055508173ffffffffffffffffffffffffffffffffffffffff168173ffffffffffffffffffffffffffffffffffffffff167f8be0079c531659141344cd1fd0a4f28419497f9722a3daafe3b4186f6b6457e060405160405180910390a35050565b5f73ffffffffffffffffffffffffffffffffffffffff82169050919050565b5f6200021b82620001f0565b9050919050565b6200022d816200020f565b82525050565b5f602082019050620002485f83018462000222565b92915050565b5f81519050919050565b7f4e487b71000000000000000000000000000000000000000000000000000000005f52604160045260245ffd5b7f4e487b71000000000000000000000000000000000000000000000000000000005f52602260045260245ffd5b5f6002820490506001821680620002ca57607f821691505b602082108103620002e057620002df62000285565b5b50919050565b5f819050815f5260205f209050919050565b5f6020601f8301049050919050565b5f82821b905092915050565b5f60088302620003447fffffffffffffffffffffffffffffffffffffffffffffffffffffffffffffffff8262000307565b62000350868362000307565b95508019841693508086168417925050509392505050565b5f819050919050565b5f819050919050565b5f6200039a620003946200038e8462000368565b62000371565b62000368565b9050919050565b5f819050919050565b620003b5836200037a565b620003cd620003c482620003a1565b84845462000313565b825550505050565b5f90565b620003e3620003d5565b620003f0818484620003aa565b505050565b5b8181101562000417576200040b5f82620003d9565b600181019050620003f6565b5050565b601f82111562000466576200043081620002e6565b6200043b84620002f8565b810160208510156200044b578190505b620004636200045a85620002f8565b830182620003f5565b50505b505050565b5f82821c905092915050565b5f620004885f19846008026200046b565b1980831691505092915050565b5f620004a2838362000477565b9150826002028217905092915050565b620004bd826200024e565b67ffffffffffffffff811115620004d957620004d862000258565b5b620004e58254620002b2565b620004f28282856200041b565b5f60209050601f83116001811462000528575f841562000513578287015190505b6200051f858262000495565b8655506200058e565b601f1984166200053886620002e6565b5f5b8281101562000561578489015182556001820191506020850194506020810190506200053a565b868310156200058157848901516200057d601f89168262000477565b8355505b6001600288020188555050505b505050505050565b612edd80620005a45f395ff3fe608060405234801561000f575f80fd5b5060043610610140575f3560e01c806370a08231116100b6578063a22cb4651161007a578063a22cb46514610374578063b88d4fde14610390578063c87b56dd146103ac578063e3d61eb3146103dc578063e985e9c5146103f8578063f2fde38b1461042857610140565b806370a08231146102e2578063715018a6146103125780638da5cb5b1461031c57806395d89b411461033a578063a14481941461035857610140565b806323b872dd1161010857806323b872dd146101fc5780632f745c591461021857806342842e0e146102485780634bb30912146102645780634f6ccce7146102825780636352211e146102b257610140565b806301ffc9a71461014457806306fdde0314610174578063081812fc14610192578063095ea7b3146101c257806318160ddd146101de575b5f80fd5b61015e6004803603810190610159919061215e565b610444565b60405161016b91906121a3565b60405180910390f35b61017c610465565b6040516101899190612246565b60405180910390f35b6101ac60048036038101906101a79190612299565b6104f5565b6040516101b99190612303565b60405180910390f35b6101dc60048036038101906101d79190612346565b610510565b005b6101e6610526565b6040516101f39190612393565b60405180910390f35b610216600480360381019061021191906123ac565b610532565b005b610232600480360381019061022d9190612346565b610631565b60405161023f9190612393565b60405180910390f35b610262600480360381019061025d91906123ac565b6106d5565b005b61026c6106f4565b60405161027991906124ff565b60405180910390f35b61029c60048036038101906102979190612299565b6107c8565b6040516102a99190612393565b60405180910390f35b6102cc60048036038101906102c79190612299565b61083a565b6040516102d99190612303565b60405180910390f35b6102fc60048036038101906102f7919061251f565b61084b565b6040516103099190612393565b60405180910390f35b61031a610901565b005b610324610914565b6040516103319190612303565b60405180910390f35b61034261093b565b60405161034f9190612246565b60405180910390f35b610372600480360381019061036d9190612346565b6109cb565b005b61038e60048036038101906103899190612574565b6109e1565b005b6103aa60048036038101906103a591906126de565b6109f7565b005b6103c660048036038101906103c19190612299565b610a14565b6040516103d39190612246565b60405180910390f35b6103f660048036038101906103f191906128de565b610a7a565b005b610412600480360381019061040d9190612925565b610ad4565b60405161041f91906121a3565b60405180910390f35b610442600480360381019061043d919061251f565b610b62565b005b5f61044e82610be6565b8061045e575061045d82610c5f565b5b9050919050565b60606002805461047490612990565b80601f01602080910402602001604051908101604052809291908181526020018280546104a090612990565b80156104eb5780601f106104c2576101008083540402835291602001916104eb565b820191905f5260205f20905b8154815290600101906020018083116104ce57829003601f168201915b5050505050905090565b5f6104ff82610cc8565b5061050982610d4e565b9050919050565b610522828261051d610d87565b610d8e565b5050565b5f600a80549050905090565b5f73ffffffffffffffffffffffffffffffffffffffff168273ffffffffffffffffffffffffffffffffffffffff16036105a2575f6040517f64a0ae920000000000000000000000000000000000000000000000000000000081526004016105999190612303565b60405180910390fd5b5f6105b583836105b0610d87565b610da0565b90508373ffffffffffffffffffffffffffffffffffffffff168173ffffffffffffffffffffffffffffffffffffffff161461062b578382826040517f64283d7b000000000000000000000000000000000000000000000000000000008152600401610622939291906129c0565b60405180910390fd5b50505050565b5f61063b8361084b565b82106106805782826040517fa57d13dc0000000000000000000000000000000000000000000000000000000081526004016106779291906129f5565b60405180910390fd5b60085f8473ffffffffffffffffffffffffffffffffffffffff1673ffffffffffffffffffffffffffffffffffffffff1681526020019081526020015f205f8381526020019081526020015f2054905092915050565b6106ef83838360405180602001604052805f8152506109f7565b505050565b60606001805480602002602001604051908101604052809291908181526020015f905b828210156107bf578382905f5260205f2001805461073490612990565b80601f016020809104026020016040519081016040528092919081815260200182805461076090612990565b80156107ab5780601f10610782576101008083540402835291602001916107ab565b820191905f5260205f20905b81548152906001019060200180831161078e57829003601f168201915b505050505081526020019060010190610717565b50505050905090565b5f6107d1610526565b8210610816575f826040517fa57d13dc00000000000000000000000000000000000000000000000000000000815260040161080d9291906129f5565b60405180910390fd5b600a828154811061082a57610829612a1c565b5b905f5260205f2001549050919050565b5f61084482610cc8565b9050919050565b5f8073ffffffffffffffffffffffffffffffffffffffff168273ffffffffffffffffffffffffffffffffffffffff16036108bc575f6040517f89c62b640000000000000000000000000000000000000000000000000000000081526004016108b39190612303565b60405180910390fd5b60055f8373ffffffffffffffffffffffffffffffffffffffff1673ffffffffffffffffffffffffffffffffffffffff1681526020019081526020015f20549050919050565b610909610eba565b6109125f610f41565b565b5f805f9054906101000a900473ffffffffffffffffffffffffffffffffffffffff16905090565b60606003805461094a90612990565b80601f016020809104026020016040519081016040528092919081815260200182805461097690612990565b80156109c15780601f10610998576101008083540402835291602001916109c1565b820191905f5260205f20905b8154815290600101906020018083116109a457829003601f168201915b5050505050905090565b6109d3610eba565b6109dd8282611002565b5050565b6109f36109ec610d87565b838361101f565b5050565b610a02848484610532565b610a0e84848484611188565b50505050565b6060610a1f82610cc8565b505f610a2961133a565b90505f815111610a475760405180602001604052805f815250610a72565b80610a5184611350565b604051602001610a62929190612a83565b6040516020818303038152906040525b915050919050565b610a838161141a565b8060019080519060200190610a99929190612026565b507f9538911740e5519a40db77fb5f637de0d56cdd804318d81ae270cc24fbd8479e81604051610ac991906124ff565b60405180910390a150565b5f60075f8473ffffffffffffffffffffffffffffffffffffffff1673ffffffffffffffffffffffffffffffffffffffff1681526020019081526020015f205f8373ffffffffffffffffffffffffffffffffffffffff1673ffffffffffffffffffffffffffffffffffffffff1681526020019081526020015f205f9054906101000a900460ff16905092915050565b610b6a610eba565b5f73ffffffffffffffffffffffffffffffffffffffff168173ffffffffffffffffffffffffffffffffffffffff1603610bda575f6040517f1e4fbdf7000000000000000000000000000000000000000000000000000000008152600401610bd19190612303565b60405180910390fd5b610be381610f41565b50565b5f7f780e9d63000000000000000000000000000000000000000000000000000000007bffffffffffffffffffffffffffffffffffffffffffffffffffffffff1916827bffffffffffffffffffffffffffffffffffffffffffffffffffffffff19161480610c585750610c5782611425565b5b9050919050565b5f7fa86517a1000000000000000000000000000000000000000000000000000000007bffffffffffffffffffffffffffffffffffffffffffffffffffffffff1916827bffffffffffffffffffffffffffffffffffffffffffffffffffffffff1916149050919050565b5f80610cd383611506565b90505f73ffffffffffffffffffffffffffffffffffffffff168173ffffffffffffffffffffffffffffffffffffffff1603610d4557826040517f7e273289000000000000000000000000000000000000000000000000000000008152600401610d3c9190612393565b60405180910390fd5b80915050919050565b5f60065f8381526020019081526020015f205f9054906101000a900473ffffffffffffffffffffffffffffffffffffffff169050919050565b5f33905090565b610d9b838383600161153f565b505050565b5f80610dad8585856116fe565b90505f73ffffffffffffffffffffffffffffffffffffffff168173ffffffffffffffffffffffffffffffffffffffff1603610df057610deb84611909565b610e2f565b8473ffffffffffffffffffffffffffffffffffffffff168173ffffffffffffffffffffffffffffffffffffffff1614610e2e57610e2d818561194d565b5b5b5f73ffffffffffffffffffffffffffffffffffffffff168573ffffffffffffffffffffffffffffffffffffffff1603610e7057610e6b84611a97565b610eaf565b8473ffffffffffffffffffffffffffffffffffffffff168173ffffffffffffffffffffffffffffffffffffffff1614610eae57610ead8585611b57565b5b5b809150509392505050565b610ec2610d87565b73ffffffffffffffffffffffffffffffffffffffff16610ee0610914565b73ffffffffffffffffffffffffffffffffffffffff1614610f3f57610f03610d87565b6040517f118cdaa7000000000000000000000000000000000000000000000000000000008152600401610f369190612303565b60405180910390fd5b565b5f805f9054906101000a900473ffffffffffffffffffffffffffffffffffffffff169050815f806101000a81548173ffffffffffffffffffffffffffffffffffffffff021916908373ffffffffffffffffffffffffffffffffffffffff1602179055508173ffffffffffffffffffffffffffffffffffffffff168173ffffffffffffffffffffffffffffffffffffffff167f8be0079c531659141344cd1fd0a4f28419497f9722a3daafe3b4186f6b6457e060405160405180910390a35050565b61101b828260405180602001604052805f815250611bdb565b5050565b5f73ffffffffffffffffffffffffffffffffffffffff168273ffffffffffffffffffffffffffffffffffffffff160361108f57816040517f5b08ba180000000000000000000000000000000000000000000000000000000081526004016110869190612303565b60405180910390fd5b8060075f8573ffffffffffffffffffffffffffffffffffffffff1673ffffffffffffffffffffffffffffffffffffffff1681526020019081526020015f205f8473ffffffffffffffffffffffffffffffffffffffff1673ffffffffffffffffffffffffffffffffffffffff1681526020019081526020015f205f6101000a81548160ff0219169083151502179055508173ffffffffffffffffffffffffffffffffffffffff168373ffffffffffffffffffffffffffffffffffffffff167f17307eab39ab6107e8899845ad3d59bd9653f200f220920489ca2b5937696c318360405161117b91906121a3565b60405180910390a3505050565b5f8373ffffffffffffffffffffffffffffffffffffffff163b1115611334578273ffffffffffffffffffffffffffffffffffffffff1663150b7a026111cb610d87565b8685856040518563ffffffff1660e01b81526004016111ed9493929190612af8565b6020604051808303815f875af192505050801561122857506040513d601f19601f820116820180604052508101906112259190612b56565b60015b6112a9573d805f8114611256576040519150601f19603f3d011682016040523d82523d5f602084013e61125b565b606091505b505f8151036112a157836040517f64a0ae920000000000000000000000000000000000000000000000000000000081526004016112989190612303565b60405180910390fd5b805181602001fd5b63150b7a0260e01b7bffffffffffffffffffffffffffffffffffffffffffffffffffffffff1916817bffffffffffffffffffffffffffffffffffffffffffffffffffffffff19161461133257836040517f64a0ae920000000000000000000000000000000000000000000000000000000081526004016113299190612303565b60405180910390fd5b505b50505050565b606060405180602001604052805f815250905090565b60605f600161135e84611bf6565b0190505f8167ffffffffffffffff81111561137c5761137b6125ba565b5b6040519080825280601f01601f1916602001820160405280156113ae5781602001600182028036833780820191505090505b5090505f82602001820190505b60011561140f578080600190039150507f3031323334353637383961626364656600000000000000000000000000000000600a86061a8153600a858161140457611403612b81565b5b0494505f85036113bb575b819350505050919050565b611422610eba565b50565b5f7f80ac58cd000000000000000000000000000000000000000000000000000000007bffffffffffffffffffffffffffffffffffffffffffffffffffffffff1916827bffffffffffffffffffffffffffffffffffffffffffffffffffffffff191614806114ef57507f5b5e139f000000000000000000000000000000000000000000000000000000007bffffffffffffffffffffffffffffffffffffffffffffffffffffffff1916827bffffffffffffffffffffffffffffffffffffffffffffffffffffffff1916145b806114ff57506114fe82611d47565b5b9050919050565b5f60045f8381526020019081526020015f205f9054906101000a900473ffffffffffffffffffffffffffffffffffffffff169050919050565b808061157757505f73ffffffffffffffffffffffffffffffffffffffff168273ffffffffffffffffffffffffffffffffffffffff1614155b156116a9575f61158684610cc8565b90505f73ffffffffffffffffffffffffffffffffffffffff168373ffffffffffffffffffffffffffffffffffffffff16141580156115f057508273ffffffffffffffffffffffffffffffffffffffff168173ffffffffffffffffffffffffffffffffffffffff1614155b801561160357506116018184610ad4565b155b1561164557826040517fa9fbf51f00000000000000000000000000000000000000000000000000000000815260040161163c9190612303565b60405180910390fd5b81156116a757838573ffffffffffffffffffffffffffffffffffffffff168273ffffffffffffffffffffffffffffffffffffffff167f8c5be1e5ebec7d5bd14f71427d1e84f3dd0314c0f7b2291e5b200ac8c7c3b92560405160405180910390a45b505b8360065f8581526020019081526020015f205f6101000a81548173ffffffffffffffffffffffffffffffffffffffff021916908373ffffffffffffffffffffffffffffffffffffffff16021790555050505050565b5f8061170984611506565b90505f73ffffffffffffffffffffffffffffffffffffffff168373ffffffffffffffffffffffffffffffffffffffff161461174a57611749818486611db0565b5b5f73ffffffffffffffffffffffffffffffffffffffff168173ffffffffffffffffffffffffffffffffffffffff16146117d5576117895f855f8061153f565b600160055f8373ffffffffffffffffffffffffffffffffffffffff1673ffffffffffffffffffffffffffffffffffffffff1681526020019081526020015f205f82825403925050819055505b5f73ffffffffffffffffffffffffffffffffffffffff168573ffffffffffffffffffffffffffffffffffffffff161461185457600160055f8773ffffffffffffffffffffffffffffffffffffffff1673ffffffffffffffffffffffffffffffffffffffff1681526020019081526020015f205f82825401925050819055505b8460045f8681526020019081526020015f205f6101000a81548173ffffffffffffffffffffffffffffffffffffffff021916908373ffffffffffffffffffffffffffffffffffffffff160217905550838573ffffffffffffffffffffffffffffffffffffffff168273ffffffffffffffffffffffffffffffffffffffff167fddf252ad1be2c89b69c2b068fc378daa952ba7f163c4a11628f55a4df523b3ef60405160405180910390a4809150509392505050565b600a80549050600b5f8381526020019081526020015f2081905550600a81908060018154018082558091505060019003905f5260205f20015f909190919091505550565b5f6119578361084b565b90505f60095f8481526020019081526020015f20549050818114611a2e575f60085f8673ffffffffffffffffffffffffffffffffffffffff1673ffffffffffffffffffffffffffffffffffffffff1681526020019081526020015f205f8481526020019081526020015f205490508060085f8773ffffffffffffffffffffffffffffffffffffffff1673ffffffffffffffffffffffffffffffffffffffff1681526020019081526020015f205f8481526020019081526020015f20819055508160095f8381526020019081526020015f2081905550505b60095f8481526020019081526020015f205f905560085f8573ffffffffffffffffffffffffffffffffffffffff1673ffffffffffffffffffffffffffffffffffffffff1681526020019081526020015f205f8381526020019081526020015f205f905550505050565b5f6001600a80549050611aaa9190612bdb565b90505f600b5f8481526020019081526020015f205490505f600a8381548110611ad657611ad5612a1c565b5b905f5260205f200154905080600a8381548110611af657611af5612a1c565b5b905f5260205f20018190555081600b5f8381526020019081526020015f2081905550600b5f8581526020019081526020015f205f9055600a805480611b3e57611b3d612c0e565b5b600190038181905f5260205f20015f9055905550505050565b5f6001611b638461084b565b611b6d9190612bdb565b90508160085f8573ffffffffffffffffffffffffffffffffffffffff1673ffffffffffffffffffffffffffffffffffffffff1681526020019081526020015f205f8381526020019081526020015f20819055508060095f8481526020019081526020015f2081905550505050565b611be58383611e73565b611bf15f848484611188565b505050565b5f805f90507a184f03e93ff9f4daa797ed6e38ed64bf6a1f0100000000000000008310611c52577a184f03e93ff9f4daa797ed6e38ed64bf6a1f0100000000000000008381611c4857611c47612b81565b5b0492506040810190505b6d04ee2d6d415b85acef81000000008310611c8f576d04ee2d6d415b85acef81000000008381611c8557611c84612b81565b5b0492506020810190505b662386f26fc100008310611cbe57662386f26fc100008381611cb457611cb3612b81565b5b0492506010810190505b6305f5e1008310611ce7576305f5e1008381611cdd57611cdc612b81565b5b0492506008810190505b6127108310611d0c576127108381611d0257611d01612b81565b5b0492506004810190505b60648310611d2f5760648381611d2557611d24612b81565b5b0492506002810190505b600a8310611d3e576001810190505b80915050919050565b5f7f01ffc9a7000000000000000000000000000000000000000000000000000000007bffffffffffffffffffffffffffffffffffffffffffffffffffffffff1916827bffffffffffffffffffffffffffffffffffffffffffffffffffffffff1916149050919050565b611dbb838383611f66565b611e6e575f73ffffffffffffffffffffffffffffffffffffffff168373ffffffffffffffffffffffffffffffffffffffff1603611e2f57806040517f7e273289000000000000000000000000000000000000000000000000000000008152600401611e269190612393565b60405180910390fd5b81816040517f177e802f000000000000000000000000000000000000000000000000000000008152600401611e659291906129f5565b60405180910390fd5b505050565b5f73ffffffffffffffffffffffffffffffffffffffff168273ffffffffffffffffffffffffffffffffffffffff1603611ee3575f6040517f64a0ae92000000000000000000000000000000000000000000000000000000008152600401611eda9190612303565b60405180910390fd5b5f611eef83835f610da0565b90505f73ffffffffffffffffffffffffffffffffffffffff168173ffffffffffffffffffffffffffffffffffffffff1614611f61575f6040517f73c6ac6e000000000000000000000000000000000000000000000000000000008152600401611f589190612303565b60405180910390fd5b505050565b5f8073ffffffffffffffffffffffffffffffffffffffff168373ffffffffffffffffffffffffffffffffffffffff161415801561201d57508273ffffffffffffffffffffffffffffffffffffffff168473ffffffffffffffffffffffffffffffffffffffff161480611fde5750611fdd8484610ad4565b5b8061201c57508273ffffffffffffffffffffffffffffffffffffffff1661200483610d4e565b73ffffffffffffffffffffffffffffffffffffffff16145b5b90509392505050565b828054828255905f5260205f2090810192821561206c579160200282015b8281111561206b57825182908161205b9190612dd8565b5091602001919060010190612044565b5b509050612079919061207d565b5090565b5b8082111561209c575f818161209391906120a0565b5060010161207e565b5090565b5080546120ac90612990565b5f825580601f106120bd57506120da565b601f0160209004905f5260205f20908101906120d991906120dd565b5b50565b5b808211156120f4575f815f9055506001016120de565b5090565b5f604051905090565b5f80fd5b5f80fd5b5f7fffffffff0000000000000000000000000000000000000000000000000000000082169050919050565b61213d81612109565b8114612147575f80fd5b50565b5f8135905061215881612134565b92915050565b5f6020828403121561217357612172612101565b5b5f6121808482850161214a565b91505092915050565b5f8115159050919050565b61219d81612189565b82525050565b5f6020820190506121b65f830184612194565b92915050565b5f81519050919050565b5f82825260208201905092915050565b5f5b838110156121f35780820151818401526020810190506121d8565b5f8484015250505050565b5f601f19601f8301169050919050565b5f612218826121bc565b61222281856121c6565b93506122328185602086016121d6565b61223b816121fe565b840191505092915050565b5f6020820190508181035f83015261225e818461220e565b905092915050565b5f819050919050565b61227881612266565b8114612282575f80fd5b50565b5f813590506122938161226f565b92915050565b5f602082840312156122ae576122ad612101565b5b5f6122bb84828501612285565b91505092915050565b5f73ffffffffffffffffffffffffffffffffffffffff82169050919050565b5f6122ed826122c4565b9050919050565b6122fd816122e3565b82525050565b5f6020820190506123165f8301846122f4565b92915050565b612325816122e3565b811461232f575f80fd5b50565b5f813590506123408161231c565b92915050565b5f806040838503121561235c5761235b612101565b5b5f61236985828601612332565b925050602061237a85828601612285565b9150509250929050565b61238d81612266565b82525050565b5f6020820190506123a65f830184612384565b92915050565b5f805f606084860312156123c3576123c2612101565b5b5f6123d086828701612332565b93505060206123e186828701612332565b92505060406123f286828701612285565b9150509250925092565b5f81519050919050565b5f82825260208201905092915050565b5f819050602082019050919050565b5f82825260208201905092915050565b5f61243f826121bc565b6124498185612425565b93506124598185602086016121d6565b612462816121fe565b840191505092915050565b5f6124788383612435565b905092915050565b5f602082019050919050565b5f612496826123fc565b6124a08185612406565b9350836020820285016124b285612416565b805f5b858110156124ed57848403895281516124ce858261246d565b94506124d983612480565b925060208a019950506001810190506124b5565b50829750879550505050505092915050565b5f6020820190508181035f830152612517818461248c565b905092915050565b5f6020828403121561253457612533612101565b5b5f61254184828501612332565b91505092915050565b61255381612189565b811461255d575f80fd5b50565b5f8135905061256e8161254a565b92915050565b5f806040838503121561258a57612589612101565b5b5f61259785828601612332565b92505060206125a885828601612560565b9150509250929050565b5f80fd5b5f80fd5b7f4e487b71000000000000000000000000000000000000000000000000000000005f52604160045260245ffd5b6125f0826121fe565b810181811067ffffffffffffffff8211171561260f5761260e6125ba565b5b80604052505050565b5f6126216120f8565b905061262d82826125e7565b919050565b5f67ffffffffffffffff82111561264c5761264b6125ba565b5b612655826121fe565b9050602081019050919050565b828183375f83830152505050565b5f61268261267d84612632565b612618565b90508281526020810184848401111561269e5761269d6125b6565b5b6126a9848285612662565b509392505050565b5f82601f8301126126c5576126c46125b2565b5b81356126d5848260208601612670565b91505092915050565b5f805f80608085870312156126f6576126f5612101565b5b5f61270387828801612332565b945050602061271487828801612332565b935050604061272587828801612285565b925050606085013567ffffffffffffffff81111561274657612745612105565b5b612752878288016126b1565b91505092959194509250565b5f67ffffffffffffffff821115612778576127776125ba565b5b602082029050602081019050919050565b5f80fd5b5f67ffffffffffffffff8211156127a7576127a66125ba565b5b6127b0826121fe565b9050602081019050919050565b5f6127cf6127ca8461278d565b612618565b9050828152602081018484840111156127eb576127ea6125b6565b5b6127f6848285612662565b509392505050565b5f82601f830112612812576128116125b2565b5b81356128228482602086016127bd565b91505092915050565b5f61283d6128388461275e565b612618565b905080838252602082019050602084028301858111156128605761285f612789565b5b835b818110156128a757803567ffffffffffffffff811115612885576128846125b2565b5b80860161289289826127fe565b85526020850194505050602081019050612862565b5050509392505050565b5f82601f8301126128c5576128c46125b2565b5b81356128d584826020860161282b565b91505092915050565b5f602082840312156128f3576128f2612101565b5b5f82013567ffffffffffffffff8111156129105761290f612105565b5b61291c848285016128b1565b91505092915050565b5f806040838503121561293b5761293a612101565b5b5f61294885828601612332565b925050602061295985828601612332565b9150509250929050565b7f4e487b71000000000000000000000000000000000000000000000000000000005f52602260045260245ffd5b5f60028204905060018216806129a757607f821691505b6020821081036129ba576129b9612963565b5b50919050565b5f6060820190506129d35f8301866122f4565b6129e06020830185612384565b6129ed60408301846122f4565b949350505050565b5f604082019050612a085f8301856122f4565b612a156020830184612384565b9392505050565b7f4e487b71000000000000000000000000000000000000000000000000000000005f52603260045260245ffd5b5f81905092915050565b5f612a5d826121bc565b612a678185612a49565b9350612a778185602086016121d6565b80840191505092915050565b5f612a8e8285612a53565b9150612a9a8284612a53565b91508190509392505050565b5f81519050919050565b5f82825260208201905092915050565b5f612aca82612aa6565b612ad48185612ab0565b9350612ae48185602086016121d6565b612aed816121fe565b840191505092915050565b5f608082019050612b0b5f8301876122f4565b612b1860208301866122f4565b612b256040830185612384565b8181036060830152612b378184612ac0565b905095945050505050565b5f81519050612b5081612134565b92915050565b5f60208284031215612b6b57612b6a612101565b5b5f612b7884828501612b42565b91505092915050565b7f4e487b71000000000000000000000000000000000000000000000000000000005f52601260045260245ffd5b7f4e487b71000000000000000000000000000000000000000000000000000000005f52601160045260245ffd5b5f612be582612266565b9150612bf083612266565b9250828203905081811115612c0857612c07612bae565b5b92915050565b7f4e487b71000000000000000000000000000000000000000000000000000000005f52603160045260245ffd5b5f819050815f5260205f209050919050565b5f6020601f8301049050919050565b5f82821b905092915050565b5f60088302612c977fffffffffffffffffffffffffffffffffffffffffffffffffffffffffffffffff82612c5c565b612ca18683612c5c565b95508019841693508086168417925050509392505050565b5f819050919050565b5f612cdc612cd7612cd284612266565b612cb9565b612266565b9050919050565b5f819050919050565b612cf583612cc2565b612d09612d0182612ce3565b848454612c68565b825550505050565b5f90565b612d1d612d11565b612d28818484612cec565b505050565b5b81811015612d4b57612d405f82612d15565b600181019050612d2e565b5050565b601f821115612d9057612d6181612c3b565b612d6a84612c4d565b81016020851015612d79578190505b612d8d612d8585612c4d565b830182612d2d565b50505b505050565b5f82821c905092915050565b5f612db05f1984600802612d95565b1980831691505092915050565b5f612dc88383612da1565b9150826002028217905092915050565b612de1826121bc565b67ffffffffffffffff811115612dfa57612df96125ba565b5b612e048254612990565b612e0f828285612d4f565b5f60209050601f831160018114612e40575f8415612e2e578287015190505b612e388582612dbd565b865550612e9f565b601f198416612e4e86612c3b565b5f5b82811015612e7557848901518255600182019150602085019450602081019050612e50565b86831015612e925784890151612e8e601f891682612da1565b8355505b6001600288020188555050505b50505050505056fea2646970667358221220e06809d39f80a7006582920d1d879ae3c27af9cb995beca63c3b95262bd5dd3264736f6c63430008180033",
					"opcodes": "PUSH1 0x80 PUSH1 0x40 MSTORE CALLVALUE DUP1 ISZERO PUSH3 0x10 JUMPI PUSH0 DUP1 REVERT JUMPDEST POP PUSH1 0x40 MLOAD DUP1 PUSH1 0x40 ADD PUSH1 0x40 MSTORE DUP1 PUSH1 0x8 DUP2 MSTORE PUSH1 0x20 ADD PUSH32 0x646F7562696D616F000000000000000000000000000000000000000000000000 DUP2 MSTORE POP PUSH1 0x40 MLOAD DUP1 PUSH1 0x40 ADD PUSH1 0x40 MSTORE DUP1 PUSH1 0x8 DUP2 MSTORE PUSH1 0x20 ADD PUSH32 0x646F7562696D616F000000000000000000000000000000000000000000000000 DUP2 MSTORE POP CALLER PUSH0 PUSH20 0xFFFFFFFFFFFFFFFFFFFFFFFFFFFFFFFFFFFFFFFF AND DUP2 PUSH20 0xFFFFFFFFFFFFFFFFFFFFFFFFFFFFFFFFFFFFFFFF AND SUB PUSH3 0xF1 JUMPI PUSH0 PUSH1 0x40 MLOAD PUSH32 0x1E4FBDF700000000000000000000000000000000000000000000000000000000 DUP2 MSTORE PUSH1 0x4 ADD PUSH3 0xE8 SWAP2 SWAP1 PUSH3 0x233 JUMP JUMPDEST PUSH1 0x40 MLOAD DUP1 SWAP2 SUB SWAP1 REVERT JUMPDEST PUSH3 0x102 DUP2 PUSH3 0x12F PUSH1 0x20 SHL PUSH1 0x20 SHR JUMP JUMPDEST POP DUP2 PUSH1 0x2 SWAP1 DUP2 PUSH3 0x114 SWAP2 SWAP1 PUSH3 0x4B2 JUMP JUMPDEST POP DUP1 PUSH1 0x3 SWAP1 DUP2 PUSH3 0x126 SWAP2 SWAP1 PUSH3 0x4B2 JUMP JUMPDEST POP POP POP PUSH3 0x596 JUMP JUMPDEST PUSH0 DUP1 PUSH0 SWAP1 SLOAD SWAP1 PUSH2 0x100 EXP SWAP1 DIV PUSH20 0xFFFFFFFFFFFFFFFFFFFFFFFFFFFFFFFFFFFFFFFF AND SWAP1 POP DUP2 PUSH0 DUP1 PUSH2 0x100 EXP DUP2 SLOAD DUP2 PUSH20 0xFFFFFFFFFFFFFFFFFFFFFFFFFFFFFFFFFFFFFFFF MUL NOT AND SWAP1 DUP4 PUSH20 0xFFFFFFFFFFFFFFFFFFFFFFFFFFFFFFFFFFFFFFFF AND MUL OR SWAP1 SSTORE POP DUP2 PUSH20 0xFFFFFFFFFFFFFFFFFFFFFFFFFFFFFFFFFFFFFFFF AND DUP2 PUSH20 0xFFFFFFFFFFFFFFFFFFFFFFFFFFFFFFFFFFFFFFFF AND PUSH32 0x8BE0079C531659141344CD1FD0A4F28419497F9722A3DAAFE3B4186F6B6457E0 PUSH1 0x40 MLOAD PUSH1 0x40 MLOAD DUP1 SWAP2 SUB SWAP1 LOG3 POP POP JUMP JUMPDEST PUSH0 PUSH20 0xFFFFFFFFFFFFFFFFFFFFFFFFFFFFFFFFFFFFFFFF DUP3 AND SWAP1 POP SWAP2 SWAP1 POP JUMP JUMPDEST PUSH0 PUSH3 0x21B DUP3 PUSH3 0x1F0 JUMP JUMPDEST SWAP1 POP SWAP2 SWAP1 POP JUMP JUMPDEST PUSH3 0x22D DUP2 PUSH3 0x20F JUMP JUMPDEST DUP3 MSTORE POP POP JUMP JUMPDEST PUSH0 PUSH1 0x20 DUP3 ADD SWAP1 POP PUSH3 0x248 PUSH0 DUP4 ADD DUP5 PUSH3 0x222 JUMP JUMPDEST SWAP3 SWAP2 POP POP JUMP JUMPDEST PUSH0 DUP2 MLOAD SWAP1 POP SWAP2 SWAP1 POP JUMP JUMPDEST PUSH32 0x4E487B7100000000000000000000000000000000000000000000000000000000 PUSH0 MSTORE PUSH1 0x41 PUSH1 0x4 MSTORE PUSH1 0x24 PUSH0 REVERT JUMPDEST PUSH32 0x4E487B7100000000000000000000000000000000000000000000000000000000 PUSH0 MSTORE PUSH1 0x22 PUSH1 0x4 MSTORE PUSH1 0x24 PUSH0 REVERT JUMPDEST PUSH0 PUSH1 0x2 DUP3 DIV SWAP1 POP PUSH1 0x1 DUP3 AND DUP1 PUSH3 0x2CA JUMPI PUSH1 0x7F DUP3 AND SWAP2 POP JUMPDEST PUSH1 0x20 DUP3 LT DUP2 SUB PUSH3 0x2E0 JUMPI PUSH3 0x2DF PUSH3 0x285 JUMP JUMPDEST JUMPDEST POP SWAP2 SWAP1 POP JUMP JUMPDEST PUSH0 DUP2 SWAP1 POP DUP2 PUSH0 MSTORE PUSH1 0x20 PUSH0 KECCAK256 SWAP1 POP SWAP2 SWAP1 POP JUMP JUMPDEST PUSH0 PUSH1 0x20 PUSH1 0x1F DUP4 ADD DIV SWAP1 POP SWAP2 SWAP1 POP JUMP JUMPDEST PUSH0 DUP3 DUP3 SHL SWAP1 POP SWAP3 SWAP2 POP POP JUMP JUMPDEST PUSH0 PUSH1 0x8 DUP4 MUL PUSH3 0x344 PUSH32 0xFFFFFFFFFFFFFFFFFFFFFFFFFFFFFFFFFFFFFFFFFFFFFFFFFFFFFFFFFFFFFFFF DUP3 PUSH3 0x307 JUMP JUMPDEST PUSH3 0x350 DUP7 DUP4 PUSH3 0x307 JUMP JUMPDEST SWAP6 POP DUP1 NOT DUP5 AND SWAP4 POP DUP1 DUP7 AND DUP5 OR SWAP3 POP POP POP SWAP4 SWAP3 POP POP POP JUMP JUMPDEST PUSH0 DUP2 SWAP1 POP SWAP2 SWAP1 POP JUMP JUMPDEST PUSH0 DUP2 SWAP1 POP SWAP2 SWAP1 POP JUMP JUMPDEST PUSH0 PUSH3 0x39A PUSH3 0x394 PUSH3 0x38E DUP5 PUSH3 0x368 JUMP JUMPDEST PUSH3 0x371 JUMP JUMPDEST PUSH3 0x368 JUMP JUMPDEST SWAP1 POP SWAP2 SWAP1 POP JUMP JUMPDEST PUSH0 DUP2 SWAP1 POP SWAP2 SWAP1 POP JUMP JUMPDEST PUSH3 0x3B5 DUP4 PUSH3 0x37A JUMP JUMPDEST PUSH3 0x3CD PUSH3 0x3C4 DUP3 PUSH3 0x3A1 JUMP JUMPDEST DUP5 DUP5 SLOAD PUSH3 0x313 JUMP JUMPDEST DUP3 SSTORE POP POP POP POP JUMP JUMPDEST PUSH0 SWAP1 JUMP JUMPDEST PUSH3 0x3E3 PUSH3 0x3D5 JUMP JUMPDEST PUSH3 0x3F0 DUP2 DUP5 DUP5 PUSH3 0x3AA JUMP JUMPDEST POP POP POP JUMP JUMPDEST JUMPDEST DUP2 DUP2 LT ISZERO PUSH3 0x417 JUMPI PUSH3 0x40B PUSH0 DUP3 PUSH3 0x3D9 JUMP JUMPDEST PUSH1 0x1 DUP2 ADD SWAP1 POP PUSH3 0x3F6 JUMP JUMPDEST POP POP JUMP JUMPDEST PUSH1 0x1F DUP3 GT ISZERO PUSH3 0x466 JUMPI PUSH3 0x430 DUP2 PUSH3 0x2E6 JUMP JUMPDEST PUSH3 0x43B DUP5 PUSH3 0x2F8 JUMP JUMPDEST DUP2 ADD PUSH1 0x20 DUP6 LT ISZERO PUSH3 0x44B JUMPI DUP2 SWAP1 POP JUMPDEST PUSH3 0x463 PUSH3 0x45A DUP6 PUSH3 0x2F8 JUMP JUMPDEST DUP4 ADD DUP3 PUSH3 0x3F5 JUMP JUMPDEST POP POP JUMPDEST POP POP POP JUMP JUMPDEST PUSH0 DUP3 DUP3 SHR SWAP1 POP SWAP3 SWAP2 POP POP JUMP JUMPDEST PUSH0 PUSH3 0x488 PUSH0 NOT DUP5 PUSH1 0x8 MUL PUSH3 0x46B JUMP JUMPDEST NOT DUP1 DUP4 AND SWAP2 POP POP SWAP3 SWAP2 POP POP JUMP JUMPDEST PUSH0 PUSH3 0x4A2 DUP4 DUP4 PUSH3 0x477 JUMP JUMPDEST SWAP2 POP DUP3 PUSH1 0x2 MUL DUP3 OR SWAP1 POP SWAP3 SWAP2 POP POP JUMP JUMPDEST PUSH3 0x4BD DUP3 PUSH3 0x24E JUMP JUMPDEST PUSH8 0xFFFFFFFFFFFFFFFF DUP2 GT ISZERO PUSH3 0x4D9 JUMPI PUSH3 0x4D8 PUSH3 0x258 JUMP JUMPDEST JUMPDEST PUSH3 0x4E5 DUP3 SLOAD PUSH3 0x2B2 JUMP JUMPDEST PUSH3 0x4F2 DUP3 DUP3 DUP6 PUSH3 0x41B JUMP JUMPDEST PUSH0 PUSH1 0x20 SWAP1 POP PUSH1 0x1F DUP4 GT PUSH1 0x1 DUP2 EQ PUSH3 0x528 JUMPI PUSH0 DUP5 ISZERO PUSH3 0x513 JUMPI DUP3 DUP8 ADD MLOAD SWAP1 POP JUMPDEST PUSH3 0x51F DUP6 DUP3 PUSH3 0x495 JUMP JUMPDEST DUP7 SSTORE POP PUSH3 0x58E JUMP JUMPDEST PUSH1 0x1F NOT DUP5 AND PUSH3 0x538 DUP7 PUSH3 0x2E6 JUMP JUMPDEST PUSH0 JUMPDEST DUP3 DUP2 LT ISZERO PUSH3 0x561 JUMPI DUP5 DUP10 ADD MLOAD DUP3 SSTORE PUSH1 0x1 DUP3 ADD SWAP2 POP PUSH1 0x20 DUP6 ADD SWAP5 POP PUSH1 0x20 DUP2 ADD SWAP1 POP PUSH3 0x53A JUMP JUMPDEST DUP7 DUP4 LT ISZERO PUSH3 0x581 JUMPI DUP5 DUP10 ADD MLOAD PUSH3 0x57D PUSH1 0x1F DUP10 AND DUP3 PUSH3 0x477 JUMP JUMPDEST DUP4 SSTORE POP JUMPDEST PUSH1 0x1 PUSH1 0x2 DUP9 MUL ADD DUP9 SSTORE POP POP POP JUMPDEST POP POP POP POP POP POP JUMP JUMPDEST PUSH2 0x2EDD DUP1 PUSH3 0x5A4 PUSH0 CODECOPY PUSH0 RETURN INVALID PUSH1 0x80 PUSH1 0x40 MSTORE CALLVALUE DUP1 ISZERO PUSH2 0xF JUMPI PUSH0 DUP1 REVERT JUMPDEST POP PUSH1 0x4 CALLDATASIZE LT PUSH2 0x140 JUMPI PUSH0 CALLDATALOAD PUSH1 0xE0 SHR DUP1 PUSH4 0x70A08231 GT PUSH2 0xB6 JUMPI DUP1 PUSH4 0xA22CB465 GT PUSH2 0x7A JUMPI DUP1 PUSH4 0xA22CB465 EQ PUSH2 0x374 JUMPI DUP1 PUSH4 0xB88D4FDE EQ PUSH2 0x390 JUMPI DUP1 PUSH4 0xC87B56DD EQ PUSH2 0x3AC JUMPI DUP1 PUSH4 0xE3D61EB3 EQ PUSH2 0x3DC JUMPI DUP1 PUSH4 0xE985E9C5 EQ PUSH2 0x3F8 JUMPI DUP1 PUSH4 0xF2FDE38B EQ PUSH2 0x428 JUMPI PUSH2 0x140 JUMP JUMPDEST DUP1 PUSH4 0x70A08231 EQ PUSH2 0x2E2 JUMPI DUP1 PUSH4 0x715018A6 EQ PUSH2 0x312 JUMPI DUP1 PUSH4 0x8DA5CB5B EQ PUSH2 0x31C JUMPI DUP1 PUSH4 0x95D89B41 EQ PUSH2 0x33A JUMPI DUP1 PUSH4 0xA1448194 EQ PUSH2 0x358 JUMPI PUSH2 0x140 JUMP JUMPDEST DUP1 PUSH4 0x23B872DD GT PUSH2 0x108 JUMPI DUP1 PUSH4 0x23B872DD EQ PUSH2 0x1FC JUMPI DUP1 PUSH4 0x2F745C59 EQ PUSH2 0x218 JUMPI DUP1 PUSH4 0x42842E0E EQ PUSH2 0x248 JUMPI DUP1 PUSH4 0x4BB30912 EQ PUSH2 0x264 JUMPI DUP1 PUSH4 0x4F6CCCE7 EQ PUSH2 0x282 JUMPI DUP1 PUSH4 0x6352211E EQ PUSH2 0x2B2 JUMPI PUSH2 0x140 JUMP JUMPDEST DUP1 PUSH4 0x1FFC9A7 EQ PUSH2 0x144 JUMPI DUP1 PUSH4 0x6FDDE03 EQ PUSH2 0x174 JUMPI DUP1 PUSH4 0x81812FC EQ PUSH2 0x192 JUMPI DUP1 PUSH4 0x95EA7B3 EQ PUSH2 0x1C2 JUMPI DUP1 PUSH4 0x18160DDD EQ PUSH2 0x1DE JUMPI JUMPDEST PUSH0 DUP1 REVERT JUMPDEST PUSH2 0x15E PUSH1 0x4 DUP1 CALLDATASIZE SUB DUP2 ADD SWAP1 PUSH2 0x159 SWAP2 SWAP1 PUSH2 0x215E JUMP JUMPDEST PUSH2 0x444 JUMP JUMPDEST PUSH1 0x40 MLOAD PUSH2 0x16B SWAP2 SWAP1 PUSH2 0x21A3 JUMP JUMPDEST PUSH1 0x40 MLOAD DUP1 SWAP2 SUB SWAP1 RETURN JUMPDEST PUSH2 0x17C PUSH2 0x465 JUMP JUMPDEST PUSH1 0x40 MLOAD PUSH2 0x189 SWAP2 SWAP1 PUSH2 0x2246 JUMP JUMPDEST PUSH1 0x40 MLOAD DUP1 SWAP2 SUB SWAP1 RETURN JUMPDEST PUSH2 0x1AC PUSH1 0x4 DUP1 CALLDATASIZE SUB DUP2 ADD SWAP1 PUSH2 0x1A7 SWAP2 SWAP1 PUSH2 0x2299 JUMP JUMPDEST PUSH2 0x4F5 JUMP JUMPDEST PUSH1 0x40 MLOAD PUSH2 0x1B9 SWAP2 SWAP1 PUSH2 0x2303 JUMP JUMPDEST PUSH1 0x40 MLOAD DUP1 SWAP2 SUB SWAP1 RETURN JUMPDEST PUSH2 0x1DC PUSH1 0x4 DUP1 CALLDATASIZE SUB DUP2 ADD SWAP1 PUSH2 0x1D7 SWAP2 SWAP1 PUSH2 0x2346 JUMP JUMPDEST PUSH2 0x510 JUMP JUMPDEST STOP JUMPDEST PUSH2 0x1E6 PUSH2 0x526 JUMP JUMPDEST PUSH1 0x40 MLOAD PUSH2 0x1F3 SWAP2 SWAP1 PUSH2 0x2393 JUMP JUMPDEST PUSH1 0x40 MLOAD DUP1 SWAP2 SUB SWAP1 RETURN JUMPDEST PUSH2 0x216 PUSH1 0x4 DUP1 CALLDATASIZE SUB DUP2 ADD SWAP1 PUSH2 0x211 SWAP2 SWAP1 PUSH2 0x23AC JUMP JUMPDEST PUSH2 0x532 JUMP JUMPDEST STOP JUMPDEST PUSH2 0x232 PUSH1 0x4 DUP1 CALLDATASIZE SUB DUP2 ADD SWAP1 PUSH2 0x22D SWAP2 SWAP1 PUSH2 0x2346 JUMP JUMPDEST PUSH2 0x631 JUMP JUMPDEST PUSH1 0x40 MLOAD PUSH2 0x23F SWAP2 SWAP1 PUSH2 0x2393 JUMP JUMPDEST PUSH1 0x40 MLOAD DUP1 SWAP2 SUB SWAP1 RETURN JUMPDEST PUSH2 0x262 PUSH1 0x4 DUP1 CALLDATASIZE SUB DUP2 ADD SWAP1 PUSH2 0x25D SWAP2 SWAP1 PUSH2 0x23AC JUMP JUMPDEST PUSH2 0x6D5 JUMP JUMPDEST STOP JUMPDEST PUSH2 0x26C PUSH2 0x6F4 JUMP JUMPDEST PUSH1 0x40 MLOAD PUSH2 0x279 SWAP2 SWAP1 PUSH2 0x24FF JUMP JUMPDEST PUSH1 0x40 MLOAD DUP1 SWAP2 SUB SWAP1 RETURN JUMPDEST PUSH2 0x29C PUSH1 0x4 DUP1 CALLDATASIZE SUB DUP2 ADD SWAP1 PUSH2 0x297 SWAP2 SWAP1 PUSH2 0x2299 JUMP JUMPDEST PUSH2 0x7C8 JUMP JUMPDEST PUSH1 0x40 MLOAD PUSH2 0x2A9 SWAP2 SWAP1 PUSH2 0x2393 JUMP JUMPDEST PUSH1 0x40 MLOAD DUP1 SWAP2 SUB SWAP1 RETURN JUMPDEST PUSH2 0x2CC PUSH1 0x4 DUP1 CALLDATASIZE SUB DUP2 ADD SWAP1 PUSH2 0x2C7 SWAP2 SWAP1 PUSH2 0x2299 JUMP JUMPDEST PUSH2 0x83A JUMP JUMPDEST PUSH1 0x40 MLOAD PUSH2 0x2D9 SWAP2 SWAP1 PUSH2 0x2303 JUMP JUMPDEST PUSH1 0x40 MLOAD DUP1 SWAP2 SUB SWAP1 RETURN JUMPDEST PUSH2 0x2FC PUSH1 0x4 DUP1 CALLDATASIZE SUB DUP2 ADD SWAP1 PUSH2 0x2F7 SWAP2 SWAP1 PUSH2 0x251F JUMP JUMPDEST PUSH2 0x84B JUMP JUMPDEST PUSH1 0x40 MLOAD PUSH2 0x309 SWAP2 SWAP1 PUSH2 0x2393 JUMP JUMPDEST PUSH1 0x40 MLOAD DUP1 SWAP2 SUB SWAP1 RETURN JUMPDEST PUSH2 0x31A PUSH2 0x901 JUMP JUMPDEST STOP JUMPDEST PUSH2 0x324 PUSH2 0x914 JUMP JUMPDEST PUSH1 0x40 MLOAD PUSH2 0x331 SWAP2 SWAP1 PUSH2 0x2303 JUMP JUMPDEST PUSH1 0x40 MLOAD DUP1 SWAP2 SUB SWAP1 RETURN JUMPDEST PUSH2 0x342 PUSH2 0x93B JUMP JUMPDEST PUSH1 0x40 MLOAD PUSH2 0x34F SWAP2 SWAP1 PUSH2 0x2246 JUMP JUMPDEST PUSH1 0x40 MLOAD DUP1 SWAP2 SUB SWAP1 RETURN JUMPDEST PUSH2 0x372 PUSH1 0x4 DUP1 CALLDATASIZE SUB DUP2 ADD SWAP1 PUSH2 0x36D SWAP2 SWAP1 PUSH2 0x2346 JUMP JUMPDEST PUSH2 0x9CB JUMP JUMPDEST STOP JUMPDEST PUSH2 0x38E PUSH1 0x4 DUP1 CALLDATASIZE SUB DUP2 ADD SWAP1 PUSH2 0x389 SWAP2 SWAP1 PUSH2 0x2574 JUMP JUMPDEST PUSH2 0x9E1 JUMP JUMPDEST STOP JUMPDEST PUSH2 0x3AA PUSH1 0x4 DUP1 CALLDATASIZE SUB DUP2 ADD SWAP1 PUSH2 0x3A5 SWAP2 SWAP1 PUSH2 0x26DE JUMP JUMPDEST PUSH2 0x9F7 JUMP JUMPDEST STOP JUMPDEST PUSH2 0x3C6 PUSH1 0x4 DUP1 CALLDATASIZE SUB DUP2 ADD SWAP1 PUSH2 0x3C1 SWAP2 SWAP1 PUSH2 0x2299 JUMP JUMPDEST PUSH2 0xA14 JUMP JUMPDEST PUSH1 0x40 MLOAD PUSH2 0x3D3 SWAP2 SWAP1 PUSH2 0x2246 JUMP JUMPDEST PUSH1 0x40 MLOAD DUP1 SWAP2 SUB SWAP1 RETURN JUMPDEST PUSH2 0x3F6 PUSH1 0x4 DUP1 CALLDATASIZE SUB DUP2 ADD SWAP1 PUSH2 0x3F1 SWAP2 SWAP1 PUSH2 0x28DE JUMP JUMPDEST PUSH2 0xA7A JUMP JUMPDEST STOP JUMPDEST PUSH2 0x412 PUSH1 0x4 DUP1 CALLDATASIZE SUB DUP2 ADD SWAP1 PUSH2 0x40D SWAP2 SWAP1 PUSH2 0x2925 JUMP JUMPDEST PUSH2 0xAD4 JUMP JUMPDEST PUSH1 0x40 MLOAD PUSH2 0x41F SWAP2 SWAP1 PUSH2 0x21A3 JUMP JUMPDEST PUSH1 0x40 MLOAD DUP1 SWAP2 SUB SWAP1 RETURN JUMPDEST PUSH2 0x442 PUSH1 0x4 DUP1 CALLDATASIZE SUB DUP2 ADD SWAP1 PUSH2 0x43D SWAP2 SWAP1 PUSH2 0x251F JUMP JUMPDEST PUSH2 0xB62 JUMP JUMPDEST STOP JUMPDEST PUSH0 PUSH2 0x44E DUP3 PUSH2 0xBE6 JUMP JUMPDEST DUP1 PUSH2 0x45E JUMPI POP PUSH2 0x45D DUP3 PUSH2 0xC5F JUMP JUMPDEST JUMPDEST SWAP1 POP SWAP2 SWAP1 POP JUMP JUMPDEST PUSH1 0x60 PUSH1 0x2 DUP1 SLOAD PUSH2 0x474 SWAP1 PUSH2 0x2990 JUMP JUMPDEST DUP1 PUSH1 0x1F ADD PUSH1 0x20 DUP1 SWAP2 DIV MUL PUSH1 0x20 ADD PUSH1 0x40 MLOAD SWAP1 DUP2 ADD PUSH1 0x40 MSTORE DUP1 SWAP3 SWAP2 SWAP1 DUP2 DUP2 MSTORE PUSH1 0x20 ADD DUP3 DUP1 SLOAD PUSH2 0x4A0 SWAP1 PUSH2 0x2990 JUMP JUMPDEST DUP1 ISZERO PUSH2 0x4EB JUMPI DUP1 PUSH1 0x1F LT PUSH2 0x4C2 JUMPI PUSH2 0x100 DUP1 DUP4 SLOAD DIV MUL DUP4 MSTORE SWAP2 PUSH1 0x20 ADD SWAP2 PUSH2 0x4EB JUMP JUMPDEST DUP3 ADD SWAP2 SWAP1 PUSH0 MSTORE PUSH1 0x20 PUSH0 KECCAK256 SWAP1 JUMPDEST DUP2 SLOAD DUP2 MSTORE SWAP1 PUSH1 0x1 ADD SWAP1 PUSH1 0x20 ADD DUP1 DUP4 GT PUSH2 0x4CE JUMPI DUP3 SWAP1 SUB PUSH1 0x1F AND DUP3 ADD SWAP2 JUMPDEST POP POP POP POP POP SWAP1 POP SWAP1 JUMP JUMPDEST PUSH0 PUSH2 0x4FF DUP3 PUSH2 0xCC8 JUMP JUMPDEST POP PUSH2 0x509 DUP3 PUSH2 0xD4E JUMP JUMPDEST SWAP1 POP SWAP2 SWAP1 POP JUMP JUMPDEST PUSH2 0x522 DUP3 DUP3 PUSH2 0x51D PUSH2 0xD87 JUMP JUMPDEST PUSH2 0xD8E JUMP JUMPDEST POP POP JUMP JUMPDEST PUSH0 PUSH1 0xA DUP1 SLOAD SWAP1 POP SWAP1 POP SWAP1 JUMP JUMPDEST PUSH0 PUSH20 0xFFFFFFFFFFFFFFFFFFFFFFFFFFFFFFFFFFFFFFFF AND DUP3 PUSH20 0xFFFFFFFFFFFFFFFFFFFFFFFFFFFFFFFFFFFFFFFF AND SUB PUSH2 0x5A2 JUMPI PUSH0 PUSH1 0x40 MLOAD PUSH32 0x64A0AE9200000000000000000000000000000000000000000000000000000000 DUP2 MSTORE PUSH1 0x4 ADD PUSH2 0x599 SWAP2 SWAP1 PUSH2 0x2303 JUMP JUMPDEST PUSH1 0x40 MLOAD DUP1 SWAP2 SUB SWAP1 REVERT JUMPDEST PUSH0 PUSH2 0x5B5 DUP4 DUP4 PUSH2 0x5B0 PUSH2 0xD87 JUMP JUMPDEST PUSH2 0xDA0 JUMP JUMPDEST SWAP1 POP DUP4 PUSH20 0xFFFFFFFFFFFFFFFFFFFFFFFFFFFFFFFFFFFFFFFF AND DUP2 PUSH20 0xFFFFFFFFFFFFFFFFFFFFFFFFFFFFFFFFFFFFFFFF AND EQ PUSH2 0x62B JUMPI DUP4 DUP3 DUP3 PUSH1 0x40 MLOAD PUSH32 0x64283D7B00000000000000000000000000000000000000000000000000000000 DUP2 MSTORE PUSH1 0x4 ADD PUSH2 0x622 SWAP4 SWAP3 SWAP2 SWAP1 PUSH2 0x29C0 JUMP JUMPDEST PUSH1 0x40 MLOAD DUP1 SWAP2 SUB SWAP1 REVERT JUMPDEST POP POP POP POP JUMP JUMPDEST PUSH0 PUSH2 0x63B DUP4 PUSH2 0x84B JUMP JUMPDEST DUP3 LT PUSH2 0x680 JUMPI DUP3 DUP3 PUSH1 0x40 MLOAD PUSH32 0xA57D13DC00000000000000000000000000000000000000000000000000000000 DUP2 MSTORE PUSH1 0x4 ADD PUSH2 0x677 SWAP3 SWAP2 SWAP1 PUSH2 0x29F5 JUMP JUMPDEST PUSH1 0x40 MLOAD DUP1 SWAP2 SUB SWAP1 REVERT JUMPDEST PUSH1 0x8 PUSH0 DUP5 PUSH20 0xFFFFFFFFFFFFFFFFFFFFFFFFFFFFFFFFFFFFFFFF AND PUSH20 0xFFFFFFFFFFFFFFFFFFFFFFFFFFFFFFFFFFFFFFFF AND DUP2 MSTORE PUSH1 0x20 ADD SWAP1 DUP2 MSTORE PUSH1 0x20 ADD PUSH0 KECCAK256 PUSH0 DUP4 DUP2 MSTORE PUSH1 0x20 ADD SWAP1 DUP2 MSTORE PUSH1 0x20 ADD PUSH0 KECCAK256 SLOAD SWAP1 POP SWAP3 SWAP2 POP POP JUMP JUMPDEST PUSH2 0x6EF DUP4 DUP4 DUP4 PUSH1 0x40 MLOAD DUP1 PUSH1 0x20 ADD PUSH1 0x40 MSTORE DUP1 PUSH0 DUP2 MSTORE POP PUSH2 0x9F7 JUMP JUMPDEST POP POP POP JUMP JUMPDEST PUSH1 0x60 PUSH1 0x1 DUP1 SLOAD DUP1 PUSH1 0x20 MUL PUSH1 0x20 ADD PUSH1 0x40 MLOAD SWAP1 DUP2 ADD PUSH1 0x40 MSTORE DUP1 SWAP3 SWAP2 SWAP1 DUP2 DUP2 MSTORE PUSH1 0x20 ADD PUSH0 SWAP1 JUMPDEST DUP3 DUP3 LT ISZERO PUSH2 0x7BF JUMPI DUP4 DUP3 SWAP1 PUSH0 MSTORE PUSH1 0x20 PUSH0 KECCAK256 ADD DUP1 SLOAD PUSH2 0x734 SWAP1 PUSH2 0x2990 JUMP JUMPDEST DUP1 PUSH1 0x1F ADD PUSH1 0x20 DUP1 SWAP2 DIV MUL PUSH1 0x20 ADD PUSH1 0x40 MLOAD SWAP1 DUP2 ADD PUSH1 0x40 MSTORE DUP1 SWAP3 SWAP2 SWAP1 DUP2 DUP2 MSTORE PUSH1 0x20 ADD DUP3 DUP1 SLOAD PUSH2 0x760 SWAP1 PUSH2 0x2990 JUMP JUMPDEST DUP1 ISZERO PUSH2 0x7AB JUMPI DUP1 PUSH1 0x1F LT PUSH2 0x782 JUMPI PUSH2 0x100 DUP1 DUP4 SLOAD DIV MUL DUP4 MSTORE SWAP2 PUSH1 0x20 ADD SWAP2 PUSH2 0x7AB JUMP JUMPDEST DUP3 ADD SWAP2 SWAP1 PUSH0 MSTORE PUSH1 0x20 PUSH0 KECCAK256 SWAP1 JUMPDEST DUP2 SLOAD DUP2 MSTORE SWAP1 PUSH1 0x1 ADD SWAP1 PUSH1 0x20 ADD DUP1 DUP4 GT PUSH2 0x78E JUMPI DUP3 SWAP1 SUB PUSH1 0x1F AND DUP3 ADD SWAP2 JUMPDEST POP POP POP POP POP DUP2 MSTORE PUSH1 0x20 ADD SWAP1 PUSH1 0x1 ADD SWAP1 PUSH2 0x717 JUMP JUMPDEST POP POP POP POP SWAP1 POP SWAP1 JUMP JUMPDEST PUSH0 PUSH2 0x7D1 PUSH2 0x526 JUMP JUMPDEST DUP3 LT PUSH2 0x816 JUMPI PUSH0 DUP3 PUSH1 0x40 MLOAD PUSH32 0xA57D13DC00000000000000000000000000000000000000000000000000000000 DUP2 MSTORE PUSH1 0x4 ADD PUSH2 0x80D SWAP3 SWAP2 SWAP1 PUSH2 0x29F5 JUMP JUMPDEST PUSH1 0x40 MLOAD DUP1 SWAP2 SUB SWAP1 REVERT JUMPDEST PUSH1 0xA DUP3 DUP2 SLOAD DUP2 LT PUSH2 0x82A JUMPI PUSH2 0x829 PUSH2 0x2A1C JUMP JUMPDEST JUMPDEST SWAP1 PUSH0 MSTORE PUSH1 0x20 PUSH0 KECCAK256 ADD SLOAD SWAP1 POP SWAP2 SWAP1 POP JUMP JUMPDEST PUSH0 PUSH2 0x844 DUP3 PUSH2 0xCC8 JUMP JUMPDEST SWAP1 POP SWAP2 SWAP1 POP JUMP JUMPDEST PUSH0 DUP1 PUSH20 0xFFFFFFFFFFFFFFFFFFFFFFFFFFFFFFFFFFFFFFFF AND DUP3 PUSH20 0xFFFFFFFFFFFFFFFFFFFFFFFFFFFFFFFFFFFFFFFF AND SUB PUSH2 0x8BC JUMPI PUSH0 PUSH1 0x40 MLOAD PUSH32 0x89C62B6400000000000000000000000000000000000000000000000000000000 DUP2 MSTORE PUSH1 0x4 ADD PUSH2 0x8B3 SWAP2 SWAP1 PUSH2 0x2303 JUMP JUMPDEST PUSH1 0x40 MLOAD DUP1 SWAP2 SUB SWAP1 REVERT JUMPDEST PUSH1 0x5 PUSH0 DUP4 PUSH20 0xFFFFFFFFFFFFFFFFFFFFFFFFFFFFFFFFFFFFFFFF AND PUSH20 0xFFFFFFFFFFFFFFFFFFFFFFFFFFFFFFFFFFFFFFFF AND DUP2 MSTORE PUSH1 0x20 ADD SWAP1 DUP2 MSTORE PUSH1 0x20 ADD PUSH0 KECCAK256 SLOAD SWAP1 POP SWAP2 SWAP1 POP JUMP JUMPDEST PUSH2 0x909 PUSH2 0xEBA JUMP JUMPDEST PUSH2 0x912 PUSH0 PUSH2 0xF41 JUMP JUMPDEST JUMP JUMPDEST PUSH0 DUP1 PUSH0 SWAP1 SLOAD SWAP1 PUSH2 0x100 EXP SWAP1 DIV PUSH20 0xFFFFFFFFFFFFFFFFFFFFFFFFFFFFFFFFFFFFFFFF AND SWAP1 POP SWAP1 JUMP JUMPDEST PUSH1 0x60 PUSH1 0x3 DUP1 SLOAD PUSH2 0x94A SWAP1 PUSH2 0x2990 JUMP JUMPDEST DUP1 PUSH1 0x1F ADD PUSH1 0x20 DUP1 SWAP2 DIV MUL PUSH1 0x20 ADD PUSH1 0x40 MLOAD SWAP1 DUP2 ADD PUSH1 0x40 MSTORE DUP1 SWAP3 SWAP2 SWAP1 DUP2 DUP2 MSTORE PUSH1 0x20 ADD DUP3 DUP1 SLOAD PUSH2 0x976 SWAP1 PUSH2 0x2990 JUMP JUMPDEST DUP1 ISZERO PUSH2 0x9C1 JUMPI DUP1 PUSH1 0x1F LT PUSH2 0x998 JUMPI PUSH2 0x100 DUP1 DUP4 SLOAD DIV MUL DUP4 MSTORE SWAP2 PUSH1 0x20 ADD SWAP2 PUSH2 0x9C1 JUMP JUMPDEST DUP3 ADD SWAP2 SWAP1 PUSH0 MSTORE PUSH1 0x20 PUSH0 KECCAK256 SWAP1 JUMPDEST DUP2 SLOAD DUP2 MSTORE SWAP1 PUSH1 0x1 ADD SWAP1 PUSH1 0x20 ADD DUP1 DUP4 GT PUSH2 0x9A4 JUMPI DUP3 SWAP1 SUB PUSH1 0x1F AND DUP3 ADD SWAP2 JUMPDEST POP POP POP POP POP SWAP1 POP SWAP1 JUMP JUMPDEST PUSH2 0x9D3 PUSH2 0xEBA JUMP JUMPDEST PUSH2 0x9DD DUP3 DUP3 PUSH2 0x1002 JUMP JUMPDEST POP POP JUMP JUMPDEST PUSH2 0x9F3 PUSH2 0x9EC PUSH2 0xD87 JUMP JUMPDEST DUP4 DUP4 PUSH2 0x101F JUMP JUMPDEST POP POP JUMP JUMPDEST PUSH2 0xA02 DUP5 DUP5 DUP5 PUSH2 0x532 JUMP JUMPDEST PUSH2 0xA0E DUP5 DUP5 DUP5 DUP5 PUSH2 0x1188 JUMP JUMPDEST POP POP POP POP JUMP JUMPDEST PUSH1 0x60 PUSH2 0xA1F DUP3 PUSH2 0xCC8 JUMP JUMPDEST POP PUSH0 PUSH2 0xA29 PUSH2 0x133A JUMP JUMPDEST SWAP1 POP PUSH0 DUP2 MLOAD GT PUSH2 0xA47 JUMPI PUSH1 0x40 MLOAD DUP1 PUSH1 0x20 ADD PUSH1 0x40 MSTORE DUP1 PUSH0 DUP2 MSTORE POP PUSH2 0xA72 JUMP JUMPDEST DUP1 PUSH2 0xA51 DUP5 PUSH2 0x1350 JUMP JUMPDEST PUSH1 0x40 MLOAD PUSH1 0x20 ADD PUSH2 0xA62 SWAP3 SWAP2 SWAP1 PUSH2 0x2A83 JUMP JUMPDEST PUSH1 0x40 MLOAD PUSH1 0x20 DUP2 DUP4 SUB SUB DUP2 MSTORE SWAP1 PUSH1 0x40 MSTORE JUMPDEST SWAP2 POP POP SWAP2 SWAP1 POP JUMP JUMPDEST PUSH2 0xA83 DUP2 PUSH2 0x141A JUMP JUMPDEST DUP1 PUSH1 0x1 SWAP1 DUP1 MLOAD SWAP1 PUSH1 0x20 ADD SWAP1 PUSH2 0xA99 SWAP3 SWAP2 SWAP1 PUSH2 0x2026 JUMP JUMPDEST POP PUSH32 0x9538911740E5519A40DB77FB5F637DE0D56CDD804318D81AE270CC24FBD8479E DUP2 PUSH1 0x40 MLOAD PUSH2 0xAC9 SWAP2 SWAP1 PUSH2 0x24FF JUMP JUMPDEST PUSH1 0x40 MLOAD DUP1 SWAP2 SUB SWAP1 LOG1 POP JUMP JUMPDEST PUSH0 PUSH1 0x7 PUSH0 DUP5 PUSH20 0xFFFFFFFFFFFFFFFFFFFFFFFFFFFFFFFFFFFFFFFF AND PUSH20 0xFFFFFFFFFFFFFFFFFFFFFFFFFFFFFFFFFFFFFFFF AND DUP2 MSTORE PUSH1 0x20 ADD SWAP1 DUP2 MSTORE PUSH1 0x20 ADD PUSH0 KECCAK256 PUSH0 DUP4 PUSH20 0xFFFFFFFFFFFFFFFFFFFFFFFFFFFFFFFFFFFFFFFF AND PUSH20 0xFFFFFFFFFFFFFFFFFFFFFFFFFFFFFFFFFFFFFFFF AND DUP2 MSTORE PUSH1 0x20 ADD SWAP1 DUP2 MSTORE PUSH1 0x20 ADD PUSH0 KECCAK256 PUSH0 SWAP1 SLOAD SWAP1 PUSH2 0x100 EXP SWAP1 DIV PUSH1 0xFF AND SWAP1 POP SWAP3 SWAP2 POP POP JUMP JUMPDEST PUSH2 0xB6A PUSH2 0xEBA JUMP JUMPDEST PUSH0 PUSH20 0xFFFFFFFFFFFFFFFFFFFFFFFFFFFFFFFFFFFFFFFF AND DUP2 PUSH20 0xFFFFFFFFFFFFFFFFFFFFFFFFFFFFFFFFFFFFFFFF AND SUB PUSH2 0xBDA JUMPI PUSH0 PUSH1 0x40 MLOAD PUSH32 0x1E4FBDF700000000000000000000000000000000000000000000000000000000 DUP2 MSTORE PUSH1 0x4 ADD PUSH2 0xBD1 SWAP2 SWAP1 PUSH2 0x2303 JUMP JUMPDEST PUSH1 0x40 MLOAD DUP1 SWAP2 SUB SWAP1 REVERT JUMPDEST PUSH2 0xBE3 DUP2 PUSH2 0xF41 JUMP JUMPDEST POP JUMP JUMPDEST PUSH0 PUSH32 0x780E9D6300000000000000000000000000000000000000000000000000000000 PUSH28 0xFFFFFFFFFFFFFFFFFFFFFFFFFFFFFFFFFFFFFFFFFFFFFFFFFFFFFFFF NOT AND DUP3 PUSH28 0xFFFFFFFFFFFFFFFFFFFFFFFFFFFFFFFFFFFFFFFFFFFFFFFFFFFFFFFF NOT AND EQ DUP1 PUSH2 0xC58 JUMPI POP PUSH2 0xC57 DUP3 PUSH2 0x1425 JUMP JUMPDEST JUMPDEST SWAP1 POP SWAP2 SWAP1 POP JUMP JUMPDEST PUSH0 PUSH32 0xA86517A100000000000000000000000000000000000000000000000000000000 PUSH28 0xFFFFFFFFFFFFFFFFFFFFFFFFFFFFFFFFFFFFFFFFFFFFFFFFFFFFFFFF NOT AND DUP3 PUSH28 0xFFFFFFFFFFFFFFFFFFFFFFFFFFFFFFFFFFFFFFFFFFFFFFFFFFFFFFFF NOT AND EQ SWAP1 POP SWAP2 SWAP1 POP JUMP JUMPDEST PUSH0 DUP1 PUSH2 0xCD3 DUP4 PUSH2 0x1506 JUMP JUMPDEST SWAP1 POP PUSH0 PUSH20 0xFFFFFFFFFFFFFFFFFFFFFFFFFFFFFFFFFFFFFFFF AND DUP2 PUSH20 0xFFFFFFFFFFFFFFFFFFFFFFFFFFFFFFFFFFFFFFFF AND SUB PUSH2 0xD45 JUMPI DUP3 PUSH1 0x40 MLOAD PUSH32 0x7E27328900000000000000000000000000000000000000000000000000000000 DUP2 MSTORE PUSH1 0x4 ADD PUSH2 0xD3C SWAP2 SWAP1 PUSH2 0x2393 JUMP JUMPDEST PUSH1 0x40 MLOAD DUP1 SWAP2 SUB SWAP1 REVERT JUMPDEST DUP1 SWAP2 POP POP SWAP2 SWAP1 POP JUMP JUMPDEST PUSH0 PUSH1 0x6 PUSH0 DUP4 DUP2 MSTORE PUSH1 0x20 ADD SWAP1 DUP2 MSTORE PUSH1 0x20 ADD PUSH0 KECCAK256 PUSH0 SWAP1 SLOAD SWAP1 PUSH2 0x100 EXP SWAP1 DIV PUSH20 0xFFFFFFFFFFFFFFFFFFFFFFFFFFFFFFFFFFFFFFFF AND SWAP1 POP SWAP2 SWAP1 POP JUMP JUMPDEST PUSH0 CALLER SWAP1 POP SWAP1 JUMP JUMPDEST PUSH2 0xD9B DUP4 DUP4 DUP4 PUSH1 0x1 PUSH2 0x153F JUMP JUMPDEST POP POP POP JUMP JUMPDEST PUSH0 DUP1 PUSH2 0xDAD DUP6 DUP6 DUP6 PUSH2 0x16FE JUMP JUMPDEST SWAP1 POP PUSH0 PUSH20 0xFFFFFFFFFFFFFFFFFFFFFFFFFFFFFFFFFFFFFFFF AND DUP2 PUSH20 0xFFFFFFFFFFFFFFFFFFFFFFFFFFFFFFFFFFFFFFFF AND SUB PUSH2 0xDF0 JUMPI PUSH2 0xDEB DUP5 PUSH2 0x1909 JUMP JUMPDEST PUSH2 0xE2F JUMP JUMPDEST DUP5 PUSH20 0xFFFFFFFFFFFFFFFFFFFFFFFFFFFFFFFFFFFFFFFF AND DUP2 PUSH20 0xFFFFFFFFFFFFFFFFFFFFFFFFFFFFFFFFFFFFFFFF AND EQ PUSH2 0xE2E JUMPI PUSH2 0xE2D DUP2 DUP6 PUSH2 0x194D JUMP JUMPDEST JUMPDEST JUMPDEST PUSH0 PUSH20 0xFFFFFFFFFFFFFFFFFFFFFFFFFFFFFFFFFFFFFFFF AND DUP6 PUSH20 0xFFFFFFFFFFFFFFFFFFFFFFFFFFFFFFFFFFFFFFFF AND SUB PUSH2 0xE70 JUMPI PUSH2 0xE6B DUP5 PUSH2 0x1A97 JUMP JUMPDEST PUSH2 0xEAF JUMP JUMPDEST DUP5 PUSH20 0xFFFFFFFFFFFFFFFFFFFFFFFFFFFFFFFFFFFFFFFF AND DUP2 PUSH20 0xFFFFFFFFFFFFFFFFFFFFFFFFFFFFFFFFFFFFFFFF AND EQ PUSH2 0xEAE JUMPI PUSH2 0xEAD DUP6 DUP6 PUSH2 0x1B57 JUMP JUMPDEST JUMPDEST JUMPDEST DUP1 SWAP2 POP POP SWAP4 SWAP3 POP POP POP JUMP JUMPDEST PUSH2 0xEC2 PUSH2 0xD87 JUMP JUMPDEST PUSH20 0xFFFFFFFFFFFFFFFFFFFFFFFFFFFFFFFFFFFFFFFF AND PUSH2 0xEE0 PUSH2 0x914 JUMP JUMPDEST PUSH20 0xFFFFFFFFFFFFFFFFFFFFFFFFFFFFFFFFFFFFFFFF AND EQ PUSH2 0xF3F JUMPI PUSH2 0xF03 PUSH2 0xD87 JUMP JUMPDEST PUSH1 0x40 MLOAD PUSH32 0x118CDAA700000000000000000000000000000000000000000000000000000000 DUP2 MSTORE PUSH1 0x4 ADD PUSH2 0xF36 SWAP2 SWAP1 PUSH2 0x2303 JUMP JUMPDEST PUSH1 0x40 MLOAD DUP1 SWAP2 SUB SWAP1 REVERT JUMPDEST JUMP JUMPDEST PUSH0 DUP1 PUSH0 SWAP1 SLOAD SWAP1 PUSH2 0x100 EXP SWAP1 DIV PUSH20 0xFFFFFFFFFFFFFFFFFFFFFFFFFFFFFFFFFFFFFFFF AND SWAP1 POP DUP2 PUSH0 DUP1 PUSH2 0x100 EXP DUP2 SLOAD DUP2 PUSH20 0xFFFFFFFFFFFFFFFFFFFFFFFFFFFFFFFFFFFFFFFF MUL NOT AND SWAP1 DUP4 PUSH20 0xFFFFFFFFFFFFFFFFFFFFFFFFFFFFFFFFFFFFFFFF AND MUL OR SWAP1 SSTORE POP DUP2 PUSH20 0xFFFFFFFFFFFFFFFFFFFFFFFFFFFFFFFFFFFFFFFF AND DUP2 PUSH20 0xFFFFFFFFFFFFFFFFFFFFFFFFFFFFFFFFFFFFFFFF AND PUSH32 0x8BE0079C531659141344CD1FD0A4F28419497F9722A3DAAFE3B4186F6B6457E0 PUSH1 0x40 MLOAD PUSH1 0x40 MLOAD DUP1 SWAP2 SUB SWAP1 LOG3 POP POP JUMP JUMPDEST PUSH2 0x101B DUP3 DUP3 PUSH1 0x40 MLOAD DUP1 PUSH1 0x20 ADD PUSH1 0x40 MSTORE DUP1 PUSH0 DUP2 MSTORE POP PUSH2 0x1BDB JUMP JUMPDEST POP POP JUMP JUMPDEST PUSH0 PUSH20 0xFFFFFFFFFFFFFFFFFFFFFFFFFFFFFFFFFFFFFFFF AND DUP3 PUSH20 0xFFFFFFFFFFFFFFFFFFFFFFFFFFFFFFFFFFFFFFFF AND SUB PUSH2 0x108F JUMPI DUP2 PUSH1 0x40 MLOAD PUSH32 0x5B08BA1800000000000000000000000000000000000000000000000000000000 DUP2 MSTORE PUSH1 0x4 ADD PUSH2 0x1086 SWAP2 SWAP1 PUSH2 0x2303 JUMP JUMPDEST PUSH1 0x40 MLOAD DUP1 SWAP2 SUB SWAP1 REVERT JUMPDEST DUP1 PUSH1 0x7 PUSH0 DUP6 PUSH20 0xFFFFFFFFFFFFFFFFFFFFFFFFFFFFFFFFFFFFFFFF AND PUSH20 0xFFFFFFFFFFFFFFFFFFFFFFFFFFFFFFFFFFFFFFFF AND DUP2 MSTORE PUSH1 0x20 ADD SWAP1 DUP2 MSTORE PUSH1 0x20 ADD PUSH0 KECCAK256 PUSH0 DUP5 PUSH20 0xFFFFFFFFFFFFFFFFFFFFFFFFFFFFFFFFFFFFFFFF AND PUSH20 0xFFFFFFFFFFFFFFFFFFFFFFFFFFFFFFFFFFFFFFFF AND DUP2 MSTORE PUSH1 0x20 ADD SWAP1 DUP2 MSTORE PUSH1 0x20 ADD PUSH0 KECCAK256 PUSH0 PUSH2 0x100 EXP DUP2 SLOAD DUP2 PUSH1 0xFF MUL NOT AND SWAP1 DUP4 ISZERO ISZERO MUL OR SWAP1 SSTORE POP DUP2 PUSH20 0xFFFFFFFFFFFFFFFFFFFFFFFFFFFFFFFFFFFFFFFF AND DUP4 PUSH20 0xFFFFFFFFFFFFFFFFFFFFFFFFFFFFFFFFFFFFFFFF AND PUSH32 0x17307EAB39AB6107E8899845AD3D59BD9653F200F220920489CA2B5937696C31 DUP4 PUSH1 0x40 MLOAD PUSH2 0x117B SWAP2 SWAP1 PUSH2 0x21A3 JUMP JUMPDEST PUSH1 0x40 MLOAD DUP1 SWAP2 SUB SWAP1 LOG3 POP POP POP JUMP JUMPDEST PUSH0 DUP4 PUSH20 0xFFFFFFFFFFFFFFFFFFFFFFFFFFFFFFFFFFFFFFFF AND EXTCODESIZE GT ISZERO PUSH2 0x1334 JUMPI DUP3 PUSH20 0xFFFFFFFFFFFFFFFFFFFFFFFFFFFFFFFFFFFFFFFF AND PUSH4 0x150B7A02 PUSH2 0x11CB PUSH2 0xD87 JUMP JUMPDEST DUP7 DUP6 DUP6 PUSH1 0x40 MLOAD DUP6 PUSH4 0xFFFFFFFF AND PUSH1 0xE0 SHL DUP2 MSTORE PUSH1 0x4 ADD PUSH2 0x11ED SWAP5 SWAP4 SWAP3 SWAP2 SWAP1 PUSH2 0x2AF8 JUMP JUMPDEST PUSH1 0x20 PUSH1 0x40 MLOAD DUP1 DUP4 SUB DUP2 PUSH0 DUP8 GAS CALL SWAP3 POP POP POP DUP1 ISZERO PUSH2 0x1228 JUMPI POP PUSH1 0x40 MLOAD RETURNDATASIZE PUSH1 0x1F NOT PUSH1 0x1F DUP3 ADD AND DUP3 ADD DUP1 PUSH1 0x40 MSTORE POP DUP2 ADD SWAP1 PUSH2 0x1225 SWAP2 SWAP1 PUSH2 0x2B56 JUMP JUMPDEST PUSH1 0x1 JUMPDEST PUSH2 0x12A9 JUMPI RETURNDATASIZE DUP1 PUSH0 DUP2 EQ PUSH2 0x1256 JUMPI PUSH1 0x40 MLOAD SWAP2 POP PUSH1 0x1F NOT PUSH1 0x3F RETURNDATASIZE ADD AND DUP3 ADD PUSH1 0x40 MSTORE RETURNDATASIZE DUP3 MSTORE RETURNDATASIZE PUSH0 PUSH1 0x20 DUP5 ADD RETURNDATACOPY PUSH2 0x125B JUMP JUMPDEST PUSH1 0x60 SWAP2 POP JUMPDEST POP PUSH0 DUP2 MLOAD SUB PUSH2 0x12A1 JUMPI DUP4 PUSH1 0x40 MLOAD PUSH32 0x64A0AE9200000000000000000000000000000000000000000000000000000000 DUP2 MSTORE PUSH1 0x4 ADD PUSH2 0x1298 SWAP2 SWAP1 PUSH2 0x2303 JUMP JUMPDEST PUSH1 0x40 MLOAD DUP1 SWAP2 SUB SWAP1 REVERT JUMPDEST DUP1 MLOAD DUP2 PUSH1 0x20 ADD REVERT JUMPDEST PUSH4 0x150B7A02 PUSH1 0xE0 SHL PUSH28 0xFFFFFFFFFFFFFFFFFFFFFFFFFFFFFFFFFFFFFFFFFFFFFFFFFFFFFFFF NOT AND DUP2 PUSH28 0xFFFFFFFFFFFFFFFFFFFFFFFFFFFFFFFFFFFFFFFFFFFFFFFFFFFFFFFF NOT AND EQ PUSH2 0x1332 JUMPI DUP4 PUSH1 0x40 MLOAD PUSH32 0x64A0AE9200000000000000000000000000000000000000000000000000000000 DUP2 MSTORE PUSH1 0x4 ADD PUSH2 0x1329 SWAP2 SWAP1 PUSH2 0x2303 JUMP JUMPDEST PUSH1 0x40 MLOAD DUP1 SWAP2 SUB SWAP1 REVERT JUMPDEST POP JUMPDEST POP POP POP POP JUMP JUMPDEST PUSH1 0x60 PUSH1 0x40 MLOAD DUP1 PUSH1 0x20 ADD PUSH1 0x40 MSTORE DUP1 PUSH0 DUP2 MSTORE POP SWAP1 POP SWAP1 JUMP JUMPDEST PUSH1 0x60 PUSH0 PUSH1 0x1 PUSH2 0x135E DUP5 PUSH2 0x1BF6 JUMP JUMPDEST ADD SWAP1 POP PUSH0 DUP2 PUSH8 0xFFFFFFFFFFFFFFFF DUP2 GT ISZERO PUSH2 0x137C JUMPI PUSH2 0x137B PUSH2 0x25BA JUMP JUMPDEST JUMPDEST PUSH1 0x40 MLOAD SWAP1 DUP1 DUP3 MSTORE DUP1 PUSH1 0x1F ADD PUSH1 0x1F NOT AND PUSH1 0x20 ADD DUP3 ADD PUSH1 0x40 MSTORE DUP1 ISZERO PUSH2 0x13AE JUMPI DUP2 PUSH1 0x20 ADD PUSH1 0x1 DUP3 MUL DUP1 CALLDATASIZE DUP4 CALLDATACOPY DUP1 DUP3 ADD SWAP2 POP POP SWAP1 POP JUMPDEST POP SWAP1 POP PUSH0 DUP3 PUSH1 0x20 ADD DUP3 ADD SWAP1 POP JUMPDEST PUSH1 0x1 ISZERO PUSH2 0x140F JUMPI DUP1 DUP1 PUSH1 0x1 SWAP1 SUB SWAP2 POP POP PUSH32 0x3031323334353637383961626364656600000000000000000000000000000000 PUSH1 0xA DUP7 MOD BYTE DUP2 MSTORE8 PUSH1 0xA DUP6 DUP2 PUSH2 0x1404 JUMPI PUSH2 0x1403 PUSH2 0x2B81 JUMP JUMPDEST JUMPDEST DIV SWAP5 POP PUSH0 DUP6 SUB PUSH2 0x13BB JUMPI JUMPDEST DUP2 SWAP4 POP POP POP POP SWAP2 SWAP1 POP JUMP JUMPDEST PUSH2 0x1422 PUSH2 0xEBA JUMP JUMPDEST POP JUMP JUMPDEST PUSH0 PUSH32 0x80AC58CD00000000000000000000000000000000000000000000000000000000 PUSH28 0xFFFFFFFFFFFFFFFFFFFFFFFFFFFFFFFFFFFFFFFFFFFFFFFFFFFFFFFF NOT AND DUP3 PUSH28 0xFFFFFFFFFFFFFFFFFFFFFFFFFFFFFFFFFFFFFFFFFFFFFFFFFFFFFFFF NOT AND EQ DUP1 PUSH2 0x14EF JUMPI POP PUSH32 0x5B5E139F00000000000000000000000000000000000000000000000000000000 PUSH28 0xFFFFFFFFFFFFFFFFFFFFFFFFFFFFFFFFFFFFFFFFFFFFFFFFFFFFFFFF NOT AND DUP3 PUSH28 0xFFFFFFFFFFFFFFFFFFFFFFFFFFFFFFFFFFFFFFFFFFFFFFFFFFFFFFFF NOT AND EQ JUMPDEST DUP1 PUSH2 0x14FF JUMPI POP PUSH2 0x14FE DUP3 PUSH2 0x1D47 JUMP JUMPDEST JUMPDEST SWAP1 POP SWAP2 SWAP1 POP JUMP JUMPDEST PUSH0 PUSH1 0x4 PUSH0 DUP4 DUP2 MSTORE PUSH1 0x20 ADD SWAP1 DUP2 MSTORE PUSH1 0x20 ADD PUSH0 KECCAK256 PUSH0 SWAP1 SLOAD SWAP1 PUSH2 0x100 EXP SWAP1 DIV PUSH20 0xFFFFFFFFFFFFFFFFFFFFFFFFFFFFFFFFFFFFFFFF AND SWAP1 POP SWAP2 SWAP1 POP JUMP JUMPDEST DUP1 DUP1 PUSH2 0x1577 JUMPI POP PUSH0 PUSH20 0xFFFFFFFFFFFFFFFFFFFFFFFFFFFFFFFFFFFFFFFF AND DUP3 PUSH20 0xFFFFFFFFFFFFFFFFFFFFFFFFFFFFFFFFFFFFFFFF AND EQ ISZERO JUMPDEST ISZERO PUSH2 0x16A9 JUMPI PUSH0 PUSH2 0x1586 DUP5 PUSH2 0xCC8 JUMP JUMPDEST SWAP1 POP PUSH0 PUSH20 0xFFFFFFFFFFFFFFFFFFFFFFFFFFFFFFFFFFFFFFFF AND DUP4 PUSH20 0xFFFFFFFFFFFFFFFFFFFFFFFFFFFFFFFFFFFFFFFF AND EQ ISZERO DUP1 ISZERO PUSH2 0x15F0 JUMPI POP DUP3 PUSH20 0xFFFFFFFFFFFFFFFFFFFFFFFFFFFFFFFFFFFFFFFF AND DUP2 PUSH20 0xFFFFFFFFFFFFFFFFFFFFFFFFFFFFFFFFFFFFFFFF AND EQ ISZERO JUMPDEST DUP1 ISZERO PUSH2 0x1603 JUMPI POP PUSH2 0x1601 DUP2 DUP5 PUSH2 0xAD4 JUMP JUMPDEST ISZERO JUMPDEST ISZERO PUSH2 0x1645 JUMPI DUP3 PUSH1 0x40 MLOAD PUSH32 0xA9FBF51F00000000000000000000000000000000000000000000000000000000 DUP2 MSTORE PUSH1 0x4 ADD PUSH2 0x163C SWAP2 SWAP1 PUSH2 0x2303 JUMP JUMPDEST PUSH1 0x40 MLOAD DUP1 SWAP2 SUB SWAP1 REVERT JUMPDEST DUP2 ISZERO PUSH2 0x16A7 JUMPI DUP4 DUP6 PUSH20 0xFFFFFFFFFFFFFFFFFFFFFFFFFFFFFFFFFFFFFFFF AND DUP3 PUSH20 0xFFFFFFFFFFFFFFFFFFFFFFFFFFFFFFFFFFFFFFFF AND PUSH32 0x8C5BE1E5EBEC7D5BD14F71427D1E84F3DD0314C0F7B2291E5B200AC8C7C3B925 PUSH1 0x40 MLOAD PUSH1 0x40 MLOAD DUP1 SWAP2 SUB SWAP1 LOG4 JUMPDEST POP JUMPDEST DUP4 PUSH1 0x6 PUSH0 DUP6 DUP2 MSTORE PUSH1 0x20 ADD SWAP1 DUP2 MSTORE PUSH1 0x20 ADD PUSH0 KECCAK256 PUSH0 PUSH2 0x100 EXP DUP2 SLOAD DUP2 PUSH20 0xFFFFFFFFFFFFFFFFFFFFFFFFFFFFFFFFFFFFFFFF MUL NOT AND SWAP1 DUP4 PUSH20 0xFFFFFFFFFFFFFFFFFFFFFFFFFFFFFFFFFFFFFFFF AND MUL OR SWAP1 SSTORE POP POP POP POP POP JUMP JUMPDEST PUSH0 DUP1 PUSH2 0x1709 DUP5 PUSH2 0x1506 JUMP JUMPDEST SWAP1 POP PUSH0 PUSH20 0xFFFFFFFFFFFFFFFFFFFFFFFFFFFFFFFFFFFFFFFF AND DUP4 PUSH20 0xFFFFFFFFFFFFFFFFFFFFFFFFFFFFFFFFFFFFFFFF AND EQ PUSH2 0x174A JUMPI PUSH2 0x1749 DUP2 DUP5 DUP7 PUSH2 0x1DB0 JUMP JUMPDEST JUMPDEST PUSH0 PUSH20 0xFFFFFFFFFFFFFFFFFFFFFFFFFFFFFFFFFFFFFFFF AND DUP2 PUSH20 0xFFFFFFFFFFFFFFFFFFFFFFFFFFFFFFFFFFFFFFFF AND EQ PUSH2 0x17D5 JUMPI PUSH2 0x1789 PUSH0 DUP6 PUSH0 DUP1 PUSH2 0x153F JUMP JUMPDEST PUSH1 0x1 PUSH1 0x5 PUSH0 DUP4 PUSH20 0xFFFFFFFFFFFFFFFFFFFFFFFFFFFFFFFFFFFFFFFF AND PUSH20 0xFFFFFFFFFFFFFFFFFFFFFFFFFFFFFFFFFFFFFFFF AND DUP2 MSTORE PUSH1 0x20 ADD SWAP1 DUP2 MSTORE PUSH1 0x20 ADD PUSH0 KECCAK256 PUSH0 DUP3 DUP3 SLOAD SUB SWAP3 POP POP DUP2 SWAP1 SSTORE POP JUMPDEST PUSH0 PUSH20 0xFFFFFFFFFFFFFFFFFFFFFFFFFFFFFFFFFFFFFFFF AND DUP6 PUSH20 0xFFFFFFFFFFFFFFFFFFFFFFFFFFFFFFFFFFFFFFFF AND EQ PUSH2 0x1854 JUMPI PUSH1 0x1 PUSH1 0x5 PUSH0 DUP8 PUSH20 0xFFFFFFFFFFFFFFFFFFFFFFFFFFFFFFFFFFFFFFFF AND PUSH20 0xFFFFFFFFFFFFFFFFFFFFFFFFFFFFFFFFFFFFFFFF AND DUP2 MSTORE PUSH1 0x20 ADD SWAP1 DUP2 MSTORE PUSH1 0x20 ADD PUSH0 KECCAK256 PUSH0 DUP3 DUP3 SLOAD ADD SWAP3 POP POP DUP2 SWAP1 SSTORE POP JUMPDEST DUP5 PUSH1 0x4 PUSH0 DUP7 DUP2 MSTORE PUSH1 0x20 ADD SWAP1 DUP2 MSTORE PUSH1 0x20 ADD PUSH0 KECCAK256 PUSH0 PUSH2 0x100 EXP DUP2 SLOAD DUP2 PUSH20 0xFFFFFFFFFFFFFFFFFFFFFFFFFFFFFFFFFFFFFFFF MUL NOT AND SWAP1 DUP4 PUSH20 0xFFFFFFFFFFFFFFFFFFFFFFFFFFFFFFFFFFFFFFFF AND MUL OR SWAP1 SSTORE POP DUP4 DUP6 PUSH20 0xFFFFFFFFFFFFFFFFFFFFFFFFFFFFFFFFFFFFFFFF AND DUP3 PUSH20 0xFFFFFFFFFFFFFFFFFFFFFFFFFFFFFFFFFFFFFFFF AND PUSH32 0xDDF252AD1BE2C89B69C2B068FC378DAA952BA7F163C4A11628F55A4DF523B3EF PUSH1 0x40 MLOAD PUSH1 0x40 MLOAD DUP1 SWAP2 SUB SWAP1 LOG4 DUP1 SWAP2 POP POP SWAP4 SWAP3 POP POP POP JUMP JUMPDEST PUSH1 0xA DUP1 SLOAD SWAP1 POP PUSH1 0xB PUSH0 DUP4 DUP2 MSTORE PUSH1 0x20 ADD SWAP1 DUP2 MSTORE PUSH1 0x20 ADD PUSH0 KECCAK256 DUP2 SWAP1 SSTORE POP PUSH1 0xA DUP2 SWAP1 DUP1 PUSH1 0x1 DUP2 SLOAD ADD DUP1 DUP3 SSTORE DUP1 SWAP2 POP POP PUSH1 0x1 SWAP1 SUB SWAP1 PUSH0 MSTORE PUSH1 0x20 PUSH0 KECCAK256 ADD PUSH0 SWAP1 SWAP2 SWAP1 SWAP2 SWAP1 SWAP2 POP SSTORE POP JUMP JUMPDEST PUSH0 PUSH2 0x1957 DUP4 PUSH2 0x84B JUMP JUMPDEST SWAP1 POP PUSH0 PUSH1 0x9 PUSH0 DUP5 DUP2 MSTORE PUSH1 0x20 ADD SWAP1 DUP2 MSTORE PUSH1 0x20 ADD PUSH0 KECCAK256 SLOAD SWAP1 POP DUP2 DUP2 EQ PUSH2 0x1A2E JUMPI PUSH0 PUSH1 0x8 PUSH0 DUP7 PUSH20 0xFFFFFFFFFFFFFFFFFFFFFFFFFFFFFFFFFFFFFFFF AND PUSH20 0xFFFFFFFFFFFFFFFFFFFFFFFFFFFFFFFFFFFFFFFF AND DUP2 MSTORE PUSH1 0x20 ADD SWAP1 DUP2 MSTORE PUSH1 0x20 ADD PUSH0 KECCAK256 PUSH0 DUP5 DUP2 MSTORE PUSH1 0x20 ADD SWAP1 DUP2 MSTORE PUSH1 0x20 ADD PUSH0 KECCAK256 SLOAD SWAP1 POP DUP1 PUSH1 0x8 PUSH0 DUP8 PUSH20 0xFFFFFFFFFFFFFFFFFFFFFFFFFFFFFFFFFFFFFFFF AND PUSH20 0xFFFFFFFFFFFFFFFFFFFFFFFFFFFFFFFFFFFFFFFF AND DUP2 MSTORE PUSH1 0x20 ADD SWAP1 DUP2 MSTORE PUSH1 0x20 ADD PUSH0 KECCAK256 PUSH0 DUP5 DUP2 MSTORE PUSH1 0x20 ADD SWAP1 DUP2 MSTORE PUSH1 0x20 ADD PUSH0 KECCAK256 DUP2 SWAP1 SSTORE POP DUP2 PUSH1 0x9 PUSH0 DUP4 DUP2 MSTORE PUSH1 0x20 ADD SWAP1 DUP2 MSTORE PUSH1 0x20 ADD PUSH0 KECCAK256 DUP2 SWAP1 SSTORE POP POP JUMPDEST PUSH1 0x9 PUSH0 DUP5 DUP2 MSTORE PUSH1 0x20 ADD SWAP1 DUP2 MSTORE PUSH1 0x20 ADD PUSH0 KECCAK256 PUSH0 SWAP1 SSTORE PUSH1 0x8 PUSH0 DUP6 PUSH20 0xFFFFFFFFFFFFFFFFFFFFFFFFFFFFFFFFFFFFFFFF AND PUSH20 0xFFFFFFFFFFFFFFFFFFFFFFFFFFFFFFFFFFFFFFFF AND DUP2 MSTORE PUSH1 0x20 ADD SWAP1 DUP2 MSTORE PUSH1 0x20 ADD PUSH0 KECCAK256 PUSH0 DUP4 DUP2 MSTORE PUSH1 0x20 ADD SWAP1 DUP2 MSTORE PUSH1 0x20 ADD PUSH0 KECCAK256 PUSH0 SWAP1 SSTORE POP POP POP POP JUMP JUMPDEST PUSH0 PUSH1 0x1 PUSH1 0xA DUP1 SLOAD SWAP1 POP PUSH2 0x1AAA SWAP2 SWAP1 PUSH2 0x2BDB JUMP JUMPDEST SWAP1 POP PUSH0 PUSH1 0xB PUSH0 DUP5 DUP2 MSTORE PUSH1 0x20 ADD SWAP1 DUP2 MSTORE PUSH1 0x20 ADD PUSH0 KECCAK256 SLOAD SWAP1 POP PUSH0 PUSH1 0xA DUP4 DUP2 SLOAD DUP2 LT PUSH2 0x1AD6 JUMPI PUSH2 0x1AD5 PUSH2 0x2A1C JUMP JUMPDEST JUMPDEST SWAP1 PUSH0 MSTORE PUSH1 0x20 PUSH0 KECCAK256 ADD SLOAD SWAP1 POP DUP1 PUSH1 0xA DUP4 DUP2 SLOAD DUP2 LT PUSH2 0x1AF6 JUMPI PUSH2 0x1AF5 PUSH2 0x2A1C JUMP JUMPDEST JUMPDEST SWAP1 PUSH0 MSTORE PUSH1 0x20 PUSH0 KECCAK256 ADD DUP2 SWAP1 SSTORE POP DUP2 PUSH1 0xB PUSH0 DUP4 DUP2 MSTORE PUSH1 0x20 ADD SWAP1 DUP2 MSTORE PUSH1 0x20 ADD PUSH0 KECCAK256 DUP2 SWAP1 SSTORE POP PUSH1 0xB PUSH0 DUP6 DUP2 MSTORE PUSH1 0x20 ADD SWAP1 DUP2 MSTORE PUSH1 0x20 ADD PUSH0 KECCAK256 PUSH0 SWAP1 SSTORE PUSH1 0xA DUP1 SLOAD DUP1 PUSH2 0x1B3E JUMPI PUSH2 0x1B3D PUSH2 0x2C0E JUMP JUMPDEST JUMPDEST PUSH1 0x1 SWAP1 SUB DUP2 DUP2 SWAP1 PUSH0 MSTORE PUSH1 0x20 PUSH0 KECCAK256 ADD PUSH0 SWAP1 SSTORE SWAP1 SSTORE POP POP POP POP JUMP JUMPDEST PUSH0 PUSH1 0x1 PUSH2 0x1B63 DUP5 PUSH2 0x84B JUMP JUMPDEST PUSH2 0x1B6D SWAP2 SWAP1 PUSH2 0x2BDB JUMP JUMPDEST SWAP1 POP DUP2 PUSH1 0x8 PUSH0 DUP6 PUSH20 0xFFFFFFFFFFFFFFFFFFFFFFFFFFFFFFFFFFFFFFFF AND PUSH20 0xFFFFFFFFFFFFFFFFFFFFFFFFFFFFFFFFFFFFFFFF AND DUP2 MSTORE PUSH1 0x20 ADD SWAP1 DUP2 MSTORE PUSH1 0x20 ADD PUSH0 KECCAK256 PUSH0 DUP4 DUP2 MSTORE PUSH1 0x20 ADD SWAP1 DUP2 MSTORE PUSH1 0x20 ADD PUSH0 KECCAK256 DUP2 SWAP1 SSTORE POP DUP1 PUSH1 0x9 PUSH0 DUP5 DUP2 MSTORE PUSH1 0x20 ADD SWAP1 DUP2 MSTORE PUSH1 0x20 ADD PUSH0 KECCAK256 DUP2 SWAP1 SSTORE POP POP POP POP JUMP JUMPDEST PUSH2 0x1BE5 DUP4 DUP4 PUSH2 0x1E73 JUMP JUMPDEST PUSH2 0x1BF1 PUSH0 DUP5 DUP5 DUP5 PUSH2 0x1188 JUMP JUMPDEST POP POP POP JUMP JUMPDEST PUSH0 DUP1 PUSH0 SWAP1 POP PUSH27 0x184F03E93FF9F4DAA797ED6E38ED64BF6A1F010000000000000000 DUP4 LT PUSH2 0x1C52 JUMPI PUSH27 0x184F03E93FF9F4DAA797ED6E38ED64BF6A1F010000000000000000 DUP4 DUP2 PUSH2 0x1C48 JUMPI PUSH2 0x1C47 PUSH2 0x2B81 JUMP JUMPDEST JUMPDEST DIV SWAP3 POP PUSH1 0x40 DUP2 ADD SWAP1 POP JUMPDEST PUSH14 0x4EE2D6D415B85ACEF8100000000 DUP4 LT PUSH2 0x1C8F JUMPI PUSH14 0x4EE2D6D415B85ACEF8100000000 DUP4 DUP2 PUSH2 0x1C85 JUMPI PUSH2 0x1C84 PUSH2 0x2B81 JUMP JUMPDEST JUMPDEST DIV SWAP3 POP PUSH1 0x20 DUP2 ADD SWAP1 POP JUMPDEST PUSH7 0x2386F26FC10000 DUP4 LT PUSH2 0x1CBE JUMPI PUSH7 0x2386F26FC10000 DUP4 DUP2 PUSH2 0x1CB4 JUMPI PUSH2 0x1CB3 PUSH2 0x2B81 JUMP JUMPDEST JUMPDEST DIV SWAP3 POP PUSH1 0x10 DUP2 ADD SWAP1 POP JUMPDEST PUSH4 0x5F5E100 DUP4 LT PUSH2 0x1CE7 JUMPI PUSH4 0x5F5E100 DUP4 DUP2 PUSH2 0x1CDD JUMPI PUSH2 0x1CDC PUSH2 0x2B81 JUMP JUMPDEST JUMPDEST DIV SWAP3 POP PUSH1 0x8 DUP2 ADD SWAP1 POP JUMPDEST PUSH2 0x2710 DUP4 LT PUSH2 0x1D0C JUMPI PUSH2 0x2710 DUP4 DUP2 PUSH2 0x1D02 JUMPI PUSH2 0x1D01 PUSH2 0x2B81 JUMP JUMPDEST JUMPDEST DIV SWAP3 POP PUSH1 0x4 DUP2 ADD SWAP1 POP JUMPDEST PUSH1 0x64 DUP4 LT PUSH2 0x1D2F JUMPI PUSH1 0x64 DUP4 DUP2 PUSH2 0x1D25 JUMPI PUSH2 0x1D24 PUSH2 0x2B81 JUMP JUMPDEST JUMPDEST DIV SWAP3 POP PUSH1 0x2 DUP2 ADD SWAP1 POP JUMPDEST PUSH1 0xA DUP4 LT PUSH2 0x1D3E JUMPI PUSH1 0x1 DUP2 ADD SWAP1 POP JUMPDEST DUP1 SWAP2 POP POP SWAP2 SWAP1 POP JUMP JUMPDEST PUSH0 PUSH32 0x1FFC9A700000000000000000000000000000000000000000000000000000000 PUSH28 0xFFFFFFFFFFFFFFFFFFFFFFFFFFFFFFFFFFFFFFFFFFFFFFFFFFFFFFFF NOT AND DUP3 PUSH28 0xFFFFFFFFFFFFFFFFFFFFFFFFFFFFFFFFFFFFFFFFFFFFFFFFFFFFFFFF NOT AND EQ SWAP1 POP SWAP2 SWAP1 POP JUMP JUMPDEST PUSH2 0x1DBB DUP4 DUP4 DUP4 PUSH2 0x1F66 JUMP JUMPDEST PUSH2 0x1E6E JUMPI PUSH0 PUSH20 0xFFFFFFFFFFFFFFFFFFFFFFFFFFFFFFFFFFFFFFFF AND DUP4 PUSH20 0xFFFFFFFFFFFFFFFFFFFFFFFFFFFFFFFFFFFFFFFF AND SUB PUSH2 0x1E2F JUMPI DUP1 PUSH1 0x40 MLOAD PUSH32 0x7E27328900000000000000000000000000000000000000000000000000000000 DUP2 MSTORE PUSH1 0x4 ADD PUSH2 0x1E26 SWAP2 SWAP1 PUSH2 0x2393 JUMP JUMPDEST PUSH1 0x40 MLOAD DUP1 SWAP2 SUB SWAP1 REVERT JUMPDEST DUP2 DUP2 PUSH1 0x40 MLOAD PUSH32 0x177E802F00000000000000000000000000000000000000000000000000000000 DUP2 MSTORE PUSH1 0x4 ADD PUSH2 0x1E65 SWAP3 SWAP2 SWAP1 PUSH2 0x29F5 JUMP JUMPDEST PUSH1 0x40 MLOAD DUP1 SWAP2 SUB SWAP1 REVERT JUMPDEST POP POP POP JUMP JUMPDEST PUSH0 PUSH20 0xFFFFFFFFFFFFFFFFFFFFFFFFFFFFFFFFFFFFFFFF AND DUP3 PUSH20 0xFFFFFFFFFFFFFFFFFFFFFFFFFFFFFFFFFFFFFFFF AND SUB PUSH2 0x1EE3 JUMPI PUSH0 PUSH1 0x40 MLOAD PUSH32 0x64A0AE9200000000000000000000000000000000000000000000000000000000 DUP2 MSTORE PUSH1 0x4 ADD PUSH2 0x1EDA SWAP2 SWAP1 PUSH2 0x2303 JUMP JUMPDEST PUSH1 0x40 MLOAD DUP1 SWAP2 SUB SWAP1 REVERT JUMPDEST PUSH0 PUSH2 0x1EEF DUP4 DUP4 PUSH0 PUSH2 0xDA0 JUMP JUMPDEST SWAP1 POP PUSH0 PUSH20 0xFFFFFFFFFFFFFFFFFFFFFFFFFFFFFFFFFFFFFFFF AND DUP2 PUSH20 0xFFFFFFFFFFFFFFFFFFFFFFFFFFFFFFFFFFFFFFFF AND EQ PUSH2 0x1F61 JUMPI PUSH0 PUSH1 0x40 MLOAD PUSH32 0x73C6AC6E00000000000000000000000000000000000000000000000000000000 DUP2 MSTORE PUSH1 0x4 ADD PUSH2 0x1F58 SWAP2 SWAP1 PUSH2 0x2303 JUMP JUMPDEST PUSH1 0x40 MLOAD DUP1 SWAP2 SUB SWAP1 REVERT JUMPDEST POP POP POP JUMP JUMPDEST PUSH0 DUP1 PUSH20 0xFFFFFFFFFFFFFFFFFFFFFFFFFFFFFFFFFFFFFFFF AND DUP4 PUSH20 0xFFFFFFFFFFFFFFFFFFFFFFFFFFFFFFFFFFFFFFFF AND EQ ISZERO DUP1 ISZERO PUSH2 0x201D JUMPI POP DUP3 PUSH20 0xFFFFFFFFFFFFFFFFFFFFFFFFFFFFFFFFFFFFFFFF AND DUP5 PUSH20 0xFFFFFFFFFFFFFFFFFFFFFFFFFFFFFFFFFFFFFFFF AND EQ DUP1 PUSH2 0x1FDE JUMPI POP PUSH2 0x1FDD DUP5 DUP5 PUSH2 0xAD4 JUMP JUMPDEST JUMPDEST DUP1 PUSH2 0x201C JUMPI POP DUP3 PUSH20 0xFFFFFFFFFFFFFFFFFFFFFFFFFFFFFFFFFFFFFFFF AND PUSH2 0x2004 DUP4 PUSH2 0xD4E JUMP JUMPDEST PUSH20 0xFFFFFFFFFFFFFFFFFFFFFFFFFFFFFFFFFFFFFFFF AND EQ JUMPDEST JUMPDEST SWAP1 POP SWAP4 SWAP3 POP POP POP JUMP JUMPDEST DUP3 DUP1 SLOAD DUP3 DUP3 SSTORE SWAP1 PUSH0 MSTORE PUSH1 0x20 PUSH0 KECCAK256 SWAP1 DUP2 ADD SWAP3 DUP3 ISZERO PUSH2 0x206C JUMPI SWAP2 PUSH1 0x20 MUL DUP3 ADD JUMPDEST DUP3 DUP2 GT ISZERO PUSH2 0x206B JUMPI DUP3 MLOAD DUP3 SWAP1 DUP2 PUSH2 0x205B SWAP2 SWAP1 PUSH2 0x2DD8 JUMP JUMPDEST POP SWAP2 PUSH1 0x20 ADD SWAP2 SWAP1 PUSH1 0x1 ADD SWAP1 PUSH2 0x2044 JUMP JUMPDEST JUMPDEST POP SWAP1 POP PUSH2 0x2079 SWAP2 SWAP1 PUSH2 0x207D JUMP JUMPDEST POP SWAP1 JUMP JUMPDEST JUMPDEST DUP1 DUP3 GT ISZERO PUSH2 0x209C JUMPI PUSH0 DUP2 DUP2 PUSH2 0x2093 SWAP2 SWAP1 PUSH2 0x20A0 JUMP JUMPDEST POP PUSH1 0x1 ADD PUSH2 0x207E JUMP JUMPDEST POP SWAP1 JUMP JUMPDEST POP DUP1 SLOAD PUSH2 0x20AC SWAP1 PUSH2 0x2990 JUMP JUMPDEST PUSH0 DUP3 SSTORE DUP1 PUSH1 0x1F LT PUSH2 0x20BD JUMPI POP PUSH2 0x20DA JUMP JUMPDEST PUSH1 0x1F ADD PUSH1 0x20 SWAP1 DIV SWAP1 PUSH0 MSTORE PUSH1 0x20 PUSH0 KECCAK256 SWAP1 DUP2 ADD SWAP1 PUSH2 0x20D9 SWAP2 SWAP1 PUSH2 0x20DD JUMP JUMPDEST JUMPDEST POP JUMP JUMPDEST JUMPDEST DUP1 DUP3 GT ISZERO PUSH2 0x20F4 JUMPI PUSH0 DUP2 PUSH0 SWAP1 SSTORE POP PUSH1 0x1 ADD PUSH2 0x20DE JUMP JUMPDEST POP SWAP1 JUMP JUMPDEST PUSH0 PUSH1 0x40 MLOAD SWAP1 POP SWAP1 JUMP JUMPDEST PUSH0 DUP1 REVERT JUMPDEST PUSH0 DUP1 REVERT JUMPDEST PUSH0 PUSH32 0xFFFFFFFF00000000000000000000000000000000000000000000000000000000 DUP3 AND SWAP1 POP SWAP2 SWAP1 POP JUMP JUMPDEST PUSH2 0x213D DUP2 PUSH2 0x2109 JUMP JUMPDEST DUP2 EQ PUSH2 0x2147 JUMPI PUSH0 DUP1 REVERT JUMPDEST POP JUMP JUMPDEST PUSH0 DUP2 CALLDATALOAD SWAP1 POP PUSH2 0x2158 DUP2 PUSH2 0x2134 JUMP JUMPDEST SWAP3 SWAP2 POP POP JUMP JUMPDEST PUSH0 PUSH1 0x20 DUP3 DUP5 SUB SLT ISZERO PUSH2 0x2173 JUMPI PUSH2 0x2172 PUSH2 0x2101 JUMP JUMPDEST JUMPDEST PUSH0 PUSH2 0x2180 DUP5 DUP3 DUP6 ADD PUSH2 0x214A JUMP JUMPDEST SWAP2 POP POP SWAP3 SWAP2 POP POP JUMP JUMPDEST PUSH0 DUP2 ISZERO ISZERO SWAP1 POP SWAP2 SWAP1 POP JUMP JUMPDEST PUSH2 0x219D DUP2 PUSH2 0x2189 JUMP JUMPDEST DUP3 MSTORE POP POP JUMP JUMPDEST PUSH0 PUSH1 0x20 DUP3 ADD SWAP1 POP PUSH2 0x21B6 PUSH0 DUP4 ADD DUP5 PUSH2 0x2194 JUMP JUMPDEST SWAP3 SWAP2 POP POP JUMP JUMPDEST PUSH0 DUP2 MLOAD SWAP1 POP SWAP2 SWAP1 POP JUMP JUMPDEST PUSH0 DUP3 DUP3 MSTORE PUSH1 0x20 DUP3 ADD SWAP1 POP SWAP3 SWAP2 POP POP JUMP JUMPDEST PUSH0 JUMPDEST DUP4 DUP2 LT ISZERO PUSH2 0x21F3 JUMPI DUP1 DUP3 ADD MLOAD DUP2 DUP5 ADD MSTORE PUSH1 0x20 DUP2 ADD SWAP1 POP PUSH2 0x21D8 JUMP JUMPDEST PUSH0 DUP5 DUP5 ADD MSTORE POP POP POP POP JUMP JUMPDEST PUSH0 PUSH1 0x1F NOT PUSH1 0x1F DUP4 ADD AND SWAP1 POP SWAP2 SWAP1 POP JUMP JUMPDEST PUSH0 PUSH2 0x2218 DUP3 PUSH2 0x21BC JUMP JUMPDEST PUSH2 0x2222 DUP2 DUP6 PUSH2 0x21C6 JUMP JUMPDEST SWAP4 POP PUSH2 0x2232 DUP2 DUP6 PUSH1 0x20 DUP7 ADD PUSH2 0x21D6 JUMP JUMPDEST PUSH2 0x223B DUP2 PUSH2 0x21FE JUMP JUMPDEST DUP5 ADD SWAP2 POP POP SWAP3 SWAP2 POP POP JUMP JUMPDEST PUSH0 PUSH1 0x20 DUP3 ADD SWAP1 POP DUP2 DUP2 SUB PUSH0 DUP4 ADD MSTORE PUSH2 0x225E DUP2 DUP5 PUSH2 0x220E JUMP JUMPDEST SWAP1 POP SWAP3 SWAP2 POP POP JUMP JUMPDEST PUSH0 DUP2 SWAP1 POP SWAP2 SWAP1 POP JUMP JUMPDEST PUSH2 0x2278 DUP2 PUSH2 0x2266 JUMP JUMPDEST DUP2 EQ PUSH2 0x2282 JUMPI PUSH0 DUP1 REVERT JUMPDEST POP JUMP JUMPDEST PUSH0 DUP2 CALLDATALOAD SWAP1 POP PUSH2 0x2293 DUP2 PUSH2 0x226F JUMP JUMPDEST SWAP3 SWAP2 POP POP JUMP JUMPDEST PUSH0 PUSH1 0x20 DUP3 DUP5 SUB SLT ISZERO PUSH2 0x22AE JUMPI PUSH2 0x22AD PUSH2 0x2101 JUMP JUMPDEST JUMPDEST PUSH0 PUSH2 0x22BB DUP5 DUP3 DUP6 ADD PUSH2 0x2285 JUMP JUMPDEST SWAP2 POP POP SWAP3 SWAP2 POP POP JUMP JUMPDEST PUSH0 PUSH20 0xFFFFFFFFFFFFFFFFFFFFFFFFFFFFFFFFFFFFFFFF DUP3 AND SWAP1 POP SWAP2 SWAP1 POP JUMP JUMPDEST PUSH0 PUSH2 0x22ED DUP3 PUSH2 0x22C4 JUMP JUMPDEST SWAP1 POP SWAP2 SWAP1 POP JUMP JUMPDEST PUSH2 0x22FD DUP2 PUSH2 0x22E3 JUMP JUMPDEST DUP3 MSTORE POP POP JUMP JUMPDEST PUSH0 PUSH1 0x20 DUP3 ADD SWAP1 POP PUSH2 0x2316 PUSH0 DUP4 ADD DUP5 PUSH2 0x22F4 JUMP JUMPDEST SWAP3 SWAP2 POP POP JUMP JUMPDEST PUSH2 0x2325 DUP2 PUSH2 0x22E3 JUMP JUMPDEST DUP2 EQ PUSH2 0x232F JUMPI PUSH0 DUP1 REVERT JUMPDEST POP JUMP JUMPDEST PUSH0 DUP2 CALLDATALOAD SWAP1 POP PUSH2 0x2340 DUP2 PUSH2 0x231C JUMP JUMPDEST SWAP3 SWAP2 POP POP JUMP JUMPDEST PUSH0 DUP1 PUSH1 0x40 DUP4 DUP6 SUB SLT ISZERO PUSH2 0x235C JUMPI PUSH2 0x235B PUSH2 0x2101 JUMP JUMPDEST JUMPDEST PUSH0 PUSH2 0x2369 DUP6 DUP3 DUP7 ADD PUSH2 0x2332 JUMP JUMPDEST SWAP3 POP POP PUSH1 0x20 PUSH2 0x237A DUP6 DUP3 DUP7 ADD PUSH2 0x2285 JUMP JUMPDEST SWAP2 POP POP SWAP3 POP SWAP3 SWAP1 POP JUMP JUMPDEST PUSH2 0x238D DUP2 PUSH2 0x2266 JUMP JUMPDEST DUP3 MSTORE POP POP JUMP JUMPDEST PUSH0 PUSH1 0x20 DUP3 ADD SWAP1 POP PUSH2 0x23A6 PUSH0 DUP4 ADD DUP5 PUSH2 0x2384 JUMP JUMPDEST SWAP3 SWAP2 POP POP JUMP JUMPDEST PUSH0 DUP1 PUSH0 PUSH1 0x60 DUP5 DUP7 SUB SLT ISZERO PUSH2 0x23C3 JUMPI PUSH2 0x23C2 PUSH2 0x2101 JUMP JUMPDEST JUMPDEST PUSH0 PUSH2 0x23D0 DUP7 DUP3 DUP8 ADD PUSH2 0x2332 JUMP JUMPDEST SWAP4 POP POP PUSH1 0x20 PUSH2 0x23E1 DUP7 DUP3 DUP8 ADD PUSH2 0x2332 JUMP JUMPDEST SWAP3 POP POP PUSH1 0x40 PUSH2 0x23F2 DUP7 DUP3 DUP8 ADD PUSH2 0x2285 JUMP JUMPDEST SWAP2 POP POP SWAP3 POP SWAP3 POP SWAP3 JUMP JUMPDEST PUSH0 DUP2 MLOAD SWAP1 POP SWAP2 SWAP1 POP JUMP JUMPDEST PUSH0 DUP3 DUP3 MSTORE PUSH1 0x20 DUP3 ADD SWAP1 POP SWAP3 SWAP2 POP POP JUMP JUMPDEST PUSH0 DUP2 SWAP1 POP PUSH1 0x20 DUP3 ADD SWAP1 POP SWAP2 SWAP1 POP JUMP JUMPDEST PUSH0 DUP3 DUP3 MSTORE PUSH1 0x20 DUP3 ADD SWAP1 POP SWAP3 SWAP2 POP POP JUMP JUMPDEST PUSH0 PUSH2 0x243F DUP3 PUSH2 0x21BC JUMP JUMPDEST PUSH2 0x2449 DUP2 DUP6 PUSH2 0x2425 JUMP JUMPDEST SWAP4 POP PUSH2 0x2459 DUP2 DUP6 PUSH1 0x20 DUP7 ADD PUSH2 0x21D6 JUMP JUMPDEST PUSH2 0x2462 DUP2 PUSH2 0x21FE JUMP JUMPDEST DUP5 ADD SWAP2 POP POP SWAP3 SWAP2 POP POP JUMP JUMPDEST PUSH0 PUSH2 0x2478 DUP4 DUP4 PUSH2 0x2435 JUMP JUMPDEST SWAP1 POP SWAP3 SWAP2 POP POP JUMP JUMPDEST PUSH0 PUSH1 0x20 DUP3 ADD SWAP1 POP SWAP2 SWAP1 POP JUMP JUMPDEST PUSH0 PUSH2 0x2496 DUP3 PUSH2 0x23FC JUMP JUMPDEST PUSH2 0x24A0 DUP2 DUP6 PUSH2 0x2406 JUMP JUMPDEST SWAP4 POP DUP4 PUSH1 0x20 DUP3 MUL DUP6 ADD PUSH2 0x24B2 DUP6 PUSH2 0x2416 JUMP JUMPDEST DUP1 PUSH0 JUMPDEST DUP6 DUP2 LT ISZERO PUSH2 0x24ED JUMPI DUP5 DUP5 SUB DUP10 MSTORE DUP2 MLOAD PUSH2 0x24CE DUP6 DUP3 PUSH2 0x246D JUMP JUMPDEST SWAP5 POP PUSH2 0x24D9 DUP4 PUSH2 0x2480 JUMP JUMPDEST SWAP3 POP PUSH1 0x20 DUP11 ADD SWAP10 POP POP PUSH1 0x1 DUP2 ADD SWAP1 POP PUSH2 0x24B5 JUMP JUMPDEST POP DUP3 SWAP8 POP DUP8 SWAP6 POP POP POP POP POP POP SWAP3 SWAP2 POP POP JUMP JUMPDEST PUSH0 PUSH1 0x20 DUP3 ADD SWAP1 POP DUP2 DUP2 SUB PUSH0 DUP4 ADD MSTORE PUSH2 0x2517 DUP2 DUP5 PUSH2 0x248C JUMP JUMPDEST SWAP1 POP SWAP3 SWAP2 POP POP JUMP JUMPDEST PUSH0 PUSH1 0x20 DUP3 DUP5 SUB SLT ISZERO PUSH2 0x2534 JUMPI PUSH2 0x2533 PUSH2 0x2101 JUMP JUMPDEST JUMPDEST PUSH0 PUSH2 0x2541 DUP5 DUP3 DUP6 ADD PUSH2 0x2332 JUMP JUMPDEST SWAP2 POP POP SWAP3 SWAP2 POP POP JUMP JUMPDEST PUSH2 0x2553 DUP2 PUSH2 0x2189 JUMP JUMPDEST DUP2 EQ PUSH2 0x255D JUMPI PUSH0 DUP1 REVERT JUMPDEST POP JUMP JUMPDEST PUSH0 DUP2 CALLDATALOAD SWAP1 POP PUSH2 0x256E DUP2 PUSH2 0x254A JUMP JUMPDEST SWAP3 SWAP2 POP POP JUMP JUMPDEST PUSH0 DUP1 PUSH1 0x40 DUP4 DUP6 SUB SLT ISZERO PUSH2 0x258A JUMPI PUSH2 0x2589 PUSH2 0x2101 JUMP JUMPDEST JUMPDEST PUSH0 PUSH2 0x2597 DUP6 DUP3 DUP7 ADD PUSH2 0x2332 JUMP JUMPDEST SWAP3 POP POP PUSH1 0x20 PUSH2 0x25A8 DUP6 DUP3 DUP7 ADD PUSH2 0x2560 JUMP JUMPDEST SWAP2 POP POP SWAP3 POP SWAP3 SWAP1 POP JUMP JUMPDEST PUSH0 DUP1 REVERT JUMPDEST PUSH0 DUP1 REVERT JUMPDEST PUSH32 0x4E487B7100000000000000000000000000000000000000000000000000000000 PUSH0 MSTORE PUSH1 0x41 PUSH1 0x4 MSTORE PUSH1 0x24 PUSH0 REVERT JUMPDEST PUSH2 0x25F0 DUP3 PUSH2 0x21FE JUMP JUMPDEST DUP2 ADD DUP2 DUP2 LT PUSH8 0xFFFFFFFFFFFFFFFF DUP3 GT OR ISZERO PUSH2 0x260F JUMPI PUSH2 0x260E PUSH2 0x25BA JUMP JUMPDEST JUMPDEST DUP1 PUSH1 0x40 MSTORE POP POP POP JUMP JUMPDEST PUSH0 PUSH2 0x2621 PUSH2 0x20F8 JUMP JUMPDEST SWAP1 POP PUSH2 0x262D DUP3 DUP3 PUSH2 0x25E7 JUMP JUMPDEST SWAP2 SWAP1 POP JUMP JUMPDEST PUSH0 PUSH8 0xFFFFFFFFFFFFFFFF DUP3 GT ISZERO PUSH2 0x264C JUMPI PUSH2 0x264B PUSH2 0x25BA JUMP JUMPDEST JUMPDEST PUSH2 0x2655 DUP3 PUSH2 0x21FE JUMP JUMPDEST SWAP1 POP PUSH1 0x20 DUP2 ADD SWAP1 POP SWAP2 SWAP1 POP JUMP JUMPDEST DUP3 DUP2 DUP4 CALLDATACOPY PUSH0 DUP4 DUP4 ADD MSTORE POP POP POP JUMP JUMPDEST PUSH0 PUSH2 0x2682 PUSH2 0x267D DUP5 PUSH2 0x2632 JUMP JUMPDEST PUSH2 0x2618 JUMP JUMPDEST SWAP1 POP DUP3 DUP2 MSTORE PUSH1 0x20 DUP2 ADD DUP5 DUP5 DUP5 ADD GT ISZERO PUSH2 0x269E JUMPI PUSH2 0x269D PUSH2 0x25B6 JUMP JUMPDEST JUMPDEST PUSH2 0x26A9 DUP5 DUP3 DUP6 PUSH2 0x2662 JUMP JUMPDEST POP SWAP4 SWAP3 POP POP POP JUMP JUMPDEST PUSH0 DUP3 PUSH1 0x1F DUP4 ADD SLT PUSH2 0x26C5 JUMPI PUSH2 0x26C4 PUSH2 0x25B2 JUMP JUMPDEST JUMPDEST DUP2 CALLDATALOAD PUSH2 0x26D5 DUP5 DUP3 PUSH1 0x20 DUP7 ADD PUSH2 0x2670 JUMP JUMPDEST SWAP2 POP POP SWAP3 SWAP2 POP POP JUMP JUMPDEST PUSH0 DUP1 PUSH0 DUP1 PUSH1 0x80 DUP6 DUP8 SUB SLT ISZERO PUSH2 0x26F6 JUMPI PUSH2 0x26F5 PUSH2 0x2101 JUMP JUMPDEST JUMPDEST PUSH0 PUSH2 0x2703 DUP8 DUP3 DUP9 ADD PUSH2 0x2332 JUMP JUMPDEST SWAP5 POP POP PUSH1 0x20 PUSH2 0x2714 DUP8 DUP3 DUP9 ADD PUSH2 0x2332 JUMP JUMPDEST SWAP4 POP POP PUSH1 0x40 PUSH2 0x2725 DUP8 DUP3 DUP9 ADD PUSH2 0x2285 JUMP JUMPDEST SWAP3 POP POP PUSH1 0x60 DUP6 ADD CALLDATALOAD PUSH8 0xFFFFFFFFFFFFFFFF DUP2 GT ISZERO PUSH2 0x2746 JUMPI PUSH2 0x2745 PUSH2 0x2105 JUMP JUMPDEST JUMPDEST PUSH2 0x2752 DUP8 DUP3 DUP9 ADD PUSH2 0x26B1 JUMP JUMPDEST SWAP2 POP POP SWAP3 SWAP6 SWAP2 SWAP5 POP SWAP3 POP JUMP JUMPDEST PUSH0 PUSH8 0xFFFFFFFFFFFFFFFF DUP3 GT ISZERO PUSH2 0x2778 JUMPI PUSH2 0x2777 PUSH2 0x25BA JUMP JUMPDEST JUMPDEST PUSH1 0x20 DUP3 MUL SWAP1 POP PUSH1 0x20 DUP2 ADD SWAP1 POP SWAP2 SWAP1 POP JUMP JUMPDEST PUSH0 DUP1 REVERT JUMPDEST PUSH0 PUSH8 0xFFFFFFFFFFFFFFFF DUP3 GT ISZERO PUSH2 0x27A7 JUMPI PUSH2 0x27A6 PUSH2 0x25BA JUMP JUMPDEST JUMPDEST PUSH2 0x27B0 DUP3 PUSH2 0x21FE JUMP JUMPDEST SWAP1 POP PUSH1 0x20 DUP2 ADD SWAP1 POP SWAP2 SWAP1 POP JUMP JUMPDEST PUSH0 PUSH2 0x27CF PUSH2 0x27CA DUP5 PUSH2 0x278D JUMP JUMPDEST PUSH2 0x2618 JUMP JUMPDEST SWAP1 POP DUP3 DUP2 MSTORE PUSH1 0x20 DUP2 ADD DUP5 DUP5 DUP5 ADD GT ISZERO PUSH2 0x27EB JUMPI PUSH2 0x27EA PUSH2 0x25B6 JUMP JUMPDEST JUMPDEST PUSH2 0x27F6 DUP5 DUP3 DUP6 PUSH2 0x2662 JUMP JUMPDEST POP SWAP4 SWAP3 POP POP POP JUMP JUMPDEST PUSH0 DUP3 PUSH1 0x1F DUP4 ADD SLT PUSH2 0x2812 JUMPI PUSH2 0x2811 PUSH2 0x25B2 JUMP JUMPDEST JUMPDEST DUP2 CALLDATALOAD PUSH2 0x2822 DUP5 DUP3 PUSH1 0x20 DUP7 ADD PUSH2 0x27BD JUMP JUMPDEST SWAP2 POP POP SWAP3 SWAP2 POP POP JUMP JUMPDEST PUSH0 PUSH2 0x283D PUSH2 0x2838 DUP5 PUSH2 0x275E JUMP JUMPDEST PUSH2 0x2618 JUMP JUMPDEST SWAP1 POP DUP1 DUP4 DUP3 MSTORE PUSH1 0x20 DUP3 ADD SWAP1 POP PUSH1 0x20 DUP5 MUL DUP4 ADD DUP6 DUP2 GT ISZERO PUSH2 0x2860 JUMPI PUSH2 0x285F PUSH2 0x2789 JUMP JUMPDEST JUMPDEST DUP4 JUMPDEST DUP2 DUP2 LT ISZERO PUSH2 0x28A7 JUMPI DUP1 CALLDATALOAD PUSH8 0xFFFFFFFFFFFFFFFF DUP2 GT ISZERO PUSH2 0x2885 JUMPI PUSH2 0x2884 PUSH2 0x25B2 JUMP JUMPDEST JUMPDEST DUP1 DUP7 ADD PUSH2 0x2892 DUP10 DUP3 PUSH2 0x27FE JUMP JUMPDEST DUP6 MSTORE PUSH1 0x20 DUP6 ADD SWAP5 POP POP POP PUSH1 0x20 DUP2 ADD SWAP1 POP PUSH2 0x2862 JUMP JUMPDEST POP POP POP SWAP4 SWAP3 POP POP POP JUMP JUMPDEST PUSH0 DUP3 PUSH1 0x1F DUP4 ADD SLT PUSH2 0x28C5 JUMPI PUSH2 0x28C4 PUSH2 0x25B2 JUMP JUMPDEST JUMPDEST DUP2 CALLDATALOAD PUSH2 0x28D5 DUP5 DUP3 PUSH1 0x20 DUP7 ADD PUSH2 0x282B JUMP JUMPDEST SWAP2 POP POP SWAP3 SWAP2 POP POP JUMP JUMPDEST PUSH0 PUSH1 0x20 DUP3 DUP5 SUB SLT ISZERO PUSH2 0x28F3 JUMPI PUSH2 0x28F2 PUSH2 0x2101 JUMP JUMPDEST JUMPDEST PUSH0 DUP3 ADD CALLDATALOAD PUSH8 0xFFFFFFFFFFFFFFFF DUP2 GT ISZERO PUSH2 0x2910 JUMPI PUSH2 0x290F PUSH2 0x2105 JUMP JUMPDEST JUMPDEST PUSH2 0x291C DUP5 DUP3 DUP6 ADD PUSH2 0x28B1 JUMP JUMPDEST SWAP2 POP POP SWAP3 SWAP2 POP POP JUMP JUMPDEST PUSH0 DUP1 PUSH1 0x40 DUP4 DUP6 SUB SLT ISZERO PUSH2 0x293B JUMPI PUSH2 0x293A PUSH2 0x2101 JUMP JUMPDEST JUMPDEST PUSH0 PUSH2 0x2948 DUP6 DUP3 DUP7 ADD PUSH2 0x2332 JUMP JUMPDEST SWAP3 POP POP PUSH1 0x20 PUSH2 0x2959 DUP6 DUP3 DUP7 ADD PUSH2 0x2332 JUMP JUMPDEST SWAP2 POP POP SWAP3 POP SWAP3 SWAP1 POP JUMP JUMPDEST PUSH32 0x4E487B7100000000000000000000000000000000000000000000000000000000 PUSH0 MSTORE PUSH1 0x22 PUSH1 0x4 MSTORE PUSH1 0x24 PUSH0 REVERT JUMPDEST PUSH0 PUSH1 0x2 DUP3 DIV SWAP1 POP PUSH1 0x1 DUP3 AND DUP1 PUSH2 0x29A7 JUMPI PUSH1 0x7F DUP3 AND SWAP2 POP JUMPDEST PUSH1 0x20 DUP3 LT DUP2 SUB PUSH2 0x29BA JUMPI PUSH2 0x29B9 PUSH2 0x2963 JUMP JUMPDEST JUMPDEST POP SWAP2 SWAP1 POP JUMP JUMPDEST PUSH0 PUSH1 0x60 DUP3 ADD SWAP1 POP PUSH2 0x29D3 PUSH0 DUP4 ADD DUP7 PUSH2 0x22F4 JUMP JUMPDEST PUSH2 0x29E0 PUSH1 0x20 DUP4 ADD DUP6 PUSH2 0x2384 JUMP JUMPDEST PUSH2 0x29ED PUSH1 0x40 DUP4 ADD DUP5 PUSH2 0x22F4 JUMP JUMPDEST SWAP5 SWAP4 POP POP POP POP JUMP JUMPDEST PUSH0 PUSH1 0x40 DUP3 ADD SWAP1 POP PUSH2 0x2A08 PUSH0 DUP4 ADD DUP6 PUSH2 0x22F4 JUMP JUMPDEST PUSH2 0x2A15 PUSH1 0x20 DUP4 ADD DUP5 PUSH2 0x2384 JUMP JUMPDEST SWAP4 SWAP3 POP POP POP JUMP JUMPDEST PUSH32 0x4E487B7100000000000000000000000000000000000000000000000000000000 PUSH0 MSTORE PUSH1 0x32 PUSH1 0x4 MSTORE PUSH1 0x24 PUSH0 REVERT JUMPDEST PUSH0 DUP2 SWAP1 POP SWAP3 SWAP2 POP POP JUMP JUMPDEST PUSH0 PUSH2 0x2A5D DUP3 PUSH2 0x21BC JUMP JUMPDEST PUSH2 0x2A67 DUP2 DUP6 PUSH2 0x2A49 JUMP JUMPDEST SWAP4 POP PUSH2 0x2A77 DUP2 DUP6 PUSH1 0x20 DUP7 ADD PUSH2 0x21D6 JUMP JUMPDEST DUP1 DUP5 ADD SWAP2 POP POP SWAP3 SWAP2 POP POP JUMP JUMPDEST PUSH0 PUSH2 0x2A8E DUP3 DUP6 PUSH2 0x2A53 JUMP JUMPDEST SWAP2 POP PUSH2 0x2A9A DUP3 DUP5 PUSH2 0x2A53 JUMP JUMPDEST SWAP2 POP DUP2 SWAP1 POP SWAP4 SWAP3 POP POP POP JUMP JUMPDEST PUSH0 DUP2 MLOAD SWAP1 POP SWAP2 SWAP1 POP JUMP JUMPDEST PUSH0 DUP3 DUP3 MSTORE PUSH1 0x20 DUP3 ADD SWAP1 POP SWAP3 SWAP2 POP POP JUMP JUMPDEST PUSH0 PUSH2 0x2ACA DUP3 PUSH2 0x2AA6 JUMP JUMPDEST PUSH2 0x2AD4 DUP2 DUP6 PUSH2 0x2AB0 JUMP JUMPDEST SWAP4 POP PUSH2 0x2AE4 DUP2 DUP6 PUSH1 0x20 DUP7 ADD PUSH2 0x21D6 JUMP JUMPDEST PUSH2 0x2AED DUP2 PUSH2 0x21FE JUMP JUMPDEST DUP5 ADD SWAP2 POP POP SWAP3 SWAP2 POP POP JUMP JUMPDEST PUSH0 PUSH1 0x80 DUP3 ADD SWAP1 POP PUSH2 0x2B0B PUSH0 DUP4 ADD DUP8 PUSH2 0x22F4 JUMP JUMPDEST PUSH2 0x2B18 PUSH1 0x20 DUP4 ADD DUP7 PUSH2 0x22F4 JUMP JUMPDEST PUSH2 0x2B25 PUSH1 0x40 DUP4 ADD DUP6 PUSH2 0x2384 JUMP JUMPDEST DUP2 DUP2 SUB PUSH1 0x60 DUP4 ADD MSTORE PUSH2 0x2B37 DUP2 DUP5 PUSH2 0x2AC0 JUMP JUMPDEST SWAP1 POP SWAP6 SWAP5 POP POP POP POP POP JUMP JUMPDEST PUSH0 DUP2 MLOAD SWAP1 POP PUSH2 0x2B50 DUP2 PUSH2 0x2134 JUMP JUMPDEST SWAP3 SWAP2 POP POP JUMP JUMPDEST PUSH0 PUSH1 0x20 DUP3 DUP5 SUB SLT ISZERO PUSH2 0x2B6B JUMPI PUSH2 0x2B6A PUSH2 0x2101 JUMP JUMPDEST JUMPDEST PUSH0 PUSH2 0x2B78 DUP5 DUP3 DUP6 ADD PUSH2 0x2B42 JUMP JUMPDEST SWAP2 POP POP SWAP3 SWAP2 POP POP JUMP JUMPDEST PUSH32 0x4E487B7100000000000000000000000000000000000000000000000000000000 PUSH0 MSTORE PUSH1 0x12 PUSH1 0x4 MSTORE PUSH1 0x24 PUSH0 REVERT JUMPDEST PUSH32 0x4E487B7100000000000000000000000000000000000000000000000000000000 PUSH0 MSTORE PUSH1 0x11 PUSH1 0x4 MSTORE PUSH1 0x24 PUSH0 REVERT JUMPDEST PUSH0 PUSH2 0x2BE5 DUP3 PUSH2 0x2266 JUMP JUMPDEST SWAP2 POP PUSH2 0x2BF0 DUP4 PUSH2 0x2266 JUMP JUMPDEST SWAP3 POP DUP3 DUP3 SUB SWAP1 POP DUP2 DUP2 GT ISZERO PUSH2 0x2C08 JUMPI PUSH2 0x2C07 PUSH2 0x2BAE JUMP JUMPDEST JUMPDEST SWAP3 SWAP2 POP POP JUMP JUMPDEST PUSH32 0x4E487B7100000000000000000000000000000000000000000000000000000000 PUSH0 MSTORE PUSH1 0x31 PUSH1 0x4 MSTORE PUSH1 0x24 PUSH0 REVERT JUMPDEST PUSH0 DUP2 SWAP1 POP DUP2 PUSH0 MSTORE PUSH1 0x20 PUSH0 KECCAK256 SWAP1 POP SWAP2 SWAP1 POP JUMP JUMPDEST PUSH0 PUSH1 0x20 PUSH1 0x1F DUP4 ADD DIV SWAP1 POP SWAP2 SWAP1 POP JUMP JUMPDEST PUSH0 DUP3 DUP3 SHL SWAP1 POP SWAP3 SWAP2 POP POP JUMP JUMPDEST PUSH0 PUSH1 0x8 DUP4 MUL PUSH2 0x2C97 PUSH32 0xFFFFFFFFFFFFFFFFFFFFFFFFFFFFFFFFFFFFFFFFFFFFFFFFFFFFFFFFFFFFFFFF DUP3 PUSH2 0x2C5C JUMP JUMPDEST PUSH2 0x2CA1 DUP7 DUP4 PUSH2 0x2C5C JUMP JUMPDEST SWAP6 POP DUP1 NOT DUP5 AND SWAP4 POP DUP1 DUP7 AND DUP5 OR SWAP3 POP POP POP SWAP4 SWAP3 POP POP POP JUMP JUMPDEST PUSH0 DUP2 SWAP1 POP SWAP2 SWAP1 POP JUMP JUMPDEST PUSH0 PUSH2 0x2CDC PUSH2 0x2CD7 PUSH2 0x2CD2 DUP5 PUSH2 0x2266 JUMP JUMPDEST PUSH2 0x2CB9 JUMP JUMPDEST PUSH2 0x2266 JUMP JUMPDEST SWAP1 POP SWAP2 SWAP1 POP JUMP JUMPDEST PUSH0 DUP2 SWAP1 POP SWAP2 SWAP1 POP JUMP JUMPDEST PUSH2 0x2CF5 DUP4 PUSH2 0x2CC2 JUMP JUMPDEST PUSH2 0x2D09 PUSH2 0x2D01 DUP3 PUSH2 0x2CE3 JUMP JUMPDEST DUP5 DUP5 SLOAD PUSH2 0x2C68 JUMP JUMPDEST DUP3 SSTORE POP POP POP POP JUMP JUMPDEST PUSH0 SWAP1 JUMP JUMPDEST PUSH2 0x2D1D PUSH2 0x2D11 JUMP JUMPDEST PUSH2 0x2D28 DUP2 DUP5 DUP5 PUSH2 0x2CEC JUMP JUMPDEST POP POP POP JUMP JUMPDEST JUMPDEST DUP2 DUP2 LT ISZERO PUSH2 0x2D4B JUMPI PUSH2 0x2D40 PUSH0 DUP3 PUSH2 0x2D15 JUMP JUMPDEST PUSH1 0x1 DUP2 ADD SWAP1 POP PUSH2 0x2D2E JUMP JUMPDEST POP POP JUMP JUMPDEST PUSH1 0x1F DUP3 GT ISZERO PUSH2 0x2D90 JUMPI PUSH2 0x2D61 DUP2 PUSH2 0x2C3B JUMP JUMPDEST PUSH2 0x2D6A DUP5 PUSH2 0x2C4D JUMP JUMPDEST DUP2 ADD PUSH1 0x20 DUP6 LT ISZERO PUSH2 0x2D79 JUMPI DUP2 SWAP1 POP JUMPDEST PUSH2 0x2D8D PUSH2 0x2D85 DUP6 PUSH2 0x2C4D JUMP JUMPDEST DUP4 ADD DUP3 PUSH2 0x2D2D JUMP JUMPDEST POP POP JUMPDEST POP POP POP JUMP JUMPDEST PUSH0 DUP3 DUP3 SHR SWAP1 POP SWAP3 SWAP2 POP POP JUMP JUMPDEST PUSH0 PUSH2 0x2DB0 PUSH0 NOT DUP5 PUSH1 0x8 MUL PUSH2 0x2D95 JUMP JUMPDEST NOT DUP1 DUP4 AND SWAP2 POP POP SWAP3 SWAP2 POP POP JUMP JUMPDEST PUSH0 PUSH2 0x2DC8 DUP4 DUP4 PUSH2 0x2DA1 JUMP JUMPDEST SWAP2 POP DUP3 PUSH1 0x2 MUL DUP3 OR SWAP1 POP SWAP3 SWAP2 POP POP JUMP JUMPDEST PUSH2 0x2DE1 DUP3 PUSH2 0x21BC JUMP JUMPDEST PUSH8 0xFFFFFFFFFFFFFFFF DUP2 GT ISZERO PUSH2 0x2DFA JUMPI PUSH2 0x2DF9 PUSH2 0x25BA JUMP JUMPDEST JUMPDEST PUSH2 0x2E04 DUP3 SLOAD PUSH2 0x2990 JUMP JUMPDEST PUSH2 0x2E0F DUP3 DUP3 DUP6 PUSH2 0x2D4F JUMP JUMPDEST PUSH0 PUSH1 0x20 SWAP1 POP PUSH1 0x1F DUP4 GT PUSH1 0x1 DUP2 EQ PUSH2 0x2E40 JUMPI PUSH0 DUP5 ISZERO PUSH2 0x2E2E JUMPI DUP3 DUP8 ADD MLOAD SWAP1 POP JUMPDEST PUSH2 0x2E38 DUP6 DUP3 PUSH2 0x2DBD JUMP JUMPDEST DUP7 SSTORE POP PUSH2 0x2E9F JUMP JUMPDEST PUSH1 0x1F NOT DUP5 AND PUSH2 0x2E4E DUP7 PUSH2 0x2C3B JUMP JUMPDEST PUSH0 JUMPDEST DUP3 DUP2 LT ISZERO PUSH2 0x2E75 JUMPI DUP5 DUP10 ADD MLOAD DUP3 SSTORE PUSH1 0x1 DUP3 ADD SWAP2 POP PUSH1 0x20 DUP6 ADD SWAP5 POP PUSH1 0x20 DUP2 ADD SWAP1 POP PUSH2 0x2E50 JUMP JUMPDEST DUP7 DUP4 LT ISZERO PUSH2 0x2E92 JUMPI DUP5 DUP10 ADD MLOAD PUSH2 0x2E8E PUSH1 0x1F DUP10 AND DUP3 PUSH2 0x2DA1 JUMP JUMPDEST DUP4 SSTORE POP JUMPDEST PUSH1 0x1 PUSH1 0x2 DUP9 MUL ADD DUP9 SSTORE POP POP POP JUMPDEST POP POP POP POP POP POP JUMP INVALID LOG2 PUSH5 0x6970667358 0x22 SLT KECCAK256 0xE0 PUSH9 0x9D39F80A700658292 0xD SAR DUP8 SWAP11 0xE3 0xC2 PUSH27 0xF9CB995BECA63C3B95262BD5DD3264736F6C634300081800330000 "
				},
				"gasEstimates": {
					"creation": {
						"codeDepositCost": "2399400",
						"executionCost": "infinite",
						"totalCost": "infinite"
					},
					"external": {
						"approve(address,uint256)": "infinite",
						"balanceOf(address)": "infinite",
						"getApproved(uint256)": "infinite",
						"isApprovedForAll(address,address)": "infinite",
						"name()": "infinite",
						"owner()": "2582",
						"ownerOf(uint256)": "infinite",
						"renounceOwnership()": "infinite",
						"safeMint(address,uint256)": "infinite",
						"safeTransferFrom(address,address,uint256)": "infinite",
						"safeTransferFrom(address,address,uint256,bytes)": "infinite",
						"scriptURI()": "infinite",
						"setApprovalForAll(address,bool)": "infinite",
						"setScriptURI(string[])": "infinite",
						"supportsInterface(bytes4)": "1005",
						"symbol()": "infinite",
						"tokenByIndex(uint256)": "infinite",
						"tokenOfOwnerByIndex(address,uint256)": "infinite",
						"tokenURI(uint256)": "infinite",
						"totalSupply()": "2552",
						"transferFrom(address,address,uint256)": "infinite",
						"transferOwnership(address)": "infinite"
					},
					"internal": {
						"_authorizeSetScripts(string memory[] memory)": "infinite"
					}
				},
				"methodIdentifiers": {
					"approve(address,uint256)": "095ea7b3",
					"balanceOf(address)": "70a08231",
					"getApproved(uint256)": "081812fc",
					"isApprovedForAll(address,address)": "e985e9c5",
					"name()": "06fdde03",
					"owner()": "8da5cb5b",
					"ownerOf(uint256)": "6352211e",
					"renounceOwnership()": "715018a6",
					"safeMint(address,uint256)": "a1448194",
					"safeTransferFrom(address,address,uint256)": "42842e0e",
					"safeTransferFrom(address,address,uint256,bytes)": "b88d4fde",
					"scriptURI()": "4bb30912",
					"setApprovalForAll(address,bool)": "a22cb465",
					"setScriptURI(string[])": "e3d61eb3",
					"supportsInterface(bytes4)": "01ffc9a7",
					"symbol()": "95d89b41",
					"tokenByIndex(uint256)": "4f6ccce7",
					"tokenOfOwnerByIndex(address,uint256)": "2f745c59",
					"tokenURI(uint256)": "c87b56dd",
					"totalSupply()": "18160ddd",
					"transferFrom(address,address,uint256)": "23b872dd",
					"transferOwnership(address)": "f2fde38b"
				}
			},
			"storageLayout": {
				"storage": [
					{
						"astId": 8,
						"contract": "contracts/MyToken.sol:ERC721Mint",
						"label": "_owner",
						"offset": 0,
						"slot": "0",
						"type": "t_address"
					},
					{
						"astId": 3432,
						"contract": "contracts/MyToken.sol:ERC721Mint",
						"label": "_scriptURI",
						"offset": 0,
						"slot": "1",
						"type": "t_array(t_string_storage)dyn_storage"
					},
					{
						"astId": 317,
						"contract": "contracts/MyToken.sol:ERC721Mint",
						"label": "_name",
						"offset": 0,
						"slot": "2",
						"type": "t_string_storage"
					},
					{
						"astId": 319,
						"contract": "contracts/MyToken.sol:ERC721Mint",
						"label": "_symbol",
						"offset": 0,
						"slot": "3",
						"type": "t_string_storage"
					},
					{
						"astId": 323,
						"contract": "contracts/MyToken.sol:ERC721Mint",
						"label": "_owners",
						"offset": 0,
						"slot": "4",
						"type": "t_mapping(t_uint256,t_address)"
					},
					{
						"astId": 327,
						"contract": "contracts/MyToken.sol:ERC721Mint",
						"label": "_balances",
						"offset": 0,
						"slot": "5",
						"type": "t_mapping(t_address,t_uint256)"
					},
					{
						"astId": 331,
						"contract": "contracts/MyToken.sol:ERC721Mint",
						"label": "_tokenApprovals",
						"offset": 0,
						"slot": "6",
						"type": "t_mapping(t_uint256,t_address)"
					},
					{
						"astId": 337,
						"contract": "contracts/MyToken.sol:ERC721Mint",
						"label": "_operatorApprovals",
						"offset": 0,
						"slot": "7",
						"type": "t_mapping(t_address,t_mapping(t_address,t_bool))"
					},
					{
						"astId": 1447,
						"contract": "contracts/MyToken.sol:ERC721Mint",
						"label": "_ownedTokens",
						"offset": 0,
						"slot": "8",
						"type": "t_mapping(t_address,t_mapping(t_uint256,t_uint256))"
					},
					{
						"astId": 1451,
						"contract": "contracts/MyToken.sol:ERC721Mint",
						"label": "_ownedTokensIndex",
						"offset": 0,
						"slot": "9",
						"type": "t_mapping(t_uint256,t_uint256)"
					},
					{
						"astId": 1454,
						"contract": "contracts/MyToken.sol:ERC721Mint",
						"label": "_allTokens",
						"offset": 0,
						"slot": "10",
						"type": "t_array(t_uint256)dyn_storage"
					},
					{
						"astId": 1458,
						"contract": "contracts/MyToken.sol:ERC721Mint",
						"label": "_allTokensIndex",
						"offset": 0,
						"slot": "11",
						"type": "t_mapping(t_uint256,t_uint256)"
					}
				],
				"types": {
					"t_address": {
						"encoding": "inplace",
						"label": "address",
						"numberOfBytes": "20"
					},
					"t_array(t_string_storage)dyn_storage": {
						"base": "t_string_storage",
						"encoding": "dynamic_array",
						"label": "string[]",
						"numberOfBytes": "32"
					},
					"t_array(t_uint256)dyn_storage": {
						"base": "t_uint256",
						"encoding": "dynamic_array",
						"label": "uint256[]",
						"numberOfBytes": "32"
					},
					"t_bool": {
						"encoding": "inplace",
						"label": "bool",
						"numberOfBytes": "1"
					},
					"t_mapping(t_address,t_bool)": {
						"encoding": "mapping",
						"key": "t_address",
						"label": "mapping(address => bool)",
						"numberOfBytes": "32",
						"value": "t_bool"
					},
					"t_mapping(t_address,t_mapping(t_address,t_bool))": {
						"encoding": "mapping",
						"key": "t_address",
						"label": "mapping(address => mapping(address => bool))",
						"numberOfBytes": "32",
						"value": "t_mapping(t_address,t_bool)"
					},
					"t_mapping(t_address,t_mapping(t_uint256,t_uint256))": {
						"encoding": "mapping",
						"key": "t_address",
						"label": "mapping(address => mapping(uint256 => uint256))",
						"numberOfBytes": "32",
						"value": "t_mapping(t_uint256,t_uint256)"
					},
					"t_mapping(t_address,t_uint256)": {
						"encoding": "mapping",
						"key": "t_address",
						"label": "mapping(address => uint256)",
						"numberOfBytes": "32",
						"value": "t_uint256"
					},
					"t_mapping(t_uint256,t_address)": {
						"encoding": "mapping",
						"key": "t_uint256",
						"label": "mapping(uint256 => address)",
						"numberOfBytes": "32",
						"value": "t_address"
					},
					"t_mapping(t_uint256,t_uint256)": {
						"encoding": "mapping",
						"key": "t_uint256",
						"label": "mapping(uint256 => uint256)",
						"numberOfBytes": "32",
						"value": "t_uint256"
					},
					"t_string_storage": {
						"encoding": "bytes",
						"label": "string",
						"numberOfBytes": "32"
					},
					"t_uint256": {
						"encoding": "inplace",
						"label": "uint256",
						"numberOfBytes": "32"
					}
				}
			},
			"userdoc": {
				"kind": "user",
				"methods": {
					"scriptURI()": {
						"notice": "Get the scriptURI for the contract"
					}
				},
				"version": 1
			}
		}
	}
}